{
  "_format": "hh-sol-artifact-1",
  "contractName": "PaymentGatewayContract",
  "sourceName": "src/blockchain/hardhat/contracts/PaymentGatewayContract.sol",
  "abi": [
    {
      "inputs": [
        {
          "internalType": "address",
          "name": "_cosmoContract",
          "type": "address"
        }
      ],
      "stateMutability": "nonpayable",
      "type": "constructor"
    },
    {
      "anonymous": false,
      "inputs": [
        {
          "indexed": true,
          "internalType": "bytes32",
          "name": "id",
          "type": "bytes32"
        }
      ],
      "name": "ChainlinkCancelled",
      "type": "event"
    },
    {
      "anonymous": false,
      "inputs": [
        {
          "indexed": true,
          "internalType": "bytes32",
          "name": "id",
          "type": "bytes32"
        }
      ],
      "name": "ChainlinkFulfilled",
      "type": "event"
    },
    {
      "anonymous": false,
      "inputs": [
        {
          "indexed": true,
          "internalType": "bytes32",
          "name": "id",
          "type": "bytes32"
        }
      ],
      "name": "ChainlinkRequested",
      "type": "event"
    },
    {
      "anonymous": false,
      "inputs": [
        {
          "indexed": true,
          "internalType": "address",
          "name": "from",
          "type": "address"
        },
        {
          "indexed": true,
          "internalType": "address",
          "name": "to",
          "type": "address"
        }
      ],
      "name": "OwnershipTransferRequested",
      "type": "event"
    },
    {
      "anonymous": false,
      "inputs": [
        {
          "indexed": true,
          "internalType": "address",
          "name": "from",
          "type": "address"
        },
        {
          "indexed": true,
          "internalType": "address",
          "name": "to",
          "type": "address"
        }
      ],
      "name": "OwnershipTransferred",
      "type": "event"
    },
    {
      "anonymous": false,
      "inputs": [
        {
          "indexed": true,
          "internalType": "bytes32",
          "name": "requestId",
          "type": "bytes32"
        },
        {
          "indexed": true,
          "internalType": "string",
          "name": "response",
          "type": "string"
        }
      ],
      "name": "RequestForInfoFulfilled",
      "type": "event"
    },
    {
      "inputs": [],
      "name": "acceptOwnership",
      "outputs": [],
      "stateMutability": "nonpayable",
      "type": "function"
    },
    {
      "inputs": [],
      "name": "account",
      "outputs": [
        {
          "internalType": "address",
          "name": "",
          "type": "address"
        }
      ],
      "stateMutability": "view",
      "type": "function"
    },
    {
      "inputs": [],
      "name": "amount",
      "outputs": [
        {
          "internalType": "uint256",
          "name": "",
          "type": "uint256"
        }
      ],
      "stateMutability": "view",
      "type": "function"
    },
    {
      "inputs": [
        {
          "internalType": "bytes32",
          "name": "_requestId",
          "type": "bytes32"
        },
        {
          "internalType": "uint256",
          "name": "_payment",
          "type": "uint256"
        },
        {
          "internalType": "bytes4",
          "name": "_callbackFunctionId",
          "type": "bytes4"
        },
        {
          "internalType": "uint256",
          "name": "_expiration",
          "type": "uint256"
        }
      ],
      "name": "cancelRequest",
      "outputs": [],
      "stateMutability": "nonpayable",
      "type": "function"
    },
    {
      "inputs": [],
      "name": "contractBalances",
      "outputs": [
        {
          "internalType": "uint256",
          "name": "eth",
          "type": "uint256"
        },
        {
          "internalType": "uint256",
          "name": "link",
          "type": "uint256"
        }
      ],
      "stateMutability": "view",
      "type": "function"
    },
    {
      "inputs": [],
      "name": "erc777",
      "outputs": [
        {
          "internalType": "contract ERC777",
          "name": "",
          "type": "address"
        }
      ],
      "stateMutability": "view",
      "type": "function"
    },
    {
      "inputs": [
        {
          "internalType": "bytes32",
          "name": "_requestId",
          "type": "bytes32"
        },
        {
          "internalType": "string",
          "name": "_info",
          "type": "string"
        }
      ],
      "name": "fulfillRequestInfo",
      "outputs": [],
      "stateMutability": "nonpayable",
      "type": "function"
    },
    {
      "inputs": [],
      "name": "getChainlinkToken",
      "outputs": [
        {
          "internalType": "address",
          "name": "",
          "type": "address"
        }
      ],
      "stateMutability": "view",
      "type": "function"
    },
    {
      "inputs": [],
      "name": "lastRetrievedInfo",
      "outputs": [
        {
          "internalType": "string",
          "name": "",
          "type": "string"
        }
      ],
      "stateMutability": "view",
      "type": "function"
    },
    {
      "inputs": [],
      "name": "owner",
      "outputs": [
        {
          "internalType": "address",
          "name": "",
          "type": "address"
        }
      ],
      "stateMutability": "view",
      "type": "function"
    },
    {
      "inputs": [
        {
          "internalType": "address",
          "name": "_oracle",
          "type": "address"
        },
        {
          "internalType": "string",
          "name": "_jobId",
          "type": "string"
        },
        {
          "internalType": "string",
          "name": "email",
          "type": "string"
        },
        {
          "internalType": "uint256",
          "name": "value",
          "type": "uint256"
        },
        {
          "internalType": "string",
          "name": "valor",
          "type": "string"
        }
      ],
      "name": "requestPayOut",
      "outputs": [],
      "stateMutability": "nonpayable",
      "type": "function"
    },
    {
      "inputs": [
        {
          "internalType": "address",
          "name": "_operator",
          "type": "address"
        },
        {
          "internalType": "address",
          "name": "_from",
          "type": "address"
        },
        {
          "internalType": "address",
          "name": "_to",
          "type": "address"
        },
        {
          "internalType": "uint256",
          "name": "_amount",
          "type": "uint256"
        },
        {
          "internalType": "bytes",
          "name": "_userData",
          "type": "bytes"
        },
        {
          "internalType": "bytes",
          "name": "_operatorData",
          "type": "bytes"
        }
      ],
      "name": "tokensReceived",
      "outputs": [],
      "stateMutability": "nonpayable",
      "type": "function"
    },
    {
      "inputs": [
        {
          "internalType": "address",
          "name": "to",
          "type": "address"
        }
      ],
      "name": "transferOwnership",
      "outputs": [],
      "stateMutability": "nonpayable",
      "type": "function"
    },
    {
      "inputs": [],
      "name": "withdrawBalance",
      "outputs": [],
      "stateMutability": "nonpayable",
      "type": "function"
    },
    {
      "inputs": [],
      "name": "withdrawLink",
      "outputs": [],
      "stateMutability": "nonpayable",
      "type": "function"
    },
    {
      "inputs": [],
      "name": "withdrawTokens",
      "outputs": [],
      "stateMutability": "nonpayable",
      "type": "function"
    }
  ],
  "bytecode": "0x60c060405260016005553480156200001657600080fd5b506040516200334e3803806200334e83398181016040528101906200003c91906200049a565b3380600083731820a4b7618bde71dce8cdc73aab6c95905fad2473ffffffffffffffffffffffffffffffffffffffff166329965a1d307fb281fc8c12954d22544db45de3159a39272895b169a852b314f9cc762e44c53b306040518463ffffffff1660e01b8152600401620000b493929190620004f8565b600060405180830381600087803b158015620000cf57600080fd5b505af1158015620000e4573d6000803e3d6000fd5b505050508073ffffffffffffffffffffffffffffffffffffffff1660808173ffffffffffffffffffffffffffffffffffffffff16815250503373ffffffffffffffffffffffffffffffffffffffff1660a08173ffffffffffffffffffffffffffffffffffffffff168152505050600073ffffffffffffffffffffffffffffffffffffffff168273ffffffffffffffffffffffffffffffffffffffff1603620001c3576040517f08c379a0000000000000000000000000000000000000000000000000000000008152600401620001ba9062000596565b60405180910390fd5b81600760006101000a81548173ffffffffffffffffffffffffffffffffffffffff021916908373ffffffffffffffffffffffffffffffffffffffff160217905550600073ffffffffffffffffffffffffffffffffffffffff168173ffffffffffffffffffffffffffffffffffffffff16146200024b576200024a81620002bb60201b60201c565b5b50505062000273730b9d5d9136855f6fec3c0993fee6e9ce8a297846620003ec60201b60201c565b80600960006101000a81548173ffffffffffffffffffffffffffffffffffffffff021916908373ffffffffffffffffffffffffffffffffffffffff160217905550506200062a565b3373ffffffffffffffffffffffffffffffffffffffff168173ffffffffffffffffffffffffffffffffffffffff16036200032c576040517f08c379a0000000000000000000000000000000000000000000000000000000008152600401620003239062000608565b60405180910390fd5b80600860006101000a81548173ffffffffffffffffffffffffffffffffffffffff021916908373ffffffffffffffffffffffffffffffffffffffff1602179055508073ffffffffffffffffffffffffffffffffffffffff16600760009054906101000a900473ffffffffffffffffffffffffffffffffffffffff1673ffffffffffffffffffffffffffffffffffffffff167fed8889f560326eb138920d842192f0eb3dd22b4f139c87a2c57538e05bae127860405160405180910390a350565b80600360006101000a81548173ffffffffffffffffffffffffffffffffffffffff021916908373ffffffffffffffffffffffffffffffffffffffff16021790555050565b600080fd5b600073ffffffffffffffffffffffffffffffffffffffff82169050919050565b6000620004628262000435565b9050919050565b620004748162000455565b81146200048057600080fd5b50565b600081519050620004948162000469565b92915050565b600060208284031215620004b357620004b262000430565b5b6000620004c38482850162000483565b91505092915050565b620004d78162000455565b82525050565b6000819050919050565b620004f281620004dd565b82525050565b60006060820190506200050f6000830186620004cc565b6200051e6020830185620004e7565b6200052d6040830184620004cc565b949350505050565b600082825260208201905092915050565b7f43616e6e6f7420736574206f776e657220746f207a65726f0000000000000000600082015250565b60006200057e60188362000535565b91506200058b8262000546565b602082019050919050565b60006020820190508181036000830152620005b1816200056f565b9050919050565b7f43616e6e6f74207472616e7366657220746f2073656c66000000000000000000600082015250565b6000620005f060178362000535565b9150620005fd82620005b8565b602082019050919050565b600060208201905081810360008301526200062381620005e1565b9050919050565b60805160a051612cf06200065e60003960006103510152600081816106fe01528181610bdb0152610cef0152612cf06000f3fe608060405234801561001057600080fd5b50600436106100ff5760003560e01c80638da5cb5b116100975780639e8e4d1d116100665780639e8e4d1d14610217578063aa8c217c14610235578063ec65d0f814610253578063f2fde38b1461026f576100ff565b80638da5cb5b146101b55780638dc654a2146101d357806392bb9e18146101dd57806399fbe43e146101fb576100ff565b80635fd8c710116100d35780635fd8c7101461017b5780637642d3751461018557806379ba5097146101a15780638d8f2adb146101ab576100ff565b806223de2914610104578063165d35e1146101205780632163885a1461013e5780635dab24201461015d575b600080fd5b61011e60048036038101906101199190611992565b61028b565b005b6101286102ad565b6040516101359190611a70565b60405180910390f35b6101466102bc565b604051610154929190611a9a565b60405180910390f35b61016561034f565b6040516101729190611a70565b60405180910390f35b610183610373565b005b61019f600480360381019061019a9190611c3a565b6103c4565b005b6101a9610521565b005b6101b36106b8565b005b6101bd610796565b6040516101ca9190611a70565b60405180910390f35b6101db6107c0565b005b6101e561090d565b6040516101f29190611d1e565b60405180910390f35b61021560048036038101906102109190611d40565b61099b565b005b61021f610bd9565b60405161022c9190611e6e565b60405180910390f35b61023d610bfd565b60405161024a9190611e89565b60405180910390f35b61026d60048036038101906102689190611efc565b610c03565b005b61028960048036038101906102849190611f63565b610c1d565b005b8460008082825461029c9190611fbf565b925050819055505050505050505050565b60006102b7610c31565b905090565b60008047915060006102cc610c31565b90508073ffffffffffffffffffffffffffffffffffffffff166370a08231306040518263ffffffff1660e01b81526004016103079190611a70565b602060405180830381865afa158015610324573d6000803e3d6000fd5b505050506040513d601f19601f82011682018060405250810190610348919061202a565b9150509091565b7f000000000000000000000000000000000000000000000000000000000000000081565b61037b610c5b565b3373ffffffffffffffffffffffffffffffffffffffff166108fc479081150290604051600060405180830381858888f193505050501580156103c1573d6000803e3d6000fd5b50565b816006600082815260200190815260200160002060009054906101000a900473ffffffffffffffffffffffffffffffffffffffff1673ffffffffffffffffffffffffffffffffffffffff163373ffffffffffffffffffffffffffffffffffffffff1614610466576040517f08c379a000000000000000000000000000000000000000000000000000000000815260040161045d906120c9565b60405180910390fd5b6006600082815260200190815260200160002060006101000a81549073ffffffffffffffffffffffffffffffffffffffff0219169055807f7cc135e0cebb02c3480ae5d74d377283180a2601f8f644edf7987b009316c63a60405160405180910390a2816040516104d79190612125565b6040518091039020837f05d0ea3a4c0dc17f032ba24393c968625c8648a6d6afc1053e8765b0c9519d5a60405160405180910390a381600a908161051b919061233e565b50505050565b600860009054906101000a900473ffffffffffffffffffffffffffffffffffffffff1673ffffffffffffffffffffffffffffffffffffffff163373ffffffffffffffffffffffffffffffffffffffff16146105b1576040517f08c379a00000000000000000000000000000000000000000000000000000000081526004016105a89061245c565b60405180910390fd5b6000600760009054906101000a900473ffffffffffffffffffffffffffffffffffffffff16905033600760006101000a81548173ffffffffffffffffffffffffffffffffffffffff021916908373ffffffffffffffffffffffffffffffffffffffff1602179055506000600860006101000a81548173ffffffffffffffffffffffffffffffffffffffff021916908373ffffffffffffffffffffffffffffffffffffffff1602179055503373ffffffffffffffffffffffffffffffffffffffff168173ffffffffffffffffffffffffffffffffffffffff167f8be0079c531659141344cd1fd0a4f28419497f9722a3daafe3b4186f6b6457e060405160405180910390a350565b60008054116106fc576040517f08c379a00000000000000000000000000000000000000000000000000000000081526004016106f3906124c8565b60405180910390fd5b7f000000000000000000000000000000000000000000000000000000000000000073ffffffffffffffffffffffffffffffffffffffff166362ad1b8330336000546040518463ffffffff1660e01b815260040161075b9392919061251f565b600060405180830381600087803b15801561077557600080fd5b505af1158015610789573d6000803e3d6000fd5b5050505060008081905550565b6000600760009054906101000a900473ffffffffffffffffffffffffffffffffffffffff16905090565b6107c8610c5b565b60006107d2610c31565b90508073ffffffffffffffffffffffffffffffffffffffff1663a9059cbb338373ffffffffffffffffffffffffffffffffffffffff166370a08231306040518263ffffffff1660e01b815260040161082a9190611a70565b602060405180830381865afa158015610847573d6000803e3d6000fd5b505050506040513d601f19601f8201168201806040525081019061086b919061202a565b6040518363ffffffff1660e01b815260040161088892919061257c565b6020604051808303816000875af11580156108a7573d6000803e3d6000fd5b505050506040513d601f19601f820116820180604052508101906108cb91906125dd565b61090a576040517f08c379a000000000000000000000000000000000000000000000000000000000815260040161090190612656565b60405180910390fd5b50565b600a805461091a9061216b565b80601f01602080910402602001604051908101604052809291908181526020018280546109469061216b565b80156109935780601f1061096857610100808354040283529160200191610993565b820191906000526020600020905b81548152906001019060200180831161097657829003601f168201915b505050505081565b81600960009054906101000a900473ffffffffffffffffffffffffffffffffffffffff1673ffffffffffffffffffffffffffffffffffffffff1663f38e266a336040518263ffffffff1660e01b81526004016109f79190611a70565b602060405180830381865afa158015610a14573d6000803e3d6000fd5b505050506040513d601f19601f82011682018060405250810190610a38919061202a565b11610a78576040517f08c379a0000000000000000000000000000000000000000000000000000000008152600401610a6f906126c2565b60405180910390fd5b610a8182610ced565b6000610a9c610a8f86610d97565b637642d37560e01b610dc0565b9050610ae86040518060400160405280600581526020017f656d61696c0000000000000000000000000000000000000000000000000000008152508583610df09092919063ffffffff16565b610b326040518060400160405280600581526020017f76616c75650000000000000000000000000000000000000000000000000000008152508383610df09092919063ffffffff16565b610bb16040518060400160405280600981526020017f686173685472616e7800000000000000000000000000000000000000000000008152506040518060400160405280600c81526020017f706f72496d706c656e746172000000000000000000000000000000000000000081525083610df09092919063ffffffff16565b610bd08682670de0b6b3a76400006001610bcb91906126e2565b610e23565b50505050505050565b7f000000000000000000000000000000000000000000000000000000000000000081565b60005481565b610c0b610c5b565b610c1784848484610eed565b50505050565b610c25610c5b565b610c2e81611000565b50565b6000600360009054906101000a900473ffffffffffffffffffffffffffffffffffffffff16905090565b600760009054906101000a900473ffffffffffffffffffffffffffffffffffffffff1673ffffffffffffffffffffffffffffffffffffffff163373ffffffffffffffffffffffffffffffffffffffff1614610ceb576040517f08c379a0000000000000000000000000000000000000000000000000000000008152600401610ce290612788565b60405180910390fd5b565b7f000000000000000000000000000000000000000000000000000000000000000073ffffffffffffffffffffffffffffffffffffffff166362ad1b833330846040518463ffffffff1660e01b8152600401610d4a9392919061251f565b600060405180830381600087803b158015610d6457600080fd5b505af1158015610d78573d6000803e3d6000fd5b5050505080600080828254610d8d9190611fbf565b9250508190555050565b6000808290506000815103610db2576000801b915050610dbb565b60208301519150505b919050565b610dc86117fe565b610dd06117fe565b610de78430858461112e909392919063ffffffff16565b91505092915050565b610e078284608001516111de90919063ffffffff16565b610e1e8184608001516111de90919063ffffffff16565b505050565b6000806005549050600181610e389190611fbf565b6005819055506000633c6d41b960e01b600080876000015188604001518660028b6080015160000151604051602401610e77979695949392919061280a565b604051602081830303815290604052907bffffffffffffffffffffffffffffffffffffffffffffffffffffffff19166020820180517bffffffffffffffffffffffffffffffffffffffffffffffffffffffff83818316178352505050509050610ee286838684611203565b925050509392505050565b60006006600086815260200190815260200160002060009054906101000a900473ffffffffffffffffffffffffffffffffffffffff1690506006600086815260200190815260200160002060006101000a81549073ffffffffffffffffffffffffffffffffffffffff0219169055847fe1fe3afa0f7f761ff0a8b89086790efd5140d2907ebd5b7ff6bfcb5e075fd4c560405160405180910390a28073ffffffffffffffffffffffffffffffffffffffff16636ee4d553868686866040518563ffffffff1660e01b8152600401610fc79493929190612880565b600060405180830381600087803b158015610fe157600080fd5b505af1158015610ff5573d6000803e3d6000fd5b505050505050505050565b3373ffffffffffffffffffffffffffffffffffffffff168173ffffffffffffffffffffffffffffffffffffffff160361106e576040517f08c379a000000000000000000000000000000000000000000000000000000000815260040161106590612911565b60405180910390fd5b80600860006101000a81548173ffffffffffffffffffffffffffffffffffffffff021916908373ffffffffffffffffffffffffffffffffffffffff1602179055508073ffffffffffffffffffffffffffffffffffffffff16600760009054906101000a900473ffffffffffffffffffffffffffffffffffffffff1673ffffffffffffffffffffffffffffffffffffffff167fed8889f560326eb138920d842192f0eb3dd22b4f139c87a2c57538e05bae127860405160405180910390a350565b6111366117fe565b6111468560800151610100611398565b508385600001818152505082856020019073ffffffffffffffffffffffffffffffffffffffff16908173ffffffffffffffffffffffffffffffffffffffff16815250508185604001907bffffffffffffffffffffffffffffffffffffffffffffffffffffffff191690817bffffffffffffffffffffffffffffffffffffffffffffffffffffffff191681525050849050949350505050565b6111eb8260038351611402565b6111fe818361158790919063ffffffff16565b505050565b600030846040516020016112189291906129ac565b604051602081830303815290604052805190602001209050846006600083815260200190815260200160002060006101000a81548173ffffffffffffffffffffffffffffffffffffffff021916908373ffffffffffffffffffffffffffffffffffffffff160217905550807fb5e6e01e79f91267dc17b4e6314d5d4d03593d2ceee0fbb452b750bd70ea5af960405160405180910390a2600360009054906101000a900473ffffffffffffffffffffffffffffffffffffffff1673ffffffffffffffffffffffffffffffffffffffff16634000aea08685856040518463ffffffff1660e01b815260040161130e939291906129d8565b6020604051808303816000875af115801561132d573d6000803e3d6000fd5b505050506040513d601f19601f8201168201806040525081019061135191906125dd565b611390576040517f08c379a000000000000000000000000000000000000000000000000000000000815260040161138790612a88565b60405180910390fd5b949350505050565b6113a061186b565b60006020836113af9190612ad7565b146113db576020826113c19190612ad7565b60206113cd9190612b08565b826113d89190611fbf565b91505b81836020018181525050604051808452600081528281016020016040525082905092915050565b60178167ffffffffffffffff1611611439576114338160058460ff16901b60ff1617846115a990919063ffffffff16565b50611582565b60ff8167ffffffffffffffff161161148f57611468601860058460ff16901b17846115a990919063ffffffff16565b506114898167ffffffffffffffff166001856115c99092919063ffffffff16565b50611581565b61ffff8167ffffffffffffffff16116114e6576114bf601960058460ff16901b17846115a990919063ffffffff16565b506114e08167ffffffffffffffff166002856115c99092919063ffffffff16565b50611580565b63ffffffff8167ffffffffffffffff161161153f57611518601a60058460ff16901b17846115a990919063ffffffff16565b506115398167ffffffffffffffff166004856115c99092919063ffffffff16565b5061157f565b61155c601b60058460ff16901b17846115a990919063ffffffff16565b5061157d8167ffffffffffffffff166008856115c99092919063ffffffff16565b505b5b5b5b505050565b61158f61186b565b6115a1838460000151518485516115eb565b905092915050565b6115b161186b565b6115c183846000015151846116da565b905092915050565b6115d161186b565b6115e2848560000151518585611730565b90509392505050565b6115f361186b565b825182111561160157600080fd5b846020015182856116129190611fbf565b111561164757611646856002611637886020015188876116329190611fbf565b6117be565b61164191906126e2565b6117da565b5b6000808651805187602083010193508088870111156116665787860182525b60208701925050505b602084106116ad57805182526020826116889190611fbf565b91506020816116979190611fbf565b90506020846116a69190612b08565b935061166f565b60006001856020036101000a03905080198251168184511681811785525050508692505050949350505050565b6116e261186b565b8360200151831061170857611707846002866020015161170291906126e2565b6117da565b5b83518051602085830101848153818603611723576001820183525b5050508390509392505050565b61173861186b565b846020015184836117499190611fbf565b11156117715761177085600286856117619190611fbf565b61176b91906126e2565b6117da565b5b60006001836101006117839190612c6f565b61178d9190612b08565b905085518386820101858319825116178152815185880111156117b05784870182525b505085915050949350505050565b6000818311156117d0578290506117d4565b8190505b92915050565b6000826000015190506117ed8383611398565b506117f88382611587565b50505050565b6040518060a0016040528060008019168152602001600073ffffffffffffffffffffffffffffffffffffffff16815260200160007bffffffffffffffffffffffffffffffffffffffffffffffffffffffff191681526020016000815260200161186561186b565b81525090565b604051806040016040528060608152602001600081525090565b6000604051905090565b600080fd5b600080fd5b600073ffffffffffffffffffffffffffffffffffffffff82169050919050565b60006118c482611899565b9050919050565b6118d4816118b9565b81146118df57600080fd5b50565b6000813590506118f1816118cb565b92915050565b6000819050919050565b61190a816118f7565b811461191557600080fd5b50565b60008135905061192781611901565b92915050565b600080fd5b600080fd5b600080fd5b60008083601f8401126119525761195161192d565b5b8235905067ffffffffffffffff81111561196f5761196e611932565b5b60208301915083600182028301111561198b5761198a611937565b5b9250929050565b60008060008060008060008060c0898b0312156119b2576119b161188f565b5b60006119c08b828c016118e2565b98505060206119d18b828c016118e2565b97505060406119e28b828c016118e2565b96505060606119f38b828c01611918565b955050608089013567ffffffffffffffff811115611a1457611a13611894565b5b611a208b828c0161193c565b945094505060a089013567ffffffffffffffff811115611a4357611a42611894565b5b611a4f8b828c0161193c565b92509250509295985092959890939650565b611a6a816118b9565b82525050565b6000602082019050611a856000830184611a61565b92915050565b611a94816118f7565b82525050565b6000604082019050611aaf6000830185611a8b565b611abc6020830184611a8b565b9392505050565b6000819050919050565b611ad681611ac3565b8114611ae157600080fd5b50565b600081359050611af381611acd565b92915050565b600080fd5b6000601f19601f8301169050919050565b7f4e487b7100000000000000000000000000000000000000000000000000000000600052604160045260246000fd5b611b4782611afe565b810181811067ffffffffffffffff82111715611b6657611b65611b0f565b5b80604052505050565b6000611b79611885565b9050611b858282611b3e565b919050565b600067ffffffffffffffff821115611ba557611ba4611b0f565b5b611bae82611afe565b9050602081019050919050565b82818337600083830152505050565b6000611bdd611bd884611b8a565b611b6f565b905082815260208101848484011115611bf957611bf8611af9565b5b611c04848285611bbb565b509392505050565b600082601f830112611c2157611c2061192d565b5b8135611c31848260208601611bca565b91505092915050565b60008060408385031215611c5157611c5061188f565b5b6000611c5f85828601611ae4565b925050602083013567ffffffffffffffff811115611c8057611c7f611894565b5b611c8c85828601611c0c565b9150509250929050565b600081519050919050565b600082825260208201905092915050565b60005b83811015611cd0578082015181840152602081019050611cb5565b83811115611cdf576000848401525b50505050565b6000611cf082611c96565b611cfa8185611ca1565b9350611d0a818560208601611cb2565b611d1381611afe565b840191505092915050565b60006020820190508181036000830152611d388184611ce5565b905092915050565b600080600080600060a08688031215611d5c57611d5b61188f565b5b6000611d6a888289016118e2565b955050602086013567ffffffffffffffff811115611d8b57611d8a611894565b5b611d9788828901611c0c565b945050604086013567ffffffffffffffff811115611db857611db7611894565b5b611dc488828901611c0c565b9350506060611dd588828901611918565b925050608086013567ffffffffffffffff811115611df657611df5611894565b5b611e0288828901611c0c565b9150509295509295909350565b6000819050919050565b6000611e34611e2f611e2a84611899565b611e0f565b611899565b9050919050565b6000611e4682611e19565b9050919050565b6000611e5882611e3b565b9050919050565b611e6881611e4d565b82525050565b6000602082019050611e836000830184611e5f565b92915050565b6000602082019050611e9e6000830184611a8b565b92915050565b60007fffffffff0000000000000000000000000000000000000000000000000000000082169050919050565b611ed981611ea4565b8114611ee457600080fd5b50565b600081359050611ef681611ed0565b92915050565b60008060008060808587031215611f1657611f1561188f565b5b6000611f2487828801611ae4565b9450506020611f3587828801611918565b9350506040611f4687828801611ee7565b9250506060611f5787828801611918565b91505092959194509250565b600060208284031215611f7957611f7861188f565b5b6000611f87848285016118e2565b91505092915050565b7f4e487b7100000000000000000000000000000000000000000000000000000000600052601160045260246000fd5b6000611fca826118f7565b9150611fd5836118f7565b9250827fffffffffffffffffffffffffffffffffffffffffffffffffffffffffffffffff0382111561200a57612009611f90565b5b828201905092915050565b60008151905061202481611901565b92915050565b6000602082840312156120405761203f61188f565b5b600061204e84828501612015565b91505092915050565b7f536f75726365206d75737420626520746865206f7261636c65206f662074686560008201527f2072657175657374000000000000000000000000000000000000000000000000602082015250565b60006120b3602883611ca1565b91506120be82612057565b604082019050919050565b600060208201905081810360008301526120e2816120a6565b9050919050565b600081905092915050565b60006120ff82611c96565b61210981856120e9565b9350612119818560208601611cb2565b80840191505092915050565b600061213182846120f4565b915081905092915050565b7f4e487b7100000000000000000000000000000000000000000000000000000000600052602260045260246000fd5b6000600282049050600182168061218357607f821691505b6020821081036121965761219561213c565b5b50919050565b60008190508160005260206000209050919050565b60006020601f8301049050919050565b600082821b905092915050565b6000600883026121fe7fffffffffffffffffffffffffffffffffffffffffffffffffffffffffffffffff826121c1565b61220886836121c1565b95508019841693508086168417925050509392505050565b600061223b612236612231846118f7565b611e0f565b6118f7565b9050919050565b6000819050919050565b61225583612220565b61226961226182612242565b8484546121ce565b825550505050565b600090565b61227e612271565b61228981848461224c565b505050565b5b818110156122ad576122a2600082612276565b60018101905061228f565b5050565b601f8211156122f2576122c38161219c565b6122cc846121b1565b810160208510156122db578190505b6122ef6122e7856121b1565b83018261228e565b50505b505050565b600082821c905092915050565b6000612315600019846008026122f7565b1980831691505092915050565b600061232e8383612304565b9150826002028217905092915050565b61234782611c96565b67ffffffffffffffff8111156123605761235f611b0f565b5b61236a825461216b565b6123758282856122b1565b600060209050601f8311600181146123a85760008415612396578287015190505b6123a08582612322565b865550612408565b601f1984166123b68661219c565b60005b828110156123de578489015182556001820191506020850194506020810190506123b9565b868310156123fb57848901516123f7601f891682612304565b8355505b6001600288020188555050505b505050505050565b7f4d7573742062652070726f706f736564206f776e657200000000000000000000600082015250565b6000612446601683611ca1565b915061245182612410565b602082019050919050565b6000602082019050818103600083015261247581612439565b9050919050565b7f546865726520646f6e277420626520746f6b656e730000000000000000000000600082015250565b60006124b2601583611ca1565b91506124bd8261247c565b602082019050919050565b600060208201905081810360008301526124e1816124a5565b9050919050565b600082825260208201905092915050565b50565b60006125096000836124e8565b9150612514826124f9565b600082019050919050565b600060a0820190506125346000830186611a61565b6125416020830185611a61565b61254e6040830184611a8b565b818103606083015261255f816124fc565b90508181036080830152612572816124fc565b9050949350505050565b60006040820190506125916000830185611a61565b61259e6020830184611a8b565b9392505050565b60008115159050919050565b6125ba816125a5565b81146125c557600080fd5b50565b6000815190506125d7816125b1565b92915050565b6000602082840312156125f3576125f261188f565b5b6000612601848285016125c8565b91505092915050565b7f556e61626c6520746f207472616e73666572204c696e6b000000000000000000600082015250565b6000612640601783611ca1565b915061264b8261260a565b602082019050919050565b6000602082019050818103600083015261266f81612633565b9050919050565b7f496e73756666696369656e7420746f6b656e7300000000000000000000000000600082015250565b60006126ac601383611ca1565b91506126b782612676565b602082019050919050565b600060208201905081810360008301526126db8161269f565b9050919050565b60006126ed826118f7565b91506126f8836118f7565b9250817fffffffffffffffffffffffffffffffffffffffffffffffffffffffffffffffff048311821515161561273157612730611f90565b5b828202905092915050565b7f4f6e6c792063616c6c61626c65206279206f776e657200000000000000000000600082015250565b6000612772601683611ca1565b915061277d8261273c565b602082019050919050565b600060208201905081810360008301526127a181612765565b9050919050565b6127b181611ac3565b82525050565b6127c081611ea4565b82525050565b600081519050919050565b60006127dc826127c6565b6127e681856124e8565b93506127f6818560208601611cb2565b6127ff81611afe565b840191505092915050565b600060e08201905061281f600083018a611a61565b61282c6020830189611a8b565b61283960408301886127a8565b61284660608301876127b7565b6128536080830186611a8b565b61286060a0830185611a8b565b81810360c083015261287281846127d1565b905098975050505050505050565b600060808201905061289560008301876127a8565b6128a26020830186611a8b565b6128af60408301856127b7565b6128bc6060830184611a8b565b95945050505050565b7f43616e6e6f74207472616e7366657220746f2073656c66000000000000000000600082015250565b60006128fb601783611ca1565b9150612906826128c5565b602082019050919050565b6000602082019050818103600083015261292a816128ee565b9050919050565b600061293c82611e3b565b9050919050565b60008160601b9050919050565b600061295b82612943565b9050919050565b600061296d82612950565b9050919050565b61298561298082612931565b612962565b82525050565b6000819050919050565b6129a66129a1826118f7565b61298b565b82525050565b60006129b88285612974565b6014820191506129c88284612995565b6020820191508190509392505050565b60006060820190506129ed6000830186611a61565b6129fa6020830185611a8b565b8181036040830152612a0c81846127d1565b9050949350505050565b7f756e61626c6520746f207472616e73666572416e6443616c6c20746f206f726160008201527f636c650000000000000000000000000000000000000000000000000000000000602082015250565b6000612a72602383611ca1565b9150612a7d82612a16565b604082019050919050565b60006020820190508181036000830152612aa181612a65565b9050919050565b7f4e487b7100000000000000000000000000000000000000000000000000000000600052601260045260246000fd5b6000612ae2826118f7565b9150612aed836118f7565b925082612afd57612afc612aa8565b5b828206905092915050565b6000612b13826118f7565b9150612b1e836118f7565b925082821015612b3157612b30611f90565b5b828203905092915050565b60008160011c9050919050565b6000808291508390505b6001851115612b9357808604811115612b6f57612b6e611f90565b5b6001851615612b7e5780820291505b8081029050612b8c85612b3c565b9450612b53565b94509492505050565b600082612bac5760019050612c68565b81612bba5760009050612c68565b8160018114612bd05760028114612bda57612c09565b6001915050612c68565b60ff841115612bec57612beb611f90565b5b8360020a915084821115612c0357612c02611f90565b5b50612c68565b5060208310610133831016604e8410600b8410161715612c3e5782820a905083811115612c3957612c38611f90565b5b612c68565b612c4b8484846001612b49565b92509050818404811115612c6257612c61611f90565b5b81810290505b9392505050565b6000612c7a826118f7565b9150612c85836118f7565b9250612cb27fffffffffffffffffffffffffffffffffffffffffffffffffffffffffffffffff8484612b9c565b90509291505056fea2646970667358221220addd9230a1c7b9ad5ef7e5b856dfa2298372dc1d11b61b48f3f8ddfda2b698a764736f6c634300080f0033",
  "linkReferences": {},
  "deployedLinkReferences": {}
}