{
  "_format": "hh-sol-artifact-1",
  "contractName": "MarketplaceContract",
  "sourceName": "src/blockchain/hardhat/contracts/MarketplaceContract.sol",
  "abi": [
    {
      "inputs": [
        {
          "internalType": "address",
          "name": "_erc777Address",
          "type": "address"
        }
      ],
      "stateMutability": "nonpayable",
      "type": "constructor"
    },
    {
      "anonymous": false,
      "inputs": [
        {
          "indexed": true,
          "internalType": "address",
          "name": "owner",
          "type": "address"
        },
        {
          "indexed": true,
          "internalType": "address",
          "name": "approved",
          "type": "address"
        },
        {
          "indexed": true,
          "internalType": "uint256",
          "name": "tokenId",
          "type": "uint256"
        }
      ],
      "name": "Approval",
      "type": "event"
    },
    {
      "anonymous": false,
      "inputs": [
        {
          "indexed": true,
          "internalType": "address",
          "name": "owner",
          "type": "address"
        },
        {
          "indexed": true,
          "internalType": "address",
          "name": "operator",
          "type": "address"
        },
        {
          "indexed": false,
          "internalType": "bool",
          "name": "approved",
          "type": "bool"
        }
      ],
      "name": "ApprovalForAll",
      "type": "event"
    },
    {
      "anonymous": false,
      "inputs": [
        {
          "indexed": false,
          "internalType": "uint256",
          "name": "_itemId",
          "type": "uint256"
        },
        {
          "indexed": true,
          "internalType": "address",
          "name": "_nft",
          "type": "address"
        },
        {
          "indexed": false,
          "internalType": "uint256",
          "name": "_tokenId",
          "type": "uint256"
        },
        {
          "indexed": false,
          "internalType": "string",
          "name": "_tokenURI",
          "type": "string"
        },
        {
          "indexed": false,
          "internalType": "uint256",
          "name": "_price",
          "type": "uint256"
        },
        {
          "indexed": false,
          "internalType": "address",
          "name": "_artist",
          "type": "address"
        },
        {
          "indexed": false,
          "internalType": "uint256",
          "name": "_taxFee",
          "type": "uint256"
        },
        {
          "indexed": false,
          "internalType": "address",
          "name": "_addressTaxFeeToken",
          "type": "address"
        },
        {
          "indexed": true,
          "internalType": "address",
          "name": "_buyer",
          "type": "address"
        }
      ],
      "name": "Bought",
      "type": "event"
    },
    {
      "anonymous": false,
      "inputs": [
        {
          "indexed": false,
          "internalType": "uint256",
          "name": "_itemId",
          "type": "uint256"
        },
        {
          "indexed": true,
          "internalType": "address",
          "name": "_nft",
          "type": "address"
        },
        {
          "indexed": false,
          "internalType": "uint256",
          "name": "_tokenId",
          "type": "uint256"
        },
        {
          "indexed": false,
          "internalType": "string",
          "name": "_tokenURI",
          "type": "string"
        },
        {
          "indexed": false,
          "internalType": "uint256",
          "name": "_price",
          "type": "uint256"
        },
        {
          "indexed": false,
          "internalType": "address",
          "name": "_artist",
          "type": "address"
        },
        {
          "indexed": false,
          "internalType": "uint256",
          "name": "_taxFee",
          "type": "uint256"
        },
        {
          "indexed": false,
          "internalType": "address",
          "name": "_addressTaxFeeToken",
          "type": "address"
        },
        {
          "indexed": true,
          "internalType": "address",
          "name": "_seller",
          "type": "address"
        }
      ],
      "name": "Offerd",
      "type": "event"
    },
    {
      "anonymous": false,
      "inputs": [
        {
          "indexed": true,
          "internalType": "address",
          "name": "from",
          "type": "address"
        },
        {
          "indexed": true,
          "internalType": "address",
          "name": "to",
          "type": "address"
        },
        {
          "indexed": true,
          "internalType": "uint256",
          "name": "tokenId",
          "type": "uint256"
        }
      ],
      "name": "Transfer",
      "type": "event"
    },
    {
      "inputs": [],
      "name": "EPNS_COMM_ADDRESS",
      "outputs": [
        {
          "internalType": "address",
          "name": "",
          "type": "address"
        }
      ],
      "stateMutability": "view",
      "type": "function"
    },
    {
      "inputs": [],
      "name": "ItemCounter",
      "outputs": [
        {
          "internalType": "uint256",
          "name": "_value",
          "type": "uint256"
        }
      ],
      "stateMutability": "view",
      "type": "function"
    },
    {
      "inputs": [],
      "name": "account",
      "outputs": [
        {
          "internalType": "address",
          "name": "",
          "type": "address"
        }
      ],
      "stateMutability": "view",
      "type": "function"
    },
    {
      "inputs": [
        {
          "internalType": "address",
          "name": "_addressToken",
          "type": "address"
        }
      ],
      "name": "addContractToken",
      "outputs": [],
      "stateMutability": "nonpayable",
      "type": "function"
    },
    {
      "inputs": [],
      "name": "amount",
      "outputs": [
        {
          "internalType": "uint256",
          "name": "",
          "type": "uint256"
        }
      ],
      "stateMutability": "view",
      "type": "function"
    },
    {
      "inputs": [
        {
          "internalType": "address",
          "name": "to",
          "type": "address"
        },
        {
          "internalType": "uint256",
          "name": "tokenId",
          "type": "uint256"
        }
      ],
      "name": "approve",
      "outputs": [],
      "stateMutability": "nonpayable",
      "type": "function"
    },
    {
      "inputs": [
        {
          "internalType": "address",
          "name": "owner",
          "type": "address"
        }
      ],
      "name": "balanceOf",
      "outputs": [
        {
          "internalType": "uint256",
          "name": "",
          "type": "uint256"
        }
      ],
      "stateMutability": "view",
      "type": "function"
    },
    {
      "inputs": [
        {
          "internalType": "address",
          "name": "_cosmoAddress",
          "type": "address"
        },
        {
          "internalType": "uint256",
          "name": "_itemId",
          "type": "uint256"
        }
      ],
      "name": "buyItem",
      "outputs": [],
      "stateMutability": "payable",
      "type": "function"
    },
    {
      "inputs": [],
      "name": "erc777",
      "outputs": [
        {
          "internalType": "contract ERC777",
          "name": "",
          "type": "address"
        }
      ],
      "stateMutability": "view",
      "type": "function"
    },
    {
      "inputs": [
        {
          "internalType": "uint256",
          "name": "tokenId",
          "type": "uint256"
        }
      ],
      "name": "getApproved",
      "outputs": [
        {
          "internalType": "address",
          "name": "",
          "type": "address"
        }
      ],
      "stateMutability": "view",
      "type": "function"
    },
    {
      "inputs": [
        {
          "internalType": "address",
          "name": "owner",
          "type": "address"
        },
        {
          "internalType": "address",
          "name": "operator",
          "type": "address"
        }
      ],
      "name": "isApprovedForAll",
      "outputs": [
        {
          "internalType": "bool",
          "name": "",
          "type": "bool"
        }
      ],
      "stateMutability": "view",
      "type": "function"
    },
    {
      "inputs": [
        {
          "internalType": "uint256",
          "name": "",
          "type": "uint256"
        }
      ],
      "name": "items",
      "outputs": [
        {
          "internalType": "uint256",
          "name": "itemId",
          "type": "uint256"
        },
        {
          "internalType": "contract IERC721",
          "name": "nft",
          "type": "address"
        },
        {
          "internalType": "uint256",
          "name": "tokenId",
          "type": "uint256"
        },
        {
          "internalType": "string",
          "name": "tokenURI",
          "type": "string"
        },
        {
          "internalType": "uint256",
          "name": "price",
          "type": "uint256"
        },
        {
          "internalType": "address",
          "name": "artist",
          "type": "address"
        },
        {
          "internalType": "uint256",
          "name": "tokenTaxFee",
          "type": "uint256"
        },
        {
          "internalType": "address",
          "name": "addressTaxFeeToken",
          "type": "address"
        },
        {
          "internalType": "bool",
          "name": "sold",
          "type": "bool"
        },
        {
          "internalType": "address payable",
          "name": "seller",
          "type": "address"
        }
      ],
      "stateMutability": "view",
      "type": "function"
    },
    {
      "inputs": [
        {
          "internalType": "string",
          "name": "_tokenURI",
          "type": "string"
        },
        {
          "internalType": "address",
          "name": "_artist",
          "type": "address"
        },
        {
          "internalType": "uint256",
          "name": "_taxFee",
          "type": "uint256"
        },
        {
          "internalType": "address",
          "name": "_addressTaxFeeToken",
          "type": "address"
        }
      ],
      "name": "mint",
      "outputs": [
        {
          "internalType": "uint256",
          "name": "",
          "type": "uint256"
        }
      ],
      "stateMutability": "nonpayable",
      "type": "function"
    },
    {
      "inputs": [],
      "name": "name",
      "outputs": [
        {
          "internalType": "string",
          "name": "",
          "type": "string"
        }
      ],
      "stateMutability": "view",
      "type": "function"
    },
    {
      "inputs": [
        {
          "internalType": "uint256",
          "name": "tokenId",
          "type": "uint256"
        }
      ],
      "name": "ownerOf",
      "outputs": [
        {
          "internalType": "address",
          "name": "",
          "type": "address"
        }
      ],
      "stateMutability": "view",
      "type": "function"
    },
    {
      "inputs": [
        {
          "internalType": "address",
          "name": "_from",
          "type": "address"
        },
        {
          "internalType": "address",
          "name": "_to",
          "type": "address"
        },
        {
          "internalType": "uint256",
          "name": "_tokenId",
          "type": "uint256"
        }
      ],
      "name": "safeTransferFrom",
      "outputs": [],
      "stateMutability": "nonpayable",
      "type": "function"
    },
    {
      "inputs": [
        {
          "internalType": "address",
          "name": "_from",
          "type": "address"
        },
        {
          "internalType": "address",
          "name": "_to",
          "type": "address"
        },
        {
          "internalType": "uint256",
          "name": "_tokenId",
          "type": "uint256"
        },
        {
          "internalType": "bytes",
          "name": "_data",
          "type": "bytes"
        }
      ],
      "name": "safeTransferFrom",
      "outputs": [],
      "stateMutability": "nonpayable",
      "type": "function"
    },
    {
      "inputs": [
        {
          "internalType": "contract IERC721",
          "name": "_nft",
          "type": "address"
        },
        {
          "internalType": "uint256",
          "name": "_tokenId",
          "type": "uint256"
        },
        {
          "internalType": "uint256",
          "name": "_price",
          "type": "uint256"
        }
      ],
      "name": "sellItem",
      "outputs": [],
      "stateMutability": "nonpayable",
      "type": "function"
    },
    {
      "inputs": [
        {
          "internalType": "address",
          "name": "operator",
          "type": "address"
        },
        {
          "internalType": "bool",
          "name": "approved",
          "type": "bool"
        }
      ],
      "name": "setApprovalForAll",
      "outputs": [],
      "stateMutability": "nonpayable",
      "type": "function"
    },
    {
      "inputs": [
        {
          "internalType": "address",
          "name": "_excluded",
          "type": "address"
        },
        {
          "internalType": "bool",
          "name": "_status",
          "type": "bool"
        }
      ],
      "name": "setExcluded",
      "outputs": [],
      "stateMutability": "nonpayable",
      "type": "function"
    },
    {
      "inputs": [
        {
          "internalType": "bytes4",
          "name": "interfaceId",
          "type": "bytes4"
        }
      ],
      "name": "supportsInterface",
      "outputs": [
        {
          "internalType": "bool",
          "name": "",
          "type": "bool"
        }
      ],
      "stateMutability": "view",
      "type": "function"
    },
    {
      "inputs": [],
      "name": "symbol",
      "outputs": [
        {
          "internalType": "string",
          "name": "",
          "type": "string"
        }
      ],
      "stateMutability": "view",
      "type": "function"
    },
    {
      "inputs": [
        {
          "internalType": "address",
          "name": "",
          "type": "address"
        }
      ],
      "name": "tokenApproved",
      "outputs": [
        {
          "internalType": "bool",
          "name": "",
          "type": "bool"
        }
      ],
      "stateMutability": "view",
      "type": "function"
    },
    {
      "inputs": [],
      "name": "tokenIdCounter",
      "outputs": [
        {
          "internalType": "uint256",
          "name": "_value",
          "type": "uint256"
        }
      ],
      "stateMutability": "view",
      "type": "function"
    },
    {
      "inputs": [
        {
          "internalType": "uint256",
          "name": "tokenId",
          "type": "uint256"
        }
      ],
      "name": "tokenURI",
      "outputs": [
        {
          "internalType": "string",
          "name": "",
          "type": "string"
        }
      ],
      "stateMutability": "view",
      "type": "function"
    },
    {
      "inputs": [
        {
          "internalType": "uint256",
          "name": "",
          "type": "uint256"
        }
      ],
      "name": "tokens",
      "outputs": [
        {
          "internalType": "uint256",
          "name": "id",
          "type": "uint256"
        },
        {
          "internalType": "string",
          "name": "URI",
          "type": "string"
        },
        {
          "internalType": "address",
          "name": "artist",
          "type": "address"
        },
        {
          "internalType": "uint256",
          "name": "taxFee",
          "type": "uint256"
        },
        {
          "internalType": "address",
          "name": "addressTaxFeeToken",
          "type": "address"
        }
      ],
      "stateMutability": "view",
      "type": "function"
    },
    {
      "inputs": [
        {
          "internalType": "address",
          "name": "_operator",
          "type": "address"
        },
        {
          "internalType": "address",
          "name": "_from",
          "type": "address"
        },
        {
          "internalType": "address",
          "name": "_to",
          "type": "address"
        },
        {
          "internalType": "uint256",
          "name": "_amount",
          "type": "uint256"
        },
        {
          "internalType": "bytes",
          "name": "_userData",
          "type": "bytes"
        },
        {
          "internalType": "bytes",
          "name": "_operatorData",
          "type": "bytes"
        }
      ],
      "name": "tokensReceived",
      "outputs": [],
      "stateMutability": "nonpayable",
      "type": "function"
    },
    {
      "inputs": [
        {
          "internalType": "address",
          "name": "_from",
          "type": "address"
        },
        {
          "internalType": "address",
          "name": "_to",
          "type": "address"
        },
        {
          "internalType": "uint256",
          "name": "_tokenId",
          "type": "uint256"
        }
      ],
      "name": "transferFrom",
      "outputs": [],
      "stateMutability": "nonpayable",
      "type": "function"
    },
    {
      "inputs": [],
      "name": "withdrawTokens",
      "outputs": [],
      "stateMutability": "nonpayable",
      "type": "function"
    }
  ],
  "bytecode": "0x60c060405273b3971bcef2d791bc4027bbfedfb47319a4aaaaaa601060006101000a81548173ffffffffffffffffffffffffffffffffffffffff021916908373ffffffffffffffffffffffffffffffffffffffff1602179055503480156200006657600080fd5b506040516200665e3803806200665e83398181016040528101906200008c9190620002a8565b806040518060400160405280600681526020017f436f736d6f7300000000000000000000000000000000000000000000000000008152506040518060400160405280600481526020017f43534d530000000000000000000000000000000000000000000000000000000081525081600090816200010a919062000554565b5080600190816200011c919062000554565b5050506001600781905550731820a4b7618bde71dce8cdc73aab6c95905fad2473ffffffffffffffffffffffffffffffffffffffff166329965a1d307fb281fc8c12954d22544db45de3159a39272895b169a852b314f9cc762e44c53b306040518463ffffffff1660e01b81526004016200019a9392919062000667565b600060405180830381600087803b158015620001b557600080fd5b505af1158015620001ca573d6000803e3d6000fd5b505050508073ffffffffffffffffffffffffffffffffffffffff1660808173ffffffffffffffffffffffffffffffffffffffff16815250503373ffffffffffffffffffffffffffffffffffffffff1660a08173ffffffffffffffffffffffffffffffffffffffff16815250505050620006a4565b600080fd5b600073ffffffffffffffffffffffffffffffffffffffff82169050919050565b6000620002708262000243565b9050919050565b620002828162000263565b81146200028e57600080fd5b50565b600081519050620002a28162000277565b92915050565b600060208284031215620002c157620002c06200023e565b5b6000620002d18482850162000291565b91505092915050565b600081519050919050565b7f4e487b7100000000000000000000000000000000000000000000000000000000600052604160045260246000fd5b7f4e487b7100000000000000000000000000000000000000000000000000000000600052602260045260246000fd5b600060028204905060018216806200035c57607f821691505b60208210810362000372576200037162000314565b5b50919050565b60008190508160005260206000209050919050565b60006020601f8301049050919050565b600082821b905092915050565b600060088302620003dc7fffffffffffffffffffffffffffffffffffffffffffffffffffffffffffffffff826200039d565b620003e886836200039d565b95508019841693508086168417925050509392505050565b6000819050919050565b6000819050919050565b6000620004356200042f620004298462000400565b6200040a565b62000400565b9050919050565b6000819050919050565b620004518362000414565b6200046962000460826200043c565b848454620003aa565b825550505050565b600090565b6200048062000471565b6200048d81848462000446565b505050565b5b81811015620004b557620004a960008262000476565b60018101905062000493565b5050565b601f8211156200050457620004ce8162000378565b620004d9846200038d565b81016020851015620004e9578190505b62000501620004f8856200038d565b83018262000492565b50505b505050565b600082821c905092915050565b6000620005296000198460080262000509565b1980831691505092915050565b600062000544838362000516565b9150826002028217905092915050565b6200055f82620002da565b67ffffffffffffffff8111156200057b576200057a620002e5565b5b62000587825462000343565b62000594828285620004b9565b600060209050601f831160018114620005cc5760008415620005b7578287015190505b620005c3858262000536565b86555062000633565b601f198416620005dc8662000378565b60005b828110156200060657848901518255600182019150602085019450602081019050620005df565b8683101562000626578489015162000622601f89168262000516565b8355505b6001600288020188555050505b505050505050565b620006468162000263565b82525050565b6000819050919050565b62000661816200064c565b82525050565b60006060820190506200067e60008301866200063b565b6200068d602083018562000656565b6200069c60408301846200063b565b949350505050565b60805160a051615f6a620006f46000396000818161100001528181611026015281816118e70152611af30152600081816119ba01528181611c6f0152818161307701526137e10152615f6a6000f3fe6080604052600436106101c15760003560e01c806368915327116100f75780639f37092a11610095578063bfb231d211610064578063bfb231d214610646578063c87b56dd1461068c578063e985e9c5146106c9578063f958aada14610706576101c1565b80639f37092a146105ad578063a22cb465146105c9578063aa8c217c146105f2578063b88d4fde1461061d576101c1565b806395d89b41116100d157806395d89b411461050357806398bdf6f51461052e5780639e70b75c146105595780639e8e4d1d14610582576101c1565b8063689153271461048657806370a08231146104af5780638d8f2adb146104ec576101c1565b80632836be24116101645780634f64b2be1161013e5780634f64b2be146103a05780635dab2420146103e157806360c6a3c81461040c5780636352211e14610449576101c1565b80632836be241461032357806342842e0e1461034c57806348a3b4a414610375576101c1565b8063081812fc116101a0578063081812fc14610257578063095ea7b314610294578063170e2b8a146102bd57806323b872dd146102fa576101c1565b806223de29146101c657806301ffc9a7146101ef57806306fdde031461022c575b600080fd5b3480156101d257600080fd5b506101ed60048036038101906101e89190613fc3565b610731565b005b3480156101fb57600080fd5b50610216600480360381019061021191906140ea565b610754565b6040516102239190614132565b60405180910390f35b34801561023857600080fd5b50610241610836565b60405161024e91906141e6565b60405180910390f35b34801561026357600080fd5b5061027e60048036038101906102799190614208565b6108c8565b60405161028b9190614244565b60405180910390f35b3480156102a057600080fd5b506102bb60048036038101906102b6919061425f565b61090e565b005b3480156102c957600080fd5b506102e460048036038101906102df919061429f565b610a25565b6040516102f19190614132565b60405180910390f35b34801561030657600080fd5b50610321600480360381019061031c91906142cc565b610a45565b005b34801561032f57600080fd5b5061034a6004803603810190610345919061434b565b610c1f565b005b34801561035857600080fd5b50610373600480360381019061036e91906142cc565b610d84565b005b34801561038157600080fd5b5061038a610eda565b6040516103979190614244565b60405180910390f35b3480156103ac57600080fd5b506103c760048036038101906103c29190614208565b610f00565b6040516103d895949392919061439a565b60405180910390f35b3480156103ed57600080fd5b506103f6610ffe565b6040516104039190614244565b60405180910390f35b34801561041857600080fd5b50610433600480360381019061042e9190614524565b611022565b60405161044091906145a7565b60405180910390f35b34801561045557600080fd5b50610470600480360381019061046b9190614208565b611289565b60405161047d9190614244565b60405180910390f35b34801561049257600080fd5b506104ad60048036038101906104a89190614600565b61130f565b005b3480156104bb57600080fd5b506104d660048036038101906104d1919061429f565b61182e565b6040516104e391906145a7565b60405180910390f35b3480156104f857600080fd5b506105016118e5565b005b34801561050f57600080fd5b50610518611a53565b60405161052591906141e6565b60405180910390f35b34801561053a57600080fd5b50610543611ae5565b60405161055091906145a7565b60405180910390f35b34801561056557600080fd5b50610580600480360381019061057b919061429f565b611af1565b005b34801561058e57600080fd5b50610597611c6d565b6040516105a491906146b2565b60405180910390f35b6105c760048036038101906105c2919061425f565b611c91565b005b3480156105d557600080fd5b506105f060048036038101906105eb919061434b565b61239f565b005b3480156105fe57600080fd5b506106076123b5565b60405161061491906145a7565b60405180910390f35b34801561062957600080fd5b50610644600480360381019061063f919061476e565b6123bb565b005b34801561065257600080fd5b5061066d60048036038101906106689190614208565b612553565b6040516106839a99989796959493929190614833565b60405180910390f35b34801561069857600080fd5b506106b360048036038101906106ae9190614208565b6126bc565b6040516106c091906141e6565b60405180910390f35b3480156106d557600080fd5b506106f060048036038101906106eb91906148d6565b6127ce565b6040516106fd9190614132565b60405180910390f35b34801561071257600080fd5b5061071b612862565b60405161072891906145a7565b60405180910390f35b84600860008282546107439190614945565b925050819055505050505050505050565b60007f80ac58cd000000000000000000000000000000000000000000000000000000007bffffffffffffffffffffffffffffffffffffffffffffffffffffffff1916827bffffffffffffffffffffffffffffffffffffffffffffffffffffffff1916148061081f57507f5b5e139f000000000000000000000000000000000000000000000000000000007bffffffffffffffffffffffffffffffffffffffffffffffffffffffff1916827bffffffffffffffffffffffffffffffffffffffffffffffffffffffff1916145b8061082f575061082e8261286e565b5b9050919050565b606060008054610845906149ca565b80601f0160208091040260200160405190810160405280929190818152602001828054610871906149ca565b80156108be5780601f10610893576101008083540402835291602001916108be565b820191906000526020600020905b8154815290600101906020018083116108a157829003601f168201915b5050505050905090565b60006108d3826128d8565b6004600083815260200190815260200160002060009054906101000a900473ffffffffffffffffffffffffffffffffffffffff169050919050565b600061091982611289565b90508073ffffffffffffffffffffffffffffffffffffffff168373ffffffffffffffffffffffffffffffffffffffff1603610989576040517f08c379a000000000000000000000000000000000000000000000000000000000815260040161098090614a6d565b60405180910390fd5b8073ffffffffffffffffffffffffffffffffffffffff166109a8612923565b73ffffffffffffffffffffffffffffffffffffffff1614806109d757506109d6816109d1612923565b6127ce565b5b610a16576040517f08c379a0000000000000000000000000000000000000000000000000000000008152600401610a0d90614aff565b60405180910390fd5b610a20838361292b565b505050565b600d6020528060005260406000206000915054906101000a900460ff1681565b3073ffffffffffffffffffffffffffffffffffffffff168273ffffffffffffffffffffffffffffffffffffffff1603610a8857610a838383836129e4565b610c1a565b610a99610a93612923565b82612cdd565b610ad8576040517f08c379a0000000000000000000000000000000000000000000000000000000008152600401610acf90614b91565b60405180910390fd5b6000600c600083815260200190815260200160002060020160009054906101000a900473ffffffffffffffffffffffffffffffffffffffff16905060001515600f60008373ffffffffffffffffffffffffffffffffffffffff1673ffffffffffffffffffffffffffffffffffffffff16815260200190815260200160002060008673ffffffffffffffffffffffffffffffffffffffff1673ffffffffffffffffffffffffffffffffffffffff16815260200190815260200160002060009054906101000a900460ff16151503610c0d576000600c60008481526020019081526020016000206003015490506000600c600085815260200190815260200160002060040160009054906101000a900473ffffffffffffffffffffffffffffffffffffffff169050610c0a86848484612d72565b50505b610c188484846129e4565b505b505050565b3373ffffffffffffffffffffffffffffffffffffffff16600e60003373ffffffffffffffffffffffffffffffffffffffff1673ffffffffffffffffffffffffffffffffffffffff16815260200190815260200160002060009054906101000a900473ffffffffffffffffffffffffffffffffffffffff1673ffffffffffffffffffffffffffffffffffffffff1614610cec576040517f08c379a0000000000000000000000000000000000000000000000000000000008152600401610ce390614c23565b60405180910390fd5b80600f60003373ffffffffffffffffffffffffffffffffffffffff1673ffffffffffffffffffffffffffffffffffffffff16815260200190815260200160002060008473ffffffffffffffffffffffffffffffffffffffff1673ffffffffffffffffffffffffffffffffffffffff16815260200190815260200160002060006101000a81548160ff0219169083151502179055505050565b6000600c600083815260200190815260200160002060020160009054906101000a900473ffffffffffffffffffffffffffffffffffffffff16905060001515600f60008373ffffffffffffffffffffffffffffffffffffffff1673ffffffffffffffffffffffffffffffffffffffff16815260200190815260200160002060008673ffffffffffffffffffffffffffffffffffffffff1673ffffffffffffffffffffffffffffffffffffffff16815260200190815260200160002060009054906101000a900460ff16151503610eb9576000600c60008481526020019081526020016000206003015490506000600c600085815260200190815260200160002060040160009054906101000a900473ffffffffffffffffffffffffffffffffffffffff169050610eb686848484612d72565b50505b610ed4848484604051806020016040528060008152506123bb565b50505050565b601060009054906101000a900473ffffffffffffffffffffffffffffffffffffffff1681565b600c602052806000526040600020600091509050806000015490806001018054610f29906149ca565b80601f0160208091040260200160405190810160405280929190818152602001828054610f55906149ca565b8015610fa25780601f10610f7757610100808354040283529160200191610fa2565b820191906000526020600020905b815481529060010190602001808311610f8557829003601f168201915b5050505050908060020160009054906101000a900473ffffffffffffffffffffffffffffffffffffffff16908060030154908060040160009054906101000a900473ffffffffffffffffffffffffffffffffffffffff16905085565b7f000000000000000000000000000000000000000000000000000000000000000081565b60007f000000000000000000000000000000000000000000000000000000000000000073ffffffffffffffffffffffffffffffffffffffff163373ffffffffffffffffffffffffffffffffffffffff16146110b2576040517f08c379a00000000000000000000000000000000000000000000000000000000081526004016110a990614cb5565b60405180910390fd5b83600e60008673ffffffffffffffffffffffffffffffffffffffff1673ffffffffffffffffffffffffffffffffffffffff16815260200190815260200160002060006101000a81548173ffffffffffffffffffffffffffffffffffffffff021916908373ffffffffffffffffffffffffffffffffffffffff160217905550600061113c600a612f30565b9050611148600a612f3e565b6111523382612f54565b61115c8187612f72565b6040518060a001604052808281526020018781526020018673ffffffffffffffffffffffffffffffffffffffff1681526020018581526020018473ffffffffffffffffffffffffffffffffffffffff16815250600c60008381526020019081526020016000206000820151816000015560208201518160010190816111e19190614e77565b5060408201518160020160006101000a81548173ffffffffffffffffffffffffffffffffffffffff021916908373ffffffffffffffffffffffffffffffffffffffff1602179055506060820151816003015560808201518160040160006101000a81548173ffffffffffffffffffffffffffffffffffffffff021916908373ffffffffffffffffffffffffffffffffffffffff16021790555090505080915050949350505050565b60008061129583612fdf565b9050600073ffffffffffffffffffffffffffffffffffffffff168173ffffffffffffffffffffffffffffffffffffffff1603611306576040517f08c379a00000000000000000000000000000000000000000000000000000000081526004016112fd90614f95565b60405180910390fd5b80915050919050565b61131761301c565b6000811161135a576040517f08c379a000000000000000000000000000000000000000000000000000000000815260040161135190615001565b60405180910390fd5b6113646009612f3e565b60006113706009612f30565b90508373ffffffffffffffffffffffffffffffffffffffff166323b872dd3330866040518463ffffffff1660e01b81526004016113af93929190615021565b600060405180830381600087803b1580156113c957600080fd5b505af11580156113dd573d6000803e3d6000fd5b505050506000600c60008581526020019081526020016000206040518060a00160405290816000820154815260200160018201805461141b906149ca565b80601f0160208091040260200160405190810160405280929190818152602001828054611447906149ca565b80156114945780601f1061146957610100808354040283529160200191611494565b820191906000526020600020905b81548152906001019060200180831161147757829003601f168201915b505050505081526020016002820160009054906101000a900473ffffffffffffffffffffffffffffffffffffffff1673ffffffffffffffffffffffffffffffffffffffff1673ffffffffffffffffffffffffffffffffffffffff168152602001600382015481526020016004820160009054906101000a900473ffffffffffffffffffffffffffffffffffffffff1673ffffffffffffffffffffffffffffffffffffffff1673ffffffffffffffffffffffffffffffffffffffff1681525050905060006040518061014001604052808481526020018773ffffffffffffffffffffffffffffffffffffffff16815260200186815260200183602001518152602001858152602001836040015173ffffffffffffffffffffffffffffffffffffffff16815260200183606001518152602001836080015173ffffffffffffffffffffffffffffffffffffffff1681526020016000151581526020013373ffffffffffffffffffffffffffffffffffffffff16815250905080600b60008581526020019081526020016000206000820151816000015560208201518160010160006101000a81548173ffffffffffffffffffffffffffffffffffffffff021916908373ffffffffffffffffffffffffffffffffffffffff16021790555060408201518160020155606082015181600301908161168e9190614e77565b506080820151816004015560a08201518160050160006101000a81548173ffffffffffffffffffffffffffffffffffffffff021916908373ffffffffffffffffffffffffffffffffffffffff16021790555060c0820151816006015560e08201518160070160006101000a81548173ffffffffffffffffffffffffffffffffffffffff021916908373ffffffffffffffffffffffffffffffffffffffff1602179055506101008201518160070160146101000a81548160ff0219169083151502179055506101208201518160080160006101000a81548173ffffffffffffffffffffffffffffffffffffffff021916908373ffffffffffffffffffffffffffffffffffffffff1602179055509050503373ffffffffffffffffffffffffffffffffffffffff168673ffffffffffffffffffffffffffffffffffffffff167f975211cbc9861c9448d1a3c68ce608f0445c3ecf60a30bcca7fb923d4056b7948588866020015189886040015189606001518a608001516040516118169796959493929190615058565b60405180910390a350505061182961306b565b505050565b60008073ffffffffffffffffffffffffffffffffffffffff168273ffffffffffffffffffffffffffffffffffffffff160361189e576040517f08c379a000000000000000000000000000000000000000000000000000000000815260040161189590615140565b60405180910390fd5b600360008373ffffffffffffffffffffffffffffffffffffffff1673ffffffffffffffffffffffffffffffffffffffff168152602001908152602001600020549050919050565b7f000000000000000000000000000000000000000000000000000000000000000073ffffffffffffffffffffffffffffffffffffffff163373ffffffffffffffffffffffffffffffffffffffff1614611973576040517f08c379a000000000000000000000000000000000000000000000000000000000815260040161196a90614cb5565b60405180910390fd5b6000600854116119b8576040517f08c379a00000000000000000000000000000000000000000000000000000000081526004016119af906151ac565b60405180910390fd5b7f000000000000000000000000000000000000000000000000000000000000000073ffffffffffffffffffffffffffffffffffffffff166362ad1b8330336008546040518463ffffffff1660e01b8152600401611a1793929190615203565b600060405180830381600087803b158015611a3157600080fd5b505af1158015611a45573d6000803e3d6000fd5b505050506000600881905550565b606060018054611a62906149ca565b80601f0160208091040260200160405190810160405280929190818152602001828054611a8e906149ca565b8015611adb5780601f10611ab057610100808354040283529160200191611adb565b820191906000526020600020905b815481529060010190602001808311611abe57829003601f168201915b5050505050905090565b600a8060000154905081565b7f000000000000000000000000000000000000000000000000000000000000000073ffffffffffffffffffffffffffffffffffffffff163373ffffffffffffffffffffffffffffffffffffffff1614611b7f576040517f08c379a0000000000000000000000000000000000000000000000000000000008152600401611b7690614cb5565b60405180910390fd5b60001515600d60008373ffffffffffffffffffffffffffffffffffffffff1673ffffffffffffffffffffffffffffffffffffffff16815260200190815260200160002060009054906101000a900460ff16151514611c12576040517f08c379a0000000000000000000000000000000000000000000000000000000008152600401611c09906152ac565b60405180910390fd5b6001600d60008373ffffffffffffffffffffffffffffffffffffffff1673ffffffffffffffffffffffffffffffffffffffff16815260200190815260200160002060006101000a81548160ff02191690831515021790555050565b7f000000000000000000000000000000000000000000000000000000000000000081565b611c9961301c565b6000600b60008381526020019081526020016000206004015490506000600b6000848152602001908152602001600020905060011515600d60008673ffffffffffffffffffffffffffffffffffffffff1673ffffffffffffffffffffffffffffffffffffffff16815260200190815260200160002060009054906101000a900460ff16151514611d5e576040517f08c379a0000000000000000000000000000000000000000000000000000000008152600401611d5590615318565b60405180910390fd5b818473ffffffffffffffffffffffffffffffffffffffff1663f38e266a336040518263ffffffff1660e01b8152600401611d989190614244565b602060405180830381865afa158015611db5573d6000803e3d6000fd5b505050506040513d601f19601f82011682018060405250810190611dd9919061534d565b11611e19576040517f08c379a0000000000000000000000000000000000000000000000000000000008152600401611e10906153c6565b60405180910390fd5b600083118015611e325750611e2e6009612f30565b8311155b611e71576040517f08c379a0000000000000000000000000000000000000000000000000000000008152600401611e6890615432565b60405180910390fd5b8060070160149054906101000a900460ff1615611ec3576040517f08c379a0000000000000000000000000000000000000000000000000000000008152600401611eba9061549e565b60405180910390fd5b8373ffffffffffffffffffffffffffffffffffffffff166325e8e00c33846040518363ffffffff1660e01b8152600401611efe9291906154be565b6020604051808303816000875af1158015611f1d573d6000803e3d6000fd5b505050506040513d601f19601f82011682018060405250810190611f4191906154fc565b611f80576040517f08c379a0000000000000000000000000000000000000000000000000000000008152600401611f7790615575565b60405180910390fd5b611f8982613075565b8060010160009054906101000a900473ffffffffffffffffffffffffffffffffffffffff1673ffffffffffffffffffffffffffffffffffffffff166323b872dd303384600201546040518463ffffffff1660e01b8152600401611fee93929190615021565b600060405180830381600087803b15801561200857600080fd5b505af115801561201c573d6000803e3d6000fd5b505050506000600b6000858152602001908152602001600020905060018160070160146101000a81548160ff0219169083151502179055506000600c6000836002015481526020019081526020016000206040518060a001604052908160008201548152602001600182018054612092906149ca565b80601f01602080910402602001604051908101604052809291908181526020018280546120be906149ca565b801561210b5780601f106120e05761010080835404028352916020019161210b565b820191906000526020600020905b8154815290600101906020018083116120ee57829003601f168201915b505050505081526020016002820160009054906101000a900473ffffffffffffffffffffffffffffffffffffffff1673ffffffffffffffffffffffffffffffffffffffff1673ffffffffffffffffffffffffffffffffffffffff168152602001600382015481526020016004820160009054906101000a900473ffffffffffffffffffffffffffffffffffffffff1673ffffffffffffffffffffffffffffffffffffffff1673ffffffffffffffffffffffffffffffffffffffff16815250509050601060009054906101000a900473ffffffffffffffffffffffffffffffffffffffff1673ffffffffffffffffffffffffffffffffffffffff1663ba3d69d773bd52b47c729f14f3e6232536e21902ad769fafa43361222933613120565b876002015460405160200161223f9291906157dd565b6040516020818303038152906040526040518463ffffffff1660e01b815260040161226c939291906158ac565b600060405180830381600087803b15801561228657600080fd5b505af115801561229a573d6000803e3d6000fd5b505050503373ffffffffffffffffffffffffffffffffffffffff168360010160009054906101000a900473ffffffffffffffffffffffffffffffffffffffff1673ffffffffffffffffffffffffffffffffffffffff167fdc7540e6f6fa2d49abe473a1fbe2315ef51c17ba1d7611cde26c6da3adfac3ef85600001548660020154856020015188600401548960050160009054906101000a900473ffffffffffffffffffffffffffffffffffffffff168a600601548b60070160009054906101000a900473ffffffffffffffffffffffffffffffffffffffff166040516123879796959493929190615058565b60405180910390a35050505061239b61306b565b5050565b6123b16123aa612923565b838361342b565b5050565b60085481565b6123cc6123c6612923565b83612cdd565b61240b576040517f08c379a000000000000000000000000000000000000000000000000000000000815260040161240290614b91565b60405180910390fd5b6000600c600084815260200190815260200160002060020160009054906101000a900473ffffffffffffffffffffffffffffffffffffffff16905060001515600f60008373ffffffffffffffffffffffffffffffffffffffff1673ffffffffffffffffffffffffffffffffffffffff16815260200190815260200160002060008773ffffffffffffffffffffffffffffffffffffffff1673ffffffffffffffffffffffffffffffffffffffff16815260200190815260200160002060009054906101000a900460ff16151503612540576000600c60008581526020019081526020016000206003015490506000600c600086815260200190815260200160002060040160009054906101000a900473ffffffffffffffffffffffffffffffffffffffff16905061253d87848484612d72565b50505b61254c85858585613597565b5050505050565b600b6020528060005260406000206000915090508060000154908060010160009054906101000a900473ffffffffffffffffffffffffffffffffffffffff16908060020154908060030180546125a8906149ca565b80601f01602080910402602001604051908101604052809291908181526020018280546125d4906149ca565b80156126215780601f106125f657610100808354040283529160200191612621565b820191906000526020600020905b81548152906001019060200180831161260457829003601f168201915b5050505050908060040154908060050160009054906101000a900473ffffffffffffffffffffffffffffffffffffffff16908060060154908060070160009054906101000a900473ffffffffffffffffffffffffffffffffffffffff16908060070160149054906101000a900460ff16908060080160009054906101000a900473ffffffffffffffffffffffffffffffffffffffff1690508a565b60606126c7826128d8565b60006006600084815260200190815260200160002080546126e7906149ca565b80601f0160208091040260200160405190810160405280929190818152602001828054612713906149ca565b80156127605780601f1061273557610100808354040283529160200191612760565b820191906000526020600020905b81548152906001019060200180831161274357829003601f168201915b5050505050905060006127716135f3565b905060008151036127865781925050506127c9565b6000825111156127bb5780826040516020016127a39291906158ea565b604051602081830303815290604052925050506127c9565b6127c48461360a565b925050505b919050565b6000600560008473ffffffffffffffffffffffffffffffffffffffff1673ffffffffffffffffffffffffffffffffffffffff16815260200190815260200160002060008373ffffffffffffffffffffffffffffffffffffffff1673ffffffffffffffffffffffffffffffffffffffff16815260200190815260200160002060009054906101000a900460ff16905092915050565b60098060000154905081565b60007f01ffc9a7000000000000000000000000000000000000000000000000000000007bffffffffffffffffffffffffffffffffffffffffffffffffffffffff1916827bffffffffffffffffffffffffffffffffffffffffffffffffffffffff1916149050919050565b6128e181613672565b612920576040517f08c379a000000000000000000000000000000000000000000000000000000000815260040161291790614f95565b60405180910390fd5b50565b600033905090565b816004600083815260200190815260200160002060006101000a81548173ffffffffffffffffffffffffffffffffffffffff021916908373ffffffffffffffffffffffffffffffffffffffff160217905550808273ffffffffffffffffffffffffffffffffffffffff1661299e83611289565b73ffffffffffffffffffffffffffffffffffffffff167f8c5be1e5ebec7d5bd14f71427d1e84f3dd0314c0f7b2291e5b200ac8c7c3b92560405160405180910390a45050565b8273ffffffffffffffffffffffffffffffffffffffff16612a0482611289565b73ffffffffffffffffffffffffffffffffffffffff1614612a5a576040517f08c379a0000000000000000000000000000000000000000000000000000000008152600401612a5190615980565b60405180910390fd5b600073ffffffffffffffffffffffffffffffffffffffff168273ffffffffffffffffffffffffffffffffffffffff1603612ac9576040517f08c379a0000000000000000000000000000000000000000000000000000000008152600401612ac090615a12565b60405180910390fd5b612ad683838360016136b3565b8273ffffffffffffffffffffffffffffffffffffffff16612af682611289565b73ffffffffffffffffffffffffffffffffffffffff1614612b4c576040517f08c379a0000000000000000000000000000000000000000000000000000000008152600401612b4390615980565b60405180910390fd5b6004600082815260200190815260200160002060006101000a81549073ffffffffffffffffffffffffffffffffffffffff02191690556001600360008573ffffffffffffffffffffffffffffffffffffffff1673ffffffffffffffffffffffffffffffffffffffff168152602001908152602001600020600082825403925050819055506001600360008473ffffffffffffffffffffffffffffffffffffffff1673ffffffffffffffffffffffffffffffffffffffff16815260200190815260200160002060008282540192505081905550816002600083815260200190815260200160002060006101000a81548173ffffffffffffffffffffffffffffffffffffffff021916908373ffffffffffffffffffffffffffffffffffffffff160217905550808273ffffffffffffffffffffffffffffffffffffffff168473ffffffffffffffffffffffffffffffffffffffff167fddf252ad1be2c89b69c2b068fc378daa952ba7f163c4a11628f55a4df523b3ef60405160405180910390a4612cd883838360016137d9565b505050565b600080612ce983611289565b90508073ffffffffffffffffffffffffffffffffffffffff168473ffffffffffffffffffffffffffffffffffffffff161480612d2b5750612d2a81856127ce565b5b80612d6957508373ffffffffffffffffffffffffffffffffffffffff16612d51846108c8565b73ffffffffffffffffffffffffffffffffffffffff16145b91505092915050565b8373ffffffffffffffffffffffffffffffffffffffff163073ffffffffffffffffffffffffffffffffffffffff160315612f2a57818173ffffffffffffffffffffffffffffffffffffffff1663f38e266a866040518263ffffffff1660e01b8152600401612de09190614244565b602060405180830381865afa158015612dfd573d6000803e3d6000fd5b505050506040513d601f19601f82011682018060405250810190612e21919061534d565b11612e61576040517f08c379a0000000000000000000000000000000000000000000000000000000008152600401612e58906153c6565b60405180910390fd5b8073ffffffffffffffffffffffffffffffffffffffff166325e8e00c85846040518363ffffffff1660e01b8152600401612e9c9291906154be565b6020604051808303816000875af1158015612ebb573d6000803e3d6000fd5b505050506040513d601f19601f82011682018060405250810190612edf91906154fc565b612f1e576040517f08c379a0000000000000000000000000000000000000000000000000000000008152600401612f1590615a7e565b60405180910390fd5b612f298484846137df565b5b50505050565b600081600001549050919050565b6001816000016000828254019250508190555050565b612f6e828260405180602001604052806000815250613873565b5050565b612f7b82613672565b612fba576040517f08c379a0000000000000000000000000000000000000000000000000000000008152600401612fb190615b10565b60405180910390fd5b80600660008481526020019081526020016000209081612fda9190614e77565b505050565b60006002600083815260200190815260200160002060009054906101000a900473ffffffffffffffffffffffffffffffffffffffff169050919050565b600260075403613061576040517f08c379a000000000000000000000000000000000000000000000000000000000815260040161305890615b7c565b60405180910390fd5b6002600781905550565b6001600781905550565b7f000000000000000000000000000000000000000000000000000000000000000073ffffffffffffffffffffffffffffffffffffffff166362ad1b833330846040518463ffffffff1660e01b81526004016130d293929190615203565b600060405180830381600087803b1580156130ec57600080fd5b505af1158015613100573d6000803e3d6000fd5b5050505080600860008282546131169190614945565b9250508190555050565b606060008273ffffffffffffffffffffffffffffffffffffffff1660001b905060006040518060400160405280601081526020017f303132333435363738396162636465660000000000000000000000000000000081525090506000602a67ffffffffffffffff811115613197576131966143f9565b5b6040519080825280601f01601f1916602001820160405280156131c95781602001600182028036833780820191505090505b5090507f30000000000000000000000000000000000000000000000000000000000000008160008151811061320157613200615b9c565b5b60200101907effffffffffffffffffffffffffffffffffffffffffffffffffffffffffffff1916908160001a9053507f78000000000000000000000000000000000000000000000000000000000000008160018151811061326557613264615b9c565b5b60200101907effffffffffffffffffffffffffffffffffffffffffffffffffffffffffffff1916908160001a90535060005b601481101561341f5782600485600c846132b19190614945565b602081106132c2576132c1615b9c565b5b1a60f81b7effffffffffffffffffffffffffffffffffffffffffffffffffffffffffffff1916901c60f81c60ff168151811061330157613300615b9c565b5b602001015160f81c60f81b8260028361331a9190615bcb565b60026133269190614945565b8151811061333757613336615b9c565b5b60200101907effffffffffffffffffffffffffffffffffffffffffffffffffffffffffffff1916908160001a90535082600f60f81b85600c8461337a9190614945565b6020811061338b5761338a615b9c565b5b1a60f81b1660f81c60ff16815181106133a7576133a6615b9c565b5b602001015160f81c60f81b826002836133c09190615bcb565b60036133cc9190614945565b815181106133dd576133dc615b9c565b5b60200101907effffffffffffffffffffffffffffffffffffffffffffffffffffffffffffff1916908160001a905350808061341790615c25565b915050613297565b50809350505050919050565b8173ffffffffffffffffffffffffffffffffffffffff168373ffffffffffffffffffffffffffffffffffffffff1603613499576040517f08c379a000000000000000000000000000000000000000000000000000000000815260040161349090615cb9565b60405180910390fd5b80600560008573ffffffffffffffffffffffffffffffffffffffff1673ffffffffffffffffffffffffffffffffffffffff16815260200190815260200160002060008473ffffffffffffffffffffffffffffffffffffffff1673ffffffffffffffffffffffffffffffffffffffff16815260200190815260200160002060006101000a81548160ff0219169083151502179055508173ffffffffffffffffffffffffffffffffffffffff168373ffffffffffffffffffffffffffffffffffffffff167f17307eab39ab6107e8899845ad3d59bd9653f200f220920489ca2b5937696c318360405161358a9190614132565b60405180910390a3505050565b6135a28484846129e4565b6135ae848484846138ce565b6135ed576040517f08c379a00000000000000000000000000000000000000000000000000000000081526004016135e490615d4b565b60405180910390fd5b50505050565b606060405180602001604052806000815250905090565b6060613615826128d8565b600061361f6135f3565b9050600081511161363f576040518060200160405280600081525061366a565b8061364984613a55565b60405160200161365a9291906158ea565b6040516020818303038152906040525b915050919050565b60008073ffffffffffffffffffffffffffffffffffffffff1661369483612fdf565b73ffffffffffffffffffffffffffffffffffffffff1614159050919050565b60018111156137d357600073ffffffffffffffffffffffffffffffffffffffff168473ffffffffffffffffffffffffffffffffffffffff16146137475780600360008673ffffffffffffffffffffffffffffffffffffffff1673ffffffffffffffffffffffffffffffffffffffff168152602001908152602001600020600082825461373f9190615d6b565b925050819055505b600073ffffffffffffffffffffffffffffffffffffffff168373ffffffffffffffffffffffffffffffffffffffff16146137d25780600360008573ffffffffffffffffffffffffffffffffffffffff1673ffffffffffffffffffffffffffffffffffffffff16815260200190815260200160002060008282546137ca9190614945565b925050819055505b5b50505050565b50505050565b7f000000000000000000000000000000000000000000000000000000000000000073ffffffffffffffffffffffffffffffffffffffff166362ad1b838484846040518463ffffffff1660e01b815260040161383c93929190615203565b600060405180830381600087803b15801561385657600080fd5b505af115801561386a573d6000803e3d6000fd5b50505050505050565b61387d8383613b23565b61388a60008484846138ce565b6138c9576040517f08c379a00000000000000000000000000000000000000000000000000000000081526004016138c090615d4b565b60405180910390fd5b505050565b60006138ef8473ffffffffffffffffffffffffffffffffffffffff16613d40565b15613a48578373ffffffffffffffffffffffffffffffffffffffff1663150b7a02613918612923565b8786866040518563ffffffff1660e01b815260040161393a9493929190615d9f565b6020604051808303816000875af192505050801561397657506040513d601f19601f820116820180604052508101906139739190615e00565b60015b6139f8573d80600081146139a6576040519150601f19603f3d011682016040523d82523d6000602084013e6139ab565b606091505b5060008151036139f0576040517f08c379a00000000000000000000000000000000000000000000000000000000081526004016139e790615d4b565b60405180910390fd5b805181602001fd5b63150b7a0260e01b7bffffffffffffffffffffffffffffffffffffffffffffffffffffffff1916817bffffffffffffffffffffffffffffffffffffffffffffffffffffffff191614915050613a4d565b600190505b949350505050565b606060006001613a6484613d63565b01905060008167ffffffffffffffff811115613a8357613a826143f9565b5b6040519080825280601f01601f191660200182016040528015613ab55781602001600182028036833780820191505090505b509050600082602001820190505b600115613b18578080600190039150507f3031323334353637383961626364656600000000000000000000000000000000600a86061a8153600a8581613b0c57613b0b615e2d565b5b04945060008503613ac3575b819350505050919050565b600073ffffffffffffffffffffffffffffffffffffffff168273ffffffffffffffffffffffffffffffffffffffff1603613b92576040517f08c379a0000000000000000000000000000000000000000000000000000000008152600401613b8990615ea8565b60405180910390fd5b613b9b81613672565b15613bdb576040517f08c379a0000000000000000000000000000000000000000000000000000000008152600401613bd290615f14565b60405180910390fd5b613be96000838360016136b3565b613bf281613672565b15613c32576040517f08c379a0000000000000000000000000000000000000000000000000000000008152600401613c2990615f14565b60405180910390fd5b6001600360008473ffffffffffffffffffffffffffffffffffffffff1673ffffffffffffffffffffffffffffffffffffffff16815260200190815260200160002060008282540192505081905550816002600083815260200190815260200160002060006101000a81548173ffffffffffffffffffffffffffffffffffffffff021916908373ffffffffffffffffffffffffffffffffffffffff160217905550808273ffffffffffffffffffffffffffffffffffffffff16600073ffffffffffffffffffffffffffffffffffffffff167fddf252ad1be2c89b69c2b068fc378daa952ba7f163c4a11628f55a4df523b3ef60405160405180910390a4613d3c6000838360016137d9565b5050565b6000808273ffffffffffffffffffffffffffffffffffffffff163b119050919050565b600080600090507a184f03e93ff9f4daa797ed6e38ed64bf6a1f0100000000000000008310613dc1577a184f03e93ff9f4daa797ed6e38ed64bf6a1f0100000000000000008381613db757613db6615e2d565b5b0492506040810190505b6d04ee2d6d415b85acef81000000008310613dfe576d04ee2d6d415b85acef81000000008381613df457613df3615e2d565b5b0492506020810190505b662386f26fc100008310613e2d57662386f26fc100008381613e2357613e22615e2d565b5b0492506010810190505b6305f5e1008310613e56576305f5e1008381613e4c57613e4b615e2d565b5b0492506008810190505b6127108310613e7b576127108381613e7157613e70615e2d565b5b0492506004810190505b60648310613e9e5760648381613e9457613e93615e2d565b5b0492506002810190505b600a8310613ead576001810190505b80915050919050565b6000604051905090565b600080fd5b600080fd5b600073ffffffffffffffffffffffffffffffffffffffff82169050919050565b6000613ef582613eca565b9050919050565b613f0581613eea565b8114613f1057600080fd5b50565b600081359050613f2281613efc565b92915050565b6000819050919050565b613f3b81613f28565b8114613f4657600080fd5b50565b600081359050613f5881613f32565b92915050565b600080fd5b600080fd5b600080fd5b60008083601f840112613f8357613f82613f5e565b5b8235905067ffffffffffffffff811115613fa057613f9f613f63565b5b602083019150836001820283011115613fbc57613fbb613f68565b5b9250929050565b60008060008060008060008060c0898b031215613fe357613fe2613ec0565b5b6000613ff18b828c01613f13565b98505060206140028b828c01613f13565b97505060406140138b828c01613f13565b96505060606140248b828c01613f49565b955050608089013567ffffffffffffffff81111561404557614044613ec5565b5b6140518b828c01613f6d565b945094505060a089013567ffffffffffffffff81111561407457614073613ec5565b5b6140808b828c01613f6d565b92509250509295985092959890939650565b60007fffffffff0000000000000000000000000000000000000000000000000000000082169050919050565b6140c781614092565b81146140d257600080fd5b50565b6000813590506140e4816140be565b92915050565b600060208284031215614100576140ff613ec0565b5b600061410e848285016140d5565b91505092915050565b60008115159050919050565b61412c81614117565b82525050565b60006020820190506141476000830184614123565b92915050565b600081519050919050565b600082825260208201905092915050565b60005b8381101561418757808201518184015260208101905061416c565b83811115614196576000848401525b50505050565b6000601f19601f8301169050919050565b60006141b88261414d565b6141c28185614158565b93506141d2818560208601614169565b6141db8161419c565b840191505092915050565b6000602082019050818103600083015261420081846141ad565b905092915050565b60006020828403121561421e5761421d613ec0565b5b600061422c84828501613f49565b91505092915050565b61423e81613eea565b82525050565b60006020820190506142596000830184614235565b92915050565b6000806040838503121561427657614275613ec0565b5b600061428485828601613f13565b925050602061429585828601613f49565b9150509250929050565b6000602082840312156142b5576142b4613ec0565b5b60006142c384828501613f13565b91505092915050565b6000806000606084860312156142e5576142e4613ec0565b5b60006142f386828701613f13565b935050602061430486828701613f13565b925050604061431586828701613f49565b9150509250925092565b61432881614117565b811461433357600080fd5b50565b6000813590506143458161431f565b92915050565b6000806040838503121561436257614361613ec0565b5b600061437085828601613f13565b925050602061438185828601614336565b9150509250929050565b61439481613f28565b82525050565b600060a0820190506143af600083018861438b565b81810360208301526143c181876141ad565b90506143d06040830186614235565b6143dd606083018561438b565b6143ea6080830184614235565b9695505050505050565b600080fd5b7f4e487b7100000000000000000000000000000000000000000000000000000000600052604160045260246000fd5b6144318261419c565b810181811067ffffffffffffffff821117156144505761444f6143f9565b5b80604052505050565b6000614463613eb6565b905061446f8282614428565b919050565b600067ffffffffffffffff82111561448f5761448e6143f9565b5b6144988261419c565b9050602081019050919050565b82818337600083830152505050565b60006144c76144c284614474565b614459565b9050828152602081018484840111156144e3576144e26143f4565b5b6144ee8482856144a5565b509392505050565b600082601f83011261450b5761450a613f5e565b5b813561451b8482602086016144b4565b91505092915050565b6000806000806080858703121561453e5761453d613ec0565b5b600085013567ffffffffffffffff81111561455c5761455b613ec5565b5b614568878288016144f6565b945050602061457987828801613f13565b935050604061458a87828801613f49565b925050606061459b87828801613f13565b91505092959194509250565b60006020820190506145bc600083018461438b565b92915050565b60006145cd82613eea565b9050919050565b6145dd816145c2565b81146145e857600080fd5b50565b6000813590506145fa816145d4565b92915050565b60008060006060848603121561461957614618613ec0565b5b6000614627868287016145eb565b935050602061463886828701613f49565b925050604061464986828701613f49565b9150509250925092565b6000819050919050565b600061467861467361466e84613eca565b614653565b613eca565b9050919050565b600061468a8261465d565b9050919050565b600061469c8261467f565b9050919050565b6146ac81614691565b82525050565b60006020820190506146c760008301846146a3565b92915050565b600067ffffffffffffffff8211156146e8576146e76143f9565b5b6146f18261419c565b9050602081019050919050565b600061471161470c846146cd565b614459565b90508281526020810184848401111561472d5761472c6143f4565b5b6147388482856144a5565b509392505050565b600082601f83011261475557614754613f5e565b5b81356147658482602086016146fe565b91505092915050565b6000806000806080858703121561478857614787613ec0565b5b600061479687828801613f13565b94505060206147a787828801613f13565b93505060406147b887828801613f49565b925050606085013567ffffffffffffffff8111156147d9576147d8613ec5565b5b6147e587828801614740565b91505092959194509250565b60006147fc8261467f565b9050919050565b61480c816147f1565b82525050565b600061481d82613eca565b9050919050565b61482d81614812565b82525050565b600061014082019050614849600083018d61438b565b614856602083018c614803565b614863604083018b61438b565b8181036060830152614875818a6141ad565b9050614884608083018961438b565b61489160a0830188614235565b61489e60c083018761438b565b6148ab60e0830186614235565b6148b9610100830185614123565b6148c7610120830184614824565b9b9a5050505050505050505050565b600080604083850312156148ed576148ec613ec0565b5b60006148fb85828601613f13565b925050602061490c85828601613f13565b9150509250929050565b7f4e487b7100000000000000000000000000000000000000000000000000000000600052601160045260246000fd5b600061495082613f28565b915061495b83613f28565b9250827fffffffffffffffffffffffffffffffffffffffffffffffffffffffffffffffff038211156149905761498f614916565b5b828201905092915050565b7f4e487b7100000000000000000000000000000000000000000000000000000000600052602260045260246000fd5b600060028204905060018216806149e257607f821691505b6020821081036149f5576149f461499b565b5b50919050565b7f4552433732313a20617070726f76616c20746f2063757272656e74206f776e6560008201527f7200000000000000000000000000000000000000000000000000000000000000602082015250565b6000614a57602183614158565b9150614a62826149fb565b604082019050919050565b60006020820190508181036000830152614a8681614a4a565b9050919050565b7f4552433732313a20617070726f76652063616c6c6572206973206e6f7420746f60008201527f6b656e206f776e6572206f7220617070726f76656420666f7220616c6c000000602082015250565b6000614ae9603d83614158565b9150614af482614a8d565b604082019050919050565b60006020820190508181036000830152614b1881614adc565b9050919050565b7f4552433732313a207472616e736665722063616c6c6572206973206e6f74206f60008201527f776e6572206e6f7220617070726f766564000000000000000000000000000000602082015250565b6000614b7b603183614158565b9150614b8682614b1f565b604082019050919050565b60006020820190508181036000830152614baa81614b6e565b9050919050565b7f646f65736e277420686173204e46547320696e20746865206d61726b6574706c60008201527f6163650000000000000000000000000000000000000000000000000000000000602082015250565b6000614c0d602383614158565b9150614c1882614bb1565b604082019050919050565b60006020820190508181036000830152614c3c81614c00565b9050919050565b7f4d61726b6574506c616365436f6e74726163743a2063616c6c6572206973206e60008201527f6f7420746865206f776e65720000000000000000000000000000000000000000602082015250565b6000614c9f602c83614158565b9150614caa82614c43565b604082019050919050565b60006020820190508181036000830152614cce81614c92565b9050919050565b60008190508160005260206000209050919050565b60006020601f8301049050919050565b600082821b905092915050565b600060088302614d377fffffffffffffffffffffffffffffffffffffffffffffffffffffffffffffffff82614cfa565b614d418683614cfa565b95508019841693508086168417925050509392505050565b6000614d74614d6f614d6a84613f28565b614653565b613f28565b9050919050565b6000819050919050565b614d8e83614d59565b614da2614d9a82614d7b565b848454614d07565b825550505050565b600090565b614db7614daa565b614dc2818484614d85565b505050565b5b81811015614de657614ddb600082614daf565b600181019050614dc8565b5050565b601f821115614e2b57614dfc81614cd5565b614e0584614cea565b81016020851015614e14578190505b614e28614e2085614cea565b830182614dc7565b50505b505050565b600082821c905092915050565b6000614e4e60001984600802614e30565b1980831691505092915050565b6000614e678383614e3d565b9150826002028217905092915050565b614e808261414d565b67ffffffffffffffff811115614e9957614e986143f9565b5b614ea382546149ca565b614eae828285614dea565b600060209050601f831160018114614ee15760008415614ecf578287015190505b614ed98582614e5b565b865550614f41565b601f198416614eef86614cd5565b60005b82811015614f1757848901518255600182019150602085019450602081019050614ef2565b86831015614f345784890151614f30601f891682614e3d565b8355505b6001600288020188555050505b505050505050565b7f4552433732313a20696e76616c696420746f6b656e2049440000000000000000600082015250565b6000614f7f601883614158565b9150614f8a82614f49565b602082019050919050565b60006020820190508181036000830152614fae81614f72565b9050919050565b7f5072696365206d75737420626520677265617465722074686174203000000000600082015250565b6000614feb601c83614158565b9150614ff682614fb5565b602082019050919050565b6000602082019050818103600083015261501a81614fde565b9050919050565b60006060820190506150366000830186614235565b6150436020830185614235565b615050604083018461438b565b949350505050565b600060e08201905061506d600083018a61438b565b61507a602083018961438b565b818103604083015261508c81886141ad565b905061509b606083018761438b565b6150a86080830186614235565b6150b560a083018561438b565b6150c260c0830184614235565b98975050505050505050565b7f4552433732313a2061646472657373207a65726f206973206e6f74206120766160008201527f6c6964206f776e65720000000000000000000000000000000000000000000000602082015250565b600061512a602983614158565b9150615135826150ce565b604082019050919050565b600060208201905081810360008301526151598161511d565b9050919050565b7f546865726520646f6e277420626520746f6b656e730000000000000000000000600082015250565b6000615196601583614158565b91506151a182615160565b602082019050919050565b600060208201905081810360008301526151c581615189565b9050919050565b600082825260208201905092915050565b50565b60006151ed6000836151cc565b91506151f8826151dd565b600082019050919050565b600060a0820190506152186000830186614235565b6152256020830185614235565b615232604083018461438b565b8181036060830152615243816151e0565b90508181036080830152615256816151e0565b9050949350505050565b7f5468697320746f6b656e20697320616c726561647920617070726f7665640000600082015250565b6000615296601e83614158565b91506152a182615260565b602082019050919050565b600060208201905081810360008301526152c581615289565b9050919050565b7f576520646f6e277420616363657074207468697320746f6b656e000000000000600082015250565b6000615302601a83614158565b915061530d826152cc565b602082019050919050565b60006020820190508181036000830152615331816152f5565b9050919050565b60008151905061534781613f32565b92915050565b60006020828403121561536357615362613ec0565b5b600061537184828501615338565b91505092915050565b7f496e73756666696369656e7420746f6b656e7300000000000000000000000000600082015250565b60006153b0601383614158565b91506153bb8261537a565b602082019050919050565b600060208201905081810360008301526153df816153a3565b9050919050565b7f4974656d20646f6e277420657869737400000000000000000000000000000000600082015250565b600061541c601083614158565b9150615427826153e6565b602082019050919050565b6000602082019050818103600083015261544b8161540f565b9050919050565b7f4974656d20616c726561647920736f6c64000000000000000000000000000000600082015250565b6000615488601183614158565b915061549382615452565b602082019050919050565b600060208201905081810360008301526154b78161547b565b9050919050565b60006040820190506154d36000830185614235565b6154e0602083018461438b565b9392505050565b6000815190506154f68161431f565b92915050565b60006020828403121561551257615511613ec0565b5b6000615520848285016154e7565b91505092915050565b7f596f75722066756e64732061726520696e73756666696369656e740000000000600082015250565b600061555f601b83614158565b915061556a82615529565b602082019050919050565b6000602082019050818103600083015261558e81615552565b9050919050565b600081905092915050565b7f3000000000000000000000000000000000000000000000000000000000000000600082015250565b60006155d6600183615595565b91506155e1826155a0565b600182019050919050565b7f2b00000000000000000000000000000000000000000000000000000000000000600082015250565b6000615622600183615595565b915061562d826155ec565b600182019050919050565b7f3300000000000000000000000000000000000000000000000000000000000000600082015250565b600061566e600183615595565b915061567982615638565b600182019050919050565b7f5472616e66657220416c65727400000000000000000000000000000000000000600082015250565b60006156ba600d83615595565b91506156c582615684565b600d82019050919050565b7f486f6f7261792120000000000000000000000000000000000000000000000000600082015250565b6000615706600883615595565b9150615711826156d0565b600882019050919050565b60006157278261414d565b6157318185615595565b9350615741818560208601614169565b80840191505092915050565b7f20626f75676874204e46542077697468207468652049643a2000000000000000600082015250565b6000615783601983615595565b915061578e8261574d565b601982019050919050565b6000819050919050565b6157b46157af82613f28565b615799565b82525050565b60006157c7600083615595565b91506157d2826151dd565b600082019050919050565b60006157e8826155c9565b91506157f382615615565b91506157fe82615661565b915061580982615615565b9150615814826156ad565b915061581f82615615565b915061582a826156f9565b9150615836828561571c565b915061584182615776565b915061584d82846157a3565b60208201915061585c826157ba565b91508190509392505050565b600081519050919050565b600061587e82615868565b61588881856151cc565b9350615898818560208601614169565b6158a18161419c565b840191505092915050565b60006060820190506158c16000830186614235565b6158ce6020830185614235565b81810360408301526158e08184615873565b9050949350505050565b60006158f6828561571c565b9150615902828461571c565b91508190509392505050565b7f4552433732313a207472616e736665722066726f6d20696e636f72726563742060008201527f6f776e6572000000000000000000000000000000000000000000000000000000602082015250565b600061596a602583614158565b91506159758261590e565b604082019050919050565b600060208201905081810360008301526159998161595d565b9050919050565b7f4552433732313a207472616e7366657220746f20746865207a65726f2061646460008201527f7265737300000000000000000000000000000000000000000000000000000000602082015250565b60006159fc602483614158565b9150615a07826159a0565b604082019050919050565b60006020820190508181036000830152615a2b816159ef565b9050919050565b7f596f75722066756e64732061726520696e73756666696369656e747300000000600082015250565b6000615a68601c83614158565b9150615a7382615a32565b602082019050919050565b60006020820190508181036000830152615a9781615a5b565b9050919050565b7f45524337323155524953746f726167653a2055524920736574206f66206e6f6e60008201527f6578697374656e7420746f6b656e000000000000000000000000000000000000602082015250565b6000615afa602e83614158565b9150615b0582615a9e565b604082019050919050565b60006020820190508181036000830152615b2981615aed565b9050919050565b7f5265656e7472616e637947756172643a207265656e7472616e742063616c6c00600082015250565b6000615b66601f83614158565b9150615b7182615b30565b602082019050919050565b60006020820190508181036000830152615b9581615b59565b9050919050565b7f4e487b7100000000000000000000000000000000000000000000000000000000600052603260045260246000fd5b6000615bd682613f28565b9150615be183613f28565b9250817fffffffffffffffffffffffffffffffffffffffffffffffffffffffffffffffff0483118215151615615c1a57615c19614916565b5b828202905092915050565b6000615c3082613f28565b91507fffffffffffffffffffffffffffffffffffffffffffffffffffffffffffffffff8203615c6257615c61614916565b5b600182019050919050565b7f4552433732313a20617070726f766520746f2063616c6c657200000000000000600082015250565b6000615ca3601983614158565b9150615cae82615c6d565b602082019050919050565b60006020820190508181036000830152615cd281615c96565b9050919050565b7f4552433732313a207472616e7366657220746f206e6f6e20455243373231526560008201527f63656976657220696d706c656d656e7465720000000000000000000000000000602082015250565b6000615d35603283614158565b9150615d4082615cd9565b604082019050919050565b60006020820190508181036000830152615d6481615d28565b9050919050565b6000615d7682613f28565b9150615d8183613f28565b925082821015615d9457615d93614916565b5b828203905092915050565b6000608082019050615db46000830187614235565b615dc16020830186614235565b615dce604083018561438b565b8181036060830152615de08184615873565b905095945050505050565b600081519050615dfa816140be565b92915050565b600060208284031215615e1657615e15613ec0565b5b6000615e2484828501615deb565b91505092915050565b7f4e487b7100000000000000000000000000000000000000000000000000000000600052601260045260246000fd5b7f4552433732313a206d696e7420746f20746865207a65726f2061646472657373600082015250565b6000615e92602083614158565b9150615e9d82615e5c565b602082019050919050565b60006020820190508181036000830152615ec181615e85565b9050919050565b7f4552433732313a20746f6b656e20616c7265616479206d696e74656400000000600082015250565b6000615efe601c83614158565b9150615f0982615ec8565b602082019050919050565b60006020820190508181036000830152615f2d81615ef1565b905091905056fea26469706673582212206333ea71be83e3f971b3877ebe0122ea465302e6b9228cf86990621b9126c06064736f6c634300080f0033",
  "linkReferences": {},
  "deployedLinkReferences": {}
}