{
  "_format": "hh-sol-artifact-1",
  "contractName": "MarketplaceContract",
  "sourceName": "src/blockchain/hardhat/contracts/MarketplaceContract.sol",
  "abi": [
    {
      "inputs": [
        {
          "internalType": "address",
          "name": "_erc777Address",
          "type": "address"
        }
      ],
      "stateMutability": "nonpayable",
      "type": "constructor"
    },
    {
      "anonymous": false,
      "inputs": [
        {
          "indexed": true,
          "internalType": "address",
          "name": "owner",
          "type": "address"
        },
        {
          "indexed": true,
          "internalType": "address",
          "name": "approved",
          "type": "address"
        },
        {
          "indexed": true,
          "internalType": "uint256",
          "name": "tokenId",
          "type": "uint256"
        }
      ],
      "name": "Approval",
      "type": "event"
    },
    {
      "anonymous": false,
      "inputs": [
        {
          "indexed": true,
          "internalType": "address",
          "name": "owner",
          "type": "address"
        },
        {
          "indexed": true,
          "internalType": "address",
          "name": "operator",
          "type": "address"
        },
        {
          "indexed": false,
          "internalType": "bool",
          "name": "approved",
          "type": "bool"
        }
      ],
      "name": "ApprovalForAll",
      "type": "event"
    },
    {
      "anonymous": false,
      "inputs": [
        {
          "indexed": false,
          "internalType": "uint256",
          "name": "_itemId",
          "type": "uint256"
        },
        {
          "indexed": true,
          "internalType": "address",
          "name": "_nft",
          "type": "address"
        },
        {
          "indexed": false,
          "internalType": "uint256",
          "name": "_tokenId",
          "type": "uint256"
        },
        {
          "indexed": false,
          "internalType": "string",
          "name": "_tokenURI",
          "type": "string"
        },
        {
          "indexed": false,
          "internalType": "uint256",
          "name": "_price",
          "type": "uint256"
        },
        {
          "indexed": false,
          "internalType": "address",
          "name": "_artist",
          "type": "address"
        },
        {
          "indexed": false,
          "internalType": "uint256",
          "name": "_taxFee",
          "type": "uint256"
        },
        {
          "indexed": false,
          "internalType": "address",
          "name": "_addressTaxFeeToken",
          "type": "address"
        },
        {
          "indexed": true,
          "internalType": "address",
          "name": "_buyer",
          "type": "address"
        }
      ],
      "name": "Bought",
      "type": "event"
    },
    {
      "anonymous": false,
      "inputs": [
        {
          "indexed": false,
          "internalType": "uint256",
          "name": "_itemId",
          "type": "uint256"
        },
        {
          "indexed": true,
          "internalType": "address",
          "name": "_nft",
          "type": "address"
        },
        {
          "indexed": false,
          "internalType": "uint256",
          "name": "_tokenId",
          "type": "uint256"
        },
        {
          "indexed": false,
          "internalType": "string",
          "name": "_tokenURI",
          "type": "string"
        },
        {
          "indexed": false,
          "internalType": "uint256",
          "name": "_price",
          "type": "uint256"
        },
        {
          "indexed": false,
          "internalType": "address",
          "name": "_artist",
          "type": "address"
        },
        {
          "indexed": false,
          "internalType": "uint256",
          "name": "_taxFee",
          "type": "uint256"
        },
        {
          "indexed": false,
          "internalType": "address",
          "name": "_addressTaxFeeToken",
          "type": "address"
        },
        {
          "indexed": true,
          "internalType": "address",
          "name": "_seller",
          "type": "address"
        }
      ],
      "name": "Offerd",
      "type": "event"
    },
    {
      "anonymous": false,
      "inputs": [
        {
          "indexed": true,
          "internalType": "address",
          "name": "from",
          "type": "address"
        },
        {
          "indexed": true,
          "internalType": "address",
          "name": "to",
          "type": "address"
        },
        {
          "indexed": true,
          "internalType": "uint256",
          "name": "tokenId",
          "type": "uint256"
        }
      ],
      "name": "Transfer",
      "type": "event"
    },
    {
      "inputs": [],
      "name": "EPNS_COMM_ADDRESS",
      "outputs": [
        {
          "internalType": "address",
          "name": "",
          "type": "address"
        }
      ],
      "stateMutability": "view",
      "type": "function"
    },
    {
      "inputs": [],
      "name": "ItemCounter",
      "outputs": [
        {
          "internalType": "uint256",
          "name": "_value",
          "type": "uint256"
        }
      ],
      "stateMutability": "view",
      "type": "function"
    },
    {
      "inputs": [],
      "name": "account",
      "outputs": [
        {
          "internalType": "address",
          "name": "",
          "type": "address"
        }
      ],
      "stateMutability": "view",
      "type": "function"
    },
    {
      "inputs": [
        {
          "internalType": "address",
          "name": "_addressToken",
          "type": "address"
        }
      ],
      "name": "addContractToken",
      "outputs": [],
      "stateMutability": "nonpayable",
      "type": "function"
    },
    {
      "inputs": [],
      "name": "amount",
      "outputs": [
        {
          "internalType": "uint256",
          "name": "",
          "type": "uint256"
        }
      ],
      "stateMutability": "view",
      "type": "function"
    },
    {
      "inputs": [
        {
          "internalType": "address",
          "name": "to",
          "type": "address"
        },
        {
          "internalType": "uint256",
          "name": "tokenId",
          "type": "uint256"
        }
      ],
      "name": "approve",
      "outputs": [],
      "stateMutability": "nonpayable",
      "type": "function"
    },
    {
      "inputs": [
        {
          "internalType": "address",
          "name": "owner",
          "type": "address"
        }
      ],
      "name": "balanceOf",
      "outputs": [
        {
          "internalType": "uint256",
          "name": "",
          "type": "uint256"
        }
      ],
      "stateMutability": "view",
      "type": "function"
    },
    {
      "inputs": [
        {
          "internalType": "address",
          "name": "_cycliAddress",
          "type": "address"
        },
        {
          "internalType": "uint256",
          "name": "_itemId",
          "type": "uint256"
        }
      ],
      "name": "buyItem",
      "outputs": [],
      "stateMutability": "payable",
      "type": "function"
    },
    {
      "inputs": [],
      "name": "erc777",
      "outputs": [
        {
          "internalType": "contract ERC777",
          "name": "",
          "type": "address"
        }
      ],
      "stateMutability": "view",
      "type": "function"
    },
    {
      "inputs": [
        {
          "internalType": "uint256",
          "name": "tokenId",
          "type": "uint256"
        }
      ],
      "name": "getApproved",
      "outputs": [
        {
          "internalType": "address",
          "name": "",
          "type": "address"
        }
      ],
      "stateMutability": "view",
      "type": "function"
    },
    {
      "inputs": [
        {
          "internalType": "address",
          "name": "owner",
          "type": "address"
        },
        {
          "internalType": "address",
          "name": "operator",
          "type": "address"
        }
      ],
      "name": "isApprovedForAll",
      "outputs": [
        {
          "internalType": "bool",
          "name": "",
          "type": "bool"
        }
      ],
      "stateMutability": "view",
      "type": "function"
    },
    {
      "inputs": [
        {
          "internalType": "uint256",
          "name": "",
          "type": "uint256"
        }
      ],
      "name": "items",
      "outputs": [
        {
          "internalType": "uint256",
          "name": "itemId",
          "type": "uint256"
        },
        {
          "internalType": "contract IERC721",
          "name": "nft",
          "type": "address"
        },
        {
          "internalType": "uint256",
          "name": "tokenId",
          "type": "uint256"
        },
        {
          "internalType": "string",
          "name": "tokenURI",
          "type": "string"
        },
        {
          "internalType": "uint256",
          "name": "price",
          "type": "uint256"
        },
        {
          "internalType": "address",
          "name": "artist",
          "type": "address"
        },
        {
          "internalType": "uint256",
          "name": "tokenTaxFee",
          "type": "uint256"
        },
        {
          "internalType": "address",
          "name": "addressTaxFeeToken",
          "type": "address"
        },
        {
          "internalType": "bool",
          "name": "sold",
          "type": "bool"
        },
        {
          "internalType": "address payable",
          "name": "seller",
          "type": "address"
        }
      ],
      "stateMutability": "view",
      "type": "function"
    },
    {
      "inputs": [
        {
          "internalType": "string",
          "name": "_tokenURI",
          "type": "string"
        },
        {
          "internalType": "address",
          "name": "_artist",
          "type": "address"
        },
        {
          "internalType": "uint256",
          "name": "_taxFee",
          "type": "uint256"
        },
        {
          "internalType": "address",
          "name": "_addressTaxFeeToken",
          "type": "address"
        }
      ],
      "name": "mint",
      "outputs": [
        {
          "internalType": "uint256",
          "name": "",
          "type": "uint256"
        }
      ],
      "stateMutability": "nonpayable",
      "type": "function"
    },
    {
      "inputs": [],
      "name": "name",
      "outputs": [
        {
          "internalType": "string",
          "name": "",
          "type": "string"
        }
      ],
      "stateMutability": "view",
      "type": "function"
    },
    {
      "inputs": [
        {
          "internalType": "uint256",
          "name": "tokenId",
          "type": "uint256"
        }
      ],
      "name": "ownerOf",
      "outputs": [
        {
          "internalType": "address",
          "name": "",
          "type": "address"
        }
      ],
      "stateMutability": "view",
      "type": "function"
    },
    {
      "inputs": [
        {
          "internalType": "address",
          "name": "_from",
          "type": "address"
        },
        {
          "internalType": "address",
          "name": "_to",
          "type": "address"
        },
        {
          "internalType": "uint256",
          "name": "_tokenId",
          "type": "uint256"
        }
      ],
      "name": "safeTransferFrom",
      "outputs": [],
      "stateMutability": "nonpayable",
      "type": "function"
    },
    {
      "inputs": [
        {
          "internalType": "address",
          "name": "_from",
          "type": "address"
        },
        {
          "internalType": "address",
          "name": "_to",
          "type": "address"
        },
        {
          "internalType": "uint256",
          "name": "_tokenId",
          "type": "uint256"
        },
        {
          "internalType": "bytes",
          "name": "_data",
          "type": "bytes"
        }
      ],
      "name": "safeTransferFrom",
      "outputs": [],
      "stateMutability": "nonpayable",
      "type": "function"
    },
    {
      "inputs": [
        {
          "internalType": "contract IERC721",
          "name": "_nft",
          "type": "address"
        },
        {
          "internalType": "uint256",
          "name": "_tokenId",
          "type": "uint256"
        },
        {
          "internalType": "uint256",
          "name": "_price",
          "type": "uint256"
        }
      ],
      "name": "sellItem",
      "outputs": [],
      "stateMutability": "nonpayable",
      "type": "function"
    },
    {
      "inputs": [
        {
          "internalType": "address",
          "name": "operator",
          "type": "address"
        },
        {
          "internalType": "bool",
          "name": "approved",
          "type": "bool"
        }
      ],
      "name": "setApprovalForAll",
      "outputs": [],
      "stateMutability": "nonpayable",
      "type": "function"
    },
    {
      "inputs": [
        {
          "internalType": "address",
          "name": "_excluded",
          "type": "address"
        },
        {
          "internalType": "bool",
          "name": "_status",
          "type": "bool"
        }
      ],
      "name": "setExcluded",
      "outputs": [],
      "stateMutability": "nonpayable",
      "type": "function"
    },
    {
      "inputs": [
        {
          "internalType": "bytes4",
          "name": "interfaceId",
          "type": "bytes4"
        }
      ],
      "name": "supportsInterface",
      "outputs": [
        {
          "internalType": "bool",
          "name": "",
          "type": "bool"
        }
      ],
      "stateMutability": "view",
      "type": "function"
    },
    {
      "inputs": [],
      "name": "symbol",
      "outputs": [
        {
          "internalType": "string",
          "name": "",
          "type": "string"
        }
      ],
      "stateMutability": "view",
      "type": "function"
    },
    {
      "inputs": [
        {
          "internalType": "address",
          "name": "",
          "type": "address"
        }
      ],
      "name": "tokenApproved",
      "outputs": [
        {
          "internalType": "bool",
          "name": "",
          "type": "bool"
        }
      ],
      "stateMutability": "view",
      "type": "function"
    },
    {
      "inputs": [],
      "name": "tokenIdCounter",
      "outputs": [
        {
          "internalType": "uint256",
          "name": "_value",
          "type": "uint256"
        }
      ],
      "stateMutability": "view",
      "type": "function"
    },
    {
      "inputs": [
        {
          "internalType": "uint256",
          "name": "tokenId",
          "type": "uint256"
        }
      ],
      "name": "tokenURI",
      "outputs": [
        {
          "internalType": "string",
          "name": "",
          "type": "string"
        }
      ],
      "stateMutability": "view",
      "type": "function"
    },
    {
      "inputs": [
        {
          "internalType": "uint256",
          "name": "",
          "type": "uint256"
        }
      ],
      "name": "tokens",
      "outputs": [
        {
          "internalType": "uint256",
          "name": "id",
          "type": "uint256"
        },
        {
          "internalType": "string",
          "name": "URI",
          "type": "string"
        },
        {
          "internalType": "address",
          "name": "artist",
          "type": "address"
        },
        {
          "internalType": "uint256",
          "name": "taxFee",
          "type": "uint256"
        },
        {
          "internalType": "address",
          "name": "addressTaxFeeToken",
          "type": "address"
        }
      ],
      "stateMutability": "view",
      "type": "function"
    },
    {
      "inputs": [
        {
          "internalType": "address",
          "name": "_operator",
          "type": "address"
        },
        {
          "internalType": "address",
          "name": "_from",
          "type": "address"
        },
        {
          "internalType": "address",
          "name": "_to",
          "type": "address"
        },
        {
          "internalType": "uint256",
          "name": "_amount",
          "type": "uint256"
        },
        {
          "internalType": "bytes",
          "name": "_userData",
          "type": "bytes"
        },
        {
          "internalType": "bytes",
          "name": "_operatorData",
          "type": "bytes"
        }
      ],
      "name": "tokensReceived",
      "outputs": [],
      "stateMutability": "nonpayable",
      "type": "function"
    },
    {
      "inputs": [
        {
          "internalType": "address",
          "name": "_from",
          "type": "address"
        },
        {
          "internalType": "address",
          "name": "_to",
          "type": "address"
        },
        {
          "internalType": "uint256",
          "name": "_tokenId",
          "type": "uint256"
        }
      ],
      "name": "transferFrom",
      "outputs": [],
      "stateMutability": "nonpayable",
      "type": "function"
    },
    {
      "inputs": [],
      "name": "withdrawTokens",
      "outputs": [],
      "stateMutability": "nonpayable",
      "type": "function"
    }
  ],
  "bytecode": "0x60c060405273b3971bcef2d791bc4027bbfedfb47319a4aaaaaa601060006101000a81548173ffffffffffffffffffffffffffffffffffffffff021916908373ffffffffffffffffffffffffffffffffffffffff1602179055503480156200006657600080fd5b50604051620065c9380380620065c983398181016040528101906200008c9190620002a8565b806040518060400160405280600981526020017f4379636c696d61746500000000000000000000000000000000000000000000008152506040518060400160405280600481526020017f43434c4d0000000000000000000000000000000000000000000000000000000081525081600090816200010a919062000554565b5080600190816200011c919062000554565b5050506001600781905550731820a4b7618bde71dce8cdc73aab6c95905fad2473ffffffffffffffffffffffffffffffffffffffff166329965a1d307fb281fc8c12954d22544db45de3159a39272895b169a852b314f9cc762e44c53b306040518463ffffffff1660e01b81526004016200019a9392919062000667565b600060405180830381600087803b158015620001b557600080fd5b505af1158015620001ca573d6000803e3d6000fd5b505050508073ffffffffffffffffffffffffffffffffffffffff1660808173ffffffffffffffffffffffffffffffffffffffff16815250503373ffffffffffffffffffffffffffffffffffffffff1660a08173ffffffffffffffffffffffffffffffffffffffff16815250505050620006a4565b600080fd5b600073ffffffffffffffffffffffffffffffffffffffff82169050919050565b6000620002708262000243565b9050919050565b620002828162000263565b81146200028e57600080fd5b50565b600081519050620002a28162000277565b92915050565b600060208284031215620002c157620002c06200023e565b5b6000620002d18482850162000291565b91505092915050565b600081519050919050565b7f4e487b7100000000000000000000000000000000000000000000000000000000600052604160045260246000fd5b7f4e487b7100000000000000000000000000000000000000000000000000000000600052602260045260246000fd5b600060028204905060018216806200035c57607f821691505b60208210810362000372576200037162000314565b5b50919050565b60008190508160005260206000209050919050565b60006020601f8301049050919050565b600082821b905092915050565b600060088302620003dc7fffffffffffffffffffffffffffffffffffffffffffffffffffffffffffffffff826200039d565b620003e886836200039d565b95508019841693508086168417925050509392505050565b6000819050919050565b6000819050919050565b6000620004356200042f620004298462000400565b6200040a565b62000400565b9050919050565b6000819050919050565b620004518362000414565b6200046962000460826200043c565b848454620003aa565b825550505050565b600090565b6200048062000471565b6200048d81848462000446565b505050565b5b81811015620004b557620004a960008262000476565b60018101905062000493565b5050565b601f8211156200050457620004ce8162000378565b620004d9846200038d565b81016020851015620004e9578190505b62000501620004f8856200038d565b83018262000492565b50505b505050565b600082821c905092915050565b6000620005296000198460080262000509565b1980831691505092915050565b600062000544838362000516565b9150826002028217905092915050565b6200055f82620002da565b67ffffffffffffffff8111156200057b576200057a620002e5565b5b62000587825462000343565b62000594828285620004b9565b600060209050601f831160018114620005cc5760008415620005b7578287015190505b620005c3858262000536565b86555062000633565b601f198416620005dc8662000378565b60005b828110156200060657848901518255600182019150602085019450602081019050620005df565b8683101562000626578489015162000622601f89168262000516565b8355505b6001600288020188555050505b505050505050565b620006468162000263565b82525050565b6000819050919050565b62000661816200064c565b82525050565b60006060820190506200067e60008301866200063b565b6200068d602083018562000656565b6200069c60408301846200063b565b949350505050565b60805160a051615edc620006ed60003960008181611000015281816118590152611a6501526000818161192c01528181611be101528181612fe901526137530152615edc6000f3fe6080604052600436106101c15760003560e01c806368915327116100f75780639f37092a11610095578063bfb231d211610064578063bfb231d214610646578063c87b56dd1461068c578063e985e9c5146106c9578063f958aada14610706576101c1565b80639f37092a146105ad578063a22cb465146105c9578063aa8c217c146105f2578063b88d4fde1461061d576101c1565b806395d89b41116100d157806395d89b411461050357806398bdf6f51461052e5780639e70b75c146105595780639e8e4d1d14610582576101c1565b8063689153271461048657806370a08231146104af5780638d8f2adb146104ec576101c1565b80632836be24116101645780634f64b2be1161013e5780634f64b2be146103a05780635dab2420146103e157806360c6a3c81461040c5780636352211e14610449576101c1565b80632836be241461032357806342842e0e1461034c57806348a3b4a414610375576101c1565b8063081812fc116101a0578063081812fc14610257578063095ea7b314610294578063170e2b8a146102bd57806323b872dd146102fa576101c1565b806223de29146101c657806301ffc9a7146101ef57806306fdde031461022c575b600080fd5b3480156101d257600080fd5b506101ed60048036038101906101e89190613f35565b610731565b005b3480156101fb57600080fd5b506102166004803603810190610211919061405c565b610754565b60405161022391906140a4565b60405180910390f35b34801561023857600080fd5b50610241610836565b60405161024e9190614158565b60405180910390f35b34801561026357600080fd5b5061027e6004803603810190610279919061417a565b6108c8565b60405161028b91906141b6565b60405180910390f35b3480156102a057600080fd5b506102bb60048036038101906102b691906141d1565b61090e565b005b3480156102c957600080fd5b506102e460048036038101906102df9190614211565b610a25565b6040516102f191906140a4565b60405180910390f35b34801561030657600080fd5b50610321600480360381019061031c919061423e565b610a45565b005b34801561032f57600080fd5b5061034a600480360381019061034591906142bd565b610c1f565b005b34801561035857600080fd5b50610373600480360381019061036e919061423e565b610d84565b005b34801561038157600080fd5b5061038a610eda565b60405161039791906141b6565b60405180910390f35b3480156103ac57600080fd5b506103c760048036038101906103c2919061417a565b610f00565b6040516103d895949392919061430c565b60405180910390f35b3480156103ed57600080fd5b506103f6610ffe565b60405161040391906141b6565b60405180910390f35b34801561041857600080fd5b50610433600480360381019061042e9190614496565b611022565b6040516104409190614519565b60405180910390f35b34801561045557600080fd5b50610470600480360381019061046b919061417a565b6111fb565b60405161047d91906141b6565b60405180910390f35b34801561049257600080fd5b506104ad60048036038101906104a89190614572565b611281565b005b3480156104bb57600080fd5b506104d660048036038101906104d19190614211565b6117a0565b6040516104e39190614519565b60405180910390f35b3480156104f857600080fd5b50610501611857565b005b34801561050f57600080fd5b506105186119c5565b6040516105259190614158565b60405180910390f35b34801561053a57600080fd5b50610543611a57565b6040516105509190614519565b60405180910390f35b34801561056557600080fd5b50610580600480360381019061057b9190614211565b611a63565b005b34801561058e57600080fd5b50610597611bdf565b6040516105a49190614624565b60405180910390f35b6105c760048036038101906105c291906141d1565b611c03565b005b3480156105d557600080fd5b506105f060048036038101906105eb91906142bd565b612311565b005b3480156105fe57600080fd5b50610607612327565b6040516106149190614519565b60405180910390f35b34801561062957600080fd5b50610644600480360381019061063f91906146e0565b61232d565b005b34801561065257600080fd5b5061066d6004803603810190610668919061417a565b6124c5565b6040516106839a999897969594939291906147a5565b60405180910390f35b34801561069857600080fd5b506106b360048036038101906106ae919061417a565b61262e565b6040516106c09190614158565b60405180910390f35b3480156106d557600080fd5b506106f060048036038101906106eb9190614848565b612740565b6040516106fd91906140a4565b60405180910390f35b34801561071257600080fd5b5061071b6127d4565b6040516107289190614519565b60405180910390f35b846008600082825461074391906148b7565b925050819055505050505050505050565b60007f80ac58cd000000000000000000000000000000000000000000000000000000007bffffffffffffffffffffffffffffffffffffffffffffffffffffffff1916827bffffffffffffffffffffffffffffffffffffffffffffffffffffffff1916148061081f57507f5b5e139f000000000000000000000000000000000000000000000000000000007bffffffffffffffffffffffffffffffffffffffffffffffffffffffff1916827bffffffffffffffffffffffffffffffffffffffffffffffffffffffff1916145b8061082f575061082e826127e0565b5b9050919050565b6060600080546108459061493c565b80601f01602080910402602001604051908101604052809291908181526020018280546108719061493c565b80156108be5780601f10610893576101008083540402835291602001916108be565b820191906000526020600020905b8154815290600101906020018083116108a157829003601f168201915b5050505050905090565b60006108d38261284a565b6004600083815260200190815260200160002060009054906101000a900473ffffffffffffffffffffffffffffffffffffffff169050919050565b6000610919826111fb565b90508073ffffffffffffffffffffffffffffffffffffffff168373ffffffffffffffffffffffffffffffffffffffff1603610989576040517f08c379a0000000000000000000000000000000000000000000000000000000008152600401610980906149df565b60405180910390fd5b8073ffffffffffffffffffffffffffffffffffffffff166109a8612895565b73ffffffffffffffffffffffffffffffffffffffff1614806109d757506109d6816109d1612895565b612740565b5b610a16576040517f08c379a0000000000000000000000000000000000000000000000000000000008152600401610a0d90614a71565b60405180910390fd5b610a20838361289d565b505050565b600d6020528060005260406000206000915054906101000a900460ff1681565b3073ffffffffffffffffffffffffffffffffffffffff168273ffffffffffffffffffffffffffffffffffffffff1603610a8857610a83838383612956565b610c1a565b610a99610a93612895565b82612c4f565b610ad8576040517f08c379a0000000000000000000000000000000000000000000000000000000008152600401610acf90614b03565b60405180910390fd5b6000600c600083815260200190815260200160002060020160009054906101000a900473ffffffffffffffffffffffffffffffffffffffff16905060001515600f60008373ffffffffffffffffffffffffffffffffffffffff1673ffffffffffffffffffffffffffffffffffffffff16815260200190815260200160002060008673ffffffffffffffffffffffffffffffffffffffff1673ffffffffffffffffffffffffffffffffffffffff16815260200190815260200160002060009054906101000a900460ff16151503610c0d576000600c60008481526020019081526020016000206003015490506000600c600085815260200190815260200160002060040160009054906101000a900473ffffffffffffffffffffffffffffffffffffffff169050610c0a86848484612ce4565b50505b610c18848484612956565b505b505050565b3373ffffffffffffffffffffffffffffffffffffffff16600e60003373ffffffffffffffffffffffffffffffffffffffff1673ffffffffffffffffffffffffffffffffffffffff16815260200190815260200160002060009054906101000a900473ffffffffffffffffffffffffffffffffffffffff1673ffffffffffffffffffffffffffffffffffffffff1614610cec576040517f08c379a0000000000000000000000000000000000000000000000000000000008152600401610ce390614b95565b60405180910390fd5b80600f60003373ffffffffffffffffffffffffffffffffffffffff1673ffffffffffffffffffffffffffffffffffffffff16815260200190815260200160002060008473ffffffffffffffffffffffffffffffffffffffff1673ffffffffffffffffffffffffffffffffffffffff16815260200190815260200160002060006101000a81548160ff0219169083151502179055505050565b6000600c600083815260200190815260200160002060020160009054906101000a900473ffffffffffffffffffffffffffffffffffffffff16905060001515600f60008373ffffffffffffffffffffffffffffffffffffffff1673ffffffffffffffffffffffffffffffffffffffff16815260200190815260200160002060008673ffffffffffffffffffffffffffffffffffffffff1673ffffffffffffffffffffffffffffffffffffffff16815260200190815260200160002060009054906101000a900460ff16151503610eb9576000600c60008481526020019081526020016000206003015490506000600c600085815260200190815260200160002060040160009054906101000a900473ffffffffffffffffffffffffffffffffffffffff169050610eb686848484612ce4565b50505b610ed48484846040518060200160405280600081525061232d565b50505050565b601060009054906101000a900473ffffffffffffffffffffffffffffffffffffffff1681565b600c602052806000526040600020600091509050806000015490806001018054610f299061493c565b80601f0160208091040260200160405190810160405280929190818152602001828054610f559061493c565b8015610fa25780601f10610f7757610100808354040283529160200191610fa2565b820191906000526020600020905b815481529060010190602001808311610f8557829003601f168201915b5050505050908060020160009054906101000a900473ffffffffffffffffffffffffffffffffffffffff16908060030154908060040160009054906101000a900473ffffffffffffffffffffffffffffffffffffffff16905085565b7f000000000000000000000000000000000000000000000000000000000000000081565b600083600e60008673ffffffffffffffffffffffffffffffffffffffff1673ffffffffffffffffffffffffffffffffffffffff16815260200190815260200160002060006101000a81548173ffffffffffffffffffffffffffffffffffffffff021916908373ffffffffffffffffffffffffffffffffffffffff16021790555060006110ae600a612ea2565b90506110ba600a612eb0565b6110c43382612ec6565b6110ce8187612ee4565b6040518060a001604052808281526020018781526020018673ffffffffffffffffffffffffffffffffffffffff1681526020018581526020018473ffffffffffffffffffffffffffffffffffffffff16815250600c60008381526020019081526020016000206000820151816000015560208201518160010190816111539190614d57565b5060408201518160020160006101000a81548173ffffffffffffffffffffffffffffffffffffffff021916908373ffffffffffffffffffffffffffffffffffffffff1602179055506060820151816003015560808201518160040160006101000a81548173ffffffffffffffffffffffffffffffffffffffff021916908373ffffffffffffffffffffffffffffffffffffffff16021790555090505080915050949350505050565b60008061120783612f51565b9050600073ffffffffffffffffffffffffffffffffffffffff168173ffffffffffffffffffffffffffffffffffffffff1603611278576040517f08c379a000000000000000000000000000000000000000000000000000000000815260040161126f90614e75565b60405180910390fd5b80915050919050565b611289612f8e565b600081116112cc576040517f08c379a00000000000000000000000000000000000000000000000000000000081526004016112c390614ee1565b60405180910390fd5b6112d66009612eb0565b60006112e26009612ea2565b90508373ffffffffffffffffffffffffffffffffffffffff166323b872dd3330866040518463ffffffff1660e01b815260040161132193929190614f01565b600060405180830381600087803b15801561133b57600080fd5b505af115801561134f573d6000803e3d6000fd5b505050506000600c60008581526020019081526020016000206040518060a00160405290816000820154815260200160018201805461138d9061493c565b80601f01602080910402602001604051908101604052809291908181526020018280546113b99061493c565b80156114065780601f106113db57610100808354040283529160200191611406565b820191906000526020600020905b8154815290600101906020018083116113e957829003601f168201915b505050505081526020016002820160009054906101000a900473ffffffffffffffffffffffffffffffffffffffff1673ffffffffffffffffffffffffffffffffffffffff1673ffffffffffffffffffffffffffffffffffffffff168152602001600382015481526020016004820160009054906101000a900473ffffffffffffffffffffffffffffffffffffffff1673ffffffffffffffffffffffffffffffffffffffff1673ffffffffffffffffffffffffffffffffffffffff1681525050905060006040518061014001604052808481526020018773ffffffffffffffffffffffffffffffffffffffff16815260200186815260200183602001518152602001858152602001836040015173ffffffffffffffffffffffffffffffffffffffff16815260200183606001518152602001836080015173ffffffffffffffffffffffffffffffffffffffff1681526020016000151581526020013373ffffffffffffffffffffffffffffffffffffffff16815250905080600b60008581526020019081526020016000206000820151816000015560208201518160010160006101000a81548173ffffffffffffffffffffffffffffffffffffffff021916908373ffffffffffffffffffffffffffffffffffffffff1602179055506040820151816002015560608201518160030190816116009190614d57565b506080820151816004015560a08201518160050160006101000a81548173ffffffffffffffffffffffffffffffffffffffff021916908373ffffffffffffffffffffffffffffffffffffffff16021790555060c0820151816006015560e08201518160070160006101000a81548173ffffffffffffffffffffffffffffffffffffffff021916908373ffffffffffffffffffffffffffffffffffffffff1602179055506101008201518160070160146101000a81548160ff0219169083151502179055506101208201518160080160006101000a81548173ffffffffffffffffffffffffffffffffffffffff021916908373ffffffffffffffffffffffffffffffffffffffff1602179055509050503373ffffffffffffffffffffffffffffffffffffffff168673ffffffffffffffffffffffffffffffffffffffff167f975211cbc9861c9448d1a3c68ce608f0445c3ecf60a30bcca7fb923d4056b7948588866020015189886040015189606001518a608001516040516117889796959493929190614f38565b60405180910390a350505061179b612fdd565b505050565b60008073ffffffffffffffffffffffffffffffffffffffff168273ffffffffffffffffffffffffffffffffffffffff1603611810576040517f08c379a000000000000000000000000000000000000000000000000000000000815260040161180790615020565b60405180910390fd5b600360008373ffffffffffffffffffffffffffffffffffffffff1673ffffffffffffffffffffffffffffffffffffffff168152602001908152602001600020549050919050565b7f000000000000000000000000000000000000000000000000000000000000000073ffffffffffffffffffffffffffffffffffffffff163373ffffffffffffffffffffffffffffffffffffffff16146118e5576040517f08c379a00000000000000000000000000000000000000000000000000000000081526004016118dc906150b2565b60405180910390fd5b60006008541161192a576040517f08c379a00000000000000000000000000000000000000000000000000000000081526004016119219061511e565b60405180910390fd5b7f000000000000000000000000000000000000000000000000000000000000000073ffffffffffffffffffffffffffffffffffffffff166362ad1b8330336008546040518463ffffffff1660e01b815260040161198993929190615175565b600060405180830381600087803b1580156119a357600080fd5b505af11580156119b7573d6000803e3d6000fd5b505050506000600881905550565b6060600180546119d49061493c565b80601f0160208091040260200160405190810160405280929190818152602001828054611a009061493c565b8015611a4d5780601f10611a2257610100808354040283529160200191611a4d565b820191906000526020600020905b815481529060010190602001808311611a3057829003601f168201915b5050505050905090565b600a8060000154905081565b7f000000000000000000000000000000000000000000000000000000000000000073ffffffffffffffffffffffffffffffffffffffff163373ffffffffffffffffffffffffffffffffffffffff1614611af1576040517f08c379a0000000000000000000000000000000000000000000000000000000008152600401611ae8906150b2565b60405180910390fd5b60001515600d60008373ffffffffffffffffffffffffffffffffffffffff1673ffffffffffffffffffffffffffffffffffffffff16815260200190815260200160002060009054906101000a900460ff16151514611b84576040517f08c379a0000000000000000000000000000000000000000000000000000000008152600401611b7b9061521e565b60405180910390fd5b6001600d60008373ffffffffffffffffffffffffffffffffffffffff1673ffffffffffffffffffffffffffffffffffffffff16815260200190815260200160002060006101000a81548160ff02191690831515021790555050565b7f000000000000000000000000000000000000000000000000000000000000000081565b611c0b612f8e565b6000600b60008381526020019081526020016000206004015490506000600b6000848152602001908152602001600020905060011515600d60008673ffffffffffffffffffffffffffffffffffffffff1673ffffffffffffffffffffffffffffffffffffffff16815260200190815260200160002060009054906101000a900460ff16151514611cd0576040517f08c379a0000000000000000000000000000000000000000000000000000000008152600401611cc79061528a565b60405180910390fd5b818473ffffffffffffffffffffffffffffffffffffffff1663f38e266a336040518263ffffffff1660e01b8152600401611d0a91906141b6565b602060405180830381865afa158015611d27573d6000803e3d6000fd5b505050506040513d601f19601f82011682018060405250810190611d4b91906152bf565b11611d8b576040517f08c379a0000000000000000000000000000000000000000000000000000000008152600401611d8290615338565b60405180910390fd5b600083118015611da45750611da06009612ea2565b8311155b611de3576040517f08c379a0000000000000000000000000000000000000000000000000000000008152600401611dda906153a4565b60405180910390fd5b8060070160149054906101000a900460ff1615611e35576040517f08c379a0000000000000000000000000000000000000000000000000000000008152600401611e2c90615410565b60405180910390fd5b8373ffffffffffffffffffffffffffffffffffffffff1663e8d880c633846040518363ffffffff1660e01b8152600401611e70929190615430565b6020604051808303816000875af1158015611e8f573d6000803e3d6000fd5b505050506040513d601f19601f82011682018060405250810190611eb3919061546e565b611ef2576040517f08c379a0000000000000000000000000000000000000000000000000000000008152600401611ee9906154e7565b60405180910390fd5b611efb82612fe7565b8060010160009054906101000a900473ffffffffffffffffffffffffffffffffffffffff1673ffffffffffffffffffffffffffffffffffffffff166323b872dd303384600201546040518463ffffffff1660e01b8152600401611f6093929190614f01565b600060405180830381600087803b158015611f7a57600080fd5b505af1158015611f8e573d6000803e3d6000fd5b505050506000600b6000858152602001908152602001600020905060018160070160146101000a81548160ff0219169083151502179055506000600c6000836002015481526020019081526020016000206040518060a0016040529081600082015481526020016001820180546120049061493c565b80601f01602080910402602001604051908101604052809291908181526020018280546120309061493c565b801561207d5780601f106120525761010080835404028352916020019161207d565b820191906000526020600020905b81548152906001019060200180831161206057829003601f168201915b505050505081526020016002820160009054906101000a900473ffffffffffffffffffffffffffffffffffffffff1673ffffffffffffffffffffffffffffffffffffffff1673ffffffffffffffffffffffffffffffffffffffff168152602001600382015481526020016004820160009054906101000a900473ffffffffffffffffffffffffffffffffffffffff1673ffffffffffffffffffffffffffffffffffffffff1673ffffffffffffffffffffffffffffffffffffffff16815250509050601060009054906101000a900473ffffffffffffffffffffffffffffffffffffffff1673ffffffffffffffffffffffffffffffffffffffff1663ba3d69d773bd52b47c729f14f3e6232536e21902ad769fafa43361219b33613092565b87600201546040516020016121b192919061574f565b6040516020818303038152906040526040518463ffffffff1660e01b81526004016121de9392919061581e565b600060405180830381600087803b1580156121f857600080fd5b505af115801561220c573d6000803e3d6000fd5b505050503373ffffffffffffffffffffffffffffffffffffffff168360010160009054906101000a900473ffffffffffffffffffffffffffffffffffffffff1673ffffffffffffffffffffffffffffffffffffffff167fdc7540e6f6fa2d49abe473a1fbe2315ef51c17ba1d7611cde26c6da3adfac3ef85600001548660020154856020015188600401548960050160009054906101000a900473ffffffffffffffffffffffffffffffffffffffff168a600601548b60070160009054906101000a900473ffffffffffffffffffffffffffffffffffffffff166040516122f99796959493929190614f38565b60405180910390a35050505061230d612fdd565b5050565b61232361231c612895565b838361339d565b5050565b60085481565b61233e612338612895565b83612c4f565b61237d576040517f08c379a000000000000000000000000000000000000000000000000000000000815260040161237490614b03565b60405180910390fd5b6000600c600084815260200190815260200160002060020160009054906101000a900473ffffffffffffffffffffffffffffffffffffffff16905060001515600f60008373ffffffffffffffffffffffffffffffffffffffff1673ffffffffffffffffffffffffffffffffffffffff16815260200190815260200160002060008773ffffffffffffffffffffffffffffffffffffffff1673ffffffffffffffffffffffffffffffffffffffff16815260200190815260200160002060009054906101000a900460ff161515036124b2576000600c60008581526020019081526020016000206003015490506000600c600086815260200190815260200160002060040160009054906101000a900473ffffffffffffffffffffffffffffffffffffffff1690506124af87848484612ce4565b50505b6124be85858585613509565b5050505050565b600b6020528060005260406000206000915090508060000154908060010160009054906101000a900473ffffffffffffffffffffffffffffffffffffffff169080600201549080600301805461251a9061493c565b80601f01602080910402602001604051908101604052809291908181526020018280546125469061493c565b80156125935780601f1061256857610100808354040283529160200191612593565b820191906000526020600020905b81548152906001019060200180831161257657829003601f168201915b5050505050908060040154908060050160009054906101000a900473ffffffffffffffffffffffffffffffffffffffff16908060060154908060070160009054906101000a900473ffffffffffffffffffffffffffffffffffffffff16908060070160149054906101000a900460ff16908060080160009054906101000a900473ffffffffffffffffffffffffffffffffffffffff1690508a565b60606126398261284a565b60006006600084815260200190815260200160002080546126599061493c565b80601f01602080910402602001604051908101604052809291908181526020018280546126859061493c565b80156126d25780601f106126a7576101008083540402835291602001916126d2565b820191906000526020600020905b8154815290600101906020018083116126b557829003601f168201915b5050505050905060006126e3613565565b905060008151036126f857819250505061273b565b60008251111561272d57808260405160200161271592919061585c565b6040516020818303038152906040529250505061273b565b6127368461357c565b925050505b919050565b6000600560008473ffffffffffffffffffffffffffffffffffffffff1673ffffffffffffffffffffffffffffffffffffffff16815260200190815260200160002060008373ffffffffffffffffffffffffffffffffffffffff1673ffffffffffffffffffffffffffffffffffffffff16815260200190815260200160002060009054906101000a900460ff16905092915050565b60098060000154905081565b60007f01ffc9a7000000000000000000000000000000000000000000000000000000007bffffffffffffffffffffffffffffffffffffffffffffffffffffffff1916827bffffffffffffffffffffffffffffffffffffffffffffffffffffffff1916149050919050565b612853816135e4565b612892576040517f08c379a000000000000000000000000000000000000000000000000000000000815260040161288990614e75565b60405180910390fd5b50565b600033905090565b816004600083815260200190815260200160002060006101000a81548173ffffffffffffffffffffffffffffffffffffffff021916908373ffffffffffffffffffffffffffffffffffffffff160217905550808273ffffffffffffffffffffffffffffffffffffffff16612910836111fb565b73ffffffffffffffffffffffffffffffffffffffff167f8c5be1e5ebec7d5bd14f71427d1e84f3dd0314c0f7b2291e5b200ac8c7c3b92560405160405180910390a45050565b8273ffffffffffffffffffffffffffffffffffffffff16612976826111fb565b73ffffffffffffffffffffffffffffffffffffffff16146129cc576040517f08c379a00000000000000000000000000000000000000000000000000000000081526004016129c3906158f2565b60405180910390fd5b600073ffffffffffffffffffffffffffffffffffffffff168273ffffffffffffffffffffffffffffffffffffffff1603612a3b576040517f08c379a0000000000000000000000000000000000000000000000000000000008152600401612a3290615984565b60405180910390fd5b612a488383836001613625565b8273ffffffffffffffffffffffffffffffffffffffff16612a68826111fb565b73ffffffffffffffffffffffffffffffffffffffff1614612abe576040517f08c379a0000000000000000000000000000000000000000000000000000000008152600401612ab5906158f2565b60405180910390fd5b6004600082815260200190815260200160002060006101000a81549073ffffffffffffffffffffffffffffffffffffffff02191690556001600360008573ffffffffffffffffffffffffffffffffffffffff1673ffffffffffffffffffffffffffffffffffffffff168152602001908152602001600020600082825403925050819055506001600360008473ffffffffffffffffffffffffffffffffffffffff1673ffffffffffffffffffffffffffffffffffffffff16815260200190815260200160002060008282540192505081905550816002600083815260200190815260200160002060006101000a81548173ffffffffffffffffffffffffffffffffffffffff021916908373ffffffffffffffffffffffffffffffffffffffff160217905550808273ffffffffffffffffffffffffffffffffffffffff168473ffffffffffffffffffffffffffffffffffffffff167fddf252ad1be2c89b69c2b068fc378daa952ba7f163c4a11628f55a4df523b3ef60405160405180910390a4612c4a838383600161374b565b505050565b600080612c5b836111fb565b90508073ffffffffffffffffffffffffffffffffffffffff168473ffffffffffffffffffffffffffffffffffffffff161480612c9d5750612c9c8185612740565b5b80612cdb57508373ffffffffffffffffffffffffffffffffffffffff16612cc3846108c8565b73ffffffffffffffffffffffffffffffffffffffff16145b91505092915050565b8373ffffffffffffffffffffffffffffffffffffffff163073ffffffffffffffffffffffffffffffffffffffff160315612e9c57818173ffffffffffffffffffffffffffffffffffffffff1663f38e266a866040518263ffffffff1660e01b8152600401612d5291906141b6565b602060405180830381865afa158015612d6f573d6000803e3d6000fd5b505050506040513d601f19601f82011682018060405250810190612d9391906152bf565b11612dd3576040517f08c379a0000000000000000000000000000000000000000000000000000000008152600401612dca90615338565b60405180910390fd5b8073ffffffffffffffffffffffffffffffffffffffff1663e8d880c685846040518363ffffffff1660e01b8152600401612e0e929190615430565b6020604051808303816000875af1158015612e2d573d6000803e3d6000fd5b505050506040513d601f19601f82011682018060405250810190612e51919061546e565b612e90576040517f08c379a0000000000000000000000000000000000000000000000000000000008152600401612e87906159f0565b60405180910390fd5b612e9b848484613751565b5b50505050565b600081600001549050919050565b6001816000016000828254019250508190555050565b612ee08282604051806020016040528060008152506137e5565b5050565b612eed826135e4565b612f2c576040517f08c379a0000000000000000000000000000000000000000000000000000000008152600401612f2390615a82565b60405180910390fd5b80600660008481526020019081526020016000209081612f4c9190614d57565b505050565b60006002600083815260200190815260200160002060009054906101000a900473ffffffffffffffffffffffffffffffffffffffff169050919050565b600260075403612fd3576040517f08c379a0000000000000000000000000000000000000000000000000000000008152600401612fca90615aee565b60405180910390fd5b6002600781905550565b6001600781905550565b7f000000000000000000000000000000000000000000000000000000000000000073ffffffffffffffffffffffffffffffffffffffff166362ad1b833330846040518463ffffffff1660e01b815260040161304493929190615175565b600060405180830381600087803b15801561305e57600080fd5b505af1158015613072573d6000803e3d6000fd5b50505050806008600082825461308891906148b7565b9250508190555050565b606060008273ffffffffffffffffffffffffffffffffffffffff1660001b905060006040518060400160405280601081526020017f303132333435363738396162636465660000000000000000000000000000000081525090506000602a67ffffffffffffffff8111156131095761310861436b565b5b6040519080825280601f01601f19166020018201604052801561313b5781602001600182028036833780820191505090505b5090507f30000000000000000000000000000000000000000000000000000000000000008160008151811061317357613172615b0e565b5b60200101907effffffffffffffffffffffffffffffffffffffffffffffffffffffffffffff1916908160001a9053507f7800000000000000000000000000000000000000000000000000000000000000816001815181106131d7576131d6615b0e565b5b60200101907effffffffffffffffffffffffffffffffffffffffffffffffffffffffffffff1916908160001a90535060005b60148110156133915782600485600c8461322391906148b7565b6020811061323457613233615b0e565b5b1a60f81b7effffffffffffffffffffffffffffffffffffffffffffffffffffffffffffff1916901c60f81c60ff168151811061327357613272615b0e565b5b602001015160f81c60f81b8260028361328c9190615b3d565b600261329891906148b7565b815181106132a9576132a8615b0e565b5b60200101907effffffffffffffffffffffffffffffffffffffffffffffffffffffffffffff1916908160001a90535082600f60f81b85600c846132ec91906148b7565b602081106132fd576132fc615b0e565b5b1a60f81b1660f81c60ff168151811061331957613318615b0e565b5b602001015160f81c60f81b826002836133329190615b3d565b600361333e91906148b7565b8151811061334f5761334e615b0e565b5b60200101907effffffffffffffffffffffffffffffffffffffffffffffffffffffffffffff1916908160001a905350808061338990615b97565b915050613209565b50809350505050919050565b8173ffffffffffffffffffffffffffffffffffffffff168373ffffffffffffffffffffffffffffffffffffffff160361340b576040517f08c379a000000000000000000000000000000000000000000000000000000000815260040161340290615c2b565b60405180910390fd5b80600560008573ffffffffffffffffffffffffffffffffffffffff1673ffffffffffffffffffffffffffffffffffffffff16815260200190815260200160002060008473ffffffffffffffffffffffffffffffffffffffff1673ffffffffffffffffffffffffffffffffffffffff16815260200190815260200160002060006101000a81548160ff0219169083151502179055508173ffffffffffffffffffffffffffffffffffffffff168373ffffffffffffffffffffffffffffffffffffffff167f17307eab39ab6107e8899845ad3d59bd9653f200f220920489ca2b5937696c31836040516134fc91906140a4565b60405180910390a3505050565b613514848484612956565b61352084848484613840565b61355f576040517f08c379a000000000000000000000000000000000000000000000000000000000815260040161355690615cbd565b60405180910390fd5b50505050565b606060405180602001604052806000815250905090565b60606135878261284a565b6000613591613565565b905060008151116135b157604051806020016040528060008152506135dc565b806135bb846139c7565b6040516020016135cc92919061585c565b6040516020818303038152906040525b915050919050565b60008073ffffffffffffffffffffffffffffffffffffffff1661360683612f51565b73ffffffffffffffffffffffffffffffffffffffff1614159050919050565b600181111561374557600073ffffffffffffffffffffffffffffffffffffffff168473ffffffffffffffffffffffffffffffffffffffff16146136b95780600360008673ffffffffffffffffffffffffffffffffffffffff1673ffffffffffffffffffffffffffffffffffffffff16815260200190815260200160002060008282546136b19190615cdd565b925050819055505b600073ffffffffffffffffffffffffffffffffffffffff168373ffffffffffffffffffffffffffffffffffffffff16146137445780600360008573ffffffffffffffffffffffffffffffffffffffff1673ffffffffffffffffffffffffffffffffffffffff168152602001908152602001600020600082825461373c91906148b7565b925050819055505b5b50505050565b50505050565b7f000000000000000000000000000000000000000000000000000000000000000073ffffffffffffffffffffffffffffffffffffffff166362ad1b838484846040518463ffffffff1660e01b81526004016137ae93929190615175565b600060405180830381600087803b1580156137c857600080fd5b505af11580156137dc573d6000803e3d6000fd5b50505050505050565b6137ef8383613a95565b6137fc6000848484613840565b61383b576040517f08c379a000000000000000000000000000000000000000000000000000000000815260040161383290615cbd565b60405180910390fd5b505050565b60006138618473ffffffffffffffffffffffffffffffffffffffff16613cb2565b156139ba578373ffffffffffffffffffffffffffffffffffffffff1663150b7a0261388a612895565b8786866040518563ffffffff1660e01b81526004016138ac9493929190615d11565b6020604051808303816000875af19250505080156138e857506040513d601f19601f820116820180604052508101906138e59190615d72565b60015b61396a573d8060008114613918576040519150601f19603f3d011682016040523d82523d6000602084013e61391d565b606091505b506000815103613962576040517f08c379a000000000000000000000000000000000000000000000000000000000815260040161395990615cbd565b60405180910390fd5b805181602001fd5b63150b7a0260e01b7bffffffffffffffffffffffffffffffffffffffffffffffffffffffff1916817bffffffffffffffffffffffffffffffffffffffffffffffffffffffff1916149150506139bf565b600190505b949350505050565b6060600060016139d684613cd5565b01905060008167ffffffffffffffff8111156139f5576139f461436b565b5b6040519080825280601f01601f191660200182016040528015613a275781602001600182028036833780820191505090505b509050600082602001820190505b600115613a8a578080600190039150507f3031323334353637383961626364656600000000000000000000000000000000600a86061a8153600a8581613a7e57613a7d615d9f565b5b04945060008503613a35575b819350505050919050565b600073ffffffffffffffffffffffffffffffffffffffff168273ffffffffffffffffffffffffffffffffffffffff1603613b04576040517f08c379a0000000000000000000000000000000000000000000000000000000008152600401613afb90615e1a565b60405180910390fd5b613b0d816135e4565b15613b4d576040517f08c379a0000000000000000000000000000000000000000000000000000000008152600401613b4490615e86565b60405180910390fd5b613b5b600083836001613625565b613b64816135e4565b15613ba4576040517f08c379a0000000000000000000000000000000000000000000000000000000008152600401613b9b90615e86565b60405180910390fd5b6001600360008473ffffffffffffffffffffffffffffffffffffffff1673ffffffffffffffffffffffffffffffffffffffff16815260200190815260200160002060008282540192505081905550816002600083815260200190815260200160002060006101000a81548173ffffffffffffffffffffffffffffffffffffffff021916908373ffffffffffffffffffffffffffffffffffffffff160217905550808273ffffffffffffffffffffffffffffffffffffffff16600073ffffffffffffffffffffffffffffffffffffffff167fddf252ad1be2c89b69c2b068fc378daa952ba7f163c4a11628f55a4df523b3ef60405160405180910390a4613cae60008383600161374b565b5050565b6000808273ffffffffffffffffffffffffffffffffffffffff163b119050919050565b600080600090507a184f03e93ff9f4daa797ed6e38ed64bf6a1f0100000000000000008310613d33577a184f03e93ff9f4daa797ed6e38ed64bf6a1f0100000000000000008381613d2957613d28615d9f565b5b0492506040810190505b6d04ee2d6d415b85acef81000000008310613d70576d04ee2d6d415b85acef81000000008381613d6657613d65615d9f565b5b0492506020810190505b662386f26fc100008310613d9f57662386f26fc100008381613d9557613d94615d9f565b5b0492506010810190505b6305f5e1008310613dc8576305f5e1008381613dbe57613dbd615d9f565b5b0492506008810190505b6127108310613ded576127108381613de357613de2615d9f565b5b0492506004810190505b60648310613e105760648381613e0657613e05615d9f565b5b0492506002810190505b600a8310613e1f576001810190505b80915050919050565b6000604051905090565b600080fd5b600080fd5b600073ffffffffffffffffffffffffffffffffffffffff82169050919050565b6000613e6782613e3c565b9050919050565b613e7781613e5c565b8114613e8257600080fd5b50565b600081359050613e9481613e6e565b92915050565b6000819050919050565b613ead81613e9a565b8114613eb857600080fd5b50565b600081359050613eca81613ea4565b92915050565b600080fd5b600080fd5b600080fd5b60008083601f840112613ef557613ef4613ed0565b5b8235905067ffffffffffffffff811115613f1257613f11613ed5565b5b602083019150836001820283011115613f2e57613f2d613eda565b5b9250929050565b60008060008060008060008060c0898b031215613f5557613f54613e32565b5b6000613f638b828c01613e85565b9850506020613f748b828c01613e85565b9750506040613f858b828c01613e85565b9650506060613f968b828c01613ebb565b955050608089013567ffffffffffffffff811115613fb757613fb6613e37565b5b613fc38b828c01613edf565b945094505060a089013567ffffffffffffffff811115613fe657613fe5613e37565b5b613ff28b828c01613edf565b92509250509295985092959890939650565b60007fffffffff0000000000000000000000000000000000000000000000000000000082169050919050565b61403981614004565b811461404457600080fd5b50565b60008135905061405681614030565b92915050565b60006020828403121561407257614071613e32565b5b600061408084828501614047565b91505092915050565b60008115159050919050565b61409e81614089565b82525050565b60006020820190506140b96000830184614095565b92915050565b600081519050919050565b600082825260208201905092915050565b60005b838110156140f95780820151818401526020810190506140de565b83811115614108576000848401525b50505050565b6000601f19601f8301169050919050565b600061412a826140bf565b61413481856140ca565b93506141448185602086016140db565b61414d8161410e565b840191505092915050565b60006020820190508181036000830152614172818461411f565b905092915050565b6000602082840312156141905761418f613e32565b5b600061419e84828501613ebb565b91505092915050565b6141b081613e5c565b82525050565b60006020820190506141cb60008301846141a7565b92915050565b600080604083850312156141e8576141e7613e32565b5b60006141f685828601613e85565b925050602061420785828601613ebb565b9150509250929050565b60006020828403121561422757614226613e32565b5b600061423584828501613e85565b91505092915050565b60008060006060848603121561425757614256613e32565b5b600061426586828701613e85565b935050602061427686828701613e85565b925050604061428786828701613ebb565b9150509250925092565b61429a81614089565b81146142a557600080fd5b50565b6000813590506142b781614291565b92915050565b600080604083850312156142d4576142d3613e32565b5b60006142e285828601613e85565b92505060206142f3858286016142a8565b9150509250929050565b61430681613e9a565b82525050565b600060a08201905061432160008301886142fd565b8181036020830152614333818761411f565b905061434260408301866141a7565b61434f60608301856142fd565b61435c60808301846141a7565b9695505050505050565b600080fd5b7f4e487b7100000000000000000000000000000000000000000000000000000000600052604160045260246000fd5b6143a38261410e565b810181811067ffffffffffffffff821117156143c2576143c161436b565b5b80604052505050565b60006143d5613e28565b90506143e1828261439a565b919050565b600067ffffffffffffffff8211156144015761440061436b565b5b61440a8261410e565b9050602081019050919050565b82818337600083830152505050565b6000614439614434846143e6565b6143cb565b90508281526020810184848401111561445557614454614366565b5b614460848285614417565b509392505050565b600082601f83011261447d5761447c613ed0565b5b813561448d848260208601614426565b91505092915050565b600080600080608085870312156144b0576144af613e32565b5b600085013567ffffffffffffffff8111156144ce576144cd613e37565b5b6144da87828801614468565b94505060206144eb87828801613e85565b93505060406144fc87828801613ebb565b925050606061450d87828801613e85565b91505092959194509250565b600060208201905061452e60008301846142fd565b92915050565b600061453f82613e5c565b9050919050565b61454f81614534565b811461455a57600080fd5b50565b60008135905061456c81614546565b92915050565b60008060006060848603121561458b5761458a613e32565b5b60006145998682870161455d565b93505060206145aa86828701613ebb565b92505060406145bb86828701613ebb565b9150509250925092565b6000819050919050565b60006145ea6145e56145e084613e3c565b6145c5565b613e3c565b9050919050565b60006145fc826145cf565b9050919050565b600061460e826145f1565b9050919050565b61461e81614603565b82525050565b60006020820190506146396000830184614615565b92915050565b600067ffffffffffffffff82111561465a5761465961436b565b5b6146638261410e565b9050602081019050919050565b600061468361467e8461463f565b6143cb565b90508281526020810184848401111561469f5761469e614366565b5b6146aa848285614417565b509392505050565b600082601f8301126146c7576146c6613ed0565b5b81356146d7848260208601614670565b91505092915050565b600080600080608085870312156146fa576146f9613e32565b5b600061470887828801613e85565b945050602061471987828801613e85565b935050604061472a87828801613ebb565b925050606085013567ffffffffffffffff81111561474b5761474a613e37565b5b614757878288016146b2565b91505092959194509250565b600061476e826145f1565b9050919050565b61477e81614763565b82525050565b600061478f82613e3c565b9050919050565b61479f81614784565b82525050565b6000610140820190506147bb600083018d6142fd565b6147c8602083018c614775565b6147d5604083018b6142fd565b81810360608301526147e7818a61411f565b90506147f660808301896142fd565b61480360a08301886141a7565b61481060c08301876142fd565b61481d60e08301866141a7565b61482b610100830185614095565b614839610120830184614796565b9b9a5050505050505050505050565b6000806040838503121561485f5761485e613e32565b5b600061486d85828601613e85565b925050602061487e85828601613e85565b9150509250929050565b7f4e487b7100000000000000000000000000000000000000000000000000000000600052601160045260246000fd5b60006148c282613e9a565b91506148cd83613e9a565b9250827fffffffffffffffffffffffffffffffffffffffffffffffffffffffffffffffff0382111561490257614901614888565b5b828201905092915050565b7f4e487b7100000000000000000000000000000000000000000000000000000000600052602260045260246000fd5b6000600282049050600182168061495457607f821691505b6020821081036149675761496661490d565b5b50919050565b7f4552433732313a20617070726f76616c20746f2063757272656e74206f776e6560008201527f7200000000000000000000000000000000000000000000000000000000000000602082015250565b60006149c96021836140ca565b91506149d48261496d565b604082019050919050565b600060208201905081810360008301526149f8816149bc565b9050919050565b7f4552433732313a20617070726f76652063616c6c6572206973206e6f7420746f60008201527f6b656e206f776e6572206f7220617070726f76656420666f7220616c6c000000602082015250565b6000614a5b603d836140ca565b9150614a66826149ff565b604082019050919050565b60006020820190508181036000830152614a8a81614a4e565b9050919050565b7f4552433732313a207472616e736665722063616c6c6572206973206e6f74206f60008201527f776e6572206e6f7220617070726f766564000000000000000000000000000000602082015250565b6000614aed6031836140ca565b9150614af882614a91565b604082019050919050565b60006020820190508181036000830152614b1c81614ae0565b9050919050565b7f646f65736e277420686173204e46547320696e20746865206d61726b6574706c60008201527f6163650000000000000000000000000000000000000000000000000000000000602082015250565b6000614b7f6023836140ca565b9150614b8a82614b23565b604082019050919050565b60006020820190508181036000830152614bae81614b72565b9050919050565b60008190508160005260206000209050919050565b60006020601f8301049050919050565b600082821b905092915050565b600060088302614c177fffffffffffffffffffffffffffffffffffffffffffffffffffffffffffffffff82614bda565b614c218683614bda565b95508019841693508086168417925050509392505050565b6000614c54614c4f614c4a84613e9a565b6145c5565b613e9a565b9050919050565b6000819050919050565b614c6e83614c39565b614c82614c7a82614c5b565b848454614be7565b825550505050565b600090565b614c97614c8a565b614ca2818484614c65565b505050565b5b81811015614cc657614cbb600082614c8f565b600181019050614ca8565b5050565b601f821115614d0b57614cdc81614bb5565b614ce584614bca565b81016020851015614cf4578190505b614d08614d0085614bca565b830182614ca7565b50505b505050565b600082821c905092915050565b6000614d2e60001984600802614d10565b1980831691505092915050565b6000614d478383614d1d565b9150826002028217905092915050565b614d60826140bf565b67ffffffffffffffff811115614d7957614d7861436b565b5b614d83825461493c565b614d8e828285614cca565b600060209050601f831160018114614dc15760008415614daf578287015190505b614db98582614d3b565b865550614e21565b601f198416614dcf86614bb5565b60005b82811015614df757848901518255600182019150602085019450602081019050614dd2565b86831015614e145784890151614e10601f891682614d1d565b8355505b6001600288020188555050505b505050505050565b7f4552433732313a20696e76616c696420746f6b656e2049440000000000000000600082015250565b6000614e5f6018836140ca565b9150614e6a82614e29565b602082019050919050565b60006020820190508181036000830152614e8e81614e52565b9050919050565b7f5072696365206d75737420626520677265617465722074686174203000000000600082015250565b6000614ecb601c836140ca565b9150614ed682614e95565b602082019050919050565b60006020820190508181036000830152614efa81614ebe565b9050919050565b6000606082019050614f1660008301866141a7565b614f2360208301856141a7565b614f3060408301846142fd565b949350505050565b600060e082019050614f4d600083018a6142fd565b614f5a60208301896142fd565b8181036040830152614f6c818861411f565b9050614f7b60608301876142fd565b614f8860808301866141a7565b614f9560a08301856142fd565b614fa260c08301846141a7565b98975050505050505050565b7f4552433732313a2061646472657373207a65726f206973206e6f74206120766160008201527f6c6964206f776e65720000000000000000000000000000000000000000000000602082015250565b600061500a6029836140ca565b915061501582614fae565b604082019050919050565b6000602082019050818103600083015261503981614ffd565b9050919050565b7f4d61726b6574506c616365436f6e74726163743a2063616c6c6572206973206e60008201527f6f7420746865206f776e65720000000000000000000000000000000000000000602082015250565b600061509c602c836140ca565b91506150a782615040565b604082019050919050565b600060208201905081810360008301526150cb8161508f565b9050919050565b7f546865726520646f6e277420626520746f6b656e730000000000000000000000600082015250565b60006151086015836140ca565b9150615113826150d2565b602082019050919050565b60006020820190508181036000830152615137816150fb565b9050919050565b600082825260208201905092915050565b50565b600061515f60008361513e565b915061516a8261514f565b600082019050919050565b600060a08201905061518a60008301866141a7565b61519760208301856141a7565b6151a460408301846142fd565b81810360608301526151b581615152565b905081810360808301526151c881615152565b9050949350505050565b7f5468697320746f6b656e20697320616c726561647920617070726f7665640000600082015250565b6000615208601e836140ca565b9150615213826151d2565b602082019050919050565b60006020820190508181036000830152615237816151fb565b9050919050565b7f576520646f6e277420616363657074207468697320746f6b656e000000000000600082015250565b6000615274601a836140ca565b915061527f8261523e565b602082019050919050565b600060208201905081810360008301526152a381615267565b9050919050565b6000815190506152b981613ea4565b92915050565b6000602082840312156152d5576152d4613e32565b5b60006152e3848285016152aa565b91505092915050565b7f496e73756666696369656e7420746f6b656e7300000000000000000000000000600082015250565b60006153226013836140ca565b915061532d826152ec565b602082019050919050565b6000602082019050818103600083015261535181615315565b9050919050565b7f4974656d20646f6e277420657869737400000000000000000000000000000000600082015250565b600061538e6010836140ca565b915061539982615358565b602082019050919050565b600060208201905081810360008301526153bd81615381565b9050919050565b7f4974656d20616c726561647920736f6c64000000000000000000000000000000600082015250565b60006153fa6011836140ca565b9150615405826153c4565b602082019050919050565b60006020820190508181036000830152615429816153ed565b9050919050565b600060408201905061544560008301856141a7565b61545260208301846142fd565b9392505050565b60008151905061546881614291565b92915050565b60006020828403121561548457615483613e32565b5b600061549284828501615459565b91505092915050565b7f596f75722066756e64732061726520696e73756666696369656e740000000000600082015250565b60006154d1601b836140ca565b91506154dc8261549b565b602082019050919050565b60006020820190508181036000830152615500816154c4565b9050919050565b600081905092915050565b7f3000000000000000000000000000000000000000000000000000000000000000600082015250565b6000615548600183615507565b915061555382615512565b600182019050919050565b7f2b00000000000000000000000000000000000000000000000000000000000000600082015250565b6000615594600183615507565b915061559f8261555e565b600182019050919050565b7f3300000000000000000000000000000000000000000000000000000000000000600082015250565b60006155e0600183615507565b91506155eb826155aa565b600182019050919050565b7f5472616e66657220416c65727400000000000000000000000000000000000000600082015250565b600061562c600d83615507565b9150615637826155f6565b600d82019050919050565b7f486f6f7261792120000000000000000000000000000000000000000000000000600082015250565b6000615678600883615507565b915061568382615642565b600882019050919050565b6000615699826140bf565b6156a38185615507565b93506156b38185602086016140db565b80840191505092915050565b7f20626f75676874204e46542077697468207468652049643a2000000000000000600082015250565b60006156f5601983615507565b9150615700826156bf565b601982019050919050565b6000819050919050565b61572661572182613e9a565b61570b565b82525050565b6000615739600083615507565b91506157448261514f565b600082019050919050565b600061575a8261553b565b915061576582615587565b9150615770826155d3565b915061577b82615587565b91506157868261561f565b915061579182615587565b915061579c8261566b565b91506157a8828561568e565b91506157b3826156e8565b91506157bf8284615715565b6020820191506157ce8261572c565b91508190509392505050565b600081519050919050565b60006157f0826157da565b6157fa818561513e565b935061580a8185602086016140db565b6158138161410e565b840191505092915050565b600060608201905061583360008301866141a7565b61584060208301856141a7565b818103604083015261585281846157e5565b9050949350505050565b6000615868828561568e565b9150615874828461568e565b91508190509392505050565b7f4552433732313a207472616e736665722066726f6d20696e636f72726563742060008201527f6f776e6572000000000000000000000000000000000000000000000000000000602082015250565b60006158dc6025836140ca565b91506158e782615880565b604082019050919050565b6000602082019050818103600083015261590b816158cf565b9050919050565b7f4552433732313a207472616e7366657220746f20746865207a65726f2061646460008201527f7265737300000000000000000000000000000000000000000000000000000000602082015250565b600061596e6024836140ca565b915061597982615912565b604082019050919050565b6000602082019050818103600083015261599d81615961565b9050919050565b7f596f75722066756e64732061726520696e73756666696369656e747300000000600082015250565b60006159da601c836140ca565b91506159e5826159a4565b602082019050919050565b60006020820190508181036000830152615a09816159cd565b9050919050565b7f45524337323155524953746f726167653a2055524920736574206f66206e6f6e60008201527f6578697374656e7420746f6b656e000000000000000000000000000000000000602082015250565b6000615a6c602e836140ca565b9150615a7782615a10565b604082019050919050565b60006020820190508181036000830152615a9b81615a5f565b9050919050565b7f5265656e7472616e637947756172643a207265656e7472616e742063616c6c00600082015250565b6000615ad8601f836140ca565b9150615ae382615aa2565b602082019050919050565b60006020820190508181036000830152615b0781615acb565b9050919050565b7f4e487b7100000000000000000000000000000000000000000000000000000000600052603260045260246000fd5b6000615b4882613e9a565b9150615b5383613e9a565b9250817fffffffffffffffffffffffffffffffffffffffffffffffffffffffffffffffff0483118215151615615b8c57615b8b614888565b5b828202905092915050565b6000615ba282613e9a565b91507fffffffffffffffffffffffffffffffffffffffffffffffffffffffffffffffff8203615bd457615bd3614888565b5b600182019050919050565b7f4552433732313a20617070726f766520746f2063616c6c657200000000000000600082015250565b6000615c156019836140ca565b9150615c2082615bdf565b602082019050919050565b60006020820190508181036000830152615c4481615c08565b9050919050565b7f4552433732313a207472616e7366657220746f206e6f6e20455243373231526560008201527f63656976657220696d706c656d656e7465720000000000000000000000000000602082015250565b6000615ca76032836140ca565b9150615cb282615c4b565b604082019050919050565b60006020820190508181036000830152615cd681615c9a565b9050919050565b6000615ce882613e9a565b9150615cf383613e9a565b925082821015615d0657615d05614888565b5b828203905092915050565b6000608082019050615d2660008301876141a7565b615d3360208301866141a7565b615d4060408301856142fd565b8181036060830152615d5281846157e5565b905095945050505050565b600081519050615d6c81614030565b92915050565b600060208284031215615d8857615d87613e32565b5b6000615d9684828501615d5d565b91505092915050565b7f4e487b7100000000000000000000000000000000000000000000000000000000600052601260045260246000fd5b7f4552433732313a206d696e7420746f20746865207a65726f2061646472657373600082015250565b6000615e046020836140ca565b9150615e0f82615dce565b602082019050919050565b60006020820190508181036000830152615e3381615df7565b9050919050565b7f4552433732313a20746f6b656e20616c7265616479206d696e74656400000000600082015250565b6000615e70601c836140ca565b9150615e7b82615e3a565b602082019050919050565b60006020820190508181036000830152615e9f81615e63565b905091905056fea264697066735822122065df781aa1074290de874096c6532f1478c79a9e139022ea6be6be7b17ea429f64736f6c634300080f0033",
  "linkReferences": {},
  "deployedLinkReferences": {}
}