{
  "_format": "hh-sol-artifact-1",
  "contractName": "BenefitsContract",
  "sourceName": "src/blockchain/hardhat/contracts/BenefitsContract.sol",
  "abi": [
    {
      "inputs": [
        {
          "internalType": "string",
          "name": "",
          "type": "string"
        }
      ],
      "name": "benefitContracts",
      "outputs": [
        {
          "internalType": "address",
          "name": "",
          "type": "address"
        }
      ],
      "stateMutability": "view",
      "type": "function"
    },
    {
      "inputs": [
        {
          "internalType": "string",
          "name": "_benefitId",
          "type": "string"
        },
        {
          "internalType": "address",
          "name": "_addressBenefitContract",
          "type": "address"
        }
      ],
      "name": "createBenefit",
      "outputs": [],
      "stateMutability": "nonpayable",
      "type": "function"
    },
    {
      "inputs": [
        {
          "internalType": "string",
          "name": "_benefitId",
          "type": "string"
        }
      ],
      "name": "getBenefit",
      "outputs": [
        {
          "internalType": "address",
          "name": "",
          "type": "address"
        }
      ],
      "stateMutability": "view",
      "type": "function"
    }
  ],
  "bytecode": "0x608060405234801561001057600080fd5b50610501806100206000396000f3fe608060405234801561001057600080fd5b50600436106100415760003560e01c806305c697571461004657806357f415a2146100765780635fe8c86114610092575b600080fd5b610060600480360381019061005b919061030d565b6100c2565b60405161006d9190610397565b60405180910390f35b610090600480360381019061008b91906103de565b61010b565b005b6100ac60048036038101906100a7919061030d565b61016c565b6040516100b99190610397565b60405180910390f35b6000818051602081018201805184825260208301602085012081835280955050505050506000915054906101000a900473ffffffffffffffffffffffffffffffffffffffff1681565b8060008360405161011c91906104b4565b908152602001604051809103902060006101000a81548173ffffffffffffffffffffffffffffffffffffffff021916908373ffffffffffffffffffffffffffffffffffffffff1602179055505050565b6000808260405161017d91906104b4565b908152602001604051809103902060009054906101000a900473ffffffffffffffffffffffffffffffffffffffff169050919050565b6000604051905090565b600080fd5b600080fd5b600080fd5b600080fd5b6000601f19601f8301169050919050565b7f4e487b7100000000000000000000000000000000000000000000000000000000600052604160045260246000fd5b61021a826101d1565b810181811067ffffffffffffffff82111715610239576102386101e2565b5b80604052505050565b600061024c6101b3565b90506102588282610211565b919050565b600067ffffffffffffffff821115610278576102776101e2565b5b610281826101d1565b9050602081019050919050565b82818337600083830152505050565b60006102b06102ab8461025d565b610242565b9050828152602081018484840111156102cc576102cb6101cc565b5b6102d784828561028e565b509392505050565b600082601f8301126102f4576102f36101c7565b5b813561030484826020860161029d565b91505092915050565b600060208284031215610323576103226101bd565b5b600082013567ffffffffffffffff811115610341576103406101c2565b5b61034d848285016102df565b91505092915050565b600073ffffffffffffffffffffffffffffffffffffffff82169050919050565b600061038182610356565b9050919050565b61039181610376565b82525050565b60006020820190506103ac6000830184610388565b92915050565b6103bb81610376565b81146103c657600080fd5b50565b6000813590506103d8816103b2565b92915050565b600080604083850312156103f5576103f46101bd565b5b600083013567ffffffffffffffff811115610413576104126101c2565b5b61041f858286016102df565b9250506020610430858286016103c9565b9150509250929050565b600081519050919050565b600081905092915050565b60005b8381101561046e578082015181840152602081019050610453565b8381111561047d576000848401525b50505050565b600061048e8261043a565b6104988185610445565b93506104a8818560208601610450565b80840191505092915050565b60006104c08284610483565b91508190509291505056fea2646970667358221220bbc2f9424cafd9b20528fdfe4f6795370ceb591edec5a4f4959a45e29be07e4e64736f6c634300080f0033",
  "linkReferences": {},
  "deployedLinkReferences": {}
}