{
  "_format": "hh-sol-artifact-1",
  "contractName": "Push",
  "sourceName": "src/blockchain/hardhat/contracts/PushContract.sol",
  "abi": [
    {
      "inputs": [],
      "stateMutability": "nonpayable",
      "type": "constructor"
    },
    {
      "anonymous": false,
      "inputs": [
        {
          "indexed": true,
          "internalType": "address",
          "name": "owner",
          "type": "address"
        },
        {
          "indexed": true,
          "internalType": "address",
          "name": "spender",
          "type": "address"
        },
        {
          "indexed": false,
          "internalType": "uint256",
          "name": "value",
          "type": "uint256"
        }
      ],
      "name": "Approval",
      "type": "event"
    },
    {
      "anonymous": false,
      "inputs": [
        {
          "indexed": true,
          "internalType": "address",
          "name": "from",
          "type": "address"
        },
        {
          "indexed": true,
          "internalType": "address",
          "name": "to",
          "type": "address"
        },
        {
          "indexed": false,
          "internalType": "uint256",
          "name": "value",
          "type": "uint256"
        }
      ],
      "name": "Transfer",
      "type": "event"
    },
    {
      "inputs": [],
      "name": "EPNS_COMM_ADDRESS",
      "outputs": [
        {
          "internalType": "address",
          "name": "",
          "type": "address"
        }
      ],
      "stateMutability": "view",
      "type": "function"
    },
    {
      "inputs": [
        {
          "internalType": "address",
          "name": "owner",
          "type": "address"
        },
        {
          "internalType": "address",
          "name": "spender",
          "type": "address"
        }
      ],
      "name": "allowance",
      "outputs": [
        {
          "internalType": "uint256",
          "name": "",
          "type": "uint256"
        }
      ],
      "stateMutability": "view",
      "type": "function"
    },
    {
      "inputs": [
        {
          "internalType": "address",
          "name": "spender",
          "type": "address"
        },
        {
          "internalType": "uint256",
          "name": "amount",
          "type": "uint256"
        }
      ],
      "name": "approve",
      "outputs": [
        {
          "internalType": "bool",
          "name": "",
          "type": "bool"
        }
      ],
      "stateMutability": "nonpayable",
      "type": "function"
    },
    {
      "inputs": [
        {
          "internalType": "address",
          "name": "account",
          "type": "address"
        }
      ],
      "name": "balanceOf",
      "outputs": [
        {
          "internalType": "uint256",
          "name": "",
          "type": "uint256"
        }
      ],
      "stateMutability": "view",
      "type": "function"
    },
    {
      "inputs": [],
      "name": "decimals",
      "outputs": [
        {
          "internalType": "uint8",
          "name": "",
          "type": "uint8"
        }
      ],
      "stateMutability": "view",
      "type": "function"
    },
    {
      "inputs": [
        {
          "internalType": "address",
          "name": "spender",
          "type": "address"
        },
        {
          "internalType": "uint256",
          "name": "subtractedValue",
          "type": "uint256"
        }
      ],
      "name": "decreaseAllowance",
      "outputs": [
        {
          "internalType": "bool",
          "name": "",
          "type": "bool"
        }
      ],
      "stateMutability": "nonpayable",
      "type": "function"
    },
    {
      "inputs": [
        {
          "internalType": "address",
          "name": "spender",
          "type": "address"
        },
        {
          "internalType": "uint256",
          "name": "addedValue",
          "type": "uint256"
        }
      ],
      "name": "increaseAllowance",
      "outputs": [
        {
          "internalType": "bool",
          "name": "",
          "type": "bool"
        }
      ],
      "stateMutability": "nonpayable",
      "type": "function"
    },
    {
      "inputs": [],
      "name": "name",
      "outputs": [
        {
          "internalType": "string",
          "name": "",
          "type": "string"
        }
      ],
      "stateMutability": "view",
      "type": "function"
    },
    {
      "inputs": [],
      "name": "symbol",
      "outputs": [
        {
          "internalType": "string",
          "name": "",
          "type": "string"
        }
      ],
      "stateMutability": "view",
      "type": "function"
    },
    {
      "inputs": [],
      "name": "totalSupply",
      "outputs": [
        {
          "internalType": "uint256",
          "name": "",
          "type": "uint256"
        }
      ],
      "stateMutability": "view",
      "type": "function"
    },
    {
      "inputs": [
        {
          "internalType": "address",
          "name": "to",
          "type": "address"
        },
        {
          "internalType": "uint256",
          "name": "amount",
          "type": "uint256"
        }
      ],
      "name": "transfer",
      "outputs": [
        {
          "internalType": "bool",
          "name": "success",
          "type": "bool"
        }
      ],
      "stateMutability": "nonpayable",
      "type": "function"
    },
    {
      "inputs": [
        {
          "internalType": "address",
          "name": "from",
          "type": "address"
        },
        {
          "internalType": "address",
          "name": "to",
          "type": "address"
        },
        {
          "internalType": "uint256",
          "name": "amount",
          "type": "uint256"
        }
      ],
      "name": "transferFrom",
      "outputs": [
        {
          "internalType": "bool",
          "name": "",
          "type": "bool"
        }
      ],
      "stateMutability": "nonpayable",
      "type": "function"
    }
  ],
  "bytecode": "0x608060405273b3971bcef2d791bc4027bbfedfb47319a4aaaaaa600560006101000a81548173ffffffffffffffffffffffffffffffffffffffff021916908373ffffffffffffffffffffffffffffffffffffffff1602179055503480156200006657600080fd5b506040518060400160405280600a81526020017f5075736820546f6b656e000000000000000000000000000000000000000000008152506040518060400160405280600481526020017f50555348000000000000000000000000000000000000000000000000000000008152508160039081620000e491906200053a565b508060049081620000f691906200053a565b5050506200013a336200010e6200014060201b60201c565b60ff16600a6200011f9190620007a4565b6103e86200012e9190620007f5565b6200014960201b60201c565b62000964565b60006012905090565b600073ffffffffffffffffffffffffffffffffffffffff168273ffffffffffffffffffffffffffffffffffffffff1603620001bb576040517f08c379a0000000000000000000000000000000000000000000000000000000008152600401620001b290620008b7565b60405180910390fd5b620001cf60008383620002b660201b60201c565b8060026000828254620001e39190620008d9565b92505081905550806000808473ffffffffffffffffffffffffffffffffffffffff1673ffffffffffffffffffffffffffffffffffffffff168152602001908152602001600020600082825401925050819055508173ffffffffffffffffffffffffffffffffffffffff16600073ffffffffffffffffffffffffffffffffffffffff167fddf252ad1be2c89b69c2b068fc378daa952ba7f163c4a11628f55a4df523b3ef8360405162000296919062000947565b60405180910390a3620002b260008383620002bb60201b60201c565b5050565b505050565b505050565b600081519050919050565b7f4e487b7100000000000000000000000000000000000000000000000000000000600052604160045260246000fd5b7f4e487b7100000000000000000000000000000000000000000000000000000000600052602260045260246000fd5b600060028204905060018216806200034257607f821691505b602082108103620003585762000357620002fa565b5b50919050565b60008190508160005260206000209050919050565b60006020601f8301049050919050565b600082821b905092915050565b600060088302620003c27fffffffffffffffffffffffffffffffffffffffffffffffffffffffffffffffff8262000383565b620003ce868362000383565b95508019841693508086168417925050509392505050565b6000819050919050565b6000819050919050565b60006200041b620004156200040f84620003e6565b620003f0565b620003e6565b9050919050565b6000819050919050565b6200043783620003fa565b6200044f620004468262000422565b84845462000390565b825550505050565b600090565b6200046662000457565b620004738184846200042c565b505050565b5b818110156200049b576200048f6000826200045c565b60018101905062000479565b5050565b601f821115620004ea57620004b4816200035e565b620004bf8462000373565b81016020851015620004cf578190505b620004e7620004de8562000373565b83018262000478565b50505b505050565b600082821c905092915050565b60006200050f60001984600802620004ef565b1980831691505092915050565b60006200052a8383620004fc565b9150826002028217905092915050565b6200054582620002c0565b67ffffffffffffffff811115620005615762000560620002cb565b5b6200056d825462000329565b6200057a8282856200049f565b600060209050601f831160018114620005b257600084156200059d578287015190505b620005a985826200051c565b86555062000619565b601f198416620005c2866200035e565b60005b82811015620005ec57848901518255600182019150602085019450602081019050620005c5565b868310156200060c578489015162000608601f891682620004fc565b8355505b6001600288020188555050505b505050505050565b7f4e487b7100000000000000000000000000000000000000000000000000000000600052601160045260246000fd5b60008160011c9050919050565b6000808291508390505b6001851115620006af5780860481111562000687576200068662000621565b5b6001851615620006975780820291505b8081029050620006a78562000650565b945062000667565b94509492505050565b600082620006ca57600190506200079d565b81620006da57600090506200079d565b8160018114620006f35760028114620006fe5762000734565b60019150506200079d565b60ff84111562000713576200071262000621565b5b8360020a9150848211156200072d576200072c62000621565b5b506200079d565b5060208310610133831016604e8410600b84101617156200076e5782820a90508381111562000768576200076762000621565b5b6200079d565b6200077d84848460016200065d565b9250905081840481111562000797576200079662000621565b5b81810290505b9392505050565b6000620007b182620003e6565b9150620007be83620003e6565b9250620007ed7fffffffffffffffffffffffffffffffffffffffffffffffffffffffffffffffff8484620006b8565b905092915050565b60006200080282620003e6565b91506200080f83620003e6565b9250817fffffffffffffffffffffffffffffffffffffffffffffffffffffffffffffffff04831182151516156200084b576200084a62000621565b5b828202905092915050565b600082825260208201905092915050565b7f45524332303a206d696e7420746f20746865207a65726f206164647265737300600082015250565b60006200089f601f8362000856565b9150620008ac8262000867565b602082019050919050565b60006020820190508181036000830152620008d28162000890565b9050919050565b6000620008e682620003e6565b9150620008f383620003e6565b9250827fffffffffffffffffffffffffffffffffffffffffffffffffffffffffffffffff038211156200092b576200092a62000621565b5b828201905092915050565b6200094181620003e6565b82525050565b60006020820190506200095e600083018462000936565b92915050565b611f0d80620009746000396000f3fe608060405234801561001057600080fd5b50600436106100b45760003560e01c806348a3b4a41161007157806348a3b4a4146101a357806370a08231146101c157806395d89b41146101f1578063a457c2d71461020f578063a9059cbb1461023f578063dd62ed3e1461026f576100b4565b806306fdde03146100b9578063095ea7b3146100d757806318160ddd1461010757806323b872dd14610125578063313ce567146101555780633950935114610173575b600080fd5b6100c161029f565b6040516100ce9190611187565b60405180910390f35b6100f160048036038101906100ec9190611242565b610331565b6040516100fe919061129d565b60405180910390f35b61010f610354565b60405161011c91906112c7565b60405180910390f35b61013f600480360381019061013a91906112e2565b61035e565b60405161014c919061129d565b60405180910390f35b61015d61038d565b60405161016a9190611351565b60405180910390f35b61018d60048036038101906101889190611242565b610396565b60405161019a919061129d565b60405180910390f35b6101ab6103cd565b6040516101b8919061137b565b60405180910390f35b6101db60048036038101906101d69190611396565b6103f3565b6040516101e891906112c7565b60405180910390f35b6101f961043b565b6040516102069190611187565b60405180910390f35b61022960048036038101906102249190611242565b6104cd565b604051610236919061129d565b60405180910390f35b61025960048036038101906102549190611242565b610544565b604051610266919061129d565b60405180910390f35b610289600480360381019061028491906113c3565b61065e565b60405161029691906112c7565b60405180910390f35b6060600380546102ae90611432565b80601f01602080910402602001604051908101604052809291908181526020018280546102da90611432565b80156103275780601f106102fc57610100808354040283529160200191610327565b820191906000526020600020905b81548152906001019060200180831161030a57829003601f168201915b5050505050905090565b60008061033c6106e5565b90506103498185856106ed565b600191505092915050565b6000600254905090565b6000806103696106e5565b90506103768582856108b6565b610381858585610942565b60019150509392505050565b60006012905090565b6000806103a16106e5565b90506103c28185856103b3858961065e565b6103bd9190611492565b6106ed565b600191505092915050565b600560009054906101000a900473ffffffffffffffffffffffffffffffffffffffff1681565b60008060008373ffffffffffffffffffffffffffffffffffffffff1673ffffffffffffffffffffffffffffffffffffffff168152602001908152602001600020549050919050565b60606004805461044a90611432565b80601f016020809104026020016040519081016040528092919081815260200182805461047690611432565b80156104c35780601f10610498576101008083540402835291602001916104c3565b820191906000526020600020905b8154815290600101906020018083116104a657829003601f168201915b5050505050905090565b6000806104d86106e5565b905060006104e6828661065e565b90508381101561052b576040517f08c379a00000000000000000000000000000000000000000000000000000000081526004016105229061155a565b60405180910390fd5b61053882868684036106ed565b60019250505092915050565b60008061054f6106e5565b905061055c818585610942565b600560009054906101000a900473ffffffffffffffffffffffffffffffffffffffff1673ffffffffffffffffffffffffffffffffffffffff1663ba3d69d77370a792ad975aa0977c6e9d55a14f5f2228bbc685866105b933610bb8565b6105e36105c461038d565b60ff16600a6105d391906116ad565b896105de91906116f8565b610ec3565b6040516020016105f49291906119a2565b6040516020818303038152906040526040518463ffffffff1660e01b815260040161062193929190611a7e565b600060405180830381600087803b15801561063b57600080fd5b505af115801561064f573d6000803e3d6000fd5b50505050600191505092915050565b6000600160008473ffffffffffffffffffffffffffffffffffffffff1673ffffffffffffffffffffffffffffffffffffffff16815260200190815260200160002060008373ffffffffffffffffffffffffffffffffffffffff1673ffffffffffffffffffffffffffffffffffffffff16815260200190815260200160002054905092915050565b600033905090565b600073ffffffffffffffffffffffffffffffffffffffff168373ffffffffffffffffffffffffffffffffffffffff160361075c576040517f08c379a000000000000000000000000000000000000000000000000000000000815260040161075390611b2e565b60405180910390fd5b600073ffffffffffffffffffffffffffffffffffffffff168273ffffffffffffffffffffffffffffffffffffffff16036107cb576040517f08c379a00000000000000000000000000000000000000000000000000000000081526004016107c290611bc0565b60405180910390fd5b80600160008573ffffffffffffffffffffffffffffffffffffffff1673ffffffffffffffffffffffffffffffffffffffff16815260200190815260200160002060008473ffffffffffffffffffffffffffffffffffffffff1673ffffffffffffffffffffffffffffffffffffffff168152602001908152602001600020819055508173ffffffffffffffffffffffffffffffffffffffff168373ffffffffffffffffffffffffffffffffffffffff167f8c5be1e5ebec7d5bd14f71427d1e84f3dd0314c0f7b2291e5b200ac8c7c3b925836040516108a991906112c7565b60405180910390a3505050565b60006108c2848461065e565b90507fffffffffffffffffffffffffffffffffffffffffffffffffffffffffffffffff811461093c578181101561092e576040517f08c379a000000000000000000000000000000000000000000000000000000000815260040161092590611c2c565b60405180910390fd5b61093b84848484036106ed565b5b50505050565b600073ffffffffffffffffffffffffffffffffffffffff168373ffffffffffffffffffffffffffffffffffffffff16036109b1576040517f08c379a00000000000000000000000000000000000000000000000000000000081526004016109a890611cbe565b60405180910390fd5b600073ffffffffffffffffffffffffffffffffffffffff168273ffffffffffffffffffffffffffffffffffffffff1603610a20576040517f08c379a0000000000000000000000000000000000000000000000000000000008152600401610a1790611d50565b60405180910390fd5b610a2b838383610f91565b60008060008573ffffffffffffffffffffffffffffffffffffffff1673ffffffffffffffffffffffffffffffffffffffff16815260200190815260200160002054905081811015610ab1576040517f08c379a0000000000000000000000000000000000000000000000000000000008152600401610aa890611de2565b60405180910390fd5b8181036000808673ffffffffffffffffffffffffffffffffffffffff1673ffffffffffffffffffffffffffffffffffffffff16815260200190815260200160002081905550816000808573ffffffffffffffffffffffffffffffffffffffff1673ffffffffffffffffffffffffffffffffffffffff168152602001908152602001600020600082825401925050819055508273ffffffffffffffffffffffffffffffffffffffff168473ffffffffffffffffffffffffffffffffffffffff167fddf252ad1be2c89b69c2b068fc378daa952ba7f163c4a11628f55a4df523b3ef84604051610b9f91906112c7565b60405180910390a3610bb2848484610f96565b50505050565b606060008273ffffffffffffffffffffffffffffffffffffffff1660001b905060006040518060400160405280601081526020017f303132333435363738396162636465660000000000000000000000000000000081525090506000602a67ffffffffffffffff811115610c2f57610c2e611e02565b5b6040519080825280601f01601f191660200182016040528015610c615781602001600182028036833780820191505090505b5090507f300000000000000000000000000000000000000000000000000000000000000081600081518110610c9957610c98611e31565b5b60200101907effffffffffffffffffffffffffffffffffffffffffffffffffffffffffffff1916908160001a9053507f780000000000000000000000000000000000000000000000000000000000000081600181518110610cfd57610cfc611e31565b5b60200101907effffffffffffffffffffffffffffffffffffffffffffffffffffffffffffff1916908160001a90535060005b6014811015610eb75782600485600c84610d499190611492565b60208110610d5a57610d59611e31565b5b1a60f81b7effffffffffffffffffffffffffffffffffffffffffffffffffffffffffffff1916901c60f81c60ff1681518110610d9957610d98611e31565b5b602001015160f81c60f81b82600283610db291906116f8565b6002610dbe9190611492565b81518110610dcf57610dce611e31565b5b60200101907effffffffffffffffffffffffffffffffffffffffffffffffffffffffffffff1916908160001a90535082600f60f81b85600c84610e129190611492565b60208110610e2357610e22611e31565b5b1a60f81b1660f81c60ff1681518110610e3f57610e3e611e31565b5b602001015160f81c60f81b82600283610e5891906116f8565b6003610e649190611492565b81518110610e7557610e74611e31565b5b60200101907effffffffffffffffffffffffffffffffffffffffffffffffffffffffffffff1916908160001a9053508080610eaf90611e60565b915050610d2f565b50809350505050919050565b606060006001610ed284610f9b565b01905060008167ffffffffffffffff811115610ef157610ef0611e02565b5b6040519080825280601f01601f191660200182016040528015610f235781602001600182028036833780820191505090505b509050600082602001820190505b600115610f86578080600190039150507f3031323334353637383961626364656600000000000000000000000000000000600a86061a8153600a8581610f7a57610f79611ea8565b5b04945060008503610f31575b819350505050919050565b505050565b505050565b600080600090507a184f03e93ff9f4daa797ed6e38ed64bf6a1f0100000000000000008310610ff9577a184f03e93ff9f4daa797ed6e38ed64bf6a1f0100000000000000008381610fef57610fee611ea8565b5b0492506040810190505b6d04ee2d6d415b85acef81000000008310611036576d04ee2d6d415b85acef8100000000838161102c5761102b611ea8565b5b0492506020810190505b662386f26fc10000831061106557662386f26fc10000838161105b5761105a611ea8565b5b0492506010810190505b6305f5e100831061108e576305f5e100838161108457611083611ea8565b5b0492506008810190505b61271083106110b35761271083816110a9576110a8611ea8565b5b0492506004810190505b606483106110d657606483816110cc576110cb611ea8565b5b0492506002810190505b600a83106110e5576001810190505b80915050919050565b600081519050919050565b600082825260208201905092915050565b60005b8381101561112857808201518184015260208101905061110d565b83811115611137576000848401525b50505050565b6000601f19601f8301169050919050565b6000611159826110ee565b61116381856110f9565b935061117381856020860161110a565b61117c8161113d565b840191505092915050565b600060208201905081810360008301526111a1818461114e565b905092915050565b600080fd5b600073ffffffffffffffffffffffffffffffffffffffff82169050919050565b60006111d9826111ae565b9050919050565b6111e9816111ce565b81146111f457600080fd5b50565b600081359050611206816111e0565b92915050565b6000819050919050565b61121f8161120c565b811461122a57600080fd5b50565b60008135905061123c81611216565b92915050565b60008060408385031215611259576112586111a9565b5b6000611267858286016111f7565b92505060206112788582860161122d565b9150509250929050565b60008115159050919050565b61129781611282565b82525050565b60006020820190506112b2600083018461128e565b92915050565b6112c18161120c565b82525050565b60006020820190506112dc60008301846112b8565b92915050565b6000806000606084860312156112fb576112fa6111a9565b5b6000611309868287016111f7565b935050602061131a868287016111f7565b925050604061132b8682870161122d565b9150509250925092565b600060ff82169050919050565b61134b81611335565b82525050565b60006020820190506113666000830184611342565b92915050565b611375816111ce565b82525050565b6000602082019050611390600083018461136c565b92915050565b6000602082840312156113ac576113ab6111a9565b5b60006113ba848285016111f7565b91505092915050565b600080604083850312156113da576113d96111a9565b5b60006113e8858286016111f7565b92505060206113f9858286016111f7565b9150509250929050565b7f4e487b7100000000000000000000000000000000000000000000000000000000600052602260045260246000fd5b6000600282049050600182168061144a57607f821691505b60208210810361145d5761145c611403565b5b50919050565b7f4e487b7100000000000000000000000000000000000000000000000000000000600052601160045260246000fd5b600061149d8261120c565b91506114a88361120c565b9250827fffffffffffffffffffffffffffffffffffffffffffffffffffffffffffffffff038211156114dd576114dc611463565b5b828201905092915050565b7f45524332303a2064656372656173656420616c6c6f77616e63652062656c6f7760008201527f207a65726f000000000000000000000000000000000000000000000000000000602082015250565b60006115446025836110f9565b915061154f826114e8565b604082019050919050565b6000602082019050818103600083015261157381611537565b9050919050565b60008160011c9050919050565b6000808291508390505b60018511156115d1578086048111156115ad576115ac611463565b5b60018516156115bc5780820291505b80810290506115ca8561157a565b9450611591565b94509492505050565b6000826115ea57600190506116a6565b816115f857600090506116a6565b816001811461160e576002811461161857611647565b60019150506116a6565b60ff84111561162a57611629611463565b5b8360020a91508482111561164157611640611463565b5b506116a6565b5060208310610133831016604e8410600b841016171561167c5782820a90508381111561167757611676611463565b5b6116a6565b6116898484846001611587565b925090508184048111156116a05761169f611463565b5b81810290505b9392505050565b60006116b88261120c565b91506116c38361120c565b92506116f07fffffffffffffffffffffffffffffffffffffffffffffffffffffffffffffffff84846115da565b905092915050565b60006117038261120c565b915061170e8361120c565b9250817fffffffffffffffffffffffffffffffffffffffffffffffffffffffffffffffff048311821515161561174757611746611463565b5b828202905092915050565b600081905092915050565b7f3000000000000000000000000000000000000000000000000000000000000000600082015250565b6000611793600183611752565b915061179e8261175d565b600182019050919050565b7f2b00000000000000000000000000000000000000000000000000000000000000600082015250565b60006117df600183611752565b91506117ea826117a9565b600182019050919050565b7f3300000000000000000000000000000000000000000000000000000000000000600082015250565b600061182b600183611752565b9150611836826117f5565b600182019050919050565b7f5472616e66657220416c65727400000000000000000000000000000000000000600082015250565b6000611877600d83611752565b915061188282611841565b600d82019050919050565b7f486f6f7261792120000000000000000000000000000000000000000000000000600082015250565b60006118c3600883611752565b91506118ce8261188d565b600882019050919050565b60006118e4826110ee565b6118ee8185611752565b93506118fe81856020860161110a565b80840191505092915050565b7f2073656e74200000000000000000000000000000000000000000000000000000600082015250565b6000611940600683611752565b915061194b8261190a565b600682019050919050565b7f205055534820746f20796f752100000000000000000000000000000000000000600082015250565b600061198c600d83611752565b915061199782611956565b600d82019050919050565b60006119ad82611786565b91506119b8826117d2565b91506119c38261181e565b91506119ce826117d2565b91506119d98261186a565b91506119e4826117d2565b91506119ef826118b6565b91506119fb82856118d9565b9150611a0682611933565b9150611a1282846118d9565b9150611a1d8261197f565b91508190509392505050565b600081519050919050565b600082825260208201905092915050565b6000611a5082611a29565b611a5a8185611a34565b9350611a6a81856020860161110a565b611a738161113d565b840191505092915050565b6000606082019050611a93600083018661136c565b611aa0602083018561136c565b8181036040830152611ab28184611a45565b9050949350505050565b7f45524332303a20617070726f76652066726f6d20746865207a65726f2061646460008201527f7265737300000000000000000000000000000000000000000000000000000000602082015250565b6000611b186024836110f9565b9150611b2382611abc565b604082019050919050565b60006020820190508181036000830152611b4781611b0b565b9050919050565b7f45524332303a20617070726f766520746f20746865207a65726f20616464726560008201527f7373000000000000000000000000000000000000000000000000000000000000602082015250565b6000611baa6022836110f9565b9150611bb582611b4e565b604082019050919050565b60006020820190508181036000830152611bd981611b9d565b9050919050565b7f45524332303a20696e73756666696369656e7420616c6c6f77616e6365000000600082015250565b6000611c16601d836110f9565b9150611c2182611be0565b602082019050919050565b60006020820190508181036000830152611c4581611c09565b9050919050565b7f45524332303a207472616e736665722066726f6d20746865207a65726f20616460008201527f6472657373000000000000000000000000000000000000000000000000000000602082015250565b6000611ca86025836110f9565b9150611cb382611c4c565b604082019050919050565b60006020820190508181036000830152611cd781611c9b565b9050919050565b7f45524332303a207472616e7366657220746f20746865207a65726f206164647260008201527f6573730000000000000000000000000000000000000000000000000000000000602082015250565b6000611d3a6023836110f9565b9150611d4582611cde565b604082019050919050565b60006020820190508181036000830152611d6981611d2d565b9050919050565b7f45524332303a207472616e7366657220616d6f756e742065786365656473206260008201527f616c616e63650000000000000000000000000000000000000000000000000000602082015250565b6000611dcc6026836110f9565b9150611dd782611d70565b604082019050919050565b60006020820190508181036000830152611dfb81611dbf565b9050919050565b7f4e487b7100000000000000000000000000000000000000000000000000000000600052604160045260246000fd5b7f4e487b7100000000000000000000000000000000000000000000000000000000600052603260045260246000fd5b6000611e6b8261120c565b91507fffffffffffffffffffffffffffffffffffffffffffffffffffffffffffffffff8203611e9d57611e9c611463565b5b600182019050919050565b7f4e487b7100000000000000000000000000000000000000000000000000000000600052601260045260246000fdfea2646970667358221220f18a4df38f1033ba277acb42801a07273cabcc6ecd63011ba6642a2125d9a6a464736f6c634300080f0033",
  "linkReferences": {},
  "deployedLinkReferences": {}
}