{
  "_format": "hh-sol-artifact-1",
  "contractName": "CycliContract",
  "sourceName": "src/blockchain/hardhat/contracts/CycliContract.sol",
  "abi": [
    {
      "inputs": [],
      "stateMutability": "nonpayable",
      "type": "constructor"
    },
    {
      "anonymous": false,
      "inputs": [
        {
          "indexed": true,
          "internalType": "address",
          "name": "owner",
          "type": "address"
        },
        {
          "indexed": true,
          "internalType": "address",
          "name": "spender",
          "type": "address"
        },
        {
          "indexed": false,
          "internalType": "uint256",
          "name": "value",
          "type": "uint256"
        }
      ],
      "name": "Approval",
      "type": "event"
    },
    {
      "anonymous": false,
      "inputs": [
        {
          "indexed": true,
          "internalType": "address",
          "name": "operator",
          "type": "address"
        },
        {
          "indexed": true,
          "internalType": "address",
          "name": "tokenHolder",
          "type": "address"
        }
      ],
      "name": "AuthorizedOperator",
      "type": "event"
    },
    {
      "anonymous": false,
      "inputs": [
        {
          "indexed": true,
          "internalType": "address",
          "name": "operator",
          "type": "address"
        },
        {
          "indexed": true,
          "internalType": "address",
          "name": "from",
          "type": "address"
        },
        {
          "indexed": false,
          "internalType": "uint256",
          "name": "amount",
          "type": "uint256"
        },
        {
          "indexed": false,
          "internalType": "bytes",
          "name": "data",
          "type": "bytes"
        },
        {
          "indexed": false,
          "internalType": "bytes",
          "name": "operatorData",
          "type": "bytes"
        }
      ],
      "name": "Burned",
      "type": "event"
    },
    {
      "anonymous": false,
      "inputs": [
        {
          "indexed": true,
          "internalType": "address",
          "name": "operator",
          "type": "address"
        },
        {
          "indexed": true,
          "internalType": "address",
          "name": "to",
          "type": "address"
        },
        {
          "indexed": false,
          "internalType": "uint256",
          "name": "amount",
          "type": "uint256"
        },
        {
          "indexed": false,
          "internalType": "bytes",
          "name": "data",
          "type": "bytes"
        },
        {
          "indexed": false,
          "internalType": "bytes",
          "name": "operatorData",
          "type": "bytes"
        }
      ],
      "name": "Minted",
      "type": "event"
    },
    {
      "anonymous": false,
      "inputs": [
        {
          "indexed": true,
          "internalType": "address",
          "name": "previousOwner",
          "type": "address"
        },
        {
          "indexed": true,
          "internalType": "address",
          "name": "newOwner",
          "type": "address"
        }
      ],
      "name": "OwnershipTransferred",
      "type": "event"
    },
    {
      "anonymous": false,
      "inputs": [
        {
          "indexed": true,
          "internalType": "address",
          "name": "operator",
          "type": "address"
        },
        {
          "indexed": true,
          "internalType": "address",
          "name": "tokenHolder",
          "type": "address"
        }
      ],
      "name": "RevokedOperator",
      "type": "event"
    },
    {
      "anonymous": false,
      "inputs": [
        {
          "indexed": true,
          "internalType": "address",
          "name": "operator",
          "type": "address"
        },
        {
          "indexed": true,
          "internalType": "address",
          "name": "from",
          "type": "address"
        },
        {
          "indexed": true,
          "internalType": "address",
          "name": "to",
          "type": "address"
        },
        {
          "indexed": false,
          "internalType": "uint256",
          "name": "amount",
          "type": "uint256"
        },
        {
          "indexed": false,
          "internalType": "bytes",
          "name": "data",
          "type": "bytes"
        },
        {
          "indexed": false,
          "internalType": "bytes",
          "name": "operatorData",
          "type": "bytes"
        }
      ],
      "name": "Sent",
      "type": "event"
    },
    {
      "anonymous": false,
      "inputs": [
        {
          "indexed": true,
          "internalType": "address",
          "name": "from",
          "type": "address"
        },
        {
          "indexed": true,
          "internalType": "address",
          "name": "to",
          "type": "address"
        },
        {
          "indexed": false,
          "internalType": "uint256",
          "name": "value",
          "type": "uint256"
        }
      ],
      "name": "Transfer",
      "type": "event"
    },
    {
      "inputs": [],
      "name": "MATICtotal",
      "outputs": [
        {
          "internalType": "uint256",
          "name": "",
          "type": "uint256"
        }
      ],
      "stateMutability": "view",
      "type": "function"
    },
    {
      "inputs": [
        {
          "internalType": "address",
          "name": "holder",
          "type": "address"
        },
        {
          "internalType": "address",
          "name": "spender",
          "type": "address"
        }
      ],
      "name": "allowance",
      "outputs": [
        {
          "internalType": "uint256",
          "name": "",
          "type": "uint256"
        }
      ],
      "stateMutability": "view",
      "type": "function"
    },
    {
      "inputs": [
        {
          "internalType": "address",
          "name": "spender",
          "type": "address"
        },
        {
          "internalType": "uint256",
          "name": "value",
          "type": "uint256"
        }
      ],
      "name": "approve",
      "outputs": [
        {
          "internalType": "bool",
          "name": "",
          "type": "bool"
        }
      ],
      "stateMutability": "nonpayable",
      "type": "function"
    },
    {
      "inputs": [
        {
          "internalType": "address",
          "name": "operator",
          "type": "address"
        }
      ],
      "name": "authorizeOperator",
      "outputs": [],
      "stateMutability": "nonpayable",
      "type": "function"
    },
    {
      "inputs": [
        {
          "internalType": "address",
          "name": "tokenHolder",
          "type": "address"
        }
      ],
      "name": "balanceOf",
      "outputs": [
        {
          "internalType": "uint256",
          "name": "",
          "type": "uint256"
        }
      ],
      "stateMutability": "view",
      "type": "function"
    },
    {
      "inputs": [
        {
          "internalType": "uint256",
          "name": "amount",
          "type": "uint256"
        },
        {
          "internalType": "bytes",
          "name": "data",
          "type": "bytes"
        }
      ],
      "name": "burn",
      "outputs": [],
      "stateMutability": "nonpayable",
      "type": "function"
    },
    {
      "inputs": [
        {
          "internalType": "uint256",
          "name": "_value",
          "type": "uint256"
        }
      ],
      "name": "buyTokens",
      "outputs": [],
      "stateMutability": "payable",
      "type": "function"
    },
    {
      "inputs": [],
      "name": "decimals",
      "outputs": [
        {
          "internalType": "uint8",
          "name": "",
          "type": "uint8"
        }
      ],
      "stateMutability": "pure",
      "type": "function"
    },
    {
      "inputs": [],
      "name": "defaultOperators",
      "outputs": [
        {
          "internalType": "address[]",
          "name": "",
          "type": "address[]"
        }
      ],
      "stateMutability": "view",
      "type": "function"
    },
    {
      "inputs": [
        {
          "internalType": "address",
          "name": "_address",
          "type": "address"
        }
      ],
      "name": "getSupplyBalance",
      "outputs": [
        {
          "internalType": "uint256",
          "name": "",
          "type": "uint256"
        }
      ],
      "stateMutability": "view",
      "type": "function"
    },
    {
      "inputs": [],
      "name": "granularity",
      "outputs": [
        {
          "internalType": "uint256",
          "name": "",
          "type": "uint256"
        }
      ],
      "stateMutability": "view",
      "type": "function"
    },
    {
      "inputs": [
        {
          "internalType": "address",
          "name": "operator",
          "type": "address"
        },
        {
          "internalType": "address",
          "name": "tokenHolder",
          "type": "address"
        }
      ],
      "name": "isOperatorFor",
      "outputs": [
        {
          "internalType": "bool",
          "name": "",
          "type": "bool"
        }
      ],
      "stateMutability": "view",
      "type": "function"
    },
    {
      "inputs": [],
      "name": "name",
      "outputs": [
        {
          "internalType": "string",
          "name": "",
          "type": "string"
        }
      ],
      "stateMutability": "view",
      "type": "function"
    },
    {
      "inputs": [
        {
          "internalType": "address",
          "name": "account",
          "type": "address"
        },
        {
          "internalType": "uint256",
          "name": "amount",
          "type": "uint256"
        },
        {
          "internalType": "bytes",
          "name": "data",
          "type": "bytes"
        },
        {
          "internalType": "bytes",
          "name": "operatorData",
          "type": "bytes"
        }
      ],
      "name": "operatorBurn",
      "outputs": [],
      "stateMutability": "nonpayable",
      "type": "function"
    },
    {
      "inputs": [
        {
          "internalType": "address",
          "name": "sender",
          "type": "address"
        },
        {
          "internalType": "address",
          "name": "recipient",
          "type": "address"
        },
        {
          "internalType": "uint256",
          "name": "amount",
          "type": "uint256"
        },
        {
          "internalType": "bytes",
          "name": "data",
          "type": "bytes"
        },
        {
          "internalType": "bytes",
          "name": "operatorData",
          "type": "bytes"
        }
      ],
      "name": "operatorSend",
      "outputs": [],
      "stateMutability": "nonpayable",
      "type": "function"
    },
    {
      "inputs": [],
      "name": "owner",
      "outputs": [
        {
          "internalType": "address",
          "name": "",
          "type": "address"
        }
      ],
      "stateMutability": "view",
      "type": "function"
    },
    {
      "inputs": [
        {
          "internalType": "address",
          "name": "",
          "type": "address"
        }
      ],
      "name": "ownerBalances",
      "outputs": [
        {
          "internalType": "address",
          "name": "",
          "type": "address"
        }
      ],
      "stateMutability": "view",
      "type": "function"
    },
    {
      "inputs": [
        {
          "internalType": "string",
          "name": "_cid",
          "type": "string"
        },
        {
          "internalType": "string",
          "name": "_cidURL",
          "type": "string"
        },
        {
          "internalType": "uint256",
          "name": "_counter",
          "type": "uint256"
        }
      ],
      "name": "redeemTokens",
      "outputs": [],
      "stateMutability": "nonpayable",
      "type": "function"
    },
    {
      "inputs": [],
      "name": "reedemCounter",
      "outputs": [
        {
          "internalType": "uint256",
          "name": "_value",
          "type": "uint256"
        }
      ],
      "stateMutability": "view",
      "type": "function"
    },
    {
      "inputs": [
        {
          "internalType": "uint256",
          "name": "",
          "type": "uint256"
        }
      ],
      "name": "reedemCycliBalances",
      "outputs": [
        {
          "internalType": "uint256",
          "name": "id",
          "type": "uint256"
        },
        {
          "internalType": "string",
          "name": "cid",
          "type": "string"
        },
        {
          "internalType": "string",
          "name": "cidURI",
          "type": "string"
        },
        {
          "internalType": "uint256",
          "name": "counter",
          "type": "uint256"
        },
        {
          "internalType": "bool",
          "name": "redeem",
          "type": "bool"
        },
        {
          "internalType": "address",
          "name": "owner",
          "type": "address"
        }
      ],
      "stateMutability": "view",
      "type": "function"
    },
    {
      "inputs": [],
      "name": "renounceOwnership",
      "outputs": [],
      "stateMutability": "nonpayable",
      "type": "function"
    },
    {
      "inputs": [
        {
          "internalType": "address",
          "name": "operator",
          "type": "address"
        }
      ],
      "name": "revokeOperator",
      "outputs": [],
      "stateMutability": "nonpayable",
      "type": "function"
    },
    {
      "inputs": [
        {
          "internalType": "address",
          "name": "_contract",
          "type": "address"
        },
        {
          "internalType": "uint256",
          "name": "_supply",
          "type": "uint256"
        }
      ],
      "name": "safeMint",
      "outputs": [],
      "stateMutability": "nonpayable",
      "type": "function"
    },
    {
      "inputs": [
        {
          "internalType": "address",
          "name": "recipient",
          "type": "address"
        },
        {
          "internalType": "uint256",
          "name": "amount",
          "type": "uint256"
        },
        {
          "internalType": "bytes",
          "name": "data",
          "type": "bytes"
        }
      ],
      "name": "send",
      "outputs": [],
      "stateMutability": "nonpayable",
      "type": "function"
    },
    {
      "inputs": [
        {
          "internalType": "address",
          "name": "_address",
          "type": "address"
        },
        {
          "internalType": "uint256",
          "name": "_amount",
          "type": "uint256"
        }
      ],
      "name": "substractCycli",
      "outputs": [
        {
          "internalType": "bool",
          "name": "",
          "type": "bool"
        }
      ],
      "stateMutability": "nonpayable",
      "type": "function"
    },
    {
      "inputs": [
        {
          "internalType": "address",
          "name": "",
          "type": "address"
        }
      ],
      "name": "supplyCycliBalances",
      "outputs": [
        {
          "internalType": "uint256",
          "name": "",
          "type": "uint256"
        }
      ],
      "stateMutability": "view",
      "type": "function"
    },
    {
      "inputs": [],
      "name": "symbol",
      "outputs": [
        {
          "internalType": "string",
          "name": "",
          "type": "string"
        }
      ],
      "stateMutability": "view",
      "type": "function"
    },
    {
      "inputs": [],
      "name": "totalSupply",
      "outputs": [
        {
          "internalType": "uint256",
          "name": "",
          "type": "uint256"
        }
      ],
      "stateMutability": "view",
      "type": "function"
    },
    {
      "inputs": [
        {
          "internalType": "address",
          "name": "recipient",
          "type": "address"
        },
        {
          "internalType": "uint256",
          "name": "amount",
          "type": "uint256"
        }
      ],
      "name": "transfer",
      "outputs": [
        {
          "internalType": "bool",
          "name": "",
          "type": "bool"
        }
      ],
      "stateMutability": "nonpayable",
      "type": "function"
    },
    {
      "inputs": [
        {
          "internalType": "address",
          "name": "holder",
          "type": "address"
        },
        {
          "internalType": "address",
          "name": "recipient",
          "type": "address"
        },
        {
          "internalType": "uint256",
          "name": "amount",
          "type": "uint256"
        }
      ],
      "name": "transferFrom",
      "outputs": [
        {
          "internalType": "bool",
          "name": "",
          "type": "bool"
        }
      ],
      "stateMutability": "nonpayable",
      "type": "function"
    },
    {
      "inputs": [
        {
          "internalType": "address",
          "name": "newOwner",
          "type": "address"
        }
      ],
      "name": "transferOwnership",
      "outputs": [],
      "stateMutability": "nonpayable",
      "type": "function"
    },
    {
      "inputs": [],
      "name": "withdrawMATIC",
      "outputs": [],
      "stateMutability": "nonpayable",
      "type": "function"
    }
  ],
  "bytecode": "0x60806040526000600e553480156200001657600080fd5b506040518060400160405280600581526020017f4379636c690000000000000000000000000000000000000000000000000000008152506040518060400160405280600381526020017f43434c0000000000000000000000000000000000000000000000000000000000815250600067ffffffffffffffff811115620000a157620000a06200049a565b5b604051908082528060200260200182016040528015620000d05781602001602082028036833780820191505090505b508260029081620000e2919062000714565b508160039081620000f4919062000714565b5080600490805190602001906200010d929190620003ec565b5060005b8151811015620001a657600160056000848481518110620001375762000136620007fb565b5b602002602001015173ffffffffffffffffffffffffffffffffffffffff1673ffffffffffffffffffffffffffffffffffffffff16815260200190815260200160002060006101000a81548160ff02191690831515021790555080806200019d9062000859565b91505062000111565b50731820a4b7618bde71dce8cdc73aab6c95905fad2473ffffffffffffffffffffffffffffffffffffffff166329965a1d307fac7fbab5f54a3ca8194167523c6753bfeb96a445279294b6125b68cce2177054306040518463ffffffff1660e01b81526004016200021a9392919062000906565b600060405180830381600087803b1580156200023557600080fd5b505af11580156200024a573d6000803e3d6000fd5b50505050731820a4b7618bde71dce8cdc73aab6c95905fad2473ffffffffffffffffffffffffffffffffffffffff166329965a1d307faea199e31a596269b42cdafd93407f14436db6e4cad65417994c2eb37381e05a306040518463ffffffff1660e01b8152600401620002c19392919062000906565b600060405180830381600087803b158015620002dc57600080fd5b505af1158015620002f1573d6000803e3d6000fd5b50505050505050620003186200030c6200031e60201b60201c565b6200032660201b60201c565b62000943565b600033905090565b6000600960009054906101000a900473ffffffffffffffffffffffffffffffffffffffff16905081600960006101000a81548173ffffffffffffffffffffffffffffffffffffffff021916908373ffffffffffffffffffffffffffffffffffffffff1602179055508173ffffffffffffffffffffffffffffffffffffffff168173ffffffffffffffffffffffffffffffffffffffff167f8be0079c531659141344cd1fd0a4f28419497f9722a3daafe3b4186f6b6457e060405160405180910390a35050565b82805482825590600052602060002090810192821562000468579160200282015b82811115620004675782518260006101000a81548173ffffffffffffffffffffffffffffffffffffffff021916908373ffffffffffffffffffffffffffffffffffffffff160217905550916020019190600101906200040d565b5b5090506200047791906200047b565b5090565b5b80821115620004965760008160009055506001016200047c565b5090565b7f4e487b7100000000000000000000000000000000000000000000000000000000600052604160045260246000fd5b600081519050919050565b7f4e487b7100000000000000000000000000000000000000000000000000000000600052602260045260246000fd5b600060028204905060018216806200051c57607f821691505b602082108103620005325762000531620004d4565b5b50919050565b60008190508160005260206000209050919050565b60006020601f8301049050919050565b600082821b905092915050565b6000600883026200059c7fffffffffffffffffffffffffffffffffffffffffffffffffffffffffffffffff826200055d565b620005a886836200055d565b95508019841693508086168417925050509392505050565b6000819050919050565b6000819050919050565b6000620005f5620005ef620005e984620005c0565b620005ca565b620005c0565b9050919050565b6000819050919050565b6200061183620005d4565b620006296200062082620005fc565b8484546200056a565b825550505050565b600090565b6200064062000631565b6200064d81848462000606565b505050565b5b8181101562000675576200066960008262000636565b60018101905062000653565b5050565b601f821115620006c4576200068e8162000538565b62000699846200054d565b81016020851015620006a9578190505b620006c1620006b8856200054d565b83018262000652565b50505b505050565b600082821c905092915050565b6000620006e960001984600802620006c9565b1980831691505092915050565b6000620007048383620006d6565b9150826002028217905092915050565b6200071f82620004c9565b67ffffffffffffffff8111156200073b576200073a6200049a565b5b62000747825462000503565b6200075482828562000679565b600060209050601f8311600181146200078c576000841562000777578287015190505b620007838582620006f6565b865550620007f3565b601f1984166200079c8662000538565b60005b82811015620007c6578489015182556001820191506020850194506020810190506200079f565b86831015620007e65784890151620007e2601f891682620006d6565b8355505b6001600288020188555050505b505050505050565b7f4e487b7100000000000000000000000000000000000000000000000000000000600052603260045260246000fd5b7f4e487b7100000000000000000000000000000000000000000000000000000000600052601160045260246000fd5b60006200086682620005c0565b91507fffffffffffffffffffffffffffffffffffffffffffffffffffffffffffffffff82036200089b576200089a6200082a565b5b600182019050919050565b600073ffffffffffffffffffffffffffffffffffffffff82169050919050565b6000620008d382620008a6565b9050919050565b620008e581620008c6565b82525050565b6000819050919050565b6200090081620008eb565b82525050565b60006060820190506200091d6000830186620008da565b6200092c6020830185620008f5565b6200093b6040830184620008da565b949350505050565b61427f80620009536000396000f3fe6080604052600436106101e35760003560e01c8063959b8c3f11610102578063dd62ed3e11610095578063f38e266a11610064578063f38e266a14610712578063fad8b32a1461074f578063fc673c4f14610778578063fe9d9303146107a1576101e3565b8063dd62ed3e14610632578063e3538bc11461066f578063e8d880c6146106ac578063f2fde38b146106e9576101e3565b8063a9059cbb116100d1578063a9059cbb14610576578063d95b6371146105b3578063d99f6668146105f0578063d9a9358c14610607576101e3565b8063959b8c3f146104d057806395d89b41146104f95780639bd9bbc614610524578063a14481941461054d576101e3565b80633610724e1161017a57806370a082311161014957806370a0823114610428578063715018a6146104655780638ba5a7f51461047c5780638da5cb5b146104a5576101e3565b80633610724e1461037b578063556f0dc7146103975780635d68076f146103c257806362ad1b83146103ff576101e3565b806318160ddd116101b657806318160ddd146102bd57806323b872dd146102e85780632922d8d314610325578063313ce56714610350576101e3565b806306e48538146101e857806306fdde0314610213578063095ea7b31461023e5780630eace5841461027b575b600080fd5b3480156101f457600080fd5b506101fd6107ca565b60405161020a9190612adf565b60405180910390f35b34801561021f57600080fd5b50610228610858565b6040516102359190612b9a565b60405180910390f35b34801561024a57600080fd5b5061026560048036038101906102609190612c32565b6108ea565b6040516102729190612c8d565b60405180910390f35b34801561028757600080fd5b506102a2600480360381019061029d9190612ca8565b61090d565b6040516102b496959493929190612cf3565b60405180910390f35b3480156102c957600080fd5b506102d2610a86565b6040516102df9190612d62565b60405180910390f35b3480156102f457600080fd5b5061030f600480360381019061030a9190612d7d565b610a90565b60405161031c9190612c8d565b60405180910390f35b34801561033157600080fd5b5061033a610ae1565b6040516103479190612d62565b60405180910390f35b34801561035c57600080fd5b50610365610aed565b6040516103729190612dec565b60405180910390f35b61039560048036038101906103909190612ca8565b610af6565b005b3480156103a357600080fd5b506103ac610c53565b6040516103b99190612d62565b60405180910390f35b3480156103ce57600080fd5b506103e960048036038101906103e49190612e07565b610c5c565b6040516103f69190612d62565b60405180910390f35b34801561040b57600080fd5b5061042660048036038101906104219190612f69565b610c74565b005b34801561043457600080fd5b5061044f600480360381019061044a9190612e07565b610cda565b60405161045c9190612d62565b60405180910390f35b34801561047157600080fd5b5061047a610d22565b005b34801561048857600080fd5b506104a3600480360381019061049e91906130bd565b610d36565b005b3480156104b157600080fd5b506104ba610eca565b6040516104c79190613148565b60405180910390f35b3480156104dc57600080fd5b506104f760048036038101906104f29190612e07565b610ef4565b005b34801561050557600080fd5b5061050e611154565b60405161051b9190612b9a565b60405180910390f35b34801561053057600080fd5b5061054b60048036038101906105469190613163565b6111e6565b005b34801561055957600080fd5b50610574600480360381019061056f9190612c32565b611210565b005b34801561058257600080fd5b5061059d60048036038101906105989190612c32565b611312565b6040516105aa9190612c8d565b60405180910390f35b3480156105bf57600080fd5b506105da60048036038101906105d591906131d2565b611352565b6040516105e79190612c8d565b60405180910390f35b3480156105fc57600080fd5b50610605611503565b005b34801561061357600080fd5b5061061c6115aa565b6040516106299190612d62565b60405180910390f35b34801561063e57600080fd5b50610659600480360381019061065491906131d2565b6115b0565b6040516106669190612d62565b60405180910390f35b34801561067b57600080fd5b5061069660048036038101906106919190612e07565b611637565b6040516106a39190613148565b60405180910390f35b3480156106b857600080fd5b506106d360048036038101906106ce9190612c32565b61166a565b6040516106e09190612c8d565b60405180910390f35b3480156106f557600080fd5b50610710600480360381019061070b9190612e07565b611799565b005b34801561071e57600080fd5b5061073960048036038101906107349190612e07565b61181c565b6040516107469190612d62565b60405180910390f35b34801561075b57600080fd5b5061077660048036038101906107719190612e07565b611865565b005b34801561078457600080fd5b5061079f600480360381019061079a9190613212565b611ac5565b005b3480156107ad57600080fd5b506107c860048036038101906107c391906132b1565b611b27565b005b6060600480548060200260200160405190810160405280929190818152602001828054801561084e57602002820191906000526020600020905b8160009054906101000a900473ffffffffffffffffffffffffffffffffffffffff1673ffffffffffffffffffffffffffffffffffffffff1681526020019060010190808311610804575b5050505050905090565b6060600280546108679061333c565b80601f01602080910402602001604051908101604052809291908181526020018280546108939061333c565b80156108e05780601f106108b5576101008083540402835291602001916108e0565b820191906000526020600020905b8154815290600101906020018083116108c357829003601f168201915b5050505050905090565b6000806108f5611b4d565b9050610902818585611b55565b600191505092915050565b600d6020528060005260406000206000915090508060000154908060010180546109369061333c565b80601f01602080910402602001604051908101604052809291908181526020018280546109629061333c565b80156109af5780601f10610984576101008083540402835291602001916109af565b820191906000526020600020905b81548152906001019060200180831161099257829003601f168201915b5050505050908060020180546109c49061333c565b80601f01602080910402602001604051908101604052809291908181526020018280546109f09061333c565b8015610a3d5780601f10610a1257610100808354040283529160200191610a3d565b820191906000526020600020905b815481529060010190602001808311610a2057829003601f168201915b5050505050908060030154908060040160009054906101000a900460ff16908060040160019054906101000a900473ffffffffffffffffffffffffffffffffffffffff16905086565b6000600154905090565b600080610a9b611b4d565b9050610aa8858285611d1e565b610ad585858560405180602001604052806000815250604051806020016040528060008152506000611daa565b60019150509392505050565b600a8060000154905081565b60006012905090565b80341015610b39576040517f08c379a0000000000000000000000000000000000000000000000000000000008152600401610b30906133b9565b60405180910390fd5b33600b60003373ffffffffffffffffffffffffffffffffffffffff1673ffffffffffffffffffffffffffffffffffffffff16815260200190815260200160002060006101000a81548173ffffffffffffffffffffffffffffffffffffffff021916908373ffffffffffffffffffffffffffffffffffffffff16021790555080600c60003373ffffffffffffffffffffffffffffffffffffffff1673ffffffffffffffffffffffffffffffffffffffff1681526020019081526020016000206000828254610c069190613408565b92505081905550610c3733826040518060200160405280600081525060405180602001604052806000815250611ec8565b80600e6000828254610c499190613408565b9250508190555050565b60006001905090565b600c6020528060005260406000206000915090505481565b610c85610c7f611b4d565b86611352565b610cc4576040517f08c379a0000000000000000000000000000000000000000000000000000000008152600401610cbb906134d0565b60405180910390fd5b610cd385858585856001611daa565b5050505050565b60008060008373ffffffffffffffffffffffffffffffffffffffff1673ffffffffffffffffffffffffffffffffffffffff168152602001908152602001600020549050919050565b610d2a611edc565b610d346000611f5a565b565b60008111610d79576040517f08c379a0000000000000000000000000000000000000000000000000000000008152600401610d7090613562565b60405180910390fd5b610da333826040518060200160405280600081525060405180602001604052806000815250611ec8565b6000610daf600a612020565b9050610dbb600a61202e565b60006040518060c001604052808381526020018681526020018581526020018481526020016001151581526020013373ffffffffffffffffffffffffffffffffffffffff16815250905080600d6000848152602001908152602001600020600082015181600001556020820151816001019081610e38919061372e565b506040820151816002019081610e4e919061372e565b506060820151816003015560808201518160040160006101000a81548160ff02191690831515021790555060a08201518160040160016101000a81548173ffffffffffffffffffffffffffffffffffffffff021916908373ffffffffffffffffffffffffffffffffffffffff1602179055509050505050505050565b6000600960009054906101000a900473ffffffffffffffffffffffffffffffffffffffff16905090565b8073ffffffffffffffffffffffffffffffffffffffff16610f13611b4d565b73ffffffffffffffffffffffffffffffffffffffff1603610f69576040517f08c379a0000000000000000000000000000000000000000000000000000000008152600401610f6090613872565b60405180910390fd5b600560008273ffffffffffffffffffffffffffffffffffffffff1673ffffffffffffffffffffffffffffffffffffffff16815260200190815260200160002060009054906101000a900460ff16156110535760076000610fc7611b4d565b73ffffffffffffffffffffffffffffffffffffffff1673ffffffffffffffffffffffffffffffffffffffff16815260200190815260200160002060008273ffffffffffffffffffffffffffffffffffffffff1673ffffffffffffffffffffffffffffffffffffffff16815260200190815260200160002060006101000a81549060ff02191690556110f0565b600160066000611061611b4d565b73ffffffffffffffffffffffffffffffffffffffff1673ffffffffffffffffffffffffffffffffffffffff16815260200190815260200160002060008373ffffffffffffffffffffffffffffffffffffffff1673ffffffffffffffffffffffffffffffffffffffff16815260200190815260200160002060006101000a81548160ff0219169083151502179055505b6110f8611b4d565b73ffffffffffffffffffffffffffffffffffffffff168173ffffffffffffffffffffffffffffffffffffffff167ff4caeb2d6ca8932a215a353d0703c326ec2d81fc68170f320eb2ab49e9df61f960405160405180910390a350565b6060600380546111639061333c565b80601f016020809104026020016040519081016040528092919081815260200182805461118f9061333c565b80156111dc5780601f106111b1576101008083540402835291602001916111dc565b820191906000526020600020905b8154815290600101906020018083116111bf57829003601f168201915b5050505050905090565b61120b6111f1611b4d565b848484604051806020016040528060008152506001611daa565b505050565b81600b60008473ffffffffffffffffffffffffffffffffffffffff1673ffffffffffffffffffffffffffffffffffffffff16815260200190815260200160002060006101000a81548173ffffffffffffffffffffffffffffffffffffffff021916908373ffffffffffffffffffffffffffffffffffffffff16021790555080600c60008473ffffffffffffffffffffffffffffffffffffffff1673ffffffffffffffffffffffffffffffffffffffff16815260200190815260200160002060008282546112dd9190613408565b9250508190555061130e82826040518060200160405280600081525060405180602001604052806000815250611ec8565b5050565b600061134861131f611b4d565b848460405180602001604052806000815250604051806020016040528060008152506000611daa565b6001905092915050565b60008173ffffffffffffffffffffffffffffffffffffffff168373ffffffffffffffffffffffffffffffffffffffff16148061146a5750600560008473ffffffffffffffffffffffffffffffffffffffff1673ffffffffffffffffffffffffffffffffffffffff16815260200190815260200160002060009054906101000a900460ff1680156114695750600760008373ffffffffffffffffffffffffffffffffffffffff1673ffffffffffffffffffffffffffffffffffffffff16815260200190815260200160002060008473ffffffffffffffffffffffffffffffffffffffff1673ffffffffffffffffffffffffffffffffffffffff16815260200190815260200160002060009054906101000a900460ff16155b5b806114fb5750600660008373ffffffffffffffffffffffffffffffffffffffff1673ffffffffffffffffffffffffffffffffffffffff16815260200190815260200160002060008473ffffffffffffffffffffffffffffffffffffffff1673ffffffffffffffffffffffffffffffffffffffff16815260200190815260200160002060009054906101000a900460ff165b905092915050565b61150b611edc565b6000600e5411611550576040517f08c379a0000000000000000000000000000000000000000000000000000000008152600401611547906138de565b60405180910390fd5b611558610eca565b73ffffffffffffffffffffffffffffffffffffffff166108fc600e549081150290604051600060405180830381858888f1935050505015801561159f573d6000803e3d6000fd5b506000600e81905550565b600e5481565b6000600860008473ffffffffffffffffffffffffffffffffffffffff1673ffffffffffffffffffffffffffffffffffffffff16815260200190815260200160002060008373ffffffffffffffffffffffffffffffffffffffff1673ffffffffffffffffffffffffffffffffffffffff16815260200190815260200160002054905092915050565b600b6020528060005260406000206000915054906101000a900473ffffffffffffffffffffffffffffffffffffffff1681565b60008273ffffffffffffffffffffffffffffffffffffffff16600b60008573ffffffffffffffffffffffffffffffffffffffff1673ffffffffffffffffffffffffffffffffffffffff16815260200190815260200160002060009054906101000a900473ffffffffffffffffffffffffffffffffffffffff1673ffffffffffffffffffffffffffffffffffffffff1614611739576040517f08c379a00000000000000000000000000000000000000000000000000000000081526004016117309061394a565b60405180910390fd5b81600c60008573ffffffffffffffffffffffffffffffffffffffff1673ffffffffffffffffffffffffffffffffffffffff1681526020019081526020016000206000828254611788919061396a565b925050819055506001905092915050565b6117a1611edc565b600073ffffffffffffffffffffffffffffffffffffffff168173ffffffffffffffffffffffffffffffffffffffff1603611810576040517f08c379a000000000000000000000000000000000000000000000000000000000815260040161180790613a10565b60405180910390fd5b61181981611f5a565b50565b6000600c60008373ffffffffffffffffffffffffffffffffffffffff1673ffffffffffffffffffffffffffffffffffffffff168152602001908152602001600020549050919050565b61186d611b4d565b73ffffffffffffffffffffffffffffffffffffffff168173ffffffffffffffffffffffffffffffffffffffff16036118da576040517f08c379a00000000000000000000000000000000000000000000000000000000081526004016118d190613aa2565b60405180910390fd5b600560008273ffffffffffffffffffffffffffffffffffffffff1673ffffffffffffffffffffffffffffffffffffffff16815260200190815260200160002060009054906101000a900460ff16156119cd5760016007600061193a611b4d565b73ffffffffffffffffffffffffffffffffffffffff1673ffffffffffffffffffffffffffffffffffffffff16815260200190815260200160002060008373ffffffffffffffffffffffffffffffffffffffff1673ffffffffffffffffffffffffffffffffffffffff16815260200190815260200160002060006101000a81548160ff021916908315150217905550611a61565b600660006119d9611b4d565b73ffffffffffffffffffffffffffffffffffffffff1673ffffffffffffffffffffffffffffffffffffffff16815260200190815260200160002060008273ffffffffffffffffffffffffffffffffffffffff1673ffffffffffffffffffffffffffffffffffffffff16815260200190815260200160002060006101000a81549060ff02191690555b611a69611b4d565b73ffffffffffffffffffffffffffffffffffffffff168173ffffffffffffffffffffffffffffffffffffffff167f50546e66e5f44d728365dc3908c63bc5cfeeab470722c1677e3073a6ac294aa160405160405180910390a350565b611ad6611ad0611b4d565b85611352565b611b15576040517f08c379a0000000000000000000000000000000000000000000000000000000008152600401611b0c906134d0565b60405180910390fd5b611b2184848484612044565b50505050565b611b49611b32611b4d565b838360405180602001604052806000815250612044565b5050565b600033905090565b600073ffffffffffffffffffffffffffffffffffffffff168373ffffffffffffffffffffffffffffffffffffffff1603611bc4576040517f08c379a0000000000000000000000000000000000000000000000000000000008152600401611bbb90613b34565b60405180910390fd5b600073ffffffffffffffffffffffffffffffffffffffff168273ffffffffffffffffffffffffffffffffffffffff1603611c33576040517f08c379a0000000000000000000000000000000000000000000000000000000008152600401611c2a90613bc6565b60405180910390fd5b80600860008573ffffffffffffffffffffffffffffffffffffffff1673ffffffffffffffffffffffffffffffffffffffff16815260200190815260200160002060008473ffffffffffffffffffffffffffffffffffffffff1673ffffffffffffffffffffffffffffffffffffffff168152602001908152602001600020819055508173ffffffffffffffffffffffffffffffffffffffff168373ffffffffffffffffffffffffffffffffffffffff167f8c5be1e5ebec7d5bd14f71427d1e84f3dd0314c0f7b2291e5b200ac8c7c3b92583604051611d119190612d62565b60405180910390a3505050565b6000611d2a84846115b0565b90507fffffffffffffffffffffffffffffffffffffffffffffffffffffffffffffffff8114611da45781811015611d96576040517f08c379a0000000000000000000000000000000000000000000000000000000008152600401611d8d90613c32565b60405180910390fd5b611da38484848403611b55565b5b50505050565b600073ffffffffffffffffffffffffffffffffffffffff168673ffffffffffffffffffffffffffffffffffffffff1603611e19576040517f08c379a0000000000000000000000000000000000000000000000000000000008152600401611e1090613cc4565b60405180910390fd5b600073ffffffffffffffffffffffffffffffffffffffff168573ffffffffffffffffffffffffffffffffffffffff1603611e88576040517f08c379a0000000000000000000000000000000000000000000000000000000008152600401611e7f90613d56565b60405180910390fd5b6000611e92611b4d565b9050611ea2818888888888612296565b611eb08188888888886123fd565b611ebf81888888888888612617565b50505050505050565b611ed68484848460016127e9565b50505050565b611ee4611b4d565b73ffffffffffffffffffffffffffffffffffffffff16611f02610eca565b73ffffffffffffffffffffffffffffffffffffffff1614611f58576040517f08c379a0000000000000000000000000000000000000000000000000000000008152600401611f4f90613dc2565b60405180910390fd5b565b6000600960009054906101000a900473ffffffffffffffffffffffffffffffffffffffff16905081600960006101000a81548173ffffffffffffffffffffffffffffffffffffffff021916908373ffffffffffffffffffffffffffffffffffffffff1602179055508173ffffffffffffffffffffffffffffffffffffffff168173ffffffffffffffffffffffffffffffffffffffff167f8be0079c531659141344cd1fd0a4f28419497f9722a3daafe3b4186f6b6457e060405160405180910390a35050565b600081600001549050919050565b6001816000016000828254019250508190555050565b600073ffffffffffffffffffffffffffffffffffffffff168473ffffffffffffffffffffffffffffffffffffffff16036120b3576040517f08c379a00000000000000000000000000000000000000000000000000000000081526004016120aa90613e54565b60405180910390fd5b60006120bd611b4d565b90506120ce81866000878787612296565b6120db81866000876129c6565b60008060008773ffffffffffffffffffffffffffffffffffffffff1673ffffffffffffffffffffffffffffffffffffffff16815260200190815260200160002054905084811015612161576040517f08c379a000000000000000000000000000000000000000000000000000000000815260040161215890613ee6565b60405180910390fd5b8481036000808873ffffffffffffffffffffffffffffffffffffffff1673ffffffffffffffffffffffffffffffffffffffff1681526020019081526020016000208190555084600160008282546121b8919061396a565b925050819055508573ffffffffffffffffffffffffffffffffffffffff168273ffffffffffffffffffffffffffffffffffffffff167fa78a9be3a7b862d26933ad85fb11d80ef66b8f972d7cbba06621d583943a409887878760405161222093929190613f5b565b60405180910390a3600073ffffffffffffffffffffffffffffffffffffffff168673ffffffffffffffffffffffffffffffffffffffff167fddf252ad1be2c89b69c2b068fc378daa952ba7f163c4a11628f55a4df523b3ef876040516122869190612d62565b60405180910390a3505050505050565b6000731820a4b7618bde71dce8cdc73aab6c95905fad2473ffffffffffffffffffffffffffffffffffffffff1663aabbb8ca877f29ddb589b1fb5fc7cf394961c1adf5f8c6454761adf795e67fe149f658abe8956040518363ffffffff1660e01b8152600401612307929190613fb9565b602060405180830381865afa158015612324573d6000803e3d6000fd5b505050506040513d601f19601f820116820180604052508101906123489190613ff7565b9050600073ffffffffffffffffffffffffffffffffffffffff168173ffffffffffffffffffffffffffffffffffffffff16146123f4578073ffffffffffffffffffffffffffffffffffffffff166375ab97828888888888886040518763ffffffff1660e01b81526004016123c196959493929190614024565b600060405180830381600087803b1580156123db57600080fd5b505af11580156123ef573d6000803e3d6000fd5b505050505b50505050505050565b612409868686866129c6565b60008060008773ffffffffffffffffffffffffffffffffffffffff1673ffffffffffffffffffffffffffffffffffffffff1681526020019081526020016000205490508381101561248f576040517f08c379a000000000000000000000000000000000000000000000000000000000815260040161248690614105565b60405180910390fd5b8381036000808873ffffffffffffffffffffffffffffffffffffffff1673ffffffffffffffffffffffffffffffffffffffff16815260200190815260200160002081905550836000808773ffffffffffffffffffffffffffffffffffffffff1673ffffffffffffffffffffffffffffffffffffffff16815260200190815260200160002060008282546125229190613408565b925050819055508473ffffffffffffffffffffffffffffffffffffffff168673ffffffffffffffffffffffffffffffffffffffff168873ffffffffffffffffffffffffffffffffffffffff167f06b541ddaa720db2b10a4d0cdac39b8d360425fc073085fac19bc826146779878787876040516125a193929190613f5b565b60405180910390a48473ffffffffffffffffffffffffffffffffffffffff168673ffffffffffffffffffffffffffffffffffffffff167fddf252ad1be2c89b69c2b068fc378daa952ba7f163c4a11628f55a4df523b3ef866040516126069190612d62565b60405180910390a350505050505050565b6000731820a4b7618bde71dce8cdc73aab6c95905fad2473ffffffffffffffffffffffffffffffffffffffff1663aabbb8ca877fb281fc8c12954d22544db45de3159a39272895b169a852b314f9cc762e44c53b6040518363ffffffff1660e01b8152600401612688929190613fb9565b602060405180830381865afa1580156126a5573d6000803e3d6000fd5b505050506040513d601f19601f820116820180604052508101906126c99190613ff7565b9050600073ffffffffffffffffffffffffffffffffffffffff168173ffffffffffffffffffffffffffffffffffffffff1614612778578073ffffffffffffffffffffffffffffffffffffffff166223de298989898989896040518763ffffffff1660e01b815260040161274196959493929190614024565b600060405180830381600087803b15801561275b57600080fd5b505af115801561276f573d6000803e3d6000fd5b505050506127df565b81156127de5761279d8673ffffffffffffffffffffffffffffffffffffffff166129cc565b156127dd576040517f08c379a00000000000000000000000000000000000000000000000000000000081526004016127d4906141bd565b60405180910390fd5b5b5b5050505050505050565b600073ffffffffffffffffffffffffffffffffffffffff168573ffffffffffffffffffffffffffffffffffffffff1603612858576040517f08c379a000000000000000000000000000000000000000000000000000000000815260040161284f90614229565b60405180910390fd5b6000612862611b4d565b905061287181600088886129c6565b84600160008282546128839190613408565b92505081905550846000808873ffffffffffffffffffffffffffffffffffffffff1673ffffffffffffffffffffffffffffffffffffffff16815260200190815260200160002060008282546128d89190613408565b925050819055506128ef8160008888888888612617565b8573ffffffffffffffffffffffffffffffffffffffff168173ffffffffffffffffffffffffffffffffffffffff167f2fe5be0146f74c5bce36c0b80911af6c7d86ff27e89d5cfa61fc681327954e5d87878760405161295093929190613f5b565b60405180910390a38573ffffffffffffffffffffffffffffffffffffffff16600073ffffffffffffffffffffffffffffffffffffffff167fddf252ad1be2c89b69c2b068fc378daa952ba7f163c4a11628f55a4df523b3ef876040516129b69190612d62565b60405180910390a3505050505050565b50505050565b6000808273ffffffffffffffffffffffffffffffffffffffff163b119050919050565b600081519050919050565b600082825260208201905092915050565b6000819050602082019050919050565b600073ffffffffffffffffffffffffffffffffffffffff82169050919050565b6000612a4682612a1b565b9050919050565b612a5681612a3b565b82525050565b6000612a688383612a4d565b60208301905092915050565b6000602082019050919050565b6000612a8c826129ef565b612a9681856129fa565b9350612aa183612a0b565b8060005b83811015612ad2578151612ab98882612a5c565b9750612ac483612a74565b925050600181019050612aa5565b5085935050505092915050565b60006020820190508181036000830152612af98184612a81565b905092915050565b600081519050919050565b600082825260208201905092915050565b60005b83811015612b3b578082015181840152602081019050612b20565b83811115612b4a576000848401525b50505050565b6000601f19601f8301169050919050565b6000612b6c82612b01565b612b768185612b0c565b9350612b86818560208601612b1d565b612b8f81612b50565b840191505092915050565b60006020820190508181036000830152612bb48184612b61565b905092915050565b6000604051905090565b600080fd5b600080fd5b612bd981612a3b565b8114612be457600080fd5b50565b600081359050612bf681612bd0565b92915050565b6000819050919050565b612c0f81612bfc565b8114612c1a57600080fd5b50565b600081359050612c2c81612c06565b92915050565b60008060408385031215612c4957612c48612bc6565b5b6000612c5785828601612be7565b9250506020612c6885828601612c1d565b9150509250929050565b60008115159050919050565b612c8781612c72565b82525050565b6000602082019050612ca26000830184612c7e565b92915050565b600060208284031215612cbe57612cbd612bc6565b5b6000612ccc84828501612c1d565b91505092915050565b612cde81612bfc565b82525050565b612ced81612a3b565b82525050565b600060c082019050612d086000830189612cd5565b8181036020830152612d1a8188612b61565b90508181036040830152612d2e8187612b61565b9050612d3d6060830186612cd5565b612d4a6080830185612c7e565b612d5760a0830184612ce4565b979650505050505050565b6000602082019050612d776000830184612cd5565b92915050565b600080600060608486031215612d9657612d95612bc6565b5b6000612da486828701612be7565b9350506020612db586828701612be7565b9250506040612dc686828701612c1d565b9150509250925092565b600060ff82169050919050565b612de681612dd0565b82525050565b6000602082019050612e016000830184612ddd565b92915050565b600060208284031215612e1d57612e1c612bc6565b5b6000612e2b84828501612be7565b91505092915050565b600080fd5b600080fd5b7f4e487b7100000000000000000000000000000000000000000000000000000000600052604160045260246000fd5b612e7682612b50565b810181811067ffffffffffffffff82111715612e9557612e94612e3e565b5b80604052505050565b6000612ea8612bbc565b9050612eb48282612e6d565b919050565b600067ffffffffffffffff821115612ed457612ed3612e3e565b5b612edd82612b50565b9050602081019050919050565b82818337600083830152505050565b6000612f0c612f0784612eb9565b612e9e565b905082815260208101848484011115612f2857612f27612e39565b5b612f33848285612eea565b509392505050565b600082601f830112612f5057612f4f612e34565b5b8135612f60848260208601612ef9565b91505092915050565b600080600080600060a08688031215612f8557612f84612bc6565b5b6000612f9388828901612be7565b9550506020612fa488828901612be7565b9450506040612fb588828901612c1d565b935050606086013567ffffffffffffffff811115612fd657612fd5612bcb565b5b612fe288828901612f3b565b925050608086013567ffffffffffffffff81111561300357613002612bcb565b5b61300f88828901612f3b565b9150509295509295909350565b600067ffffffffffffffff82111561303757613036612e3e565b5b61304082612b50565b9050602081019050919050565b600061306061305b8461301c565b612e9e565b90508281526020810184848401111561307c5761307b612e39565b5b613087848285612eea565b509392505050565b600082601f8301126130a4576130a3612e34565b5b81356130b484826020860161304d565b91505092915050565b6000806000606084860312156130d6576130d5612bc6565b5b600084013567ffffffffffffffff8111156130f4576130f3612bcb565b5b6131008682870161308f565b935050602084013567ffffffffffffffff81111561312157613120612bcb565b5b61312d8682870161308f565b925050604061313e86828701612c1d565b9150509250925092565b600060208201905061315d6000830184612ce4565b92915050565b60008060006060848603121561317c5761317b612bc6565b5b600061318a86828701612be7565b935050602061319b86828701612c1d565b925050604084013567ffffffffffffffff8111156131bc576131bb612bcb565b5b6131c886828701612f3b565b9150509250925092565b600080604083850312156131e9576131e8612bc6565b5b60006131f785828601612be7565b925050602061320885828601612be7565b9150509250929050565b6000806000806080858703121561322c5761322b612bc6565b5b600061323a87828801612be7565b945050602061324b87828801612c1d565b935050604085013567ffffffffffffffff81111561326c5761326b612bcb565b5b61327887828801612f3b565b925050606085013567ffffffffffffffff81111561329957613298612bcb565b5b6132a587828801612f3b565b91505092959194509250565b600080604083850312156132c8576132c7612bc6565b5b60006132d685828601612c1d565b925050602083013567ffffffffffffffff8111156132f7576132f6612bcb565b5b61330385828601612f3b565b9150509250929050565b7f4e487b7100000000000000000000000000000000000000000000000000000000600052602260045260246000fd5b6000600282049050600182168061335457607f821691505b6020821081036133675761336661330d565b5b50919050565b7f496e737566666369656e742066756e6473000000000000000000000000000000600082015250565b60006133a3601183612b0c565b91506133ae8261336d565b602082019050919050565b600060208201905081810360008301526133d281613396565b9050919050565b7f4e487b7100000000000000000000000000000000000000000000000000000000600052601160045260246000fd5b600061341382612bfc565b915061341e83612bfc565b9250827fffffffffffffffffffffffffffffffffffffffffffffffffffffffffffffffff03821115613453576134526133d9565b5b828201905092915050565b7f4552433737373a2063616c6c6572206973206e6f7420616e206f70657261746f60008201527f7220666f7220686f6c6465720000000000000000000000000000000000000000602082015250565b60006134ba602c83612b0c565b91506134c58261345e565b604082019050919050565b600060208201905081810360008301526134e9816134ad565b9050919050565b7f596f7520646f6e277420686176652064617461207061636b6167657320666f7260008201527f2072656465656d00000000000000000000000000000000000000000000000000602082015250565b600061354c602783612b0c565b9150613557826134f0565b604082019050919050565b6000602082019050818103600083015261357b8161353f565b9050919050565b60008190508160005260206000209050919050565b60006020601f8301049050919050565b600082821b905092915050565b6000600883026135e47fffffffffffffffffffffffffffffffffffffffffffffffffffffffffffffffff826135a7565b6135ee86836135a7565b95508019841693508086168417925050509392505050565b6000819050919050565b600061362b61362661362184612bfc565b613606565b612bfc565b9050919050565b6000819050919050565b61364583613610565b61365961365182613632565b8484546135b4565b825550505050565b600090565b61366e613661565b61367981848461363c565b505050565b5b8181101561369d57613692600082613666565b60018101905061367f565b5050565b601f8211156136e2576136b381613582565b6136bc84613597565b810160208510156136cb578190505b6136df6136d785613597565b83018261367e565b50505b505050565b600082821c905092915050565b6000613705600019846008026136e7565b1980831691505092915050565b600061371e83836136f4565b9150826002028217905092915050565b61373782612b01565b67ffffffffffffffff8111156137505761374f612e3e565b5b61375a825461333c565b6137658282856136a1565b600060209050601f8311600181146137985760008415613786578287015190505b6137908582613712565b8655506137f8565b601f1984166137a686613582565b60005b828110156137ce578489015182556001820191506020850194506020810190506137a9565b868310156137eb57848901516137e7601f8916826136f4565b8355505b6001600288020188555050505b505050505050565b7f4552433737373a20617574686f72697a696e672073656c66206173206f70657260008201527f61746f7200000000000000000000000000000000000000000000000000000000602082015250565b600061385c602483612b0c565b915061386782613800565b604082019050919050565b6000602082019050818103600083015261388b8161384f565b9050919050565b7f446f6e277420686176652066756e647300000000000000000000000000000000600082015250565b60006138c8601083612b0c565b91506138d382613892565b602082019050919050565b600060208201905081810360008301526138f7816138bb565b9050919050565b7f596f7520617265206e6f7420746865206f776e65720000000000000000000000600082015250565b6000613934601583612b0c565b915061393f826138fe565b602082019050919050565b6000602082019050818103600083015261396381613927565b9050919050565b600061397582612bfc565b915061398083612bfc565b925082821015613993576139926133d9565b5b828203905092915050565b7f4f776e61626c653a206e6577206f776e657220697320746865207a65726f206160008201527f6464726573730000000000000000000000000000000000000000000000000000602082015250565b60006139fa602683612b0c565b9150613a058261399e565b604082019050919050565b60006020820190508181036000830152613a29816139ed565b9050919050565b7f4552433737373a207265766f6b696e672073656c66206173206f70657261746f60008201527f7200000000000000000000000000000000000000000000000000000000000000602082015250565b6000613a8c602183612b0c565b9150613a9782613a30565b604082019050919050565b60006020820190508181036000830152613abb81613a7f565b9050919050565b7f4552433737373a20617070726f76652066726f6d20746865207a65726f20616460008201527f6472657373000000000000000000000000000000000000000000000000000000602082015250565b6000613b1e602583612b0c565b9150613b2982613ac2565b604082019050919050565b60006020820190508181036000830152613b4d81613b11565b9050919050565b7f4552433737373a20617070726f766520746f20746865207a65726f206164647260008201527f6573730000000000000000000000000000000000000000000000000000000000602082015250565b6000613bb0602383612b0c565b9150613bbb82613b54565b604082019050919050565b60006020820190508181036000830152613bdf81613ba3565b9050919050565b7f4552433737373a20696e73756666696369656e7420616c6c6f77616e63650000600082015250565b6000613c1c601e83612b0c565b9150613c2782613be6565b602082019050919050565b60006020820190508181036000830152613c4b81613c0f565b9050919050565b7f4552433737373a207472616e736665722066726f6d20746865207a65726f206160008201527f6464726573730000000000000000000000000000000000000000000000000000602082015250565b6000613cae602683612b0c565b9150613cb982613c52565b604082019050919050565b60006020820190508181036000830152613cdd81613ca1565b9050919050565b7f4552433737373a207472616e7366657220746f20746865207a65726f2061646460008201527f7265737300000000000000000000000000000000000000000000000000000000602082015250565b6000613d40602483612b0c565b9150613d4b82613ce4565b604082019050919050565b60006020820190508181036000830152613d6f81613d33565b9050919050565b7f4f776e61626c653a2063616c6c6572206973206e6f7420746865206f776e6572600082015250565b6000613dac602083612b0c565b9150613db782613d76565b602082019050919050565b60006020820190508181036000830152613ddb81613d9f565b9050919050565b7f4552433737373a206275726e2066726f6d20746865207a65726f20616464726560008201527f7373000000000000000000000000000000000000000000000000000000000000602082015250565b6000613e3e602283612b0c565b9150613e4982613de2565b604082019050919050565b60006020820190508181036000830152613e6d81613e31565b9050919050565b7f4552433737373a206275726e20616d6f756e7420657863656564732062616c6160008201527f6e63650000000000000000000000000000000000000000000000000000000000602082015250565b6000613ed0602383612b0c565b9150613edb82613e74565b604082019050919050565b60006020820190508181036000830152613eff81613ec3565b9050919050565b600081519050919050565b600082825260208201905092915050565b6000613f2d82613f06565b613f378185613f11565b9350613f47818560208601612b1d565b613f5081612b50565b840191505092915050565b6000606082019050613f706000830186612cd5565b8181036020830152613f828185613f22565b90508181036040830152613f968184613f22565b9050949350505050565b6000819050919050565b613fb381613fa0565b82525050565b6000604082019050613fce6000830185612ce4565b613fdb6020830184613faa565b9392505050565b600081519050613ff181612bd0565b92915050565b60006020828403121561400d5761400c612bc6565b5b600061401b84828501613fe2565b91505092915050565b600060c0820190506140396000830189612ce4565b6140466020830188612ce4565b6140536040830187612ce4565b6140606060830186612cd5565b81810360808301526140728185613f22565b905081810360a08301526140868184613f22565b9050979650505050505050565b7f4552433737373a207472616e7366657220616d6f756e7420657863656564732060008201527f62616c616e636500000000000000000000000000000000000000000000000000602082015250565b60006140ef602783612b0c565b91506140fa82614093565b604082019050919050565b6000602082019050818103600083015261411e816140e2565b9050919050565b7f4552433737373a20746f6b656e20726563697069656e7420636f6e747261637460008201527f20686173206e6f20696d706c656d656e74657220666f7220455243373737546f60208201527f6b656e73526563697069656e7400000000000000000000000000000000000000604082015250565b60006141a7604d83612b0c565b91506141b282614125565b606082019050919050565b600060208201905081810360008301526141d68161419a565b9050919050565b7f4552433737373a206d696e7420746f20746865207a65726f2061646472657373600082015250565b6000614213602083612b0c565b915061421e826141dd565b602082019050919050565b6000602082019050818103600083015261424281614206565b905091905056fea2646970667358221220921e32918381464723afa19fb870a79cd48faf8302850c38e156af3c33afaa1564736f6c634300080f0033",
  "linkReferences": {},
  "deployedLinkReferences": {}
}