{
  "_format": "hh-sol-artifact-1",
  "contractName": "CycliContract",
  "sourceName": "src/blockchain/hardhat/contracts/CycliContract.sol",
  "abi": [
    {
      "inputs": [],
      "stateMutability": "nonpayable",
      "type": "constructor"
    },
    {
      "anonymous": false,
      "inputs": [
        {
          "indexed": true,
          "internalType": "address",
          "name": "owner",
          "type": "address"
        },
        {
          "indexed": true,
          "internalType": "address",
          "name": "spender",
          "type": "address"
        },
        {
          "indexed": false,
          "internalType": "uint256",
          "name": "value",
          "type": "uint256"
        }
      ],
      "name": "Approval",
      "type": "event"
    },
    {
      "anonymous": false,
      "inputs": [
        {
          "indexed": true,
          "internalType": "address",
          "name": "operator",
          "type": "address"
        },
        {
          "indexed": true,
          "internalType": "address",
          "name": "tokenHolder",
          "type": "address"
        }
      ],
      "name": "AuthorizedOperator",
      "type": "event"
    },
    {
      "anonymous": false,
      "inputs": [
        {
          "indexed": true,
          "internalType": "address",
          "name": "operator",
          "type": "address"
        },
        {
          "indexed": true,
          "internalType": "address",
          "name": "from",
          "type": "address"
        },
        {
          "indexed": false,
          "internalType": "uint256",
          "name": "amount",
          "type": "uint256"
        },
        {
          "indexed": false,
          "internalType": "bytes",
          "name": "data",
          "type": "bytes"
        },
        {
          "indexed": false,
          "internalType": "bytes",
          "name": "operatorData",
          "type": "bytes"
        }
      ],
      "name": "Burned",
      "type": "event"
    },
    {
      "anonymous": false,
      "inputs": [
        {
          "indexed": true,
          "internalType": "address",
          "name": "operator",
          "type": "address"
        },
        {
          "indexed": true,
          "internalType": "address",
          "name": "to",
          "type": "address"
        },
        {
          "indexed": false,
          "internalType": "uint256",
          "name": "amount",
          "type": "uint256"
        },
        {
          "indexed": false,
          "internalType": "bytes",
          "name": "data",
          "type": "bytes"
        },
        {
          "indexed": false,
          "internalType": "bytes",
          "name": "operatorData",
          "type": "bytes"
        }
      ],
      "name": "Minted",
      "type": "event"
    },
    {
      "anonymous": false,
      "inputs": [
        {
          "indexed": true,
          "internalType": "address",
          "name": "previousOwner",
          "type": "address"
        },
        {
          "indexed": true,
          "internalType": "address",
          "name": "newOwner",
          "type": "address"
        }
      ],
      "name": "OwnershipTransferred",
      "type": "event"
    },
    {
      "anonymous": false,
      "inputs": [
        {
          "indexed": true,
          "internalType": "address",
          "name": "operator",
          "type": "address"
        },
        {
          "indexed": true,
          "internalType": "address",
          "name": "tokenHolder",
          "type": "address"
        }
      ],
      "name": "RevokedOperator",
      "type": "event"
    },
    {
      "anonymous": false,
      "inputs": [
        {
          "indexed": true,
          "internalType": "address",
          "name": "operator",
          "type": "address"
        },
        {
          "indexed": true,
          "internalType": "address",
          "name": "from",
          "type": "address"
        },
        {
          "indexed": true,
          "internalType": "address",
          "name": "to",
          "type": "address"
        },
        {
          "indexed": false,
          "internalType": "uint256",
          "name": "amount",
          "type": "uint256"
        },
        {
          "indexed": false,
          "internalType": "bytes",
          "name": "data",
          "type": "bytes"
        },
        {
          "indexed": false,
          "internalType": "bytes",
          "name": "operatorData",
          "type": "bytes"
        }
      ],
      "name": "Sent",
      "type": "event"
    },
    {
      "anonymous": false,
      "inputs": [
        {
          "indexed": true,
          "internalType": "address",
          "name": "from",
          "type": "address"
        },
        {
          "indexed": true,
          "internalType": "address",
          "name": "to",
          "type": "address"
        },
        {
          "indexed": false,
          "internalType": "uint256",
          "name": "value",
          "type": "uint256"
        }
      ],
      "name": "Transfer",
      "type": "event"
    },
    {
      "inputs": [],
      "name": "MATICtotal",
      "outputs": [
        {
          "internalType": "uint256",
          "name": "",
          "type": "uint256"
        }
      ],
      "stateMutability": "view",
      "type": "function"
    },
    {
      "inputs": [
        {
          "internalType": "address",
          "name": "holder",
          "type": "address"
        },
        {
          "internalType": "address",
          "name": "spender",
          "type": "address"
        }
      ],
      "name": "allowance",
      "outputs": [
        {
          "internalType": "uint256",
          "name": "",
          "type": "uint256"
        }
      ],
      "stateMutability": "view",
      "type": "function"
    },
    {
      "inputs": [
        {
          "internalType": "address",
          "name": "spender",
          "type": "address"
        },
        {
          "internalType": "uint256",
          "name": "value",
          "type": "uint256"
        }
      ],
      "name": "approve",
      "outputs": [
        {
          "internalType": "bool",
          "name": "",
          "type": "bool"
        }
      ],
      "stateMutability": "nonpayable",
      "type": "function"
    },
    {
      "inputs": [
        {
          "internalType": "address",
          "name": "operator",
          "type": "address"
        }
      ],
      "name": "authorizeOperator",
      "outputs": [],
      "stateMutability": "nonpayable",
      "type": "function"
    },
    {
      "inputs": [
        {
          "internalType": "address",
          "name": "tokenHolder",
          "type": "address"
        }
      ],
      "name": "balanceOf",
      "outputs": [
        {
          "internalType": "uint256",
          "name": "",
          "type": "uint256"
        }
      ],
      "stateMutability": "view",
      "type": "function"
    },
    {
      "inputs": [
        {
          "internalType": "uint256",
          "name": "amount",
          "type": "uint256"
        },
        {
          "internalType": "bytes",
          "name": "data",
          "type": "bytes"
        }
      ],
      "name": "burn",
      "outputs": [],
      "stateMutability": "nonpayable",
      "type": "function"
    },
    {
      "inputs": [
        {
          "internalType": "uint256",
          "name": "_value",
          "type": "uint256"
        }
      ],
      "name": "buyTokens",
      "outputs": [],
      "stateMutability": "payable",
      "type": "function"
    },
    {
      "inputs": [],
      "name": "decimals",
      "outputs": [
        {
          "internalType": "uint8",
          "name": "",
          "type": "uint8"
        }
      ],
      "stateMutability": "pure",
      "type": "function"
    },
    {
      "inputs": [],
      "name": "defaultOperators",
      "outputs": [
        {
          "internalType": "address[]",
          "name": "",
          "type": "address[]"
        }
      ],
      "stateMutability": "view",
      "type": "function"
    },
    {
      "inputs": [
        {
          "internalType": "address",
          "name": "_address",
          "type": "address"
        }
      ],
      "name": "getSupplyBalance",
      "outputs": [
        {
          "internalType": "uint256",
          "name": "",
          "type": "uint256"
        }
      ],
      "stateMutability": "view",
      "type": "function"
    },
    {
      "inputs": [],
      "name": "granularity",
      "outputs": [
        {
          "internalType": "uint256",
          "name": "",
          "type": "uint256"
        }
      ],
      "stateMutability": "view",
      "type": "function"
    },
    {
      "inputs": [
        {
          "internalType": "address",
          "name": "operator",
          "type": "address"
        },
        {
          "internalType": "address",
          "name": "tokenHolder",
          "type": "address"
        }
      ],
      "name": "isOperatorFor",
      "outputs": [
        {
          "internalType": "bool",
          "name": "",
          "type": "bool"
        }
      ],
      "stateMutability": "view",
      "type": "function"
    },
    {
      "inputs": [],
      "name": "name",
      "outputs": [
        {
          "internalType": "string",
          "name": "",
          "type": "string"
        }
      ],
      "stateMutability": "view",
      "type": "function"
    },
    {
      "inputs": [
        {
          "internalType": "address",
          "name": "account",
          "type": "address"
        },
        {
          "internalType": "uint256",
          "name": "amount",
          "type": "uint256"
        },
        {
          "internalType": "bytes",
          "name": "data",
          "type": "bytes"
        },
        {
          "internalType": "bytes",
          "name": "operatorData",
          "type": "bytes"
        }
      ],
      "name": "operatorBurn",
      "outputs": [],
      "stateMutability": "nonpayable",
      "type": "function"
    },
    {
      "inputs": [
        {
          "internalType": "address",
          "name": "sender",
          "type": "address"
        },
        {
          "internalType": "address",
          "name": "recipient",
          "type": "address"
        },
        {
          "internalType": "uint256",
          "name": "amount",
          "type": "uint256"
        },
        {
          "internalType": "bytes",
          "name": "data",
          "type": "bytes"
        },
        {
          "internalType": "bytes",
          "name": "operatorData",
          "type": "bytes"
        }
      ],
      "name": "operatorSend",
      "outputs": [],
      "stateMutability": "nonpayable",
      "type": "function"
    },
    {
      "inputs": [],
      "name": "owner",
      "outputs": [
        {
          "internalType": "address",
          "name": "",
          "type": "address"
        }
      ],
      "stateMutability": "view",
      "type": "function"
    },
    {
      "inputs": [
        {
          "internalType": "address",
          "name": "",
          "type": "address"
        }
      ],
      "name": "ownerBalances",
      "outputs": [
        {
          "internalType": "address",
          "name": "",
          "type": "address"
        }
      ],
      "stateMutability": "view",
      "type": "function"
    },
    {
      "inputs": [
        {
          "internalType": "address",
          "name": "_to",
          "type": "address"
        },
        {
          "internalType": "string",
          "name": "_cid",
          "type": "string"
        },
        {
          "internalType": "string",
          "name": "_cidURL",
          "type": "string"
        },
        {
          "internalType": "uint256",
          "name": "_counter",
          "type": "uint256"
        }
      ],
      "name": "redeemTokens",
      "outputs": [],
      "stateMutability": "nonpayable",
      "type": "function"
    },
    {
      "inputs": [],
      "name": "reedemCounter",
      "outputs": [
        {
          "internalType": "uint256",
          "name": "_value",
          "type": "uint256"
        }
      ],
      "stateMutability": "view",
      "type": "function"
    },
    {
      "inputs": [
        {
          "internalType": "uint256",
          "name": "",
          "type": "uint256"
        }
      ],
      "name": "reedemCycliBalances",
      "outputs": [
        {
          "internalType": "uint256",
          "name": "id",
          "type": "uint256"
        },
        {
          "internalType": "string",
          "name": "cid",
          "type": "string"
        },
        {
          "internalType": "string",
          "name": "cidURI",
          "type": "string"
        },
        {
          "internalType": "uint256",
          "name": "counter",
          "type": "uint256"
        },
        {
          "internalType": "bool",
          "name": "redeem",
          "type": "bool"
        },
        {
          "internalType": "address",
          "name": "owner",
          "type": "address"
        }
      ],
      "stateMutability": "view",
      "type": "function"
    },
    {
      "inputs": [],
      "name": "renounceOwnership",
      "outputs": [],
      "stateMutability": "nonpayable",
      "type": "function"
    },
    {
      "inputs": [
        {
          "internalType": "address",
          "name": "operator",
          "type": "address"
        }
      ],
      "name": "revokeOperator",
      "outputs": [],
      "stateMutability": "nonpayable",
      "type": "function"
    },
    {
      "inputs": [
        {
          "internalType": "address",
          "name": "_contract",
          "type": "address"
        },
        {
          "internalType": "uint256",
          "name": "_supply",
          "type": "uint256"
        }
      ],
      "name": "safeMint",
      "outputs": [],
      "stateMutability": "nonpayable",
      "type": "function"
    },
    {
      "inputs": [
        {
          "internalType": "address",
          "name": "recipient",
          "type": "address"
        },
        {
          "internalType": "uint256",
          "name": "amount",
          "type": "uint256"
        },
        {
          "internalType": "bytes",
          "name": "data",
          "type": "bytes"
        }
      ],
      "name": "send",
      "outputs": [],
      "stateMutability": "nonpayable",
      "type": "function"
    },
    {
      "inputs": [
        {
          "internalType": "address",
          "name": "_address",
          "type": "address"
        },
        {
          "internalType": "uint256",
          "name": "_amount",
          "type": "uint256"
        }
      ],
      "name": "substractCycli",
      "outputs": [
        {
          "internalType": "bool",
          "name": "",
          "type": "bool"
        }
      ],
      "stateMutability": "nonpayable",
      "type": "function"
    },
    {
      "inputs": [
        {
          "internalType": "address",
          "name": "",
          "type": "address"
        }
      ],
      "name": "supplyCycliBalances",
      "outputs": [
        {
          "internalType": "uint256",
          "name": "",
          "type": "uint256"
        }
      ],
      "stateMutability": "view",
      "type": "function"
    },
    {
      "inputs": [],
      "name": "symbol",
      "outputs": [
        {
          "internalType": "string",
          "name": "",
          "type": "string"
        }
      ],
      "stateMutability": "view",
      "type": "function"
    },
    {
      "inputs": [],
      "name": "totalSupply",
      "outputs": [
        {
          "internalType": "uint256",
          "name": "",
          "type": "uint256"
        }
      ],
      "stateMutability": "view",
      "type": "function"
    },
    {
      "inputs": [
        {
          "internalType": "address",
          "name": "recipient",
          "type": "address"
        },
        {
          "internalType": "uint256",
          "name": "amount",
          "type": "uint256"
        }
      ],
      "name": "transfer",
      "outputs": [
        {
          "internalType": "bool",
          "name": "",
          "type": "bool"
        }
      ],
      "stateMutability": "nonpayable",
      "type": "function"
    },
    {
      "inputs": [
        {
          "internalType": "address",
          "name": "holder",
          "type": "address"
        },
        {
          "internalType": "address",
          "name": "recipient",
          "type": "address"
        },
        {
          "internalType": "uint256",
          "name": "amount",
          "type": "uint256"
        }
      ],
      "name": "transferFrom",
      "outputs": [
        {
          "internalType": "bool",
          "name": "",
          "type": "bool"
        }
      ],
      "stateMutability": "nonpayable",
      "type": "function"
    },
    {
      "inputs": [
        {
          "internalType": "address",
          "name": "newOwner",
          "type": "address"
        }
      ],
      "name": "transferOwnership",
      "outputs": [],
      "stateMutability": "nonpayable",
      "type": "function"
    },
    {
      "inputs": [],
      "name": "withdrawMATIC",
      "outputs": [],
      "stateMutability": "nonpayable",
      "type": "function"
    }
  ],
  "bytecode": "0x60806040526000600e553480156200001657600080fd5b506040518060400160405280600581526020017f4379636c690000000000000000000000000000000000000000000000000000008152506040518060400160405280600381526020017f43434c0000000000000000000000000000000000000000000000000000000000815250600067ffffffffffffffff811115620000a157620000a06200049a565b5b604051908082528060200260200182016040528015620000d05781602001602082028036833780820191505090505b508260029081620000e2919062000714565b508160039081620000f4919062000714565b5080600490805190602001906200010d929190620003ec565b5060005b8151811015620001a657600160056000848481518110620001375762000136620007fb565b5b602002602001015173ffffffffffffffffffffffffffffffffffffffff1673ffffffffffffffffffffffffffffffffffffffff16815260200190815260200160002060006101000a81548160ff02191690831515021790555080806200019d9062000859565b91505062000111565b50731820a4b7618bde71dce8cdc73aab6c95905fad2473ffffffffffffffffffffffffffffffffffffffff166329965a1d307fac7fbab5f54a3ca8194167523c6753bfeb96a445279294b6125b68cce2177054306040518463ffffffff1660e01b81526004016200021a9392919062000906565b600060405180830381600087803b1580156200023557600080fd5b505af11580156200024a573d6000803e3d6000fd5b50505050731820a4b7618bde71dce8cdc73aab6c95905fad2473ffffffffffffffffffffffffffffffffffffffff166329965a1d307faea199e31a596269b42cdafd93407f14436db6e4cad65417994c2eb37381e05a306040518463ffffffff1660e01b8152600401620002c19392919062000906565b600060405180830381600087803b158015620002dc57600080fd5b505af1158015620002f1573d6000803e3d6000fd5b50505050505050620003186200030c6200031e60201b60201c565b6200032660201b60201c565b62000943565b600033905090565b6000600960009054906101000a900473ffffffffffffffffffffffffffffffffffffffff16905081600960006101000a81548173ffffffffffffffffffffffffffffffffffffffff021916908373ffffffffffffffffffffffffffffffffffffffff1602179055508173ffffffffffffffffffffffffffffffffffffffff168173ffffffffffffffffffffffffffffffffffffffff167f8be0079c531659141344cd1fd0a4f28419497f9722a3daafe3b4186f6b6457e060405160405180910390a35050565b82805482825590600052602060002090810192821562000468579160200282015b82811115620004675782518260006101000a81548173ffffffffffffffffffffffffffffffffffffffff021916908373ffffffffffffffffffffffffffffffffffffffff160217905550916020019190600101906200040d565b5b5090506200047791906200047b565b5090565b5b80821115620004965760008160009055506001016200047c565b5090565b7f4e487b7100000000000000000000000000000000000000000000000000000000600052604160045260246000fd5b600081519050919050565b7f4e487b7100000000000000000000000000000000000000000000000000000000600052602260045260246000fd5b600060028204905060018216806200051c57607f821691505b602082108103620005325762000531620004d4565b5b50919050565b60008190508160005260206000209050919050565b60006020601f8301049050919050565b600082821b905092915050565b6000600883026200059c7fffffffffffffffffffffffffffffffffffffffffffffffffffffffffffffffff826200055d565b620005a886836200055d565b95508019841693508086168417925050509392505050565b6000819050919050565b6000819050919050565b6000620005f5620005ef620005e984620005c0565b620005ca565b620005c0565b9050919050565b6000819050919050565b6200061183620005d4565b620006296200062082620005fc565b8484546200056a565b825550505050565b600090565b6200064062000631565b6200064d81848462000606565b505050565b5b8181101562000675576200066960008262000636565b60018101905062000653565b5050565b601f821115620006c4576200068e8162000538565b62000699846200054d565b81016020851015620006a9578190505b620006c1620006b8856200054d565b83018262000652565b50505b505050565b600082821c905092915050565b6000620006e960001984600802620006c9565b1980831691505092915050565b6000620007048383620006d6565b9150826002028217905092915050565b6200071f82620004c9565b67ffffffffffffffff8111156200073b576200073a6200049a565b5b62000747825462000503565b6200075482828562000679565b600060209050601f8311600181146200078c576000841562000777578287015190505b620007838582620006f6565b865550620007f3565b601f1984166200079c8662000538565b60005b82811015620007c6578489015182556001820191506020850194506020810190506200079f565b86831015620007e65784890151620007e2601f891682620006d6565b8355505b6001600288020188555050505b505050505050565b7f4e487b7100000000000000000000000000000000000000000000000000000000600052603260045260246000fd5b7f4e487b7100000000000000000000000000000000000000000000000000000000600052601160045260246000fd5b60006200086682620005c0565b91507fffffffffffffffffffffffffffffffffffffffffffffffffffffffffffffffff82036200089b576200089a6200082a565b5b600182019050919050565b600073ffffffffffffffffffffffffffffffffffffffff82169050919050565b6000620008d382620008a6565b9050919050565b620008e581620008c6565b82525050565b6000819050919050565b6200090081620008eb565b82525050565b60006060820190506200091d6000830186620008da565b6200092c6020830185620008f5565b6200093b6040830184620008da565b949350505050565b61430780620009536000396000f3fe6080604052600436106101e35760003560e01c8063959b8c3f11610102578063dd62ed3e11610095578063f38e266a11610064578063f38e266a14610712578063fad8b32a1461074f578063fc673c4f14610778578063fe9d9303146107a1576101e3565b8063dd62ed3e14610632578063e3538bc11461066f578063e8d880c6146106ac578063f2fde38b146106e9576101e3565b8063a9059cbb116100d1578063a9059cbb14610576578063d95b6371146105b3578063d99f6668146105f0578063d9a9358c14610607576101e3565b8063959b8c3f146104d057806395d89b41146104f95780639bd9bbc614610524578063a14481941461054d576101e3565b80633610724e1161017a57806370a082311161014957806370a0823114610428578063715018a6146104655780638da5cb5b1461047c57806392d26bf1146104a7576101e3565b80633610724e1461037b578063556f0dc7146103975780635d68076f146103c257806362ad1b83146103ff576101e3565b806318160ddd116101b657806318160ddd146102bd57806323b872dd146102e85780632922d8d314610325578063313ce56714610350576101e3565b806306e48538146101e857806306fdde0314610213578063095ea7b31461023e5780630eace5841461027b575b600080fd5b3480156101f457600080fd5b506101fd6107ca565b60405161020a9190612af9565b60405180910390f35b34801561021f57600080fd5b50610228610858565b6040516102359190612bb4565b60405180910390f35b34801561024a57600080fd5b5061026560048036038101906102609190612c4c565b6108ea565b6040516102729190612ca7565b60405180910390f35b34801561028757600080fd5b506102a2600480360381019061029d9190612cc2565b61090d565b6040516102b496959493929190612d0d565b60405180910390f35b3480156102c957600080fd5b506102d2610a86565b6040516102df9190612d7c565b60405180910390f35b3480156102f457600080fd5b5061030f600480360381019061030a9190612d97565b610a90565b60405161031c9190612ca7565b60405180910390f35b34801561033157600080fd5b5061033a610ae1565b6040516103479190612d7c565b60405180910390f35b34801561035c57600080fd5b50610365610aed565b6040516103729190612e06565b60405180910390f35b61039560048036038101906103909190612cc2565b610af6565b005b3480156103a357600080fd5b506103ac610c53565b6040516103b99190612d7c565b60405180910390f35b3480156103ce57600080fd5b506103e960048036038101906103e49190612e21565b610c5c565b6040516103f69190612d7c565b60405180910390f35b34801561040b57600080fd5b5061042660048036038101906104219190612f83565b610c74565b005b34801561043457600080fd5b5061044f600480360381019061044a9190612e21565b610cda565b60405161045c9190612d7c565b60405180910390f35b34801561047157600080fd5b5061047a610d22565b005b34801561048857600080fd5b50610491610d36565b60405161049e9190613036565b60405180910390f35b3480156104b357600080fd5b506104ce60048036038101906104c991906130f2565b610d60565b005b3480156104dc57600080fd5b506104f760048036038101906104f29190612e21565b610f0e565b005b34801561050557600080fd5b5061050e61116e565b60405161051b9190612bb4565b60405180910390f35b34801561053057600080fd5b5061054b60048036038101906105469190613191565b611200565b005b34801561055957600080fd5b50610574600480360381019061056f9190612c4c565b61122a565b005b34801561058257600080fd5b5061059d60048036038101906105989190612c4c565b61132c565b6040516105aa9190612ca7565b60405180910390f35b3480156105bf57600080fd5b506105da60048036038101906105d59190613200565b61136c565b6040516105e79190612ca7565b60405180910390f35b3480156105fc57600080fd5b5061060561151d565b005b34801561061357600080fd5b5061061c6115c4565b6040516106299190612d7c565b60405180910390f35b34801561063e57600080fd5b5061065960048036038101906106549190613200565b6115ca565b6040516106669190612d7c565b60405180910390f35b34801561067b57600080fd5b5061069660048036038101906106919190612e21565b611651565b6040516106a39190613036565b60405180910390f35b3480156106b857600080fd5b506106d360048036038101906106ce9190612c4c565b611684565b6040516106e09190612ca7565b60405180910390f35b3480156106f557600080fd5b50610710600480360381019061070b9190612e21565b6117b3565b005b34801561071e57600080fd5b5061073960048036038101906107349190612e21565b611836565b6040516107469190612d7c565b60405180910390f35b34801561075b57600080fd5b5061077660048036038101906107719190612e21565b61187f565b005b34801561078457600080fd5b5061079f600480360381019061079a9190613240565b611adf565b005b3480156107ad57600080fd5b506107c860048036038101906107c391906132df565b611b41565b005b6060600480548060200260200160405190810160405280929190818152602001828054801561084e57602002820191906000526020600020905b8160009054906101000a900473ffffffffffffffffffffffffffffffffffffffff1673ffffffffffffffffffffffffffffffffffffffff1681526020019060010190808311610804575b5050505050905090565b6060600280546108679061336a565b80601f01602080910402602001604051908101604052809291908181526020018280546108939061336a565b80156108e05780601f106108b5576101008083540402835291602001916108e0565b820191906000526020600020905b8154815290600101906020018083116108c357829003601f168201915b5050505050905090565b6000806108f5611b67565b9050610902818585611b6f565b600191505092915050565b600d6020528060005260406000206000915090508060000154908060010180546109369061336a565b80601f01602080910402602001604051908101604052809291908181526020018280546109629061336a565b80156109af5780601f10610984576101008083540402835291602001916109af565b820191906000526020600020905b81548152906001019060200180831161099257829003601f168201915b5050505050908060020180546109c49061336a565b80601f01602080910402602001604051908101604052809291908181526020018280546109f09061336a565b8015610a3d5780601f10610a1257610100808354040283529160200191610a3d565b820191906000526020600020905b815481529060010190602001808311610a2057829003601f168201915b5050505050908060030154908060040160009054906101000a900460ff16908060040160019054906101000a900473ffffffffffffffffffffffffffffffffffffffff16905086565b6000600154905090565b600080610a9b611b67565b9050610aa8858285611d38565b610ad585858560405180602001604052806000815250604051806020016040528060008152506000611dc4565b60019150509392505050565b600a8060000154905081565b60006012905090565b80341015610b39576040517f08c379a0000000000000000000000000000000000000000000000000000000008152600401610b30906133e7565b60405180910390fd5b33600b60003373ffffffffffffffffffffffffffffffffffffffff1673ffffffffffffffffffffffffffffffffffffffff16815260200190815260200160002060006101000a81548173ffffffffffffffffffffffffffffffffffffffff021916908373ffffffffffffffffffffffffffffffffffffffff16021790555080600c60003373ffffffffffffffffffffffffffffffffffffffff1673ffffffffffffffffffffffffffffffffffffffff1681526020019081526020016000206000828254610c069190613436565b92505081905550610c3733826040518060200160405280600081525060405180602001604052806000815250611ee2565b80600e6000828254610c499190613436565b9250508190555050565b60006001905090565b600c6020528060005260406000206000915090505481565b610c85610c7f611b67565b8661136c565b610cc4576040517f08c379a0000000000000000000000000000000000000000000000000000000008152600401610cbb906134fe565b60405180910390fd5b610cd385858585856001611dc4565b5050505050565b60008060008373ffffffffffffffffffffffffffffffffffffffff1673ffffffffffffffffffffffffffffffffffffffff168152602001908152602001600020549050919050565b610d2a611ef6565b610d346000611f74565b565b6000600960009054906101000a900473ffffffffffffffffffffffffffffffffffffffff16905090565b60008111610da3576040517f08c379a0000000000000000000000000000000000000000000000000000000008152600401610d9a90613590565b60405180910390fd5b6000670de0b6b3a764000082610db991906135b0565b9050610de585826040518060200160405280600081525060405180602001604052806000815250611ee2565b6000610df1600a61203a565b9050610dfd600a612048565b60006040518060c001604052808381526020018781526020018681526020018481526020016001151581526020018873ffffffffffffffffffffffffffffffffffffffff16815250905080600d6000848152602001908152602001600020600082015181600001556020820151816001019081610e7a91906137b6565b506040820151816002019081610e9091906137b6565b506060820151816003015560808201518160040160006101000a81548160ff02191690831515021790555060a08201518160040160016101000a81548173ffffffffffffffffffffffffffffffffffffffff021916908373ffffffffffffffffffffffffffffffffffffffff16021790555090505050505050505050565b8073ffffffffffffffffffffffffffffffffffffffff16610f2d611b67565b73ffffffffffffffffffffffffffffffffffffffff1603610f83576040517f08c379a0000000000000000000000000000000000000000000000000000000008152600401610f7a906138fa565b60405180910390fd5b600560008273ffffffffffffffffffffffffffffffffffffffff1673ffffffffffffffffffffffffffffffffffffffff16815260200190815260200160002060009054906101000a900460ff161561106d5760076000610fe1611b67565b73ffffffffffffffffffffffffffffffffffffffff1673ffffffffffffffffffffffffffffffffffffffff16815260200190815260200160002060008273ffffffffffffffffffffffffffffffffffffffff1673ffffffffffffffffffffffffffffffffffffffff16815260200190815260200160002060006101000a81549060ff021916905561110a565b60016006600061107b611b67565b73ffffffffffffffffffffffffffffffffffffffff1673ffffffffffffffffffffffffffffffffffffffff16815260200190815260200160002060008373ffffffffffffffffffffffffffffffffffffffff1673ffffffffffffffffffffffffffffffffffffffff16815260200190815260200160002060006101000a81548160ff0219169083151502179055505b611112611b67565b73ffffffffffffffffffffffffffffffffffffffff168173ffffffffffffffffffffffffffffffffffffffff167ff4caeb2d6ca8932a215a353d0703c326ec2d81fc68170f320eb2ab49e9df61f960405160405180910390a350565b60606003805461117d9061336a565b80601f01602080910402602001604051908101604052809291908181526020018280546111a99061336a565b80156111f65780601f106111cb576101008083540402835291602001916111f6565b820191906000526020600020905b8154815290600101906020018083116111d957829003601f168201915b5050505050905090565b61122561120b611b67565b848484604051806020016040528060008152506001611dc4565b505050565b81600b60008473ffffffffffffffffffffffffffffffffffffffff1673ffffffffffffffffffffffffffffffffffffffff16815260200190815260200160002060006101000a81548173ffffffffffffffffffffffffffffffffffffffff021916908373ffffffffffffffffffffffffffffffffffffffff16021790555080600c60008473ffffffffffffffffffffffffffffffffffffffff1673ffffffffffffffffffffffffffffffffffffffff16815260200190815260200160002060008282546112f79190613436565b9250508190555061132882826040518060200160405280600081525060405180602001604052806000815250611ee2565b5050565b6000611362611339611b67565b848460405180602001604052806000815250604051806020016040528060008152506000611dc4565b6001905092915050565b60008173ffffffffffffffffffffffffffffffffffffffff168373ffffffffffffffffffffffffffffffffffffffff1614806114845750600560008473ffffffffffffffffffffffffffffffffffffffff1673ffffffffffffffffffffffffffffffffffffffff16815260200190815260200160002060009054906101000a900460ff1680156114835750600760008373ffffffffffffffffffffffffffffffffffffffff1673ffffffffffffffffffffffffffffffffffffffff16815260200190815260200160002060008473ffffffffffffffffffffffffffffffffffffffff1673ffffffffffffffffffffffffffffffffffffffff16815260200190815260200160002060009054906101000a900460ff16155b5b806115155750600660008373ffffffffffffffffffffffffffffffffffffffff1673ffffffffffffffffffffffffffffffffffffffff16815260200190815260200160002060008473ffffffffffffffffffffffffffffffffffffffff1673ffffffffffffffffffffffffffffffffffffffff16815260200190815260200160002060009054906101000a900460ff165b905092915050565b611525611ef6565b6000600e541161156a576040517f08c379a000000000000000000000000000000000000000000000000000000000815260040161156190613966565b60405180910390fd5b611572610d36565b73ffffffffffffffffffffffffffffffffffffffff166108fc600e549081150290604051600060405180830381858888f193505050501580156115b9573d6000803e3d6000fd5b506000600e81905550565b600e5481565b6000600860008473ffffffffffffffffffffffffffffffffffffffff1673ffffffffffffffffffffffffffffffffffffffff16815260200190815260200160002060008373ffffffffffffffffffffffffffffffffffffffff1673ffffffffffffffffffffffffffffffffffffffff16815260200190815260200160002054905092915050565b600b6020528060005260406000206000915054906101000a900473ffffffffffffffffffffffffffffffffffffffff1681565b60008273ffffffffffffffffffffffffffffffffffffffff16600b60008573ffffffffffffffffffffffffffffffffffffffff1673ffffffffffffffffffffffffffffffffffffffff16815260200190815260200160002060009054906101000a900473ffffffffffffffffffffffffffffffffffffffff1673ffffffffffffffffffffffffffffffffffffffff1614611753576040517f08c379a000000000000000000000000000000000000000000000000000000000815260040161174a906139d2565b60405180910390fd5b81600c60008573ffffffffffffffffffffffffffffffffffffffff1673ffffffffffffffffffffffffffffffffffffffff16815260200190815260200160002060008282546117a291906139f2565b925050819055506001905092915050565b6117bb611ef6565b600073ffffffffffffffffffffffffffffffffffffffff168173ffffffffffffffffffffffffffffffffffffffff160361182a576040517f08c379a000000000000000000000000000000000000000000000000000000000815260040161182190613a98565b60405180910390fd5b61183381611f74565b50565b6000600c60008373ffffffffffffffffffffffffffffffffffffffff1673ffffffffffffffffffffffffffffffffffffffff168152602001908152602001600020549050919050565b611887611b67565b73ffffffffffffffffffffffffffffffffffffffff168173ffffffffffffffffffffffffffffffffffffffff16036118f4576040517f08c379a00000000000000000000000000000000000000000000000000000000081526004016118eb90613b2a565b60405180910390fd5b600560008273ffffffffffffffffffffffffffffffffffffffff1673ffffffffffffffffffffffffffffffffffffffff16815260200190815260200160002060009054906101000a900460ff16156119e757600160076000611954611b67565b73ffffffffffffffffffffffffffffffffffffffff1673ffffffffffffffffffffffffffffffffffffffff16815260200190815260200160002060008373ffffffffffffffffffffffffffffffffffffffff1673ffffffffffffffffffffffffffffffffffffffff16815260200190815260200160002060006101000a81548160ff021916908315150217905550611a7b565b600660006119f3611b67565b73ffffffffffffffffffffffffffffffffffffffff1673ffffffffffffffffffffffffffffffffffffffff16815260200190815260200160002060008273ffffffffffffffffffffffffffffffffffffffff1673ffffffffffffffffffffffffffffffffffffffff16815260200190815260200160002060006101000a81549060ff02191690555b611a83611b67565b73ffffffffffffffffffffffffffffffffffffffff168173ffffffffffffffffffffffffffffffffffffffff167f50546e66e5f44d728365dc3908c63bc5cfeeab470722c1677e3073a6ac294aa160405160405180910390a350565b611af0611aea611b67565b8561136c565b611b2f576040517f08c379a0000000000000000000000000000000000000000000000000000000008152600401611b26906134fe565b60405180910390fd5b611b3b8484848461205e565b50505050565b611b63611b4c611b67565b83836040518060200160405280600081525061205e565b5050565b600033905090565b600073ffffffffffffffffffffffffffffffffffffffff168373ffffffffffffffffffffffffffffffffffffffff1603611bde576040517f08c379a0000000000000000000000000000000000000000000000000000000008152600401611bd590613bbc565b60405180910390fd5b600073ffffffffffffffffffffffffffffffffffffffff168273ffffffffffffffffffffffffffffffffffffffff1603611c4d576040517f08c379a0000000000000000000000000000000000000000000000000000000008152600401611c4490613c4e565b60405180910390fd5b80600860008573ffffffffffffffffffffffffffffffffffffffff1673ffffffffffffffffffffffffffffffffffffffff16815260200190815260200160002060008473ffffffffffffffffffffffffffffffffffffffff1673ffffffffffffffffffffffffffffffffffffffff168152602001908152602001600020819055508173ffffffffffffffffffffffffffffffffffffffff168373ffffffffffffffffffffffffffffffffffffffff167f8c5be1e5ebec7d5bd14f71427d1e84f3dd0314c0f7b2291e5b200ac8c7c3b92583604051611d2b9190612d7c565b60405180910390a3505050565b6000611d4484846115ca565b90507fffffffffffffffffffffffffffffffffffffffffffffffffffffffffffffffff8114611dbe5781811015611db0576040517f08c379a0000000000000000000000000000000000000000000000000000000008152600401611da790613cba565b60405180910390fd5b611dbd8484848403611b6f565b5b50505050565b600073ffffffffffffffffffffffffffffffffffffffff168673ffffffffffffffffffffffffffffffffffffffff1603611e33576040517f08c379a0000000000000000000000000000000000000000000000000000000008152600401611e2a90613d4c565b60405180910390fd5b600073ffffffffffffffffffffffffffffffffffffffff168573ffffffffffffffffffffffffffffffffffffffff1603611ea2576040517f08c379a0000000000000000000000000000000000000000000000000000000008152600401611e9990613dde565b60405180910390fd5b6000611eac611b67565b9050611ebc8188888888886122b0565b611eca818888888888612417565b611ed981888888888888612631565b50505050505050565b611ef0848484846001612803565b50505050565b611efe611b67565b73ffffffffffffffffffffffffffffffffffffffff16611f1c610d36565b73ffffffffffffffffffffffffffffffffffffffff1614611f72576040517f08c379a0000000000000000000000000000000000000000000000000000000008152600401611f6990613e4a565b60405180910390fd5b565b6000600960009054906101000a900473ffffffffffffffffffffffffffffffffffffffff16905081600960006101000a81548173ffffffffffffffffffffffffffffffffffffffff021916908373ffffffffffffffffffffffffffffffffffffffff1602179055508173ffffffffffffffffffffffffffffffffffffffff168173ffffffffffffffffffffffffffffffffffffffff167f8be0079c531659141344cd1fd0a4f28419497f9722a3daafe3b4186f6b6457e060405160405180910390a35050565b600081600001549050919050565b6001816000016000828254019250508190555050565b600073ffffffffffffffffffffffffffffffffffffffff168473ffffffffffffffffffffffffffffffffffffffff16036120cd576040517f08c379a00000000000000000000000000000000000000000000000000000000081526004016120c490613edc565b60405180910390fd5b60006120d7611b67565b90506120e8818660008787876122b0565b6120f581866000876129e0565b60008060008773ffffffffffffffffffffffffffffffffffffffff1673ffffffffffffffffffffffffffffffffffffffff1681526020019081526020016000205490508481101561217b576040517f08c379a000000000000000000000000000000000000000000000000000000000815260040161217290613f6e565b60405180910390fd5b8481036000808873ffffffffffffffffffffffffffffffffffffffff1673ffffffffffffffffffffffffffffffffffffffff1681526020019081526020016000208190555084600160008282546121d291906139f2565b925050819055508573ffffffffffffffffffffffffffffffffffffffff168273ffffffffffffffffffffffffffffffffffffffff167fa78a9be3a7b862d26933ad85fb11d80ef66b8f972d7cbba06621d583943a409887878760405161223a93929190613fe3565b60405180910390a3600073ffffffffffffffffffffffffffffffffffffffff168673ffffffffffffffffffffffffffffffffffffffff167fddf252ad1be2c89b69c2b068fc378daa952ba7f163c4a11628f55a4df523b3ef876040516122a09190612d7c565b60405180910390a3505050505050565b6000731820a4b7618bde71dce8cdc73aab6c95905fad2473ffffffffffffffffffffffffffffffffffffffff1663aabbb8ca877f29ddb589b1fb5fc7cf394961c1adf5f8c6454761adf795e67fe149f658abe8956040518363ffffffff1660e01b8152600401612321929190614041565b602060405180830381865afa15801561233e573d6000803e3d6000fd5b505050506040513d601f19601f82011682018060405250810190612362919061407f565b9050600073ffffffffffffffffffffffffffffffffffffffff168173ffffffffffffffffffffffffffffffffffffffff161461240e578073ffffffffffffffffffffffffffffffffffffffff166375ab97828888888888886040518763ffffffff1660e01b81526004016123db969594939291906140ac565b600060405180830381600087803b1580156123f557600080fd5b505af1158015612409573d6000803e3d6000fd5b505050505b50505050505050565b612423868686866129e0565b60008060008773ffffffffffffffffffffffffffffffffffffffff1673ffffffffffffffffffffffffffffffffffffffff168152602001908152602001600020549050838110156124a9576040517f08c379a00000000000000000000000000000000000000000000000000000000081526004016124a09061418d565b60405180910390fd5b8381036000808873ffffffffffffffffffffffffffffffffffffffff1673ffffffffffffffffffffffffffffffffffffffff16815260200190815260200160002081905550836000808773ffffffffffffffffffffffffffffffffffffffff1673ffffffffffffffffffffffffffffffffffffffff168152602001908152602001600020600082825461253c9190613436565b925050819055508473ffffffffffffffffffffffffffffffffffffffff168673ffffffffffffffffffffffffffffffffffffffff168873ffffffffffffffffffffffffffffffffffffffff167f06b541ddaa720db2b10a4d0cdac39b8d360425fc073085fac19bc826146779878787876040516125bb93929190613fe3565b60405180910390a48473ffffffffffffffffffffffffffffffffffffffff168673ffffffffffffffffffffffffffffffffffffffff167fddf252ad1be2c89b69c2b068fc378daa952ba7f163c4a11628f55a4df523b3ef866040516126209190612d7c565b60405180910390a350505050505050565b6000731820a4b7618bde71dce8cdc73aab6c95905fad2473ffffffffffffffffffffffffffffffffffffffff1663aabbb8ca877fb281fc8c12954d22544db45de3159a39272895b169a852b314f9cc762e44c53b6040518363ffffffff1660e01b81526004016126a2929190614041565b602060405180830381865afa1580156126bf573d6000803e3d6000fd5b505050506040513d601f19601f820116820180604052508101906126e3919061407f565b9050600073ffffffffffffffffffffffffffffffffffffffff168173ffffffffffffffffffffffffffffffffffffffff1614612792578073ffffffffffffffffffffffffffffffffffffffff166223de298989898989896040518763ffffffff1660e01b815260040161275b969594939291906140ac565b600060405180830381600087803b15801561277557600080fd5b505af1158015612789573d6000803e3d6000fd5b505050506127f9565b81156127f8576127b78673ffffffffffffffffffffffffffffffffffffffff166129e6565b156127f7576040517f08c379a00000000000000000000000000000000000000000000000000000000081526004016127ee90614245565b60405180910390fd5b5b5b5050505050505050565b600073ffffffffffffffffffffffffffffffffffffffff168573ffffffffffffffffffffffffffffffffffffffff1603612872576040517f08c379a0000000000000000000000000000000000000000000000000000000008152600401612869906142b1565b60405180910390fd5b600061287c611b67565b905061288b81600088886129e0565b846001600082825461289d9190613436565b92505081905550846000808873ffffffffffffffffffffffffffffffffffffffff1673ffffffffffffffffffffffffffffffffffffffff16815260200190815260200160002060008282546128f29190613436565b925050819055506129098160008888888888612631565b8573ffffffffffffffffffffffffffffffffffffffff168173ffffffffffffffffffffffffffffffffffffffff167f2fe5be0146f74c5bce36c0b80911af6c7d86ff27e89d5cfa61fc681327954e5d87878760405161296a93929190613fe3565b60405180910390a38573ffffffffffffffffffffffffffffffffffffffff16600073ffffffffffffffffffffffffffffffffffffffff167fddf252ad1be2c89b69c2b068fc378daa952ba7f163c4a11628f55a4df523b3ef876040516129d09190612d7c565b60405180910390a3505050505050565b50505050565b6000808273ffffffffffffffffffffffffffffffffffffffff163b119050919050565b600081519050919050565b600082825260208201905092915050565b6000819050602082019050919050565b600073ffffffffffffffffffffffffffffffffffffffff82169050919050565b6000612a6082612a35565b9050919050565b612a7081612a55565b82525050565b6000612a828383612a67565b60208301905092915050565b6000602082019050919050565b6000612aa682612a09565b612ab08185612a14565b9350612abb83612a25565b8060005b83811015612aec578151612ad38882612a76565b9750612ade83612a8e565b925050600181019050612abf565b5085935050505092915050565b60006020820190508181036000830152612b138184612a9b565b905092915050565b600081519050919050565b600082825260208201905092915050565b60005b83811015612b55578082015181840152602081019050612b3a565b83811115612b64576000848401525b50505050565b6000601f19601f8301169050919050565b6000612b8682612b1b565b612b908185612b26565b9350612ba0818560208601612b37565b612ba981612b6a565b840191505092915050565b60006020820190508181036000830152612bce8184612b7b565b905092915050565b6000604051905090565b600080fd5b600080fd5b612bf381612a55565b8114612bfe57600080fd5b50565b600081359050612c1081612bea565b92915050565b6000819050919050565b612c2981612c16565b8114612c3457600080fd5b50565b600081359050612c4681612c20565b92915050565b60008060408385031215612c6357612c62612be0565b5b6000612c7185828601612c01565b9250506020612c8285828601612c37565b9150509250929050565b60008115159050919050565b612ca181612c8c565b82525050565b6000602082019050612cbc6000830184612c98565b92915050565b600060208284031215612cd857612cd7612be0565b5b6000612ce684828501612c37565b91505092915050565b612cf881612c16565b82525050565b612d0781612a55565b82525050565b600060c082019050612d226000830189612cef565b8181036020830152612d348188612b7b565b90508181036040830152612d488187612b7b565b9050612d576060830186612cef565b612d646080830185612c98565b612d7160a0830184612cfe565b979650505050505050565b6000602082019050612d916000830184612cef565b92915050565b600080600060608486031215612db057612daf612be0565b5b6000612dbe86828701612c01565b9350506020612dcf86828701612c01565b9250506040612de086828701612c37565b9150509250925092565b600060ff82169050919050565b612e0081612dea565b82525050565b6000602082019050612e1b6000830184612df7565b92915050565b600060208284031215612e3757612e36612be0565b5b6000612e4584828501612c01565b91505092915050565b600080fd5b600080fd5b7f4e487b7100000000000000000000000000000000000000000000000000000000600052604160045260246000fd5b612e9082612b6a565b810181811067ffffffffffffffff82111715612eaf57612eae612e58565b5b80604052505050565b6000612ec2612bd6565b9050612ece8282612e87565b919050565b600067ffffffffffffffff821115612eee57612eed612e58565b5b612ef782612b6a565b9050602081019050919050565b82818337600083830152505050565b6000612f26612f2184612ed3565b612eb8565b905082815260208101848484011115612f4257612f41612e53565b5b612f4d848285612f04565b509392505050565b600082601f830112612f6a57612f69612e4e565b5b8135612f7a848260208601612f13565b91505092915050565b600080600080600060a08688031215612f9f57612f9e612be0565b5b6000612fad88828901612c01565b9550506020612fbe88828901612c01565b9450506040612fcf88828901612c37565b935050606086013567ffffffffffffffff811115612ff057612fef612be5565b5b612ffc88828901612f55565b925050608086013567ffffffffffffffff81111561301d5761301c612be5565b5b61302988828901612f55565b9150509295509295909350565b600060208201905061304b6000830184612cfe565b92915050565b600067ffffffffffffffff82111561306c5761306b612e58565b5b61307582612b6a565b9050602081019050919050565b600061309561309084613051565b612eb8565b9050828152602081018484840111156130b1576130b0612e53565b5b6130bc848285612f04565b509392505050565b600082601f8301126130d9576130d8612e4e565b5b81356130e9848260208601613082565b91505092915050565b6000806000806080858703121561310c5761310b612be0565b5b600061311a87828801612c01565b945050602085013567ffffffffffffffff81111561313b5761313a612be5565b5b613147878288016130c4565b935050604085013567ffffffffffffffff81111561316857613167612be5565b5b613174878288016130c4565b925050606061318587828801612c37565b91505092959194509250565b6000806000606084860312156131aa576131a9612be0565b5b60006131b886828701612c01565b93505060206131c986828701612c37565b925050604084013567ffffffffffffffff8111156131ea576131e9612be5565b5b6131f686828701612f55565b9150509250925092565b6000806040838503121561321757613216612be0565b5b600061322585828601612c01565b925050602061323685828601612c01565b9150509250929050565b6000806000806080858703121561325a57613259612be0565b5b600061326887828801612c01565b945050602061327987828801612c37565b935050604085013567ffffffffffffffff81111561329a57613299612be5565b5b6132a687828801612f55565b925050606085013567ffffffffffffffff8111156132c7576132c6612be5565b5b6132d387828801612f55565b91505092959194509250565b600080604083850312156132f6576132f5612be0565b5b600061330485828601612c37565b925050602083013567ffffffffffffffff81111561332557613324612be5565b5b61333185828601612f55565b9150509250929050565b7f4e487b7100000000000000000000000000000000000000000000000000000000600052602260045260246000fd5b6000600282049050600182168061338257607f821691505b6020821081036133955761339461333b565b5b50919050565b7f496e737566666369656e742066756e6473000000000000000000000000000000600082015250565b60006133d1601183612b26565b91506133dc8261339b565b602082019050919050565b60006020820190508181036000830152613400816133c4565b9050919050565b7f4e487b7100000000000000000000000000000000000000000000000000000000600052601160045260246000fd5b600061344182612c16565b915061344c83612c16565b9250827fffffffffffffffffffffffffffffffffffffffffffffffffffffffffffffffff0382111561348157613480613407565b5b828201905092915050565b7f4552433737373a2063616c6c6572206973206e6f7420616e206f70657261746f60008201527f7220666f7220686f6c6465720000000000000000000000000000000000000000602082015250565b60006134e8602c83612b26565b91506134f38261348c565b604082019050919050565b60006020820190508181036000830152613517816134db565b9050919050565b7f596f7520646f6e277420686176652064617461207061636b6167657320666f7260008201527f2072656465656d00000000000000000000000000000000000000000000000000602082015250565b600061357a602783612b26565b91506135858261351e565b604082019050919050565b600060208201905081810360008301526135a98161356d565b9050919050565b60006135bb82612c16565b91506135c683612c16565b9250817fffffffffffffffffffffffffffffffffffffffffffffffffffffffffffffffff04831182151516156135ff576135fe613407565b5b828202905092915050565b60008190508160005260206000209050919050565b60006020601f8301049050919050565b600082821b905092915050565b60006008830261366c7fffffffffffffffffffffffffffffffffffffffffffffffffffffffffffffffff8261362f565b613676868361362f565b95508019841693508086168417925050509392505050565b6000819050919050565b60006136b36136ae6136a984612c16565b61368e565b612c16565b9050919050565b6000819050919050565b6136cd83613698565b6136e16136d9826136ba565b84845461363c565b825550505050565b600090565b6136f66136e9565b6137018184846136c4565b505050565b5b818110156137255761371a6000826136ee565b600181019050613707565b5050565b601f82111561376a5761373b8161360a565b6137448461361f565b81016020851015613753578190505b61376761375f8561361f565b830182613706565b50505b505050565b600082821c905092915050565b600061378d6000198460080261376f565b1980831691505092915050565b60006137a6838361377c565b9150826002028217905092915050565b6137bf82612b1b565b67ffffffffffffffff8111156137d8576137d7612e58565b5b6137e2825461336a565b6137ed828285613729565b600060209050601f831160018114613820576000841561380e578287015190505b613818858261379a565b865550613880565b601f19841661382e8661360a565b60005b8281101561385657848901518255600182019150602085019450602081019050613831565b86831015613873578489015161386f601f89168261377c565b8355505b6001600288020188555050505b505050505050565b7f4552433737373a20617574686f72697a696e672073656c66206173206f70657260008201527f61746f7200000000000000000000000000000000000000000000000000000000602082015250565b60006138e4602483612b26565b91506138ef82613888565b604082019050919050565b60006020820190508181036000830152613913816138d7565b9050919050565b7f446f6e277420686176652066756e647300000000000000000000000000000000600082015250565b6000613950601083612b26565b915061395b8261391a565b602082019050919050565b6000602082019050818103600083015261397f81613943565b9050919050565b7f596f7520617265206e6f7420746865206f776e65720000000000000000000000600082015250565b60006139bc601583612b26565b91506139c782613986565b602082019050919050565b600060208201905081810360008301526139eb816139af565b9050919050565b60006139fd82612c16565b9150613a0883612c16565b925082821015613a1b57613a1a613407565b5b828203905092915050565b7f4f776e61626c653a206e6577206f776e657220697320746865207a65726f206160008201527f6464726573730000000000000000000000000000000000000000000000000000602082015250565b6000613a82602683612b26565b9150613a8d82613a26565b604082019050919050565b60006020820190508181036000830152613ab181613a75565b9050919050565b7f4552433737373a207265766f6b696e672073656c66206173206f70657261746f60008201527f7200000000000000000000000000000000000000000000000000000000000000602082015250565b6000613b14602183612b26565b9150613b1f82613ab8565b604082019050919050565b60006020820190508181036000830152613b4381613b07565b9050919050565b7f4552433737373a20617070726f76652066726f6d20746865207a65726f20616460008201527f6472657373000000000000000000000000000000000000000000000000000000602082015250565b6000613ba6602583612b26565b9150613bb182613b4a565b604082019050919050565b60006020820190508181036000830152613bd581613b99565b9050919050565b7f4552433737373a20617070726f766520746f20746865207a65726f206164647260008201527f6573730000000000000000000000000000000000000000000000000000000000602082015250565b6000613c38602383612b26565b9150613c4382613bdc565b604082019050919050565b60006020820190508181036000830152613c6781613c2b565b9050919050565b7f4552433737373a20696e73756666696369656e7420616c6c6f77616e63650000600082015250565b6000613ca4601e83612b26565b9150613caf82613c6e565b602082019050919050565b60006020820190508181036000830152613cd381613c97565b9050919050565b7f4552433737373a207472616e736665722066726f6d20746865207a65726f206160008201527f6464726573730000000000000000000000000000000000000000000000000000602082015250565b6000613d36602683612b26565b9150613d4182613cda565b604082019050919050565b60006020820190508181036000830152613d6581613d29565b9050919050565b7f4552433737373a207472616e7366657220746f20746865207a65726f2061646460008201527f7265737300000000000000000000000000000000000000000000000000000000602082015250565b6000613dc8602483612b26565b9150613dd382613d6c565b604082019050919050565b60006020820190508181036000830152613df781613dbb565b9050919050565b7f4f776e61626c653a2063616c6c6572206973206e6f7420746865206f776e6572600082015250565b6000613e34602083612b26565b9150613e3f82613dfe565b602082019050919050565b60006020820190508181036000830152613e6381613e27565b9050919050565b7f4552433737373a206275726e2066726f6d20746865207a65726f20616464726560008201527f7373000000000000000000000000000000000000000000000000000000000000602082015250565b6000613ec6602283612b26565b9150613ed182613e6a565b604082019050919050565b60006020820190508181036000830152613ef581613eb9565b9050919050565b7f4552433737373a206275726e20616d6f756e7420657863656564732062616c6160008201527f6e63650000000000000000000000000000000000000000000000000000000000602082015250565b6000613f58602383612b26565b9150613f6382613efc565b604082019050919050565b60006020820190508181036000830152613f8781613f4b565b9050919050565b600081519050919050565b600082825260208201905092915050565b6000613fb582613f8e565b613fbf8185613f99565b9350613fcf818560208601612b37565b613fd881612b6a565b840191505092915050565b6000606082019050613ff86000830186612cef565b818103602083015261400a8185613faa565b9050818103604083015261401e8184613faa565b9050949350505050565b6000819050919050565b61403b81614028565b82525050565b60006040820190506140566000830185612cfe565b6140636020830184614032565b9392505050565b60008151905061407981612bea565b92915050565b60006020828403121561409557614094612be0565b5b60006140a38482850161406a565b91505092915050565b600060c0820190506140c16000830189612cfe565b6140ce6020830188612cfe565b6140db6040830187612cfe565b6140e86060830186612cef565b81810360808301526140fa8185613faa565b905081810360a083015261410e8184613faa565b9050979650505050505050565b7f4552433737373a207472616e7366657220616d6f756e7420657863656564732060008201527f62616c616e636500000000000000000000000000000000000000000000000000602082015250565b6000614177602783612b26565b91506141828261411b565b604082019050919050565b600060208201905081810360008301526141a68161416a565b9050919050565b7f4552433737373a20746f6b656e20726563697069656e7420636f6e747261637460008201527f20686173206e6f20696d706c656d656e74657220666f7220455243373737546f60208201527f6b656e73526563697069656e7400000000000000000000000000000000000000604082015250565b600061422f604d83612b26565b915061423a826141ad565b606082019050919050565b6000602082019050818103600083015261425e81614222565b9050919050565b7f4552433737373a206d696e7420746f20746865207a65726f2061646472657373600082015250565b600061429b602083612b26565b91506142a682614265565b602082019050919050565b600060208201905081810360008301526142ca8161428e565b905091905056fea26469706673582212209881acb546b1530bfe9cda890a185c99895458413688c98edc2b0748c81f854464736f6c634300080f0033",
  "linkReferences": {},
  "deployedLinkReferences": {}
}