{
	"_format": "hh-sol-artifact-1",
	"contractName": "RedeemDataContract",
	"sourceName": "src/blockchain/hardhat/contracts/ReedemDataContract.sol",
	"abi": [
		{
			"inputs": [
				{
					"internalType": "address",
					"name": "_oracle",
					"type": "address"
				},
				{
					"internalType": "address",
					"name": "_cycliContract",
					"type": "address"
				}
			],
			"stateMutability": "nonpayable",
			"type": "constructor"
		},
		{
			"anonymous": false,
			"inputs": [
				{
					"indexed": true,
					"internalType": "bytes32",
					"name": "id",
					"type": "bytes32"
				}
			],
			"name": "ChainlinkCancelled",
			"type": "event"
		},
		{
			"anonymous": false,
			"inputs": [
				{
					"indexed": true,
					"internalType": "bytes32",
					"name": "id",
					"type": "bytes32"
				}
			],
			"name": "ChainlinkFulfilled",
			"type": "event"
		},
		{
			"anonymous": false,
			"inputs": [
				{
					"indexed": true,
					"internalType": "bytes32",
					"name": "id",
					"type": "bytes32"
				}
			],
			"name": "ChainlinkRequested",
			"type": "event"
		},
		{
			"anonymous": false,
			"inputs": [
				{
					"indexed": true,
					"internalType": "address",
					"name": "from",
					"type": "address"
				},
				{
					"indexed": true,
					"internalType": "address",
					"name": "to",
					"type": "address"
				}
			],
			"name": "OwnershipTransferRequested",
			"type": "event"
		},
		{
			"anonymous": false,
			"inputs": [
				{
					"indexed": true,
					"internalType": "address",
					"name": "from",
					"type": "address"
				},
				{
					"indexed": true,
					"internalType": "address",
					"name": "to",
					"type": "address"
				}
			],
			"name": "OwnershipTransferred",
			"type": "event"
		},
		{
			"anonymous": false,
			"inputs": [
				{
					"indexed": true,
					"internalType": "bytes32",
					"name": "requestId",
					"type": "bytes32"
				},
				{
					"indexed": true,
					"internalType": "string",
					"name": "response",
					"type": "string"
				}
			],
			"name": "RequestForInfoFulfilled",
			"type": "event"
		},
		{
			"inputs": [],
			"name": "acceptOwnership",
			"outputs": [],
			"stateMutability": "nonpayable",
			"type": "function"
		},
		{
			"inputs": [],
			"name": "account",
			"outputs": [
				{
					"internalType": "address",
					"name": "",
					"type": "address"
				}
			],
			"stateMutability": "view",
			"type": "function"
		},
		{
			"inputs": [],
			"name": "amount",
			"outputs": [
				{
					"internalType": "uint256",
					"name": "",
					"type": "uint256"
				}
			],
			"stateMutability": "view",
			"type": "function"
		},
		{
			"inputs": [],
			"name": "boom",
			"outputs": [
				{
					"internalType": "bool",
					"name": "",
					"type": "bool"
				}
			],
			"stateMutability": "view",
			"type": "function"
		},
		{
			"inputs": [
				{
					"internalType": "bytes32",
					"name": "_requestId",
					"type": "bytes32"
				},
				{
					"internalType": "uint256",
					"name": "_payment",
					"type": "uint256"
				},
				{
					"internalType": "bytes4",
					"name": "_callbackFunctionId",
					"type": "bytes4"
				},
				{
					"internalType": "uint256",
					"name": "_expiration",
					"type": "uint256"
				}
			],
			"name": "cancelRequest",
			"outputs": [],
			"stateMutability": "nonpayable",
			"type": "function"
		},
		{
			"inputs": [],
			"name": "cid",
			"outputs": [
				{
					"internalType": "string",
					"name": "",
					"type": "string"
				}
			],
			"stateMutability": "view",
			"type": "function"
		},
		{
			"inputs": [],
			"name": "cidURL",
			"outputs": [
				{
					"internalType": "string",
					"name": "",
					"type": "string"
				}
			],
			"stateMutability": "view",
			"type": "function"
		},
		{
			"inputs": [],
			"name": "claim",
			"outputs": [
				{
					"internalType": "uint256",
					"name": "",
					"type": "uint256"
				}
			],
			"stateMutability": "view",
			"type": "function"
		},
		{
			"inputs": [],
			"name": "contractBalances",
			"outputs": [
				{
					"internalType": "uint256",
					"name": "eth",
					"type": "uint256"
				},
				{
					"internalType": "uint256",
					"name": "link",
					"type": "uint256"
				}
			],
			"stateMutability": "view",
			"type": "function"
		},
		{
			"inputs": [],
			"name": "erc777",
			"outputs": [
				{
					"internalType": "contract ERC777",
					"name": "",
					"type": "address"
				}
			],
			"stateMutability": "view",
			"type": "function"
		},
		{
			"inputs": [
				{
					"internalType": "bytes32",
					"name": "_requestId",
					"type": "bytes32"
				},
				{
					"internalType": "address",
					"name": "_to",
					"type": "address"
				},
				{
					"internalType": "string",
					"name": "_cid",
					"type": "string"
				},
				{
					"internalType": "string",
					"name": "_ret_url",
					"type": "string"
				},
				{
					"internalType": "uint256",
					"name": "_claim",
					"type": "uint256"
				}
			],
			"name": "fulfillMultipleParameters",
			"outputs": [],
			"stateMutability": "nonpayable",
			"type": "function"
		},
		{
			"inputs": [],
			"name": "getChainlinkToken",
			"outputs": [
				{
					"internalType": "address",
					"name": "",
					"type": "address"
				}
			],
			"stateMutability": "view",
			"type": "function"
		},
		{
			"inputs": [],
			"name": "lastRetrievedInfo",
			"outputs": [
				{
					"internalType": "string",
					"name": "",
					"type": "string"
				}
			],
			"stateMutability": "view",
			"type": "function"
		},
		{
			"inputs": [],
			"name": "owner",
			"outputs": [
				{
					"internalType": "address",
					"name": "",
					"type": "address"
				}
			],
			"stateMutability": "view",
			"type": "function"
		},
		{
			"inputs": [
				{
					"internalType": "string",
					"name": "_jobId",
					"type": "string"
				}
			],
			"name": "requestPayOut",
			"outputs": [],
			"stateMutability": "nonpayable",
			"type": "function"
		},
		{
			"inputs": [],
			"name": "to",
			"outputs": [
				{
					"internalType": "address",
					"name": "",
					"type": "address"
				}
			],
			"stateMutability": "view",
			"type": "function"
		},
		{
			"inputs": [
				{
					"internalType": "address",
					"name": "_operator",
					"type": "address"
				},
				{
					"internalType": "address",
					"name": "_from",
					"type": "address"
				},
				{
					"internalType": "address",
					"name": "_to",
					"type": "address"
				},
				{
					"internalType": "uint256",
					"name": "_amount",
					"type": "uint256"
				},
				{
					"internalType": "bytes",
					"name": "_userData",
					"type": "bytes"
				},
				{
					"internalType": "bytes",
					"name": "_operatorData",
					"type": "bytes"
				}
			],
			"name": "tokensReceived",
			"outputs": [],
			"stateMutability": "nonpayable",
			"type": "function"
		},
		{
			"inputs": [
				{
					"internalType": "address",
					"name": "to",
					"type": "address"
				}
			],
			"name": "transferOwnership",
			"outputs": [],
			"stateMutability": "nonpayable",
			"type": "function"
		},
		{
			"inputs": [],
			"name": "withdrawBalance",
			"outputs": [],
			"stateMutability": "nonpayable",
			"type": "function"
		},
		{
			"inputs": [],
			"name": "withdrawLink",
			"outputs": [],
			"stateMutability": "nonpayable",
			"type": "function"
		},
		{
			"inputs": [],
			"name": "withdrawTokens",
			"outputs": [],
			"stateMutability": "nonpayable",
			"type": "function"
		}
	],
	"bytecode": "0x60c060405260016005553480156200001657600080fd5b50604051620037c3380380620037c383398181016040528101906200003c9190620004f0565b3380600083731820a4b7618bde71dce8cdc73aab6c95905fad2473ffffffffffffffffffffffffffffffffffffffff166329965a1d307fb281fc8c12954d22544db45de3159a39272895b169a852b314f9cc762e44c53b306040518463ffffffff1660e01b8152600401620000b49392919062000563565b600060405180830381600087803b158015620000cf57600080fd5b505af1158015620000e4573d6000803e3d6000fd5b505050508073ffffffffffffffffffffffffffffffffffffffff1660808173ffffffffffffffffffffffffffffffffffffffff16815250503373ffffffffffffffffffffffffffffffffffffffff1660a08173ffffffffffffffffffffffffffffffffffffffff168152505050600073ffffffffffffffffffffffffffffffffffffffff168273ffffffffffffffffffffffffffffffffffffffff1603620001c3576040517f08c379a0000000000000000000000000000000000000000000000000000000008152600401620001ba9062000601565b60405180910390fd5b81600760006101000a81548173ffffffffffffffffffffffffffffffffffffffff021916908373ffffffffffffffffffffffffffffffffffffffff160217905550600073ffffffffffffffffffffffffffffffffffffffff168173ffffffffffffffffffffffffffffffffffffffff16146200024b576200024a81620002cd60201b60201c565b5b5050506200027373326c977e6efc84e512bb9c30f76e30c160ed06fb620003fe60201b60201c565b80600960006101000a81548173ffffffffffffffffffffffffffffffffffffffff021916908373ffffffffffffffffffffffffffffffffffffffff160217905550620002c5826200044260201b60201c565b505062000695565b3373ffffffffffffffffffffffffffffffffffffffff168173ffffffffffffffffffffffffffffffffffffffff16036200033e576040517f08c379a0000000000000000000000000000000000000000000000000000000008152600401620003359062000673565b60405180910390fd5b80600860006101000a81548173ffffffffffffffffffffffffffffffffffffffff021916908373ffffffffffffffffffffffffffffffffffffffff1602179055508073ffffffffffffffffffffffffffffffffffffffff16600760009054906101000a900473ffffffffffffffffffffffffffffffffffffffff1673ffffffffffffffffffffffffffffffffffffffff167fed8889f560326eb138920d842192f0eb3dd22b4f139c87a2c57538e05bae127860405160405180910390a350565b80600360006101000a81548173ffffffffffffffffffffffffffffffffffffffff021916908373ffffffffffffffffffffffffffffffffffffffff16021790555050565b80600460006101000a81548173ffffffffffffffffffffffffffffffffffffffff021916908373ffffffffffffffffffffffffffffffffffffffff16021790555050565b600080fd5b600073ffffffffffffffffffffffffffffffffffffffff82169050919050565b6000620004b8826200048b565b9050919050565b620004ca81620004ab565b8114620004d657600080fd5b50565b600081519050620004ea81620004bf565b92915050565b600080604083850312156200050a576200050962000486565b5b60006200051a85828601620004d9565b92505060206200052d85828601620004d9565b9150509250929050565b6200054281620004ab565b82525050565b6000819050919050565b6200055d8162000548565b82525050565b60006060820190506200057a600083018662000537565b62000589602083018562000552565b62000598604083018462000537565b949350505050565b600082825260208201905092915050565b7f43616e6e6f7420736574206f776e657220746f207a65726f0000000000000000600082015250565b6000620005e9601883620005a0565b9150620005f682620005b1565b602082019050919050565b600060208201905081810360008301526200061c81620005da565b9050919050565b7f43616e6e6f74207472616e7366657220746f2073656c66000000000000000000600082015250565b60006200065b601783620005a0565b9150620006688262000623565b602082019050919050565b600060208201905081810360008301526200068e816200064c565b9050919050565b60805160a051613101620006c260003960006104dd0152600081816107bb0152610a5a01526131016000f3fe608060405234801561001057600080fd5b50600436106101365760003560e01c80638d8f2adb116100b8578063a169ce091161007c578063a169ce09146102aa578063aa3ec0a9146102c8578063aa8c217c146102e6578063dff8856714610304578063ec65d0f814610320578063f2fde38b1461033c57610136565b80638d8f2adb1461023c5780638da5cb5b146102465780638dc654a21461026457806392bb9e181461026e5780639e8e4d1d1461028c57610136565b80634e71d92d116100ff5780634e71d92d146101ce5780635dab2420146101ec5780635fd8c7101461020a5780636b633b321461021457806379ba50971461023257610136565b806223de291461013b5780630612ebf8146101575780631315198114610173578063165d35e1146101915780632163885a146101af575b600080fd5b61015560048036038101906101509190611d8e565b610358565b005b610171600480360381019061016c9190611f9e565b61037a565b005b61017b61040d565b6040516101889190611ff6565b60405180910390f35b610199610433565b6040516101a69190611ff6565b60405180910390f35b6101b7610442565b6040516101c5929190612020565b60405180910390f35b6101d66104d5565b6040516101e39190612049565b60405180910390f35b6101f46104db565b6040516102019190611ff6565b60405180910390f35b6102126104ff565b005b61021c610550565b60405161022991906120ec565b60405180910390f35b61023a6105de565b005b610244610775565b005b61024e610853565b60405161025b9190611ff6565b60405180910390f35b61026c61087d565b005b6102766109ca565b60405161028391906120ec565b60405180910390f35b610294610a58565b6040516102a1919061216d565b60405180910390f35b6102b2610a7c565b6040516102bf91906121a3565b60405180910390f35b6102d0610a8f565b6040516102dd91906120ec565b60405180910390f35b6102ee610b1d565b6040516102fb9190612049565b60405180910390f35b61031e600480360381019061031991906121f4565b610b23565b005b61033a600480360381019061033591906122ff565b610d64565b005b61035660048036038101906103519190612366565b610d7e565b005b8460008082825461036991906123c2565b925050819055505050505050505050565b600061039661038883610d92565b3063dff8856760e01b610dbb565b90506103ea6040518060400160405280600281526020017f746f0000000000000000000000000000000000000000000000000000000000008152506103da33610dec565b836110f79092919063ffffffff16565b61040881670de0b6b3a764000060016104039190612418565b61112a565b505050565b600d60009054906101000a900473ffffffffffffffffffffffffffffffffffffffff1681565b600061043d611161565b905090565b6000804791506000610452611161565b90508073ffffffffffffffffffffffffffffffffffffffff166370a08231306040518263ffffffff1660e01b815260040161048d9190611ff6565b602060405180830381865afa1580156104aa573d6000803e3d6000fd5b505050506040513d601f19601f820116820180604052508101906104ce9190612487565b9150509091565b600e5481565b7f000000000000000000000000000000000000000000000000000000000000000081565b61050761118b565b3373ffffffffffffffffffffffffffffffffffffffff166108fc479081150290604051600060405180830381858888f1935050505015801561054d573d6000803e3d6000fd5b50565b600c805461055d906124e3565b80601f0160208091040260200160405190810160405280929190818152602001828054610589906124e3565b80156105d65780601f106105ab576101008083540402835291602001916105d6565b820191906000526020600020905b8154815290600101906020018083116105b957829003601f168201915b505050505081565b600860009054906101000a900473ffffffffffffffffffffffffffffffffffffffff1673ffffffffffffffffffffffffffffffffffffffff163373ffffffffffffffffffffffffffffffffffffffff161461066e576040517f08c379a000000000000000000000000000000000000000000000000000000000815260040161066590612560565b60405180910390fd5b6000600760009054906101000a900473ffffffffffffffffffffffffffffffffffffffff16905033600760006101000a81548173ffffffffffffffffffffffffffffffffffffffff021916908373ffffffffffffffffffffffffffffffffffffffff1602179055506000600860006101000a81548173ffffffffffffffffffffffffffffffffffffffff021916908373ffffffffffffffffffffffffffffffffffffffff1602179055503373ffffffffffffffffffffffffffffffffffffffff168173ffffffffffffffffffffffffffffffffffffffff167f8be0079c531659141344cd1fd0a4f28419497f9722a3daafe3b4186f6b6457e060405160405180910390a350565b60008054116107b9576040517f08c379a00000000000000000000000000000000000000000000000000000000081526004016107b0906125cc565b60405180910390fd5b7f000000000000000000000000000000000000000000000000000000000000000073ffffffffffffffffffffffffffffffffffffffff166362ad1b8330336000546040518463ffffffff1660e01b815260040161081893929190612623565b600060405180830381600087803b15801561083257600080fd5b505af1158015610846573d6000803e3d6000fd5b5050505060008081905550565b6000600760009054906101000a900473ffffffffffffffffffffffffffffffffffffffff16905090565b61088561118b565b600061088f611161565b90508073ffffffffffffffffffffffffffffffffffffffff1663a9059cbb338373ffffffffffffffffffffffffffffffffffffffff166370a08231306040518263ffffffff1660e01b81526004016108e79190611ff6565b602060405180830381865afa158015610904573d6000803e3d6000fd5b505050506040513d601f19601f820116820180604052508101906109289190612487565b6040518363ffffffff1660e01b8152600401610945929190612680565b6020604051808303816000875af1158015610964573d6000803e3d6000fd5b505050506040513d601f19601f8201168201806040525081019061098891906126d5565b6109c7576040517f08c379a00000000000000000000000000000000000000000000000000000000081526004016109be9061274e565b60405180910390fd5b50565b600a80546109d7906124e3565b80601f0160208091040260200160405190810160405280929190818152602001828054610a03906124e3565b8015610a505780601f10610a2557610100808354040283529160200191610a50565b820191906000526020600020905b815481529060010190602001808311610a3357829003601f168201915b505050505081565b7f000000000000000000000000000000000000000000000000000000000000000081565b600f60009054906101000a900460ff1681565b600b8054610a9c906124e3565b80601f0160208091040260200160405190810160405280929190818152602001828054610ac8906124e3565b8015610b155780601f10610aea57610100808354040283529160200191610b15565b820191906000526020600020905b815481529060010190602001808311610af857829003601f168201915b505050505081565b60005481565b846006600082815260200190815260200160002060009054906101000a900473ffffffffffffffffffffffffffffffffffffffff1673ffffffffffffffffffffffffffffffffffffffff163373ffffffffffffffffffffffffffffffffffffffff1614610bc5576040517f08c379a0000000000000000000000000000000000000000000000000000000008152600401610bbc906127e0565b60405180910390fd5b6006600082815260200190815260200160002060006101000a81549073ffffffffffffffffffffffffffffffffffffffff0219169055807f7cc135e0cebb02c3480ae5d74d377283180a2601f8f644edf7987b009316c63a60405160405180910390a284600d60006101000a81548173ffffffffffffffffffffffffffffffffffffffff021916908373ffffffffffffffffffffffffffffffffffffffff16021790555083600b9081610c7891906129a2565b5082600c9081610c8891906129a2565b5081600e81905550600960009054906101000a900473ffffffffffffffffffffffffffffffffffffffff1673ffffffffffffffffffffffffffffffffffffffff166392d26bf1868686866040518563ffffffff1660e01b8152600401610cf19493929190612a74565b600060405180830381600087803b158015610d0b57600080fd5b505af1925050508015610d1c575060015b610d40576001600f60006101000a81548160ff021916908315150217905550610d41565b5b6000600f60006101000a81548160ff021916908315150217905550505050505050565b610d6c61118b565b610d788484848461121d565b50505050565b610d8661118b565b610d8f81611330565b50565b6000808290506000815103610dad576000801b915050610db6565b60208301519150505b919050565b610dc3611bfa565b610dcb611bfa565b610de28585858461145e909392919063ffffffff16565b9150509392505050565b606060008273ffffffffffffffffffffffffffffffffffffffff1660001b905060006040518060400160405280601081526020017f303132333435363738396162636465660000000000000000000000000000000081525090506000602a67ffffffffffffffff811115610e6357610e62611e73565b5b6040519080825280601f01601f191660200182016040528015610e955781602001600182028036833780820191505090505b5090507f300000000000000000000000000000000000000000000000000000000000000081600081518110610ecd57610ecc612ac7565b5b60200101907effffffffffffffffffffffffffffffffffffffffffffffffffffffffffffff1916908160001a9053507f780000000000000000000000000000000000000000000000000000000000000081600181518110610f3157610f30612ac7565b5b60200101907effffffffffffffffffffffffffffffffffffffffffffffffffffffffffffff1916908160001a90535060005b60148110156110eb5782600485600c84610f7d91906123c2565b60208110610f8e57610f8d612ac7565b5b1a60f81b7effffffffffffffffffffffffffffffffffffffffffffffffffffffffffffff1916901c60f81c60ff1681518110610fcd57610fcc612ac7565b5b602001015160f81c60f81b82600283610fe69190612418565b6002610ff291906123c2565b8151811061100357611002612ac7565b5b60200101907effffffffffffffffffffffffffffffffffffffffffffffffffffffffffffff1916908160001a90535082600f60f81b85600c8461104691906123c2565b6020811061105757611056612ac7565b5b1a60f81b1660f81c60ff168151811061107357611072612ac7565b5b602001015160f81c60f81b8260028361108c9190612418565b600361109891906123c2565b815181106110a9576110a8612ac7565b5b60200101907effffffffffffffffffffffffffffffffffffffffffffffffffffffffffffff1916908160001a90535080806110e390612af6565b915050610f63565b50809350505050919050565b61110e82846080015161150e90919063ffffffff16565b61112581846080015161150e90919063ffffffff16565b505050565b6000611159600460009054906101000a900473ffffffffffffffffffffffffffffffffffffffff168484611533565b905092915050565b6000600360009054906101000a900473ffffffffffffffffffffffffffffffffffffffff16905090565b600760009054906101000a900473ffffffffffffffffffffffffffffffffffffffff1673ffffffffffffffffffffffffffffffffffffffff163373ffffffffffffffffffffffffffffffffffffffff161461121b576040517f08c379a000000000000000000000000000000000000000000000000000000000815260040161121290612b8a565b60405180910390fd5b565b60006006600086815260200190815260200160002060009054906101000a900473ffffffffffffffffffffffffffffffffffffffff1690506006600086815260200190815260200160002060006101000a81549073ffffffffffffffffffffffffffffffffffffffff0219169055847fe1fe3afa0f7f761ff0a8b89086790efd5140d2907ebd5b7ff6bfcb5e075fd4c560405160405180910390a28073ffffffffffffffffffffffffffffffffffffffff16636ee4d553868686866040518563ffffffff1660e01b81526004016112f79493929190612bc8565b600060405180830381600087803b15801561131157600080fd5b505af1158015611325573d6000803e3d6000fd5b505050505050505050565b3373ffffffffffffffffffffffffffffffffffffffff168173ffffffffffffffffffffffffffffffffffffffff160361139e576040517f08c379a000000000000000000000000000000000000000000000000000000000815260040161139590612c59565b60405180910390fd5b80600860006101000a81548173ffffffffffffffffffffffffffffffffffffffff021916908373ffffffffffffffffffffffffffffffffffffffff1602179055508073ffffffffffffffffffffffffffffffffffffffff16600760009054906101000a900473ffffffffffffffffffffffffffffffffffffffff1673ffffffffffffffffffffffffffffffffffffffff167fed8889f560326eb138920d842192f0eb3dd22b4f139c87a2c57538e05bae127860405160405180910390a350565b611466611bfa565b61147685608001516101006115ff565b508385600001818152505082856020019073ffffffffffffffffffffffffffffffffffffffff16908173ffffffffffffffffffffffffffffffffffffffff16815250508185604001907bffffffffffffffffffffffffffffffffffffffffffffffffffffffff191690817bffffffffffffffffffffffffffffffffffffffffffffffffffffffff191681525050849050949350505050565b61151b8260038351611669565b61152e81836117ee90919063ffffffff16565b505050565b600080600554905060018161154891906123c2565b6005819055506000634042994660e01b60008087600001513089604001518760018c6080015160000151604051602401611589989796959493929190612cbd565b604051602081830303815290604052907bffffffffffffffffffffffffffffffffffffffffffffffffffffffff19166020820180517bffffffffffffffffffffffffffffffffffffffffffffffffffffffff838183161783525050505090506115f486838684611810565b925050509392505050565b611607611c67565b60006020836116169190612d71565b14611642576020826116289190612d71565b60206116349190612da2565b8261163f91906123c2565b91505b81836020018181525050604051808452600081528281016020016040525082905092915050565b60178167ffffffffffffffff16116116a05761169a8160058460ff16901b60ff1617846119a590919063ffffffff16565b506117e9565b60ff8167ffffffffffffffff16116116f6576116cf601860058460ff16901b17846119a590919063ffffffff16565b506116f08167ffffffffffffffff166001856119c59092919063ffffffff16565b506117e8565b61ffff8167ffffffffffffffff161161174d57611726601960058460ff16901b17846119a590919063ffffffff16565b506117478167ffffffffffffffff166002856119c59092919063ffffffff16565b506117e7565b63ffffffff8167ffffffffffffffff16116117a65761177f601a60058460ff16901b17846119a590919063ffffffff16565b506117a08167ffffffffffffffff166004856119c59092919063ffffffff16565b506117e6565b6117c3601b60058460ff16901b17846119a590919063ffffffff16565b506117e48167ffffffffffffffff166008856119c59092919063ffffffff16565b505b5b5b5b505050565b6117f6611c67565b611808838460000151518485516119e7565b905092915050565b60003084604051602001611825929190612e51565b604051602081830303815290604052805190602001209050846006600083815260200190815260200160002060006101000a81548173ffffffffffffffffffffffffffffffffffffffff021916908373ffffffffffffffffffffffffffffffffffffffff160217905550807fb5e6e01e79f91267dc17b4e6314d5d4d03593d2ceee0fbb452b750bd70ea5af960405160405180910390a2600360009054906101000a900473ffffffffffffffffffffffffffffffffffffffff1673ffffffffffffffffffffffffffffffffffffffff16634000aea08685856040518463ffffffff1660e01b815260040161191b93929190612e7d565b6020604051808303816000875af115801561193a573d6000803e3d6000fd5b505050506040513d601f19601f8201168201806040525081019061195e91906126d5565b61199d576040517f08c379a000000000000000000000000000000000000000000000000000000000815260040161199490612f2d565b60405180910390fd5b949350505050565b6119ad611c67565b6119bd8384600001515184611ad6565b905092915050565b6119cd611c67565b6119de848560000151518585611b2c565b90509392505050565b6119ef611c67565b82518211156119fd57600080fd5b84602001518285611a0e91906123c2565b1115611a4357611a42856002611a3388602001518887611a2e91906123c2565b611bba565b611a3d9190612418565b611bd6565b5b600080865180518760208301019350808887011115611a625787860182525b60208701925050505b60208410611aa95780518252602082611a8491906123c2565b9150602081611a9391906123c2565b9050602084611aa29190612da2565b9350611a6b565b60006001856020036101000a03905080198251168184511681811785525050508692505050949350505050565b611ade611c67565b83602001518310611b0457611b038460028660200151611afe9190612418565b611bd6565b5b83518051602085830101848153818603611b1f576001820183525b5050508390509392505050565b611b34611c67565b84602001518483611b4591906123c2565b1115611b6d57611b6c8560028685611b5d91906123c2565b611b679190612418565b611bd6565b5b6000600183610100611b7f9190613080565b611b899190612da2565b90508551838682010185831982511617815281518588011115611bac5784870182525b505085915050949350505050565b600081831115611bcc57829050611bd0565b8190505b92915050565b600082600001519050611be983836115ff565b50611bf483826117ee565b50505050565b6040518060a0016040528060008019168152602001600073ffffffffffffffffffffffffffffffffffffffff16815260200160007bffffffffffffffffffffffffffffffffffffffffffffffffffffffff1916815260200160008152602001611c61611c67565b81525090565b604051806040016040528060608152602001600081525090565b6000604051905090565b600080fd5b600080fd5b600073ffffffffffffffffffffffffffffffffffffffff82169050919050565b6000611cc082611c95565b9050919050565b611cd081611cb5565b8114611cdb57600080fd5b50565b600081359050611ced81611cc7565b92915050565b6000819050919050565b611d0681611cf3565b8114611d1157600080fd5b50565b600081359050611d2381611cfd565b92915050565b600080fd5b600080fd5b600080fd5b60008083601f840112611d4e57611d4d611d29565b5b8235905067ffffffffffffffff811115611d6b57611d6a611d2e565b5b602083019150836001820283011115611d8757611d86611d33565b5b9250929050565b60008060008060008060008060c0898b031215611dae57611dad611c8b565b5b6000611dbc8b828c01611cde565b9850506020611dcd8b828c01611cde565b9750506040611dde8b828c01611cde565b9650506060611def8b828c01611d14565b955050608089013567ffffffffffffffff811115611e1057611e0f611c90565b5b611e1c8b828c01611d38565b945094505060a089013567ffffffffffffffff811115611e3f57611e3e611c90565b5b611e4b8b828c01611d38565b92509250509295985092959890939650565b600080fd5b6000601f19601f8301169050919050565b7f4e487b7100000000000000000000000000000000000000000000000000000000600052604160045260246000fd5b611eab82611e62565b810181811067ffffffffffffffff82111715611eca57611ec9611e73565b5b80604052505050565b6000611edd611c81565b9050611ee98282611ea2565b919050565b600067ffffffffffffffff821115611f0957611f08611e73565b5b611f1282611e62565b9050602081019050919050565b82818337600083830152505050565b6000611f41611f3c84611eee565b611ed3565b905082815260208101848484011115611f5d57611f5c611e5d565b5b611f68848285611f1f565b509392505050565b600082601f830112611f8557611f84611d29565b5b8135611f95848260208601611f2e565b91505092915050565b600060208284031215611fb457611fb3611c8b565b5b600082013567ffffffffffffffff811115611fd257611fd1611c90565b5b611fde84828501611f70565b91505092915050565b611ff081611cb5565b82525050565b600060208201905061200b6000830184611fe7565b92915050565b61201a81611cf3565b82525050565b60006040820190506120356000830185612011565b6120426020830184612011565b9392505050565b600060208201905061205e6000830184612011565b92915050565b600081519050919050565b600082825260208201905092915050565b60005b8381101561209e578082015181840152602081019050612083565b838111156120ad576000848401525b50505050565b60006120be82612064565b6120c8818561206f565b93506120d8818560208601612080565b6120e181611e62565b840191505092915050565b6000602082019050818103600083015261210681846120b3565b905092915050565b6000819050919050565b600061213361212e61212984611c95565b61210e565b611c95565b9050919050565b600061214582612118565b9050919050565b60006121578261213a565b9050919050565b6121678161214c565b82525050565b6000602082019050612182600083018461215e565b92915050565b60008115159050919050565b61219d81612188565b82525050565b60006020820190506121b86000830184612194565b92915050565b6000819050919050565b6121d1816121be565b81146121dc57600080fd5b50565b6000813590506121ee816121c8565b92915050565b600080600080600060a086880312156122105761220f611c8b565b5b600061221e888289016121df565b955050602061222f88828901611cde565b945050604086013567ffffffffffffffff8111156122505761224f611c90565b5b61225c88828901611f70565b935050606086013567ffffffffffffffff81111561227d5761227c611c90565b5b61228988828901611f70565b925050608061229a88828901611d14565b9150509295509295909350565b60007fffffffff0000000000000000000000000000000000000000000000000000000082169050919050565b6122dc816122a7565b81146122e757600080fd5b50565b6000813590506122f9816122d3565b92915050565b6000806000806080858703121561231957612318611c8b565b5b6000612327878288016121df565b945050602061233887828801611d14565b9350506040612349878288016122ea565b925050606061235a87828801611d14565b91505092959194509250565b60006020828403121561237c5761237b611c8b565b5b600061238a84828501611cde565b91505092915050565b7f4e487b7100000000000000000000000000000000000000000000000000000000600052601160045260246000fd5b60006123cd82611cf3565b91506123d883611cf3565b9250827fffffffffffffffffffffffffffffffffffffffffffffffffffffffffffffffff0382111561240d5761240c612393565b5b828201905092915050565b600061242382611cf3565b915061242e83611cf3565b9250817fffffffffffffffffffffffffffffffffffffffffffffffffffffffffffffffff048311821515161561246757612466612393565b5b828202905092915050565b60008151905061248181611cfd565b92915050565b60006020828403121561249d5761249c611c8b565b5b60006124ab84828501612472565b91505092915050565b7f4e487b7100000000000000000000000000000000000000000000000000000000600052602260045260246000fd5b600060028204905060018216806124fb57607f821691505b60208210810361250e5761250d6124b4565b5b50919050565b7f4d7573742062652070726f706f736564206f776e657200000000000000000000600082015250565b600061254a60168361206f565b915061255582612514565b602082019050919050565b600060208201905081810360008301526125798161253d565b9050919050565b7f546865726520646f6e277420626520746f6b656e730000000000000000000000600082015250565b60006125b660158361206f565b91506125c182612580565b602082019050919050565b600060208201905081810360008301526125e5816125a9565b9050919050565b600082825260208201905092915050565b50565b600061260d6000836125ec565b9150612618826125fd565b600082019050919050565b600060a0820190506126386000830186611fe7565b6126456020830185611fe7565b6126526040830184612011565b818103606083015261266381612600565b9050818103608083015261267681612600565b9050949350505050565b60006040820190506126956000830185611fe7565b6126a26020830184612011565b9392505050565b6126b281612188565b81146126bd57600080fd5b50565b6000815190506126cf816126a9565b92915050565b6000602082840312156126eb576126ea611c8b565b5b60006126f9848285016126c0565b91505092915050565b7f556e61626c6520746f207472616e73666572204c696e6b000000000000000000600082015250565b600061273860178361206f565b915061274382612702565b602082019050919050565b600060208201905081810360008301526127678161272b565b9050919050565b7f536f75726365206d75737420626520746865206f7261636c65206f662074686560008201527f2072657175657374000000000000000000000000000000000000000000000000602082015250565b60006127ca60288361206f565b91506127d58261276e565b604082019050919050565b600060208201905081810360008301526127f9816127bd565b9050919050565b60008190508160005260206000209050919050565b60006020601f8301049050919050565b600082821b905092915050565b6000600883026128627fffffffffffffffffffffffffffffffffffffffffffffffffffffffffffffffff82612825565b61286c8683612825565b95508019841693508086168417925050509392505050565b600061289f61289a61289584611cf3565b61210e565b611cf3565b9050919050565b6000819050919050565b6128b983612884565b6128cd6128c5826128a6565b848454612832565b825550505050565b600090565b6128e26128d5565b6128ed8184846128b0565b505050565b5b81811015612911576129066000826128da565b6001810190506128f3565b5050565b601f8211156129565761292781612800565b61293084612815565b8101602085101561293f578190505b61295361294b85612815565b8301826128f2565b50505b505050565b600082821c905092915050565b60006129796000198460080261295b565b1980831691505092915050565b60006129928383612968565b9150826002028217905092915050565b6129ab82612064565b67ffffffffffffffff8111156129c4576129c3611e73565b5b6129ce82546124e3565b6129d9828285612915565b600060209050601f831160018114612a0c57600084156129fa578287015190505b612a048582612986565b865550612a6c565b601f198416612a1a86612800565b60005b82811015612a4257848901518255600182019150602085019450602081019050612a1d565b86831015612a5f5784890151612a5b601f891682612968565b8355505b6001600288020188555050505b505050505050565b6000608082019050612a896000830187611fe7565b8181036020830152612a9b81866120b3565b90508181036040830152612aaf81856120b3565b9050612abe6060830184612011565b95945050505050565b7f4e487b7100000000000000000000000000000000000000000000000000000000600052603260045260246000fd5b6000612b0182611cf3565b91507fffffffffffffffffffffffffffffffffffffffffffffffffffffffffffffffff8203612b3357612b32612393565b5b600182019050919050565b7f4f6e6c792063616c6c61626c65206279206f776e657200000000000000000000600082015250565b6000612b7460168361206f565b9150612b7f82612b3e565b602082019050919050565b60006020820190508181036000830152612ba381612b67565b9050919050565b612bb3816121be565b82525050565b612bc2816122a7565b82525050565b6000608082019050612bdd6000830187612baa565b612bea6020830186612011565b612bf76040830185612bb9565b612c046060830184612011565b95945050505050565b7f43616e6e6f74207472616e7366657220746f2073656c66000000000000000000600082015250565b6000612c4360178361206f565b9150612c4e82612c0d565b602082019050919050565b60006020820190508181036000830152612c7281612c36565b9050919050565b600081519050919050565b6000612c8f82612c79565b612c9981856125ec565b9350612ca9818560208601612080565b612cb281611e62565b840191505092915050565b600061010082019050612cd3600083018b611fe7565b612ce0602083018a612011565b612ced6040830189612baa565b612cfa6060830188611fe7565b612d076080830187612bb9565b612d1460a0830186612011565b612d2160c0830185612011565b81810360e0830152612d338184612c84565b90509998505050505050505050565b7f4e487b7100000000000000000000000000000000000000000000000000000000600052601260045260246000fd5b6000612d7c82611cf3565b9150612d8783611cf3565b925082612d9757612d96612d42565b5b828206905092915050565b6000612dad82611cf3565b9150612db883611cf3565b925082821015612dcb57612dca612393565b5b828203905092915050565b6000612de18261213a565b9050919050565b60008160601b9050919050565b6000612e0082612de8565b9050919050565b6000612e1282612df5565b9050919050565b612e2a612e2582612dd6565b612e07565b82525050565b6000819050919050565b612e4b612e4682611cf3565b612e30565b82525050565b6000612e5d8285612e19565b601482019150612e6d8284612e3a565b6020820191508190509392505050565b6000606082019050612e926000830186611fe7565b612e9f6020830185612011565b8181036040830152612eb18184612c84565b9050949350505050565b7f756e61626c6520746f207472616e73666572416e6443616c6c20746f206f726160008201527f636c650000000000000000000000000000000000000000000000000000000000602082015250565b6000612f1760238361206f565b9150612f2282612ebb565b604082019050919050565b60006020820190508181036000830152612f4681612f0a565b9050919050565b60008160011c9050919050565b6000808291508390505b6001851115612fa457808604811115612f8057612f7f612393565b5b6001851615612f8f5780820291505b8081029050612f9d85612f4d565b9450612f64565b94509492505050565b600082612fbd5760019050613079565b81612fcb5760009050613079565b8160018114612fe15760028114612feb5761301a565b6001915050613079565b60ff841115612ffd57612ffc612393565b5b8360020a91508482111561301457613013612393565b5b50613079565b5060208310610133831016604e8410600b841016171561304f5782820a90508381111561304a57613049612393565b5b613079565b61305c8484846001612f5a565b9250905081840481111561307357613072612393565b5b81810290505b9392505050565b600061308b82611cf3565b915061309683611cf3565b92506130c37fffffffffffffffffffffffffffffffffffffffffffffffffffffffffffffffff8484612fad565b90509291505056fea2646970667358221220d581ba5836fccfefffe30779c610d68401f22a5b81731ede6b548995cdd8bb8a64736f6c634300080f0033",
	"linkReferences": {},
	"deployedLinkReferences": {}
}