{
  "_format": "hh-sol-artifact-1",
  "contractName": "VulnerableRecipientContract",
  "sourceName": "src/blockchain/hardhat/contracts/VulnerableRecipientContract.sol",
  "abi": [
    {
      "inputs": [
        {
          "internalType": "address",
          "name": "_erc777Address",
          "type": "address"
        }
      ],
      "stateMutability": "nonpayable",
      "type": "constructor"
    },
    {
      "inputs": [],
      "name": "account",
      "outputs": [
        {
          "internalType": "address",
          "name": "",
          "type": "address"
        }
      ],
      "stateMutability": "view",
      "type": "function"
    },
    {
      "inputs": [],
      "name": "amount",
      "outputs": [
        {
          "internalType": "uint256",
          "name": "",
          "type": "uint256"
        }
      ],
      "stateMutability": "view",
      "type": "function"
    },
    {
      "inputs": [],
      "name": "erc777",
      "outputs": [
        {
          "internalType": "contract ERC777",
          "name": "",
          "type": "address"
        }
      ],
      "stateMutability": "view",
      "type": "function"
    },
    {
      "inputs": [
        {
          "internalType": "address",
          "name": "_operator",
          "type": "address"
        },
        {
          "internalType": "address",
          "name": "_from",
          "type": "address"
        },
        {
          "internalType": "address",
          "name": "_to",
          "type": "address"
        },
        {
          "internalType": "uint256",
          "name": "_amount",
          "type": "uint256"
        },
        {
          "internalType": "bytes",
          "name": "_userData",
          "type": "bytes"
        },
        {
          "internalType": "bytes",
          "name": "_operatorData",
          "type": "bytes"
        }
      ],
      "name": "tokensReceived",
      "outputs": [],
      "stateMutability": "nonpayable",
      "type": "function"
    },
    {
      "inputs": [],
      "name": "withdrawTokens",
      "outputs": [],
      "stateMutability": "nonpayable",
      "type": "function"
    }
  ],
  "bytecode": "0x60c060405234801561001057600080fd5b506040516108f23803806108f2833981810160405281019061003291906101a6565b731820a4b7618bde71dce8cdc73aab6c95905fad2473ffffffffffffffffffffffffffffffffffffffff166329965a1d307fb281fc8c12954d22544db45de3159a39272895b169a852b314f9cc762e44c53b306040518463ffffffff1660e01b81526004016100a3939291906101fb565b600060405180830381600087803b1580156100bd57600080fd5b505af11580156100d1573d6000803e3d6000fd5b505050508073ffffffffffffffffffffffffffffffffffffffff1660808173ffffffffffffffffffffffffffffffffffffffff16815250503373ffffffffffffffffffffffffffffffffffffffff1660a08173ffffffffffffffffffffffffffffffffffffffff168152505050610232565b600080fd5b600073ffffffffffffffffffffffffffffffffffffffff82169050919050565b600061017382610148565b9050919050565b61018381610168565b811461018e57600080fd5b50565b6000815190506101a08161017a565b92915050565b6000602082840312156101bc576101bb610143565b5b60006101ca84828501610191565b91505092915050565b6101dc81610168565b82525050565b6000819050919050565b6101f5816101e2565b82525050565b600060608201905061021060008301866101d3565b61021d60208301856101ec565b61022a60408301846101d3565b949350505050565b60805160a05161069561025d600039600060ff015260008181610167015261020101526106956000f3fe608060405234801561001057600080fd5b50600436106100565760003560e01c806223de291461005b5780635dab2420146100775780638d8f2adb146100955780639e8e4d1d1461009f578063aa8c217c146100bd575b600080fd5b6100756004803603810190610070919061032c565b6100db565b005b61007f6100fd565b60405161008c919061040a565b60405180910390f35b61009d610121565b005b6100a76101ff565b6040516100b49190610484565b60405180910390f35b6100c5610223565b6040516100d291906104ae565b60405180910390f35b846000808282546100ec91906104f8565b925050819055505050505050505050565b7f000000000000000000000000000000000000000000000000000000000000000081565b6000805411610165576040517f08c379a000000000000000000000000000000000000000000000000000000000815260040161015c906105ab565b60405180910390fd5b7f000000000000000000000000000000000000000000000000000000000000000073ffffffffffffffffffffffffffffffffffffffff166362ad1b8330336000546040518463ffffffff1660e01b81526004016101c493929190610602565b600060405180830381600087803b1580156101de57600080fd5b505af11580156101f2573d6000803e3d6000fd5b5050505060008081905550565b7f000000000000000000000000000000000000000000000000000000000000000081565b60005481565b600080fd5b600080fd5b600073ffffffffffffffffffffffffffffffffffffffff82169050919050565b600061025e82610233565b9050919050565b61026e81610253565b811461027957600080fd5b50565b60008135905061028b81610265565b92915050565b6000819050919050565b6102a481610291565b81146102af57600080fd5b50565b6000813590506102c18161029b565b92915050565b600080fd5b600080fd5b600080fd5b60008083601f8401126102ec576102eb6102c7565b5b8235905067ffffffffffffffff811115610309576103086102cc565b5b602083019150836001820283011115610325576103246102d1565b5b9250929050565b60008060008060008060008060c0898b03121561034c5761034b610229565b5b600061035a8b828c0161027c565b985050602061036b8b828c0161027c565b975050604061037c8b828c0161027c565b965050606061038d8b828c016102b2565b955050608089013567ffffffffffffffff8111156103ae576103ad61022e565b5b6103ba8b828c016102d6565b945094505060a089013567ffffffffffffffff8111156103dd576103dc61022e565b5b6103e98b828c016102d6565b92509250509295985092959890939650565b61040481610253565b82525050565b600060208201905061041f60008301846103fb565b92915050565b6000819050919050565b600061044a61044561044084610233565b610425565b610233565b9050919050565b600061045c8261042f565b9050919050565b600061046e82610451565b9050919050565b61047e81610463565b82525050565b60006020820190506104996000830184610475565b92915050565b6104a881610291565b82525050565b60006020820190506104c3600083018461049f565b92915050565b7f4e487b7100000000000000000000000000000000000000000000000000000000600052601160045260246000fd5b600061050382610291565b915061050e83610291565b9250827fffffffffffffffffffffffffffffffffffffffffffffffffffffffffffffffff03821115610543576105426104c9565b5b828201905092915050565b600082825260208201905092915050565b7f546865726520646f6e277420626520746f6b656e730000000000000000000000600082015250565b600061059560158361054e565b91506105a08261055f565b602082019050919050565b600060208201905081810360008301526105c481610588565b9050919050565b600082825260208201905092915050565b50565b60006105ec6000836105cb565b91506105f7826105dc565b600082019050919050565b600060a08201905061061760008301866103fb565b61062460208301856103fb565b610631604083018461049f565b8181036060830152610642816105df565b90508181036080830152610655816105df565b905094935050505056fea2646970667358221220b2dc8719d75b867db5218157ba7303940a2dbee3d18930d3320225b46db693f464736f6c634300080f0033",
  "linkReferences": {},
  "deployedLinkReferences": {}
}