{
	"_format": "hh-sol-artifact-1",
	"contractName": "BenefitContract",
	"sourceName": "src/blockchain/hardhat/contracts/BenefitContract.sol",
	"abi": [
		{
			"inputs": [
				{
					"internalType": "address",
					"name": "_manager",
					"type": "address"
				},
				{
					"internalType": "uint256",
					"name": "_maxMint",
					"type": "uint256"
				},
				{
					"internalType": "string",
					"name": "_uri",
					"type": "string"
				},
				{
					"internalType": "uint256",
					"name": "_price",
					"type": "uint256"
				},
				{
					"internalType": "address",
					"name": "_erc777Address",
					"type": "address"
				},
				{
					"internalType": "string",
					"name": "_name",
					"type": "string"
				},
				{
					"internalType": "string",
					"name": "_symbol",
					"type": "string"
				}
			],
			"stateMutability": "nonpayable",
			"type": "constructor"
		},
		{
			"anonymous": false,
			"inputs": [
				{
					"indexed": true,
					"internalType": "address",
					"name": "owner",
					"type": "address"
				},
				{
					"indexed": true,
					"internalType": "address",
					"name": "approved",
					"type": "address"
				},
				{
					"indexed": true,
					"internalType": "uint256",
					"name": "tokenId",
					"type": "uint256"
				}
			],
			"name": "Approval",
			"type": "event"
		},
		{
			"anonymous": false,
			"inputs": [
				{
					"indexed": true,
					"internalType": "address",
					"name": "owner",
					"type": "address"
				},
				{
					"indexed": true,
					"internalType": "address",
					"name": "operator",
					"type": "address"
				},
				{
					"indexed": false,
					"internalType": "bool",
					"name": "approved",
					"type": "bool"
				}
			],
			"name": "ApprovalForAll",
			"type": "event"
		},
		{
			"anonymous": false,
			"inputs": [
				{
					"indexed": true,
					"internalType": "address",
					"name": "from",
					"type": "address"
				},
				{
					"indexed": true,
					"internalType": "address",
					"name": "to",
					"type": "address"
				},
				{
					"indexed": true,
					"internalType": "uint256",
					"name": "tokenId",
					"type": "uint256"
				}
			],
			"name": "Transfer",
			"type": "event"
		},
		{
			"inputs": [],
			"name": "EPNS_COMM_ADDRESS",
			"outputs": [
				{
					"internalType": "address",
					"name": "",
					"type": "address"
				}
			],
			"stateMutability": "view",
			"type": "function"
		},
		{
			"inputs": [],
			"name": "ItemCounter",
			"outputs": [
				{
					"internalType": "uint256",
					"name": "_value",
					"type": "uint256"
				}
			],
			"stateMutability": "view",
			"type": "function"
		},
		{
			"inputs": [],
			"name": "account",
			"outputs": [
				{
					"internalType": "address",
					"name": "",
					"type": "address"
				}
			],
			"stateMutability": "view",
			"type": "function"
		},
		{
			"inputs": [],
			"name": "amount",
			"outputs": [
				{
					"internalType": "uint256",
					"name": "",
					"type": "uint256"
				}
			],
			"stateMutability": "view",
			"type": "function"
		},
		{
			"inputs": [
				{
					"internalType": "address",
					"name": "to",
					"type": "address"
				},
				{
					"internalType": "uint256",
					"name": "tokenId",
					"type": "uint256"
				}
			],
			"name": "approve",
			"outputs": [],
			"stateMutability": "nonpayable",
			"type": "function"
		},
		{
			"inputs": [
				{
					"internalType": "address",
					"name": "owner",
					"type": "address"
				}
			],
			"name": "balanceOf",
			"outputs": [
				{
					"internalType": "uint256",
					"name": "",
					"type": "uint256"
				}
			],
			"stateMutability": "view",
			"type": "function"
		},
		{
			"inputs": [
				{
					"internalType": "address",
					"name": "",
					"type": "address"
				},
				{
					"internalType": "uint256",
					"name": "",
					"type": "uint256"
				}
			],
			"name": "benefitsIdByCustomer",
			"outputs": [
				{
					"internalType": "uint256",
					"name": "",
					"type": "uint256"
				}
			],
			"stateMutability": "view",
			"type": "function"
		},
		{
			"inputs": [
				{
					"internalType": "uint256",
					"name": "_tokenId",
					"type": "uint256"
				}
			],
			"name": "checkIn",
			"outputs": [
				{
					"internalType": "bool",
					"name": "",
					"type": "bool"
				}
			],
			"stateMutability": "nonpayable",
			"type": "function"
		},
		{
			"inputs": [],
			"name": "erc777",
			"outputs": [
				{
					"internalType": "contract ERC777",
					"name": "",
					"type": "address"
				}
			],
			"stateMutability": "view",
			"type": "function"
		},
		{
			"inputs": [
				{
					"internalType": "uint256",
					"name": "tokenId",
					"type": "uint256"
				}
			],
			"name": "getApproved",
			"outputs": [
				{
					"internalType": "address",
					"name": "",
					"type": "address"
				}
			],
			"stateMutability": "view",
			"type": "function"
		},
		{
			"inputs": [
				{
					"internalType": "address",
					"name": "_owner",
					"type": "address"
				}
			],
			"name": "getBenefitsIdsByCustomer",
			"outputs": [
				{
					"internalType": "uint256[]",
					"name": "",
					"type": "uint256[]"
				}
			],
			"stateMutability": "view",
			"type": "function"
		},
		{
			"inputs": [
				{
					"internalType": "address",
					"name": "owner",
					"type": "address"
				},
				{
					"internalType": "address",
					"name": "operator",
					"type": "address"
				}
			],
			"name": "isApprovedForAll",
			"outputs": [
				{
					"internalType": "bool",
					"name": "",
					"type": "bool"
				}
			],
			"stateMutability": "view",
			"type": "function"
		},
		{
			"inputs": [],
			"name": "isManagerOrAdmin",
			"outputs": [
				{
					"internalType": "bool",
					"name": "",
					"type": "bool"
				}
			],
			"stateMutability": "view",
			"type": "function"
		},
		{
			"inputs": [],
			"name": "maxMint",
			"outputs": [
				{
					"internalType": "uint256",
					"name": "",
					"type": "uint256"
				}
			],
			"stateMutability": "view",
			"type": "function"
		},
		{
			"inputs": [],
			"name": "name",
			"outputs": [
				{
					"internalType": "string",
					"name": "",
					"type": "string"
				}
			],
			"stateMutability": "view",
			"type": "function"
		},
		{
			"inputs": [
				{
					"internalType": "uint256",
					"name": "tokenId",
					"type": "uint256"
				}
			],
			"name": "ownerOf",
			"outputs": [
				{
					"internalType": "address",
					"name": "",
					"type": "address"
				}
			],
			"stateMutability": "view",
			"type": "function"
		},
		{
			"inputs": [],
			"name": "price",
			"outputs": [
				{
					"internalType": "uint256",
					"name": "",
					"type": "uint256"
				}
			],
			"stateMutability": "view",
			"type": "function"
		},
		{
			"inputs": [
				{
					"internalType": "address",
					"name": "_customer",
					"type": "address"
				},
				{
					"internalType": "uint256",
					"name": "_tokenId",
					"type": "uint256"
				}
			],
			"name": "redeemBenefit",
			"outputs": [
				{
					"internalType": "bool",
					"name": "",
					"type": "bool"
				}
			],
			"stateMutability": "nonpayable",
			"type": "function"
		},
		{
			"inputs": [
				{
					"internalType": "address",
					"name": "_tokenAddress",
					"type": "address"
				}
			],
			"name": "safeMint",
			"outputs": [
				{
					"internalType": "uint256",
					"name": "",
					"type": "uint256"
				}
			],
			"stateMutability": "nonpayable",
			"type": "function"
		},
		{
			"inputs": [
				{
					"internalType": "address",
					"name": "from",
					"type": "address"
				},
				{
					"internalType": "address",
					"name": "to",
					"type": "address"
				},
				{
					"internalType": "uint256",
					"name": "tokenId",
					"type": "uint256"
				}
			],
			"name": "safeTransferFrom",
			"outputs": [],
			"stateMutability": "nonpayable",
			"type": "function"
		},
		{
			"inputs": [
				{
					"internalType": "address",
					"name": "from",
					"type": "address"
				},
				{
					"internalType": "address",
					"name": "to",
					"type": "address"
				},
				{
					"internalType": "uint256",
					"name": "tokenId",
					"type": "uint256"
				},
				{
					"internalType": "bytes",
					"name": "data",
					"type": "bytes"
				}
			],
			"name": "safeTransferFrom",
			"outputs": [],
			"stateMutability": "nonpayable",
			"type": "function"
		},
		{
			"inputs": [
				{
					"internalType": "address",
					"name": "operator",
					"type": "address"
				},
				{
					"internalType": "bool",
					"name": "approved",
					"type": "bool"
				}
			],
			"name": "setApprovalForAll",
			"outputs": [],
			"stateMutability": "nonpayable",
			"type": "function"
		},
		{
			"inputs": [
				{
					"internalType": "bytes4",
					"name": "interfaceId",
					"type": "bytes4"
				}
			],
			"name": "supportsInterface",
			"outputs": [
				{
					"internalType": "bool",
					"name": "",
					"type": "bool"
				}
			],
			"stateMutability": "view",
			"type": "function"
		},
		{
			"inputs": [],
			"name": "symbol",
			"outputs": [
				{
					"internalType": "string",
					"name": "",
					"type": "string"
				}
			],
			"stateMutability": "view",
			"type": "function"
		},
		{
			"inputs": [],
			"name": "tokenIdCounter",
			"outputs": [
				{
					"internalType": "uint256",
					"name": "_value",
					"type": "uint256"
				}
			],
			"stateMutability": "view",
			"type": "function"
		},
		{
			"inputs": [
				{
					"internalType": "uint256",
					"name": "tokenId",
					"type": "uint256"
				}
			],
			"name": "tokenURI",
			"outputs": [
				{
					"internalType": "string",
					"name": "",
					"type": "string"
				}
			],
			"stateMutability": "view",
			"type": "function"
		},
		{
			"inputs": [
				{
					"internalType": "uint256",
					"name": "",
					"type": "uint256"
				}
			],
			"name": "tokens",
			"outputs": [
				{
					"internalType": "uint256",
					"name": "id",
					"type": "uint256"
				},
				{
					"internalType": "string",
					"name": "URI",
					"type": "string"
				},
				{
					"internalType": "bool",
					"name": "checkIn",
					"type": "bool"
				},
				{
					"internalType": "bool",
					"name": "redeem",
					"type": "bool"
				},
				{
					"internalType": "address",
					"name": "buyer",
					"type": "address"
				}
			],
			"stateMutability": "view",
			"type": "function"
		},
		{
			"inputs": [
				{
					"internalType": "address",
					"name": "_operator",
					"type": "address"
				},
				{
					"internalType": "address",
					"name": "_from",
					"type": "address"
				},
				{
					"internalType": "address",
					"name": "_to",
					"type": "address"
				},
				{
					"internalType": "uint256",
					"name": "_amount",
					"type": "uint256"
				},
				{
					"internalType": "bytes",
					"name": "_userData",
					"type": "bytes"
				},
				{
					"internalType": "bytes",
					"name": "_operatorData",
					"type": "bytes"
				}
			],
			"name": "tokensReceived",
			"outputs": [],
			"stateMutability": "nonpayable",
			"type": "function"
		},
		{
			"inputs": [
				{
					"internalType": "address",
					"name": "from",
					"type": "address"
				},
				{
					"internalType": "address",
					"name": "to",
					"type": "address"
				},
				{
					"internalType": "uint256",
					"name": "tokenId",
					"type": "uint256"
				}
			],
			"name": "transferFrom",
			"outputs": [],
			"stateMutability": "nonpayable",
			"type": "function"
		},
		{
			"inputs": [],
			"name": "uri",
			"outputs": [
				{
					"internalType": "string",
					"name": "",
					"type": "string"
				}
			],
			"stateMutability": "view",
			"type": "function"
		},
		{
			"inputs": [],
			"name": "withdrawTokens",
			"outputs": [],
			"stateMutability": "nonpayable",
			"type": "function"
		}
	],
	"bytecode": "0x60c060405273b3971bcef2d791bc4027bbfedfb47319a4aaaaaa601160006101000a81548173ffffffffffffffffffffffffffffffffffffffff021916908373ffffffffffffffffffffffffffffffffffffffff1602179055503480156200006657600080fd5b50604051620050a6380380620050a683398181016040528101906200008c9190620005e2565b8282828160009081620000a0919062000933565b508060019081620000b2919062000933565b505050731820a4b7618bde71dce8cdc73aab6c95905fad2473ffffffffffffffffffffffffffffffffffffffff166329965a1d307fb281fc8c12954d22544db45de3159a39272895b169a852b314f9cc762e44c53b306040518463ffffffff1660e01b8152600401620001289392919062000a46565b600060405180830381600087803b1580156200014357600080fd5b505af115801562000158573d6000803e3d6000fd5b505050508073ffffffffffffffffffffffffffffffffffffffff1660808173ffffffffffffffffffffffffffffffffffffffff16815250503373ffffffffffffffffffffffffffffffffffffffff1660a08173ffffffffffffffffffffffffffffffffffffffff168152505050620001e03360086200022860201b620018fd1790919060201c565b620001fb8760096200022860201b620018fd1790919060201c565b84600e90816200020c919062000933565b508360108190555085600f819055505050505050505062000b9e565b6200023a8282620002db60201b60201c565b156200027d576040517f08c379a0000000000000000000000000000000000000000000000000000000008152600401620002749062000ae4565b60405180910390fd5b60018260000160008373ffffffffffffffffffffffffffffffffffffffff1673ffffffffffffffffffffffffffffffffffffffff16815260200190815260200160002060006101000a81548160ff0219169083151502179055505050565b60008073ffffffffffffffffffffffffffffffffffffffff168273ffffffffffffffffffffffffffffffffffffffff16036200034e576040517f08c379a0000000000000000000000000000000000000000000000000000000008152600401620003459062000b7c565b60405180910390fd5b8260000160008373ffffffffffffffffffffffffffffffffffffffff1673ffffffffffffffffffffffffffffffffffffffff16815260200190815260200160002060009054906101000a900460ff16905092915050565b6000604051905090565b600080fd5b600080fd5b600073ffffffffffffffffffffffffffffffffffffffff82169050919050565b6000620003e682620003b9565b9050919050565b620003f881620003d9565b81146200040457600080fd5b50565b6000815190506200041881620003ed565b92915050565b6000819050919050565b62000433816200041e565b81146200043f57600080fd5b50565b600081519050620004538162000428565b92915050565b600080fd5b600080fd5b6000601f19601f8301169050919050565b7f4e487b7100000000000000000000000000000000000000000000000000000000600052604160045260246000fd5b620004ae8262000463565b810181811067ffffffffffffffff82111715620004d057620004cf62000474565b5b80604052505050565b6000620004e5620003a5565b9050620004f38282620004a3565b919050565b600067ffffffffffffffff82111562000516576200051562000474565b5b620005218262000463565b9050602081019050919050565b60005b838110156200054e57808201518184015260208101905062000531565b838111156200055e576000848401525b50505050565b60006200057b6200057584620004f8565b620004d9565b9050828152602081018484840111156200059a57620005996200045e565b5b620005a78482856200052e565b509392505050565b600082601f830112620005c757620005c662000459565b5b8151620005d984826020860162000564565b91505092915050565b600080600080600080600060e0888a031215620006045762000603620003af565b5b6000620006148a828b0162000407565b9750506020620006278a828b0162000442565b965050604088015167ffffffffffffffff8111156200064b576200064a620003b4565b5b620006598a828b01620005af565b95505060606200066c8a828b0162000442565b94505060806200067f8a828b0162000407565b93505060a088015167ffffffffffffffff811115620006a357620006a2620003b4565b5b620006b18a828b01620005af565b92505060c088015167ffffffffffffffff811115620006d557620006d4620003b4565b5b620006e38a828b01620005af565b91505092959891949750929550565b600081519050919050565b7f4e487b7100000000000000000000000000000000000000000000000000000000600052602260045260246000fd5b600060028204905060018216806200074557607f821691505b6020821081036200075b576200075a620006fd565b5b50919050565b60008190508160005260206000209050919050565b60006020601f8301049050919050565b600082821b905092915050565b600060088302620007c57fffffffffffffffffffffffffffffffffffffffffffffffffffffffffffffffff8262000786565b620007d1868362000786565b95508019841693508086168417925050509392505050565b6000819050919050565b6000620008146200080e62000808846200041e565b620007e9565b6200041e565b9050919050565b6000819050919050565b6200083083620007f3565b620008486200083f826200081b565b84845462000793565b825550505050565b600090565b6200085f62000850565b6200086c81848462000825565b505050565b5b8181101562000894576200088860008262000855565b60018101905062000872565b5050565b601f821115620008e357620008ad8162000761565b620008b88462000776565b81016020851015620008c8578190505b620008e0620008d78562000776565b83018262000871565b50505b505050565b600082821c905092915050565b60006200090860001984600802620008e8565b1980831691505092915050565b6000620009238383620008f5565b9150826002028217905092915050565b6200093e82620006f2565b67ffffffffffffffff8111156200095a576200095962000474565b5b6200096682546200072c565b6200097382828562000898565b600060209050601f831160018114620009ab576000841562000996578287015190505b620009a2858262000915565b86555062000a12565b601f198416620009bb8662000761565b60005b82811015620009e557848901518255600182019150602085019450602081019050620009be565b8683101562000a05578489015162000a01601f891682620008f5565b8355505b6001600288020188555050505b505050505050565b62000a2581620003d9565b82525050565b6000819050919050565b62000a408162000a2b565b82525050565b600060608201905062000a5d600083018662000a1a565b62000a6c602083018562000a35565b62000a7b604083018462000a1a565b949350505050565b600082825260208201905092915050565b7f526f6c65733a206163636f756e7420616c72656164792068617320726f6c6500600082015250565b600062000acc601f8362000a83565b915062000ad98262000a94565b602082019050919050565b6000602082019050818103600083015262000aff8162000abd565b9050919050565b7f526f6c65733a206163636f756e7420697320746865207a65726f20616464726560008201527f7373000000000000000000000000000000000000000000000000000000000000602082015250565b600062000b6460228362000a83565b915062000b718262000b06565b604082019050919050565b6000602082019050818103600083015262000b978162000b55565b9050919050565b60805160a0516144cd62000bd960003960008181610ff8015261115f0152600081816112320152818161136b0152611ecf01526144cd6000f3fe608060405234801561001057600080fd5b50600436106101e45760003560e01c80637501f7411161010f578063b88d4fde116100a2578063e95a644f11610071578063e95a644f146105ab578063e985e9c5146105db578063eac989f81461060b578063f958aada14610629576101e4565b8063b88d4fde14610511578063c87b56dd1461052d578063cef073cb1461055d578063d4ff13481461058d576101e4565b80639e8e4d1d116100de5780639e8e4d1d1461049b578063a035b1fe146104b9578063a22cb465146104d7578063aa8c217c146104f3576101e4565b80637501f741146104375780638d8f2adb1461045557806395d89b411461045f57806398bdf6f51461047d576101e4565b806340d097c31161018757806355cfab221161015657806355cfab22146103895780635dab2420146103b95780636352211e146103d757806370a0823114610407576101e4565b806340d097c3146102eb57806342842e0e1461031b57806348a3b4a4146103375780634f64b2be14610355576101e4565b8063081812fc116101c3578063081812fc14610253578063095ea7b3146102835780630e1443671461029f57806323b872dd146102cf576101e4565b806223de29146101e957806301ffc9a71461020557806306fdde0314610235575b600080fd5b61020360048036038101906101fe9190612c0b565b610647565b005b61021f600480360381019061021a9190612d32565b61066a565b60405161022c9190612d7a565b60405180910390f35b61023d61074c565b60405161024a9190612e2e565b60405180910390f35b61026d60048036038101906102689190612e50565b6107de565b60405161027a9190612e8c565b60405180910390f35b61029d60048036038101906102989190612ea7565b610824565b005b6102b960048036038101906102b49190612ea7565b61093b565b6040516102c69190612ef6565b60405180910390f35b6102e960048036038101906102e49190612f11565b61096c565b005b61030560048036038101906103009190612f64565b6109cc565b6040516103129190612ef6565b60405180910390f35b61033560048036038101906103309190612f11565b610e21565b005b61033f610e41565b60405161034c9190612e8c565b60405180910390f35b61036f600480360381019061036a9190612e50565b610e67565b604051610380959493929190612f91565b60405180910390f35b6103a3600480360381019061039e9190612f64565b610f5f565b6040516103b091906130a9565b60405180910390f35b6103c1610ff6565b6040516103ce9190612e8c565b60405180910390f35b6103f160048036038101906103ec9190612e50565b61101a565b6040516103fe9190612e8c565b60405180910390f35b610421600480360381019061041c9190612f64565b6110a0565b60405161042e9190612ef6565b60405180910390f35b61043f611157565b60405161044c9190612ef6565b60405180910390f35b61045d61115d565b005b6104676112cb565b6040516104749190612e2e565b60405180910390f35b61048561135d565b6040516104929190612ef6565b60405180910390f35b6104a3611369565b6040516104b0919061312a565b60405180910390f35b6104c161138d565b6040516104ce9190612ef6565b60405180910390f35b6104f160048036038101906104ec9190613171565b611393565b005b6104fb6113a9565b6040516105089190612ef6565b60405180910390f35b61052b600480360381019061052691906132e1565b6113af565b005b61054760048036038101906105429190612e50565b611411565b6040516105549190612e2e565b60405180910390f35b61057760048036038101906105729190612ea7565b611523565b6040516105849190612d7a565b60405180910390f35b6105956116bb565b6040516105a29190612d7a565b60405180910390f35b6105c560048036038101906105c09190612e50565b611709565b6040516105d29190612d7a565b60405180910390f35b6105f560048036038101906105f09190613364565b6117cf565b6040516106029190612d7a565b60405180910390f35b610613611863565b6040516106209190612e2e565b60405180910390f35b6106316118f1565b60405161063e9190612ef6565b60405180910390f35b846007600082825461065991906133d3565b925050819055505050505050505050565b60007f80ac58cd000000000000000000000000000000000000000000000000000000007bffffffffffffffffffffffffffffffffffffffffffffffffffffffff1916827bffffffffffffffffffffffffffffffffffffffffffffffffffffffff1916148061073557507f5b5e139f000000000000000000000000000000000000000000000000000000007bffffffffffffffffffffffffffffffffffffffffffffffffffffffff1916827bffffffffffffffffffffffffffffffffffffffffffffffffffffffff1916145b806107455750610744826119a5565b5b9050919050565b60606000805461075b90613458565b80601f016020809104026020016040519081016040528092919081815260200182805461078790613458565b80156107d45780601f106107a9576101008083540402835291602001916107d4565b820191906000526020600020905b8154815290600101906020018083116107b757829003601f168201915b5050505050905090565b60006107e982611a0f565b6004600083815260200190815260200160002060009054906101000a900473ffffffffffffffffffffffffffffffffffffffff169050919050565b600061082f8261101a565b90508073ffffffffffffffffffffffffffffffffffffffff168373ffffffffffffffffffffffffffffffffffffffff160361089f576040517f08c379a0000000000000000000000000000000000000000000000000000000008152600401610896906134fb565b60405180910390fd5b8073ffffffffffffffffffffffffffffffffffffffff166108be611a5a565b73ffffffffffffffffffffffffffffffffffffffff1614806108ed57506108ec816108e7611a5a565b6117cf565b5b61092c576040517f08c379a00000000000000000000000000000000000000000000000000000000081526004016109239061358d565b60405180910390fd5b6109368383611a62565b505050565b600d602052816000526040600020818154811061095757600080fd5b90600052602060002001600091509150505481565b61097d610977611a5a565b82611b1b565b6109bc576040517f08c379a00000000000000000000000000000000000000000000000000000000081526004016109b39061361f565b60405180910390fd5b6109c7838383611bb0565b505050565b6000600f546109db600b611ea9565b10610a1b576040517f08c379a0000000000000000000000000000000000000000000000000000000008152600401610a129061368b565b60405180910390fd5b6010548273ffffffffffffffffffffffffffffffffffffffff1663f38e266a336040518263ffffffff1660e01b8152600401610a579190612e8c565b602060405180830381865afa158015610a74573d6000803e3d6000fd5b505050506040513d601f19601f82011682018060405250810190610a9891906136c0565b11610ad8576040517f08c379a0000000000000000000000000000000000000000000000000000000008152600401610acf90613739565b60405180910390fd5b8173ffffffffffffffffffffffffffffffffffffffff1663e8d880c6336010546040518363ffffffff1660e01b8152600401610b15929190613759565b6020604051808303816000875af1158015610b34573d6000803e3d6000fd5b505050506040513d601f19601f82011682018060405250810190610b589190613797565b610b6157600080fd5b6000610b6d600b611ea9565b9050610b79600b611eb7565b60006040518060a00160405280838152602001600e8054610b9990613458565b80601f0160208091040260200160405190810160405280929190818152602001828054610bc590613458565b8015610c125780601f10610be757610100808354040283529160200191610c12565b820191906000526020600020905b815481529060010190602001808311610bf557829003601f168201915b505050505081526020016000151581526020016000151581526020013373ffffffffffffffffffffffffffffffffffffffff16815250905080600c6000848152602001908152602001600020600082015181600001556020820151816001019081610c7d9190613966565b5060408201518160020160006101000a81548160ff02191690831515021790555060608201518160020160016101000a81548160ff02191690831515021790555060808201518160020160026101000a81548173ffffffffffffffffffffffffffffffffffffffff021916908373ffffffffffffffffffffffffffffffffffffffff160217905550905050600d60003373ffffffffffffffffffffffffffffffffffffffff1673ffffffffffffffffffffffffffffffffffffffff168152602001908152602001600020829080600181540180825580915050600190039060005260206000200160009091909190915055610d79601054611ecd565b610d833383611f78565b610e1782600e8054610d9490613458565b80601f0160208091040260200160405190810160405280929190818152602001828054610dc090613458565b8015610e0d5780601f10610de257610100808354040283529160200191610e0d565b820191906000526020600020905b815481529060010190602001808311610df057829003601f168201915b5050505050611f96565b8192505050919050565b610e3c838383604051806020016040528060008152506113af565b505050565b601160009054906101000a900473ffffffffffffffffffffffffffffffffffffffff1681565b600c602052806000526040600020600091509050806000015490806001018054610e9090613458565b80601f0160208091040260200160405190810160405280929190818152602001828054610ebc90613458565b8015610f095780601f10610ede57610100808354040283529160200191610f09565b820191906000526020600020905b815481529060010190602001808311610eec57829003601f168201915b5050505050908060020160009054906101000a900460ff16908060020160019054906101000a900460ff16908060020160029054906101000a900473ffffffffffffffffffffffffffffffffffffffff16905085565b6060600d60008373ffffffffffffffffffffffffffffffffffffffff1673ffffffffffffffffffffffffffffffffffffffff168152602001908152602001600020805480602002602001604051908101604052809291908181526020018280548015610fea57602002820191906000526020600020905b815481526020019060010190808311610fd6575b50505050509050919050565b7f000000000000000000000000000000000000000000000000000000000000000081565b60008061102683612003565b9050600073ffffffffffffffffffffffffffffffffffffffff168173ffffffffffffffffffffffffffffffffffffffff1603611097576040517f08c379a000000000000000000000000000000000000000000000000000000000815260040161108e90613a84565b60405180910390fd5b80915050919050565b60008073ffffffffffffffffffffffffffffffffffffffff168273ffffffffffffffffffffffffffffffffffffffff1603611110576040517f08c379a000000000000000000000000000000000000000000000000000000000815260040161110790613b16565b60405180910390fd5b600360008373ffffffffffffffffffffffffffffffffffffffff1673ffffffffffffffffffffffffffffffffffffffff168152602001908152602001600020549050919050565b600f5481565b7f000000000000000000000000000000000000000000000000000000000000000073ffffffffffffffffffffffffffffffffffffffff163373ffffffffffffffffffffffffffffffffffffffff16146111eb576040517f08c379a00000000000000000000000000000000000000000000000000000000081526004016111e290613ba8565b60405180910390fd5b600060075411611230576040517f08c379a000000000000000000000000000000000000000000000000000000000815260040161122790613c14565b60405180910390fd5b7f000000000000000000000000000000000000000000000000000000000000000073ffffffffffffffffffffffffffffffffffffffff166362ad1b8330336007546040518463ffffffff1660e01b815260040161128f93929190613c6b565b600060405180830381600087803b1580156112a957600080fd5b505af11580156112bd573d6000803e3d6000fd5b505050506000600781905550565b6060600180546112da90613458565b80601f016020809104026020016040519081016040528092919081815260200182805461130690613458565b80156113535780601f1061132857610100808354040283529160200191611353565b820191906000526020600020905b81548152906001019060200180831161133657829003601f168201915b5050505050905090565b600b8060000154905081565b7f000000000000000000000000000000000000000000000000000000000000000081565b60105481565b6113a561139e611a5a565b8383612040565b5050565b60075481565b6113c06113ba611a5a565b83611b1b565b6113ff576040517f08c379a00000000000000000000000000000000000000000000000000000000081526004016113f69061361f565b60405180910390fd5b61140b848484846121ac565b50505050565b606061141c82611a0f565b600060066000848152602001908152602001600020805461143c90613458565b80601f016020809104026020016040519081016040528092919081815260200182805461146890613458565b80156114b55780601f1061148a576101008083540402835291602001916114b5565b820191906000526020600020905b81548152906001019060200180831161149857829003601f168201915b5050505050905060006114c6612208565b905060008151036114db57819250505061151e565b6000825111156115105780826040516020016114f8929190613d04565b6040516020818303038152906040529250505061151e565b6115198461221f565b925050505b919050565b600061153933600961228790919063ffffffff16565b80611554575061155333600861228790919063ffffffff16565b5b611593576040517f08c379a000000000000000000000000000000000000000000000000000000000815260040161158a90613d74565b60405180910390fd5b8273ffffffffffffffffffffffffffffffffffffffff166115b38361101a565b73ffffffffffffffffffffffffffffffffffffffff1614611609576040517f08c379a000000000000000000000000000000000000000000000000000000000815260040161160090613de0565b60405180910390fd5b600c600083815260200190815260200160002060020160009054906101000a900460ff1661166c576040517f08c379a000000000000000000000000000000000000000000000000000000000815260040161166390613e4c565b60405180910390fd5b6000600c6000848152602001908152602001600020905060018160020160016101000a81548160ff0219169083151502179055508060020160019054906101000a900460ff1691505092915050565b60006116d133600961228790919063ffffffff16565b156116df5760019050611706565b6116f333600861228790919063ffffffff16565b156117015760019050611706565b600090505b90565b60003373ffffffffffffffffffffffffffffffffffffffff1661172b8361101a565b73ffffffffffffffffffffffffffffffffffffffff1614611781576040517f08c379a000000000000000000000000000000000000000000000000000000000815260040161177890613eb8565b60405180910390fd5b6000600c6000848152602001908152602001600020905060018160020160006101000a81548160ff0219169083151502179055508060020160009054906101000a900460ff16915050919050565b6000600560008473ffffffffffffffffffffffffffffffffffffffff1673ffffffffffffffffffffffffffffffffffffffff16815260200190815260200160002060008373ffffffffffffffffffffffffffffffffffffffff1673ffffffffffffffffffffffffffffffffffffffff16815260200190815260200160002060009054906101000a900460ff16905092915050565b600e805461187090613458565b80601f016020809104026020016040519081016040528092919081815260200182805461189c90613458565b80156118e95780601f106118be576101008083540402835291602001916118e9565b820191906000526020600020905b8154815290600101906020018083116118cc57829003601f168201915b505050505081565b600a8060000154905081565b6119078282612287565b15611947576040517f08c379a000000000000000000000000000000000000000000000000000000000815260040161193e90613f24565b60405180910390fd5b60018260000160008373ffffffffffffffffffffffffffffffffffffffff1673ffffffffffffffffffffffffffffffffffffffff16815260200190815260200160002060006101000a81548160ff0219169083151502179055505050565b60007f01ffc9a7000000000000000000000000000000000000000000000000000000007bffffffffffffffffffffffffffffffffffffffffffffffffffffffff1916827bffffffffffffffffffffffffffffffffffffffffffffffffffffffff1916149050919050565b611a188161234e565b611a57576040517f08c379a0000000000000000000000000000000000000000000000000000000008152600401611a4e90613a84565b60405180910390fd5b50565b600033905090565b816004600083815260200190815260200160002060006101000a81548173ffffffffffffffffffffffffffffffffffffffff021916908373ffffffffffffffffffffffffffffffffffffffff160217905550808273ffffffffffffffffffffffffffffffffffffffff16611ad58361101a565b73ffffffffffffffffffffffffffffffffffffffff167f8c5be1e5ebec7d5bd14f71427d1e84f3dd0314c0f7b2291e5b200ac8c7c3b92560405160405180910390a45050565b600080611b278361101a565b90508073ffffffffffffffffffffffffffffffffffffffff168473ffffffffffffffffffffffffffffffffffffffff161480611b695750611b6881856117cf565b5b80611ba757508373ffffffffffffffffffffffffffffffffffffffff16611b8f846107de565b73ffffffffffffffffffffffffffffffffffffffff16145b91505092915050565b8273ffffffffffffffffffffffffffffffffffffffff16611bd08261101a565b73ffffffffffffffffffffffffffffffffffffffff1614611c26576040517f08c379a0000000000000000000000000000000000000000000000000000000008152600401611c1d90613fb6565b60405180910390fd5b600073ffffffffffffffffffffffffffffffffffffffff168273ffffffffffffffffffffffffffffffffffffffff1603611c95576040517f08c379a0000000000000000000000000000000000000000000000000000000008152600401611c8c90614048565b60405180910390fd5b611ca2838383600161238f565b8273ffffffffffffffffffffffffffffffffffffffff16611cc28261101a565b73ffffffffffffffffffffffffffffffffffffffff1614611d18576040517f08c379a0000000000000000000000000000000000000000000000000000000008152600401611d0f90613fb6565b60405180910390fd5b6004600082815260200190815260200160002060006101000a81549073ffffffffffffffffffffffffffffffffffffffff02191690556001600360008573ffffffffffffffffffffffffffffffffffffffff1673ffffffffffffffffffffffffffffffffffffffff168152602001908152602001600020600082825403925050819055506001600360008473ffffffffffffffffffffffffffffffffffffffff1673ffffffffffffffffffffffffffffffffffffffff16815260200190815260200160002060008282540192505081905550816002600083815260200190815260200160002060006101000a81548173ffffffffffffffffffffffffffffffffffffffff021916908373ffffffffffffffffffffffffffffffffffffffff160217905550808273ffffffffffffffffffffffffffffffffffffffff168473ffffffffffffffffffffffffffffffffffffffff167fddf252ad1be2c89b69c2b068fc378daa952ba7f163c4a11628f55a4df523b3ef60405160405180910390a4611ea483838360016124b5565b505050565b600081600001549050919050565b6001816000016000828254019250508190555050565b7f000000000000000000000000000000000000000000000000000000000000000073ffffffffffffffffffffffffffffffffffffffff166362ad1b833330846040518463ffffffff1660e01b8152600401611f2a93929190613c6b565b600060405180830381600087803b158015611f4457600080fd5b505af1158015611f58573d6000803e3d6000fd5b505050508060076000828254611f6e91906133d3565b9250508190555050565b611f928282604051806020016040528060008152506124bb565b5050565b611f9f8261234e565b611fde576040517f08c379a0000000000000000000000000000000000000000000000000000000008152600401611fd5906140da565b60405180910390fd5b80600660008481526020019081526020016000209081611ffe9190613966565b505050565b60006002600083815260200190815260200160002060009054906101000a900473ffffffffffffffffffffffffffffffffffffffff169050919050565b8173ffffffffffffffffffffffffffffffffffffffff168373ffffffffffffffffffffffffffffffffffffffff16036120ae576040517f08c379a00000000000000000000000000000000000000000000000000000000081526004016120a590614146565b60405180910390fd5b80600560008573ffffffffffffffffffffffffffffffffffffffff1673ffffffffffffffffffffffffffffffffffffffff16815260200190815260200160002060008473ffffffffffffffffffffffffffffffffffffffff1673ffffffffffffffffffffffffffffffffffffffff16815260200190815260200160002060006101000a81548160ff0219169083151502179055508173ffffffffffffffffffffffffffffffffffffffff168373ffffffffffffffffffffffffffffffffffffffff167f17307eab39ab6107e8899845ad3d59bd9653f200f220920489ca2b5937696c318360405161219f9190612d7a565b60405180910390a3505050565b6121b7848484611bb0565b6121c384848484612516565b612202576040517f08c379a00000000000000000000000000000000000000000000000000000000081526004016121f9906141d8565b60405180910390fd5b50505050565b606060405180602001604052806000815250905090565b606061222a82611a0f565b6000612234612208565b90506000815111612254576040518060200160405280600081525061227f565b8061225e8461269d565b60405160200161226f929190613d04565b6040516020818303038152906040525b915050919050565b60008073ffffffffffffffffffffffffffffffffffffffff168273ffffffffffffffffffffffffffffffffffffffff16036122f7576040517f08c379a00000000000000000000000000000000000000000000000000000000081526004016122ee9061426a565b60405180910390fd5b8260000160008373ffffffffffffffffffffffffffffffffffffffff1673ffffffffffffffffffffffffffffffffffffffff16815260200190815260200160002060009054906101000a900460ff16905092915050565b60008073ffffffffffffffffffffffffffffffffffffffff1661237083612003565b73ffffffffffffffffffffffffffffffffffffffff1614159050919050565b60018111156124af57600073ffffffffffffffffffffffffffffffffffffffff168473ffffffffffffffffffffffffffffffffffffffff16146124235780600360008673ffffffffffffffffffffffffffffffffffffffff1673ffffffffffffffffffffffffffffffffffffffff168152602001908152602001600020600082825461241b919061428a565b925050819055505b600073ffffffffffffffffffffffffffffffffffffffff168373ffffffffffffffffffffffffffffffffffffffff16146124ae5780600360008573ffffffffffffffffffffffffffffffffffffffff1673ffffffffffffffffffffffffffffffffffffffff16815260200190815260200160002060008282546124a691906133d3565b925050819055505b5b50505050565b50505050565b6124c5838361276b565b6124d26000848484612516565b612511576040517f08c379a0000000000000000000000000000000000000000000000000000000008152600401612508906141d8565b60405180910390fd5b505050565b60006125378473ffffffffffffffffffffffffffffffffffffffff16612988565b15612690578373ffffffffffffffffffffffffffffffffffffffff1663150b7a02612560611a5a565b8786866040518563ffffffff1660e01b81526004016125829493929190614302565b6020604051808303816000875af19250505080156125be57506040513d601f19601f820116820180604052508101906125bb9190614363565b60015b612640573d80600081146125ee576040519150601f19603f3d011682016040523d82523d6000602084013e6125f3565b606091505b506000815103612638576040517f08c379a000000000000000000000000000000000000000000000000000000000815260040161262f906141d8565b60405180910390fd5b805181602001fd5b63150b7a0260e01b7bffffffffffffffffffffffffffffffffffffffffffffffffffffffff1916817bffffffffffffffffffffffffffffffffffffffffffffffffffffffff191614915050612695565b600190505b949350505050565b6060600060016126ac846129ab565b01905060008167ffffffffffffffff8111156126cb576126ca6131b6565b5b6040519080825280601f01601f1916602001820160405280156126fd5781602001600182028036833780820191505090505b509050600082602001820190505b600115612760578080600190039150507f3031323334353637383961626364656600000000000000000000000000000000600a86061a8153600a858161275457612753614390565b5b0494506000850361270b575b819350505050919050565b600073ffffffffffffffffffffffffffffffffffffffff168273ffffffffffffffffffffffffffffffffffffffff16036127da576040517f08c379a00000000000000000000000000000000000000000000000000000000081526004016127d19061440b565b60405180910390fd5b6127e38161234e565b15612823576040517f08c379a000000000000000000000000000000000000000000000000000000000815260040161281a90614477565b60405180910390fd5b61283160008383600161238f565b61283a8161234e565b1561287a576040517f08c379a000000000000000000000000000000000000000000000000000000000815260040161287190614477565b60405180910390fd5b6001600360008473ffffffffffffffffffffffffffffffffffffffff1673ffffffffffffffffffffffffffffffffffffffff16815260200190815260200160002060008282540192505081905550816002600083815260200190815260200160002060006101000a81548173ffffffffffffffffffffffffffffffffffffffff021916908373ffffffffffffffffffffffffffffffffffffffff160217905550808273ffffffffffffffffffffffffffffffffffffffff16600073ffffffffffffffffffffffffffffffffffffffff167fddf252ad1be2c89b69c2b068fc378daa952ba7f163c4a11628f55a4df523b3ef60405160405180910390a46129846000838360016124b5565b5050565b6000808273ffffffffffffffffffffffffffffffffffffffff163b119050919050565b600080600090507a184f03e93ff9f4daa797ed6e38ed64bf6a1f0100000000000000008310612a09577a184f03e93ff9f4daa797ed6e38ed64bf6a1f01000000000000000083816129ff576129fe614390565b5b0492506040810190505b6d04ee2d6d415b85acef81000000008310612a46576d04ee2d6d415b85acef81000000008381612a3c57612a3b614390565b5b0492506020810190505b662386f26fc100008310612a7557662386f26fc100008381612a6b57612a6a614390565b5b0492506010810190505b6305f5e1008310612a9e576305f5e1008381612a9457612a93614390565b5b0492506008810190505b6127108310612ac3576127108381612ab957612ab8614390565b5b0492506004810190505b60648310612ae65760648381612adc57612adb614390565b5b0492506002810190505b600a8310612af5576001810190505b80915050919050565b6000604051905090565b600080fd5b600080fd5b600073ffffffffffffffffffffffffffffffffffffffff82169050919050565b6000612b3d82612b12565b9050919050565b612b4d81612b32565b8114612b5857600080fd5b50565b600081359050612b6a81612b44565b92915050565b6000819050919050565b612b8381612b70565b8114612b8e57600080fd5b50565b600081359050612ba081612b7a565b92915050565b600080fd5b600080fd5b600080fd5b60008083601f840112612bcb57612bca612ba6565b5b8235905067ffffffffffffffff811115612be857612be7612bab565b5b602083019150836001820283011115612c0457612c03612bb0565b5b9250929050565b60008060008060008060008060c0898b031215612c2b57612c2a612b08565b5b6000612c398b828c01612b5b565b9850506020612c4a8b828c01612b5b565b9750506040612c5b8b828c01612b5b565b9650506060612c6c8b828c01612b91565b955050608089013567ffffffffffffffff811115612c8d57612c8c612b0d565b5b612c998b828c01612bb5565b945094505060a089013567ffffffffffffffff811115612cbc57612cbb612b0d565b5b612cc88b828c01612bb5565b92509250509295985092959890939650565b60007fffffffff0000000000000000000000000000000000000000000000000000000082169050919050565b612d0f81612cda565b8114612d1a57600080fd5b50565b600081359050612d2c81612d06565b92915050565b600060208284031215612d4857612d47612b08565b5b6000612d5684828501612d1d565b91505092915050565b60008115159050919050565b612d7481612d5f565b82525050565b6000602082019050612d8f6000830184612d6b565b92915050565b600081519050919050565b600082825260208201905092915050565b60005b83811015612dcf578082015181840152602081019050612db4565b83811115612dde576000848401525b50505050565b6000601f19601f8301169050919050565b6000612e0082612d95565b612e0a8185612da0565b9350612e1a818560208601612db1565b612e2381612de4565b840191505092915050565b60006020820190508181036000830152612e488184612df5565b905092915050565b600060208284031215612e6657612e65612b08565b5b6000612e7484828501612b91565b91505092915050565b612e8681612b32565b82525050565b6000602082019050612ea16000830184612e7d565b92915050565b60008060408385031215612ebe57612ebd612b08565b5b6000612ecc85828601612b5b565b9250506020612edd85828601612b91565b9150509250929050565b612ef081612b70565b82525050565b6000602082019050612f0b6000830184612ee7565b92915050565b600080600060608486031215612f2a57612f29612b08565b5b6000612f3886828701612b5b565b9350506020612f4986828701612b5b565b9250506040612f5a86828701612b91565b9150509250925092565b600060208284031215612f7a57612f79612b08565b5b6000612f8884828501612b5b565b91505092915050565b600060a082019050612fa66000830188612ee7565b8181036020830152612fb88187612df5565b9050612fc76040830186612d6b565b612fd46060830185612d6b565b612fe16080830184612e7d565b9695505050505050565b600081519050919050565b600082825260208201905092915050565b6000819050602082019050919050565b61302081612b70565b82525050565b60006130328383613017565b60208301905092915050565b6000602082019050919050565b600061305682612feb565b6130608185612ff6565b935061306b83613007565b8060005b8381101561309c5781516130838882613026565b975061308e8361303e565b92505060018101905061306f565b5085935050505092915050565b600060208201905081810360008301526130c3818461304b565b905092915050565b6000819050919050565b60006130f06130eb6130e684612b12565b6130cb565b612b12565b9050919050565b6000613102826130d5565b9050919050565b6000613114826130f7565b9050919050565b61312481613109565b82525050565b600060208201905061313f600083018461311b565b92915050565b61314e81612d5f565b811461315957600080fd5b50565b60008135905061316b81613145565b92915050565b6000806040838503121561318857613187612b08565b5b600061319685828601612b5b565b92505060206131a78582860161315c565b9150509250929050565b600080fd5b7f4e487b7100000000000000000000000000000000000000000000000000000000600052604160045260246000fd5b6131ee82612de4565b810181811067ffffffffffffffff8211171561320d5761320c6131b6565b5b80604052505050565b6000613220612afe565b905061322c82826131e5565b919050565b600067ffffffffffffffff82111561324c5761324b6131b6565b5b61325582612de4565b9050602081019050919050565b82818337600083830152505050565b600061328461327f84613231565b613216565b9050828152602081018484840111156132a05761329f6131b1565b5b6132ab848285613262565b509392505050565b600082601f8301126132c8576132c7612ba6565b5b81356132d8848260208601613271565b91505092915050565b600080600080608085870312156132fb576132fa612b08565b5b600061330987828801612b5b565b945050602061331a87828801612b5b565b935050604061332b87828801612b91565b925050606085013567ffffffffffffffff81111561334c5761334b612b0d565b5b613358878288016132b3565b91505092959194509250565b6000806040838503121561337b5761337a612b08565b5b600061338985828601612b5b565b925050602061339a85828601612b5b565b9150509250929050565b7f4e487b7100000000000000000000000000000000000000000000000000000000600052601160045260246000fd5b60006133de82612b70565b91506133e983612b70565b9250827fffffffffffffffffffffffffffffffffffffffffffffffffffffffffffffffff0382111561341e5761341d6133a4565b5b828201905092915050565b7f4e487b7100000000000000000000000000000000000000000000000000000000600052602260045260246000fd5b6000600282049050600182168061347057607f821691505b60208210810361348357613482613429565b5b50919050565b7f4552433732313a20617070726f76616c20746f2063757272656e74206f776e6560008201527f7200000000000000000000000000000000000000000000000000000000000000602082015250565b60006134e5602183612da0565b91506134f082613489565b604082019050919050565b60006020820190508181036000830152613514816134d8565b9050919050565b7f4552433732313a20617070726f76652063616c6c6572206973206e6f7420746f60008201527f6b656e206f776e6572206f7220617070726f76656420666f7220616c6c000000602082015250565b6000613577603d83612da0565b91506135828261351b565b604082019050919050565b600060208201905081810360008301526135a68161356a565b9050919050565b7f4552433732313a2063616c6c6572206973206e6f7420746f6b656e206f776e6560008201527f72206f7220617070726f76656400000000000000000000000000000000000000602082015250565b6000613609602d83612da0565b9150613614826135ad565b604082019050919050565b60006020820190508181036000830152613638816135fc565b9050919050565b7f4d696e74206c696d697420636f6d706c65746564000000000000000000000000600082015250565b6000613675601483612da0565b91506136808261363f565b602082019050919050565b600060208201905081810360008301526136a481613668565b9050919050565b6000815190506136ba81612b7a565b92915050565b6000602082840312156136d6576136d5612b08565b5b60006136e4848285016136ab565b91505092915050565b7f496e73756666696369656e7420746f6b656e7300000000000000000000000000600082015250565b6000613723601383612da0565b915061372e826136ed565b602082019050919050565b6000602082019050818103600083015261375281613716565b9050919050565b600060408201905061376e6000830185612e7d565b61377b6020830184612ee7565b9392505050565b60008151905061379181613145565b92915050565b6000602082840312156137ad576137ac612b08565b5b60006137bb84828501613782565b91505092915050565b60008190508160005260206000209050919050565b60006020601f8301049050919050565b600082821b905092915050565b6000600883026138267fffffffffffffffffffffffffffffffffffffffffffffffffffffffffffffffff826137e9565b61383086836137e9565b95508019841693508086168417925050509392505050565b600061386361385e61385984612b70565b6130cb565b612b70565b9050919050565b6000819050919050565b61387d83613848565b6138916138898261386a565b8484546137f6565b825550505050565b600090565b6138a6613899565b6138b1818484613874565b505050565b5b818110156138d5576138ca60008261389e565b6001810190506138b7565b5050565b601f82111561391a576138eb816137c4565b6138f4846137d9565b81016020851015613903578190505b61391761390f856137d9565b8301826138b6565b50505b505050565b600082821c905092915050565b600061393d6000198460080261391f565b1980831691505092915050565b6000613956838361392c565b9150826002028217905092915050565b61396f82612d95565b67ffffffffffffffff811115613988576139876131b6565b5b6139928254613458565b61399d8282856138d9565b600060209050601f8311600181146139d057600084156139be578287015190505b6139c8858261394a565b865550613a30565b601f1984166139de866137c4565b60005b82811015613a06578489015182556001820191506020850194506020810190506139e1565b86831015613a235784890151613a1f601f89168261392c565b8355505b6001600288020188555050505b505050505050565b7f4552433732313a20696e76616c696420746f6b656e2049440000000000000000600082015250565b6000613a6e601883612da0565b9150613a7982613a38565b602082019050919050565b60006020820190508181036000830152613a9d81613a61565b9050919050565b7f4552433732313a2061646472657373207a65726f206973206e6f74206120766160008201527f6c6964206f776e65720000000000000000000000000000000000000000000000602082015250565b6000613b00602983612da0565b9150613b0b82613aa4565b604082019050919050565b60006020820190508181036000830152613b2f81613af3565b9050919050565b7f4d61726b6574506c616365436f6e74726163743a2063616c6c6572206973206e60008201527f6f7420746865206f776e65720000000000000000000000000000000000000000602082015250565b6000613b92602c83612da0565b9150613b9d82613b36565b604082019050919050565b60006020820190508181036000830152613bc181613b85565b9050919050565b7f546865726520646f6e277420626520746f6b656e730000000000000000000000600082015250565b6000613bfe601583612da0565b9150613c0982613bc8565b602082019050919050565b60006020820190508181036000830152613c2d81613bf1565b9050919050565b600082825260208201905092915050565b50565b6000613c55600083613c34565b9150613c6082613c45565b600082019050919050565b600060a082019050613c806000830186612e7d565b613c8d6020830185612e7d565b613c9a6040830184612ee7565b8181036060830152613cab81613c48565b90508181036080830152613cbe81613c48565b9050949350505050565b600081905092915050565b6000613cde82612d95565b613ce88185613cc8565b9350613cf8818560208601612db1565b80840191505092915050565b6000613d108285613cd3565b9150613d1c8284613cd3565b91508190509392505050565b7f444f45535f4e4f545f484156455f4d494e5445525f524f4c4500000000000000600082015250565b6000613d5e601983612da0565b9150613d6982613d28565b602082019050919050565b60006020820190508181036000830152613d8d81613d51565b9050919050565b7f5468697320746f6b656e20646f65736e277420796f7572000000000000000000600082015250565b6000613dca601783612da0565b9150613dd582613d94565b602082019050919050565b60006020820190508181036000830152613df981613dbd565b9050919050565b7f596f75206e65656420746f20646f20636865636b2d696e000000000000000000600082015250565b6000613e36601783612da0565b9150613e4182613e00565b602082019050919050565b60006020820190508181036000830152613e6581613e29565b9050919050565b7f596f7520617265206e6f7420746865206f776e6572206f6620746865204e4654600082015250565b6000613ea2602083612da0565b9150613ead82613e6c565b602082019050919050565b60006020820190508181036000830152613ed181613e95565b9050919050565b7f526f6c65733a206163636f756e7420616c72656164792068617320726f6c6500600082015250565b6000613f0e601f83612da0565b9150613f1982613ed8565b602082019050919050565b60006020820190508181036000830152613f3d81613f01565b9050919050565b7f4552433732313a207472616e736665722066726f6d20696e636f72726563742060008201527f6f776e6572000000000000000000000000000000000000000000000000000000602082015250565b6000613fa0602583612da0565b9150613fab82613f44565b604082019050919050565b60006020820190508181036000830152613fcf81613f93565b9050919050565b7f4552433732313a207472616e7366657220746f20746865207a65726f2061646460008201527f7265737300000000000000000000000000000000000000000000000000000000602082015250565b6000614032602483612da0565b915061403d82613fd6565b604082019050919050565b6000602082019050818103600083015261406181614025565b9050919050565b7f45524337323155524953746f726167653a2055524920736574206f66206e6f6e60008201527f6578697374656e7420746f6b656e000000000000000000000000000000000000602082015250565b60006140c4602e83612da0565b91506140cf82614068565b604082019050919050565b600060208201905081810360008301526140f3816140b7565b9050919050565b7f4552433732313a20617070726f766520746f2063616c6c657200000000000000600082015250565b6000614130601983612da0565b915061413b826140fa565b602082019050919050565b6000602082019050818103600083015261415f81614123565b9050919050565b7f4552433732313a207472616e7366657220746f206e6f6e20455243373231526560008201527f63656976657220696d706c656d656e7465720000000000000000000000000000602082015250565b60006141c2603283612da0565b91506141cd82614166565b604082019050919050565b600060208201905081810360008301526141f1816141b5565b9050919050565b7f526f6c65733a206163636f756e7420697320746865207a65726f20616464726560008201527f7373000000000000000000000000000000000000000000000000000000000000602082015250565b6000614254602283612da0565b915061425f826141f8565b604082019050919050565b6000602082019050818103600083015261428381614247565b9050919050565b600061429582612b70565b91506142a083612b70565b9250828210156142b3576142b26133a4565b5b828203905092915050565b600081519050919050565b60006142d4826142be565b6142de8185613c34565b93506142ee818560208601612db1565b6142f781612de4565b840191505092915050565b60006080820190506143176000830187612e7d565b6143246020830186612e7d565b6143316040830185612ee7565b818103606083015261434381846142c9565b905095945050505050565b60008151905061435d81612d06565b92915050565b60006020828403121561437957614378612b08565b5b60006143878482850161434e565b91505092915050565b7f4e487b7100000000000000000000000000000000000000000000000000000000600052601260045260246000fd5b7f4552433732313a206d696e7420746f20746865207a65726f2061646472657373600082015250565b60006143f5602083612da0565b9150614400826143bf565b602082019050919050565b60006020820190508181036000830152614424816143e8565b9050919050565b7f4552433732313a20746f6b656e20616c7265616479206d696e74656400000000600082015250565b6000614461601c83612da0565b915061446c8261442b565b602082019050919050565b6000602082019050818103600083015261449081614454565b905091905056fea26469706673582212209641ce5cd22056e889c30163ac7f3769b7e12317d72a1b3fc2ddee8e65a607d164736f6c634300080f0033",
	"linkReferences": {},
	"deployedLinkReferences": {}
}